:020000040800F2
:10000000E00600202D07000811070008130700086C
:10001000170700081B0700081F0700080000000062
:10002000000000000000000000000000230700089E
:10003000250700080000000027070008290700081E
:10004000470700084707000847070008D31C0008B7
:100050004707000847070008470700084707000848
:100060004707000847070008470700084707000838
:100070004707000847070008470700084707000828
:100080004707000847070008470700084707000818
:100090004707000847070008470700084707000808
:1000A00047070008470700084707000847070008F8
:1000B00047070008470700084707000847070008E8
:1000C00047070008470700084707000847070008D8
:1000D00047070008470700084707000847070008C8
:1000E000470700089F1D000847070008470700084A
:1000F00047070008470700084707000847070008A8
:100100004707000847070008470700084707000897
:100110004707000847070008470700084707000887
:100120004707000847070008470700084707000877
:100130004707000847070008470700084707000867
:100140004707000847070008470700084707000857
:100150004707000847070008470700084707000847
:100160004707000847070008470700084707000837
:100170004707000847070008470700084707000827
:10018000470700084707000800F002F800F03CF8B5
:100190000AA090E8000C82448344AAF10107DA45E2
:1001A00001D100F031F8AFF2090EBAE80F0013F0F8
:1001B000010F18BFFB1A43F00103184788580000CD
:1001C000A8580000103A24BF78C878C1FAD852075E
:1001D00024BF30C830C144BF04680C6070470000C1
:1001E0000023002400250026103A28BF78C1FBD840
:1001F000520728BF30C148BF0B6070471FB503F0DE
:10020000F0FF1FBD10B510BD03F0B5FF1146FFF79D
:10021000F5FF00F038F903F0D3FF03B4FFF7F2FF66
:1002200003BC03F0D7FF00001CB5F0A31022DC21B3
:100230001E2001F0C7FB01201021CDE90010EF487E
:10024000C2780223DC21562001F03FFB012010215F
:10025000CDE90010E94842780223DC216E2001F04C
:1002600034FB01201021CDE90010E44882780223FC
:10027000DC21862001F029FBE1A31022F0211E20C1
:1002800001F0A0FB01201021CDE90010E048027828
:100290000223F021462001F018FB01201021CDE9B6
:1002A0000010DB4842780223F0215E2001F00DFBB4
:1002B00001201021CDE90010D54882780223F021D9
:1002C000762001F002FBD3A310224FF482711E208E
:1002D00001F078FBC9480078401ED24951F820301F
:1002E00010224FF48271462001F06CFB1CBD7CB5DE
:1002F00005460C46322094FBF0F100FB1140B8B9E2
:100300004FF6FF701F21C8A31822CDE90010B921B4
:10031000142001F077FB4FF6FF701F21CDE900108C
:10032000C74850F825301822B921982001F06AFBFF
:10033000C4480078012803D0C248007802285FD161
:10034000C048007801282BD1062D28D2DFE805F01F
:1003500003090F151B21A948C078401CA749C87084
:100360001DE0A6484078401CA449487017E0A34807
:100370008078401CA149887011E0A5480078401C95
:10038000A34908700BE0A2484078401CA04948707F
:1003900005E09F488078401C9D49887000BF00BFE1
:1003A000A848007802282BD1062D28D2DFE805F0D6
:1003B00003090F151B219148C078401E8F49C87052
:1003C0001DE08E484078401E8C49487017E08B48ED
:1003D0008078401E8949887011E08D480078401E61
:1003E0008B4908700BE08A484078401E8849487065
:1003F00005E087488078401E8549887000BF00BFAF
:10040000962C01D1FFF710FF062D3AD2DFE805F058
:10041000030C151E2730312C05D18BA31022DC21B3
:10042000562001F0CFFA2CE0312C05D186A3102202
:10043000DC216E2001F0C6FA23E0312C05D182A325
:100440001022DC21862001F0BDFA1AE0312C05D102
:100450007DA31022F021462001F0B4FA11E0312CE6
:1004600005D179A31022F0215E2001F0ABFA08E05B
:10047000312C05D174A31022F021762001F0A2FACC
:1004800000BF00BF7CBD1CB5002700254FF4A06055
:1004900001F022FD03F0EFFD01F0E8FA00F029FE83
:1004A00001F096FC01F0F4FB4FF4784067490880B6
:1004B00067A318220A21084601F084FA69A31022D2
:1004C00028210A2001F07EFA6AA3182246211E2064
:1004D00001F078FA6AA3102264211E2001F072FA5A
:1004E0006DA3102278211E2001F06CFA70A3102257
:1004F0008C211E2001F066FA73A31022A0211E2079
:1005000001F060FA002001F04FFBFFF78DFE6CE078
:10051000002001F073FC681CC5B217B1012F60D137
:1005200015E06E480078042805D16D480088FA2847
:1005300001DD012755E0322095FBF0F100FB115061
:1005400020B9002001F030FBFFF76EFE49E03D4886
:100550000078032804D1601CC4B2052C00DD0024FF
:1005600029462046FFF7C3FE36480078042837D1D5
:10057000FFF75AFE2648807825494978DFF890C071
:10058000CDE900109CF80030DFF870C09CF8022024
:100590009CF801109CF8030001F0D3FA002001F050
:1005A00003FBFFF741FE4FF6FF701F214DA31822FA
:1005B000CDE90010B921142001F024FA002604E04E
:1005C0000A2003F0B5FD701CC6B2642EF8DB4AA306
:1005D0001822B921142001F0F5F90024002700E0C9
:1005E00000BF00BF052003F0A3FD91E744617465DF
:1005F0003A323020202D20202D2020005E000020C7
:1006000054696D653A20203A20203A2020000000ED
:100610005A0000205765656B3A20202020202020BA
:100620002000000000000020506C656173652053BD
:1006300065742020202020202020202000000000A1
:100640001C00002066000020202000004800002040
:10065000496C6C756D696E6174692053544D333209
:1006600046340000417574686F723A436C65766574
:100670007200000031342E5254432054455354002C
:100680004B455933204C6F6E67203A41646A75734D
:10069000742074696D650000202020202053686F4D
:1006A00072743A41646A757374204F4B0000000005
:1006B0004B4559303A20562B2B20204B4559313A87
:1006C00020562D2D000000004B4559323A2052692A
:1006D000676874204D6F7665000000006A00002096
:1006E0006800002041646A757374204F4B202020FD
:1006F000202020202020200020202020202020201A
:100700002020202020202020202020200000000069
:10071000704700BFFEE700BFFEE700BFFEE700BF77
:10072000FEE77047704770477047000009488047F0
:1007300009480047FEE7FEE7FEE7FEE7FEE7FEE7C3
:10074000FEE7FEE7FEE7FEE704480549054A064BDB
:10075000704700004908000889010008E0000020F7
:10076000E0060020E0020020E00200200CB500209E
:10077000019000907648006840F480307449086029
:1007800000BF7348006800F4003000900198401CDE
:100790000190009818B90198B0F5A04FF1D16C48BC
:1007A000006800F4003010B10120009001E000204A
:1007B00000900098012846D165484030006840F01C
:1007C00080506349403108606248006840F440400E
:1007D000604908605E48083000685D49083108607B
:1007E0000846006840F4004008600846006840F48D
:1007F000A05008605848091F0860081F006840F0B2
:100800008070091F086000BF5148006800F0007048
:100810000028F9D040F20570504908604C48083073
:10082000006820F003004A49083108600846006863
:1008300040F00200086000BF45480830006800F042
:100840000C000828F8D10CBD10B54548006840F4EC
:100850007000434908603E48006840F001003C4990
:10086000086000203A4908310860394800683D496D
:100870000840374908603C48091D0860081F0068A7
:1008800020F48020091F0860002031490C310860E5
:10089000FFF76CFF4FF0006031498039086010BDF0
:1008A00070B500200022022300240221284D0835C3
:1008B0002D6805F00C0020B1042806D0082834D19A
:1008C00007E02A4D2A4E356033E02A4D284E356028
:1008D0002FE01F4D2D1D2D68C5F380541C4D2D1D7F
:1008E0002D6805F03F0154B1224DB5FBF1F5184ECE
:1008F000361D3668C6F3881605FB06F209E01B4D67
:10090000B5FBF1F5124E361D3668C6F3881605FBA9
:1009100006F20F4D2D1D2D68C5F301456D1C6B00B2
:10092000B2FBF3F5124E356003E0104D104E35600A
:1009300000BF00BF064D08352D68C5F303150E4EE8
:10094000705D0B4D2D68C540094E356070BD0000CF
:10095000003802400070004008544007003C02404C
:1009600088ED00E0FFFFF6FE103000240024F400C4
:100970003400002000127A0038000020F64A10806F
:10098000921C1180704710B50446F348048005207E
:1009900003F086FBF048801C008810BDEF480088FB
:1009A000ED490880704700BF0100A0F10102D0B2FC
:1009B000FAD1704730B5014601F01F04C1F3451369
:1009C000CA0AE50205EB43151544A8B230BD10B5BF
:1009D00003460C46E248008849F24131884212D170
:1009E000E0480088DC4908801812891C0880D8B2C9
:1009F0000880DD480088891E08802012891C088034
:100A0000E0B2088012E0D9480078012804D1D84823
:100A10000088401EC01A83B21946D2480088FFF7EA
:100A2000ADFF2146D0480088FFF7A8FF10BD3EB5B6
:100A300004460D460020029001900090CC480088AA
:100A4000844203DACB480088854201DB00203EBDAA
:100A500029462046FFF7BBFFC148008849F24131D3
:100A6000884203D12E20BC49088002E02220BA49E6
:100A70000880B948801C008808B10020029002203C
:100A8000FFF791FFB448801C00880290B4480088AA
:100A900049F24131884211D10220FFF784FFAE486C
:100AA000801C00880090BDF80800C0B20190BDF81D
:100AB00004004FF6FF7101EA00200190A848008869
:100AC00049F22531884202D1BDF80800BFE7A448A9
:100AD000008849F2413188420DD1BDF80800C012AA
:100AE000C002BDF80410891240EA4110BDF80010A0
:100AF00040EAE120ABE7BDF80800FFF75BFFA6E79F
:100B000000B59748008849F24131884203D1292035
:100B10009149088004E040F273110720FFF72EFF8F
:100B200000BD00B58E48008849F24131884203D1AA
:100B300028208949088003E000210720FFF71EFFD5
:100B400000BD70B5044600230026884800780128BF
:100B500018D1082C15D2DFE804F00406080A0C0EA0
:100B6000101206240DE007240BE0042409E00524FC
:100B700007E0012405E0002403E0032401E002244F
:100B800000BF00BF7648008849F2413188425ED1FB
:100B9000082C1CD2DFE804F00406090C0F1215180B
:100BA00000BF14E043F0800311E043F040030EE087
:100BB00043F0C0030BE043F0200308E043F0600380
:100BC00005E043F0A00302E043F0E00300BF00BFF4
:100BD000362643F0080319463046FFF7CFFE03F0F0
:100BE000200068B16248008862490988884207DAB3
:100BF0005F4805885F4800885D4908805D4805803A
:100C000058480088544908800020891C08800880C2
:100C100057480088401EC0F30F20088054480078D1
:100C2000401EC0B2088050480088891E08800020FD
:100C3000891C088008804F480088401EC0F30F20A0
:100C400008804C480078401EC0B2088026E0082C7E
:100C50001CD2DFE804F004070A0D15180F1243F048
:100C6000300313E043F0100310E043F020030DE0E5
:100C700000BF0BE043F0180308E043F0080305E071
:100C800043F0380302E043F0280300BF00BF03260F
:100C900043F4805319463046FFF770FE70BD10B51F
:100CA00004461CBB002031490870F0203049088000
:100CB0004FF4A0702F4908802948008849F241313B
:100CC000884209D12C20254908802A2025490880FE
:100CD0002B20254908802CE0222020490880202054
:100CE0002049088021202049088022E001201F4956
:100CF00008704FF4A0701E490880F0201D4908803C
:100D00001748008849F24131884209D12C20134903
:100D100008802A20134908802B201349088008E006
:100D200022200E49088021200E49088020200E49EB
:100D300008800020FFF705FF10BD30B504460D46C2
:100D400029462046FFF743FEFFF728FE0A480088A1
:100D50000149891C088030BDFE1F006C5400002032
:100D60004C00002056000020580000204E000020BB
:100D700050000020520000204800002030B50346FB
:100D80000C461546FE48008849F24131884212D18E
:100D9000FC480088FC4908801812891C0880D8B2D9
:100DA0000880FA480088891E08802012891C088063
:100DB000E0B2088012E0F6480078012804D1F54836
:100DC0000088401EC01A83B21946EE480088FFF71B
:100DD000D5FD2146ED480088FFF7D0FDEE4800889C
:100DE000E9490880881C058030BD2DE9FF4F044685
:100DF0000D4616461F46A019401E86B2E819401E31
:100E000087B2DF48008849F2413188421AD1DD4873
:100E10000088DD4908802012891C0880E0B2088023
:100E200030120880F0B20880D8480088891E0880F7
:100E30002812891C0880E8B2088038120880F8B2AD
:100E4000088032E0D248007801280ED1A846B94681
:100E5000D0480088801B401E1FFA80FACD480088C9
:100E6000001B401E1FFA80FB03E0A046B146AA46C5
:100E7000BB465020039051200290522001905320F5
:100E8000009041460398FFF779FD49460298FFF725
:100E900075FD51460198FFF771FD59460098FFF71F
:100EA0006DFD29462046FFF792FDBDE8FF8F00B596
:100EB0009FB00121782001F087FE0121084601F052
:100EC000BBFE4FF480601D9001208DF8780000205B
:100ED0008DF87A0002208DF8790001208DF87B00D2
:100EE0001DA9AE4801F0D2FB4CF233701D900220D8
:100EF0008DF8780000208DF87A0003208DF87900B5
:100F000001208DF87B001DA9A54801F0BFFB4FF61D
:100F100080701D9002208DF8780000208DF87A00F6
:100F200003208DF8790001208DF87B001DA99D48D4
:100F300001F0ACFB04201D9002208DF87800002009
:100F40008DF87A0003208DF8790001208DF87B0060
:100F50001DA9954801F09AFB4FF480501D90022086
:100F60008DF8780000208DF87A0003208DF8790044
:100F700001208DF87B001DA98B4801F087FB0C2216
:100F80000021874801F00DFC0C220121844801F06A
:100F900008FC0C220421824801F003FC0C220521EC
:100FA0007F4801F0FEFB0C2208217D4801F0F9FB8F
:100FB0000C2209217A4801F0F4FB0C220A2178481E
:100FC00001F0EFFB0C220E21754801F0EAFB0C2228
:100FD0000F21734801F0E5FB0C220721714801F055
:100FE000E0FB0C2208216F4801F0DBFB0C220921F9
:100FF0006C4801F0D6FB0C220A216A4801F0D1FBB3
:101000000C220B21674801F0CCFB0C2211466548ED
:1010100001F0C7FB0C220D21624801F0C2FB0C223B
:101020000E21604801F0BDFB0C220F215D4801F04C
:10103000B8FB0C2202215C4801F0B3FB0C221146E4
:10104000594801F0AEFB0F200790002008903C208B
:10105000099000200A900B900C900D9009200090B0
:101060000020019008200290002003900490059039
:10107000069006200E9000200F90109010201190E6
:101080000020129014901390159016904FF48050F9
:101090001790002018904FF48040199000201A906B
:1010A00007A81B90CDF870D00EA800F0A0FF01217A
:1010B000062001F027F8322003F03AF81FB000BDF7
:1010C00070B5044600250026324800883749098853
:1010D00000FB01F600210846FFF779FCFFF75EFCF4
:1010E00000BF03E02848801C04806D1CB542F9D382
:1010F00070BD08B500200090FFF7D9FE0121002047
:10110000FFF73CFC322003F013F80020FFF73BFC14
:101110001B49088008460088FF280ADB084600882B
:101120004FF6FF71884204D015480088B0F5134F80
:101130001DD1D32014490880881C008810490880DC
:101140001148801C008808800F48801C0088088097
:10115000084600884FF6FF7101EA00200849088020
:101160000948801C0088098808430549088004480C
:10117000008849F24131884237D10D48006819E0B2
:101180004C00002056000020FE1F006C580000207C
:101190004E000020500000205400002000140240A7
:1011A000000C0240001002400018024052000020D3
:1011B0001C0100A020F00F004FF02041C1F81C01DD
:1011C0000846D0F81C0120F47060C1F81C010846E4
:1011D000D0F81C0140F00300C1F81C010846D0F80B
:1011E0001C0140F40070C1F81C01FE48008849F25F
:1011F000283188427ED141F28F01EC20FFF7BEFBFF
:1012000041F23421EF20FFF7B9FB4FF48071012048
:10121000FFF7B4FB4FF4E0610220FFF7AFFB41F2B0
:1012200030010320FFF7AAFB00210420FFF7A6FBF3
:1012300040F202210820FFF7A1FB00210920FFF75F
:101240009DFB00210A20FFF799FB01210C20FFF7ED
:1012500095FB00210D20FFF791FB00210F20FFF7E8
:101260008DFB00211020FFF789FB07211120FFF7DC
:1012700085FB00211220FFF781FB00211320FFF7DF
:101280007DFB01210720FFF779FB322002F050FFA0
:1012900041F290411020FFF771FB40F2272111200D
:1012A000FFF76CFB322002F043FF8A211220FFF788
:1012B00065FB322002F03CFF4FF4D0511320FFF7C2
:1012C0005DFB06212920FFF759FB0D212B20FFF79D
:1012D00055FB322002F02CFF00212020FFF74EFBAF
:1012E00000212120FFF74AFB322002F021FF0021DC
:1012F000302000E074E0FFF741FB40F20461312050
:10130000FFF73CFB40F205313220FFF737FB0021AD
:101310003520FFF733FB40F609413620FFF72EFB5F
:101320004FF401713720FFF729FB40F201313820DB
:10133000FFF724FB40F207713920FFF71FFB002164
:101340003C20FFF71BFB40F60A213D20FFF716FB70
:10135000322002F0EDFE00215020FFF70FFBEF21BD
:101360005120FFF70BFB00215220FFF707FB40F253
:101370003F115320FFF702FB4FF427416020FFF796
:10138000FDFA01216120FFF7F9FA00216A20FFF739
:10139000F5FA00218020FFF7F1FA00218120FFF704
:1013A000EDFA00218220FFF7E9FA00218320FFF700
:1013B000E5FA00218420FFF7E1FA00218520FFF7FC
:1013C000DDFA10219020FFF7D9FA4FF4C061922086
:1013D000FFF7D4FA40F233110720FFF7CFFAC2E14A
:1013E0008048008849F2253188427DD147F6F001D6
:1013F000E520FFF7C3FA4FF480710120FFF7BEFA32
:101400004FF4E0610220FFF7B9FA41F23001032006
:10141000FFF7B4FA00210420FFF7B0FA40F20221EE
:101420000820FFF7ABFA00210920FFF7A7FA0021F7
:101430000A20FFF7A3FA00210C20FFF79FFA0021F2
:101440000D20FFF79BFA00210F20FFF797FA0021EC
:101450001020FFF793FA07211120FFF78FFA0021E0
:101460001220FFF78BFA00211320FFF787FA0021E3
:101470000720FFF783FA41F290611020FFF77EFA10
:1014800040F227211120FFF779FA9D211220FFF762
:1014900075FA4FF4C8511320FFF770FA252129205F
:1014A000FFF76CFA0D212B20FFF768FA0721302097
:1014B000FFF764FA40F203313120FFF75FFA0321AE
:1014C0003220FFF75BFA40F206213520FFF756FA8B
:1014D00008213620FFF752FA40F206413720FFF785
:1014E0004DFA4FF4417100E058E03820FFF746FA1A
:1014F00007213920FFF742FA40F202613C20FFF752
:101500003DFA08213D20FFF739FA00215020FFF76E
:1015100035FAEF215120FFF731FA00215220FFF771
:101520002DFA40F23F115320FFF728FA4FF42741DC
:101530006020FFF723FA01216120FFF71FFA002145
:101540006A20FFF71BFA00218020FFF717FA00211D
:101550008120FFF713FA00218220FFF70FFA002104
:101560008320FFF70BFA00218420FFF707FA002100
:101570008520FFF703FA10219020FFF7FFF94FF4C1
:10158000C0619220FFF7FAF940F233110720FFF70C
:10159000F5F922210020FFF7F1F9E4E01148008875
:1015A00049F241318842F8D1CF200F49088000200C
:1015B000891C0880C120088030200880ED20891E09
:1015C00008806420891C088003200880122008807D
:1015D00081200880E820891E08808520891C0880D9
:1015E000102003E04C000020FE1F006C08807A20D1
:1015F0000880CB20891E08803920891C08802C2077
:101600000880002008803420088002200880F7200D
:10161000891E08802020891C0880EA20891E0880F5
:101620000020891C08800880C020891E08801B209B
:10163000891C0880C120891E08800120891C08801F
:10164000C520891E08803020891C08800880C7209A
:10165000891E0880B720891C08803620891E0880D2
:101660004820891C08803A20891E08805520891C42
:101670000880B120891E08800020891C08801A205B
:101680000880B620891E08800A20891C0880A220B4
:101690000880F220891E08800020891C08802620EE
:1016A000891E08800120891C0880E020891E08808E
:1016B0000F20891C08802A20088028200880082004
:1016C00008800E2008800820088054200880A92067
:1016D0000880432008800A2008800F20088000200E
:1016E0000880088008800880E120891E088000208A
:1016F000891C088015200880172008800720088092
:1017000011200880062008802B20088056200880A1
:101710003C20088005200880102008800F200880C9
:101720003F20088008800F2008802B20891E088019
:101730000020891C08800880012008803F20088044
:101740002A20891E08800020891C088008800880C3
:10175000EF2008801120891E0880782002F0E8FC24
:101760002920B94908800020FFF799FA0120B749DC
:1017700008604FF6FF70FFF7A3FC08BD2DE9F04F9E
:1017800005460E4617469846DDF824A04FF0000B9C
:10179000781B401C1FFA80FB344614E02146284683
:1017A000FFF715F9FFF7FAF84FF0000907E0A64830
:1017B000801CA0F800A009F101001FFA80F9D945AA
:1017C000F5DB601C84B24445E8DDBDE8F08F2DE90F
:1017D000F84F81460E4617461C4600960C2C01D148
:1017E00098460AE0102C01D1A04606E0182C02D140
:1017F0004FF0240801E0BDE8F88FA7F12000C7B240
:10180000002553E00C2C07D107EB4700904901EB72
:10181000800010F805A012E0102C05D18D4800EBD7
:10182000071010F805A00AE0182C07D107EBC70035
:10183000894901EB800010F805A000E0DBE74FF0DC
:10184000000B2DE00AF0800030B184480288314658
:101850004846FFF793FA05E081480288314648463A
:10186000FFF78CFA4FEA4A604FEA106A701C86B2A2
:101870007C480088864200DBBDE70098301AA04211
:101880000AD1009E09F101001FFA80F9764800880C
:10189000814500DBAFE706E00BF1010000F0FF0B34
:1018A000BBF1080FCEDB00BF681CC5B24545A9DB04
:1018B00000BFA0E710B50246012000E050430B0036
:1018C000A1F10104E1B2F9D110BD2DE9FF4F81B0C2
:1018D000064691461F46DDE90E4A0020009000258D
:1018E00044E0781B401EC1B20A20FFF7E3FFB9FBBA
:1018F000F0F00A21B0FBF1F201FB1208009820BBC6
:10190000781EA84221DDB8F1000F1CD1BAF1000FFA
:101910000CD0A34604EBDB71491001FB056188B2D2
:10192000234630220299FFF752FF0BE0A34604EB57
:10193000DB71491001FB056188B223462022029920
:10194000FFF745FF10E001200090A34604EBDB7198
:10195000491001FB056188B208F13001CAB2234683
:101960000299FFF734FF00BF681CC5B2BD42B8DB67
:1019700005B0BDE8F08F2DE9FF4F82B004460D465B
:101980001646DDE91189109F3448B0F800A03448AC
:10199000B0F800B03148A0F800803148A0F80090BD
:1019A0000F98CDE90007324629462046059BFFF7F0
:1019B0008CFF2A48A0F800A02948A0F800B006B083
:1019C000BDE8F08FF0B506460F4615461C4611E0FF
:1019D00022782B4639463046FFF7F9FE284605EBBC
:1019E000D07106EB61018EB21F480088864200DB91
:1019F00006E0641C20787E2802DC20782028E7DAC4
:101A000000BFF0BD2DE9F04F04460D4616461F46B7
:101A1000DDE909891148B0F800A01148B0F800B01C
:101A20000E48A0F800800E48A0F800903B463246D1
:101A300029462046FFF7C6FF0848A0F800A008483E
:101A4000A0F800B0BDE8F08FFE1F006CA8824242F3
:101A5000EC41000860460008504C00084800002097
:101A60004A00002052000020500000201CB5012137
:101A7000512001F0A9F81820009001208DF80400F1
:101A800000208DF8060003208DF8050001208DF858
:101A9000070069460E4800F0F9FD18210C4800F0D7
:101AA00071FE4FF40070009069460A4800F0EEFDA8
:101AB0004FF40071074800F065FE0220009069466F
:101AC000054800F0E3FD0221034800F05BFE1CBD69
:101AD000001002400018024000000240F0B5044629
:101AE0000B46154604F16400C1B20846CE1701EB5F
:101AF000967601EBA602072092FBF0F600FB16207B
:101B000082B25619581EAD4F385C304482B2CE179F
:101B100001EB9676B610A1EB86061EB9032B01DA0F
:101B2000501E82B2072092FBF0F600FB162008B987
:101B30000720F0BD072092FBF0F600FB1620C0B294
:101B4000F7E72DE9FC4705460E4617461C46DDE93A
:101B50000A898DF806708DF805603A4631462846A8
:101B6000FFF7BCFF8DF804008DF807508DF800409A
:101B70008DF801808DF802900C2C03DD40208DF84B
:101B8000030002E000208DF8030001A9002001F00D
:101B90006FFB38B16946002001F0CCFA10B101208A
:101BA000BDE8FC870020FBE710B5044684492046C9
:101BB00001F0C4FB8349204601F026FB10BD10B59F
:101BC00086B00024012000F09CFE0AE0601C84B274
:101BD000052002F0ADFAB4F5FA7F02DB012006B071
:101BE00010BD412000F046FE0028EFD04FF4807079
:101BF00000F088FF012000F0A0FF7F200490FF206C
:101C000005900020039003A801F0F9F91E2002219D
:101C10000D230246CDE9001008211120FFF791FFA6
:101C20000020DCE77CB505460C46002001F0E5FC11
:101C3000284601F0BDFC204601F0CFFC4FF4804067
:101C400001F0B6FF4FF4800002F0FBF80121880399
:101C500001F042FF012001F0D0FC4FF48000009021
:101C600000208DF8040008208DF8050001208DF873
:101C70000600684602F074F80320534908700220F9
:101C8000487088700120C870084600F02AF97CBDB1
:101C900010B500240121080700F0DFFF012001F04A
:101CA000A6FF002001F0A2FE45F2555188420AD05D
:101CB000FFF785FF0446012C00D110BD45F25551B8
:101CC000002001F086FE00210420FFF7ABFF00207A
:101CD000F3E710B54FF4806001F02DFF01280AD121
:101CE000800201F039FF3948006808B9012000E09E
:101CF0000020364908604FF4800002F0A2F810BDC1
:101D0000F0B587B004460D4616461F4600214FF435
:101D1000807001F0EDFB8DF800508DF801608DF8BA
:101D2000027000208DF803008DF810404FF08040C5
:101D30000390002002900098019001AA4FF4807156
:101D4000002001F01EFB4FF4805001F031FF4FF4F2
:101D5000003002F076F80121080301F0BDFE0121F8
:101D6000080201F0C5FB4FF40030059000208DF80B
:101D7000180008208DF8190001208DF81A0005A818
:101D800001F0EEFF29201049087002204870887089
:101D90000120C870084600F0A4F807B0F0BD10B5E7
:101DA0004FF4807001F0C7FE012802D1000201F05B
:101DB000D3FE4FF4003002F044F810BDAC590008D7
:101DC0005E0000205A000020620000208C02424287
:101DD0001CB50121202000F0F7FE4FF47070009038
:101DE00000208DF8040003208DF8050001208DF8F7
:101DF00007006946314800F049FC1CBD0021304A0B
:101E000011703049096861B12E49091F096841B153
:101E10002C490839096821B12A490C390968002977
:101E20003CD12849096819B90121274A117016E0E7
:101E30002449091F096819B90221234A11700EE0CB
:101E400020490839096819B903211F4A117006E0B1
:101E50001C490C39096811B904211B4A11701A492F
:101E600009781A4A1278914210D119490988491CF7
:101E7000174A118014490978164A1170E8B91449B3
:101E80000988012919DD0021117016E00021104A8E
:101E900011800D4909780D4A11700EE00C4909882E
:101EA000022903DD08490978054A11700021074A13
:101EB0001170074A1180074A1170704700140240E0
:101EC00067000020248242426A0000206B0000204C
:101ED000680000206600002032490143324A116048
:101EE000704770B5002100230F22C4781CB32E4C1C
:101EF000246804F4E064C4F5E064C4F30721C1F18C
:101F00000404E3B20A4144789C40E1B2847814406E
:101F100021430C07210E254C05786155047804F007
:101F20001F050124AC4005786D11AD0005F1E025D9
:101F3000C5F8004109E0047804F01F050124AC4015
:101F40001B4D0678761145F8264070BD194A0A40A7
:101F50000243154B1B1F1A60704739B1124A121DFC
:101F600012680243104B1B1D1A6006E00E4A121D38
:101F7000126882430C4B1B1D1A607047042808D15D
:101F80004FF0E021096941F004014FF0E0221161B6
:101F900007E04FF0E021096921F004014FF0E02251
:101FA000116170470000FA050CED00E000E400E06C
:101FB00080E100E080FFFF1F30B943F2DB028100C7
:101FC000A1F1C0410A6005E043F2D2028100A1F113
:101FD000C0410A606FF07042411C8900A1F1C0410C
:101FE0000A608100A1F1C041C1F804217047D0E925
:101FF00001121143C268114302691143426911433E
:1020000082691143C2691143026A1143426A114352
:10201000826A1143C26A1143026B11430268920043
:10202000A2F1C0421160816808290BD101688900C2
:10203000A1F1C041096841F0400201688900A1F1A5
:10204000C0410A60416B0968426B526841EA021163
:10205000426B926841EA0221426B928941EA024155
:10206000426B128A41EA0251426B127D41EA0261DF
:10207000426B926911430268521C9200A2F1C04265
:102080001160C16AB1F5804F1BD1816B0968826B09
:10209000526841EA0211826B926841EA0221826B26
:1020A000128A41EA0251826B127D41EA0261826B1F
:1020B0009269114302689200A2F1C042C2F8041171
:1020C00007E06FF0704201688900A1F1C041C1F8DA
:1020D00004217047002101600221416000218160DC
:1020E000C160016141618161C16101624FF4805150
:1020F0004162490081620021C1620163F849416384
:102100008163704751B18200A2F1C042126842F06F
:1021100001038200A2F1C042136009E08200A2F133
:10212000C0421268EF4B1A408300A3F1C0431A600B
:10213000704710280AD118214FF020421166402123
:1021400051664FF0FC319166D16610E01821E64AE5
:10215000116040214FF02042C2F884104FF0FC3152
:10216000E14A083211604FF02042C2F88C107047EB
:1021700030B5002100220023446844F0080485683B
:102180002C43C5682C4305692C43456944EA452422
:10219000856944EA4531C4692468C5696D6844EAC3
:1021A0000524C5692D8944EA0544C5692D7B44EAA7
:1021B0000562046A2468056A6D6844EA0524056AB4
:1021C0002D8944EA0544056A2D7B44EA05630468C9
:1021D000102C05D14FF020442166A266E36608E08A
:1021E000C14C21604FF02044C4F88820BE4C0C3410
:1021F000236030BD10210160002141608160C16019
:10220000016141618161FC21C2691160C269516053
:10221000C2699160C269D160026A1160026A51604C
:10222000026A9160026AD160704799B1102808D1A2
:102230004FF02042126E42F004024FF020431A6623
:102240001DE0A94A126842F004024FF02043C3F88F
:10225000802014E0102809D14FF02042126EA14BCB
:10226000DB1E1A404FF020431A6608E09E4A1268AF
:102270009C4BDB1E1A404FF02043C3F88020704770
:1022800099B1102808D14FF02042126E42F040025E
:102290004FF020431A661DE0934A126842F0400254
:1022A0004FF02043C3F8802014E0102809D14FF0EC
:1022B0002042126E8B4B3F3B1A404FF020431A6670
:1022C00008E0894A1268874B3F3B1A404FF0204391
:1022D000C3F88020704701460020102903D14FF039
:1022E0002042506F02E0804A143210687047182074
:1022F0007D492031086000200906C1F8A4004FF094
:10230000FC30794928310860091D0860091D086002
:102310007047016841F01001426841EA4221826839
:1023200041EA4231704A20321160C1680968C268CE
:10233000526841EA0221C268128941EA0241C26838
:10234000127B41EA0261684A28321160016909681A
:102350000269526841EA02210269128941EA024196
:102360000269127B41EA02615F4A2C3211604169C5
:1023700009684269526841EA02214269128941EAC8
:1023800002414269127B41EA02614FF02042C2F8E9
:10239000B01070470021016041608160FC21C2687B
:1023A0001160C2685160C2689160C268D160026900
:1023B000116002695160026991600269D1604269ED
:1023C000116042695160426991604269D160704711
:1023D00048B145492031096841F004014FF02042DD
:1023E000C2F8A01009E04049203109683D4AD21ED8
:1023F00011404FF02042C2F8A010704710B5F2B162
:10240000102807D14FF020435B6E0B434FF0204460
:10241000636632E0B0F5807F08D1334B1B1D1B682B
:102420000B434FF02044C4F8843026E02E4B243375
:102430001B680B434FF02044C4F8A4301DE0102863
:1024400007D14FF020435B6E8B434FF0204463660F
:1024500013E0B0F5807F08D1234B1B1D1B688B4315
:102460004FF02044C4F8843007E01F4B24331B682E
:102470008B434FF02044C4F8A43010BD10B5024681
:1024800000200023102A03D14FF02044636E09E09E
:10249000B2F5807F03D1144C241D236802E0124C56
:1024A0002434236803EA01040CB1012000E0002079
:1024B00010BD102807D14FF02042526E8A434FF0D2
:1024C00020435A6619E0B0F5807F0FD1064A121DED
:1024D00012688A434FF02043C3F884200DE00000C7
:1024E000B8590008FEFF0F00800000A0234A1268C0
:1024F0008A434FF02043C3F8A420704770B50246CA
:102500000020002300240025102A03D14FF020468C
:10251000736E08E0B2F5807F03D1184E203E336819
:1025200001E0164E336803EA010403EAD10514B151
:102530000DB1012000E0002070BD102808D14FF03F
:102540002042526E22EAD1024FF020435A6614E034
:10255000B0F5807F09D1094A203A126822EAD102F7
:102560004FF02043C3F8842007E0044A126822EAAF
:10257000D1024FF02043C3F8A4207047A40000A06C
:1025800010B504469848844208D10121084600F05D
:1025900086FB0021012000F082FB76E09348844214
:1025A00008D10121022000F07AFB0021022000F076
:1025B00076FB6AE08E48844208D10121042000F0B5
:1025C0006EFB0021042000F06AFB5EE08948844233
:1025D00008D10121082000F062FB0021082000F052
:1025E0005EFB52E08448844208D10121102000F0B3
:1025F00056FB0021102000F052FB46E07F48844249
:1026000008D10121202000F04AFB0021202000F009
:1026100046FB3AE07A48844208D10121402000F08C
:102620003EFB0021402000F03AFB2EE0754884423A
:1026300008D10121802000F032FB0021802000F031
:102640002EFB22E07048844208D10121801500F061
:1026500026FB0021A01500F022FB16E06B48844207
:1026600008D10121401500F01AFB0021601500F08F
:1026700016FB0AE06648844207D10121001500F0EC
:102680000EFB0021201500F00AFB10BDF0B50A4634
:1026900000210023002400BF3DE0012505FA01F3DD
:1026A000156805EA03049C4234D105684F000326EF
:1026B000BE40B543056015794E00B5400668354308
:1026C00005601579012D02D01579022D16D1856886
:1026D0004F000326BE40B543856055794E00B54096
:1026E000866835438560456801268E40B543456060
:1026F000456896798E40B6B235434560C5684F004F
:102700000326BE40B543C560D5794E00B540C668C6
:102710003543C560491C1029BFD3F0BD4FF6FF718A
:1027200001600021017141718171C171704708B56B
:102730004FF480320092009A0A430092009AC261DC
:10274000C161009AC261C2690092C269009208BD6B
:102750000246002013690B400BB1012000E000206D
:1027600070470146086980B27047024600205369ED
:102770000B400BB1012000E0002070470146486982
:1027800080B2704701837047418370470AB101836B
:1027900000E0418370474161704742694A404261AD
:1027A0007047F0B5002300244D07ED0E02FA05F343
:1027B000CE1000F1200555F826504E07F70E0F26D3
:1027C000BE40B543CF1000F1200646F82750CE108A
:1027D00000F1200555F8265045EA0304CE1000F11B
:1027E000200545F82640F0BD0000024000040240EC
:1027F00000080240000C0240001002400014024099
:1028000000180240001C0240002002400024024048
:1028100000280240F948006840F00100F7490860CC
:102820000020F64908310860F4480068F44908407F
:10283000F2490860F348091D0860F348EF49843104
:102840000860F0481038091D0860EC48006820F462
:102850008020EA4908600020E8490C310860E74917
:102860008C31086070470021E44A921C11701146B7
:102870000870704710B501460022002300204A115D
:10288000012A02D1DD4C236808E0022A03D1DB4C87
:102890007034236802E0D94C7434236801F01F02BD
:1028A000012494401C400CB1012000E0002010BD28
:1028B00038B5002000900024002500BF3120FFF72C
:1028C000D9FF05460098401C00900098B0F5A04F35
:1028D00001D0002DF2D03120FFF7CCFF08B1012448
:1028E00000E00024204638BD01460020C34A10689D
:1028F00020F0F80040EAC10010607047C34908604A
:1029000070470021BD4A703211701170012802D049
:1029100004280AD104E00121B84A7032117005E0A0
:102920000521B64A7032117000E000BF00BF704749
:10293000B7490860704770B5049C41EA82150126CA
:10294000C6EB530645EA0645054345EA0465AB4E2A
:10295000361D356070BDAD4908667047820142EA98
:102960000172A64B84331A607047A8498866704785
:1029700010B5830143EA016343EA02739F4C883434
:10298000236010BDA14908677047A049C86470471B
:1029900002460020994B0833186820F0EC6042EAA8
:1029A00001031843954B0833186070470246002016
:1029B000924B0833186820F0784042EA010318432C
:1029C0008E4B083318607047014600208B4A08324E
:1029D000106820F0030008431060704787480830F3
:1029E000006800F00C00704701460020834A08325E
:1029F000106820F0F0000843106070470146002086
:102A00007E4A0832106820F4E05008431060704796
:102A100001460020794A0832106820F4604040EAFC
:102A2000C10010607047F0B500210022002402258B
:102A300000260223714F08373F6807F00C0121B1CF
:102A4000042905D0082937D105E0724F076036E028
:102A5000714F076033E0694F3F1D3F68C7F38056F1
:102A6000664F3F1D3F6807F03F036EB16A4FB7FBEB
:102A7000F3F7DFF888C10CF1040CDCF800C0CCF3EC
:102A8000881C07FB0CF40CE0624FB7FBF3F7DFF890
:102A90006CC10CF1040CDCF800C0CCF3881C07FB03
:102AA0000CF4564F3F1D3F68C7F301477F1C7D0064
:102AB000B4FBF5F7076002E0564F076000BF00BFA8
:102AC0004E4F08373F6807F0F0010909534F7A5C11
:102AD0000768D7404760494F08373F6807F4E0511F
:102AE000890A4E4F7A5C4768D7408760434F083762
:102AF0003F6807F46041490B484F7A5C4768D7400C
:102B0000C760F0BD002100F44072B2F5407F0AD1E9
:102B10003A4A0832116821F4F811414A024011433F
:102B2000364A08321160354A70321268C0F30B031E
:102B30001A43324B70331A60704735494439086084
:102B4000704733494039086070473649086070471C
:102B500001460020294A8C32106820F01F004A1ECE
:102B60001043264A8C321060704701460020234AE9
:102B70008C32106820F4F8504A1E40EA02201F4AA6
:102B80008C3210607047014600201C4A8C3210685D
:102B900020F4401008431060704701460020174A97
:102BA0008C32106820F440000843106070470146E2
:102BB0000020124A8C32106820F440300843106024
:102BC000704719490860704739B10C4A30321268B1
:102BD00002430A4B30331A6006E0084A303212686A
:102BE0008243064B30331A607047F9B1034A3432DE
:102BF00012680243014B34331A601CE00038024073
:102C0000FFFFF6EA103000240030002000004742A9
:102C1000800E47420024F40000127A006C0000206D
:102C2000FFFCFF0F5C014742E01147428F4A1268E8
:102C300082438E4B1A60704739B18C4A121D12685C
:102C400002438A4B1B1D1A6006E0884A121D126857
:102C50008243864B1B1D1A60704739B1834A0C3280
:102C600012680243814B0C331A6006E07F4A0C3233
:102C7000126882437D4B0C331A60704739B17B4A2E
:102C8000103212680243794B10331A6006E0774A1B
:102C9000103212688243754B10331A60704739B195
:102CA000724A243A12680243704B243B1A6006E0D1
:102CB0006E4A243A126882436C4B243B1A60704778
:102CC00039B16A4A203A12680243684B203B1A60C5
:102CD00006E0664A203A12688243644B203B1A6041
:102CE000704739B1614A1C3A126802435F4B1C3B82
:102CF0001A6006E05D4A1C3A126882435B4B1C3B3B
:102D00001A60704739B1594A143A12680243574B56
:102D1000143B1A6006E0554A143A12688243534B3A
:102D2000143B1A60704739B1504A103A1268024396
:102D30004E4B103B1A6006E04C4A103A1268824330
:102D40004A4B103B1A60704739B1484A1C3212682E
:102D50000243464B1C331A6006E0444A1C32126898
:102D60008243424B1C331A60704739B13F4A2032CC
:102D7000126802433D4B20331A6006E03B4A203282
:102D800012688243394B20331A60704739B1374A91
:102D9000243212680243354B24331A6006E0334A6A
:102DA000243212688243314B24331A60704739B1A0
:102DB0002E4A2C32126802432C4B2C331A6006E048
:102DC0002A4A2C3212688243284B2C331A607047EF
:102DD00039B1264A303212680243244B30331A602C
:102DE00006E0224A303212688243204B30331A60A8
:102DF0007047012808D11D493C31096841F008019C
:102E00001A4A3C32116007E018493C31096821F048
:102E10000801164A3C321160704739B1134A273A0B
:102E200012780243114B273B1A7006E00F4A273AEB
:102E3000127882430D4B273B1A7070470B48403085
:102E4000006840F0807009494031086070470146D1
:102E50000020064A283A12680A400AB1012000E020
:102E60000020704701492639087070473438024005
:102E700008B50022009200200021CA22F94B1A60F6
:102E800053221A60F74A183A126822F0A002F54B52
:102E9000183B1A6000BFF34A183A126802F020018A
:102EA000009A521C0092009AB2F5003F01D000290E
:102EB000F1D0EC4A183A126802F020020AB101205F
:102EC00000E00020FF22E74B1A6008BD08B5002291
:102ED000009200200021E34A183A126802F04002F2
:102EE000E2B9421EDF4B183B1A6000BFDD4A183AB8
:102EF000126802F04001009A521C0092009AB2F54A
:102F0000803F01D00029F1D0D64A183A126802F069
:102F100040020AB1012002E0002000E0012008BDCB
:102F200038B50020009000240025CA20CD49086053
:102F300053200860FFF7CAFF00B952E00020C949DA
:102F40002439086042F20110091D0860081D00685C
:102F500000F00700091D086000BFC248183800686B
:102F600000F004040098401C00900098B0F5803FE9
:102F700001D0002CF1D0BB481838006800F00400E4
:102F800008B900252DE0B7481C3800680020B54975
:102F90001C3908604FF6FF70B24910390860B2481A
:102FA000091F08600020AF490C390860091D08603E
:102FB000091D0860AB4908310860AA49183108604A
:102FC000A84920310860091D0860A6491839086021
:102FD000A4491C310860FFF74BFF08B9002500E049
:102FE0000125FF209F490860284638BD9D481838B4
:102FF000006820F080009B4918390860704730B5A0
:1030000004460025CA209749086053200860FFF74E
:103010005DFF00B91DE093481C38006820F04000B7
:1030200090491C39086008460068216808438D49AA
:103030001C3908608B491439A0680860084600688C
:10304000A18840EA0140874914390860FFF7CEFFA4
:103050000125FF2083490860284630BD002101601A
:103060007F214160FF218160704718B1FF217D4AB7
:10307000116004E0CA217B4A11605321116070473E
:1030800030B504460025CA20764908605320086000
:10309000FFF71CFF00B914E044B172481C38006807
:1030A00040F010006F491C39086007E06D481C387B
:1030B000006820F010006B491C390860FFF796FF8C
:1030C0000125FF2067490860284630BDCA21654AAE
:1030D00011605321116040B162491C39096841F007
:1030E0002001604A1C3A116007E05E491C390968FA
:1030F00001F0DF015B4A1C3A1160FF21594A11605F
:1031000070470146002204E0501CC2B2A1F10A003F
:10311000C1B20A29F8DA100741EA10607047014687
:1031200000BF080900EB8000420001F00F001044CE
:10313000C0B270472DE9F04105460C460026002735
:1031400055B948481C38006800F0400000B102E062
:103150000020E07000BF0EE042481C38006800F01C
:10316000400020B12078FFF7DAFF064602E0002099
:10317000E07000BF00BF55B120780004617840EADC
:103180000120A1780843E17840EA014611E0207867
:10319000FFF7B7FF4FEA00486078FFF7B2FF48EA51
:1031A0000028A078FFF7ADFF48EA0008E07848EA79
:1031B0000046CA202B49086053200860FFF786FEAE
:1031C00008B9002714E0294830402649243908600E
:1031D000FFF70CFF23481C38006800F0200030B9CE
:1031E000FFF746FE08B9002702E0012700E00127AB
:1031F000FF201C4908603846BDE8F0810021C170FD
:10320000017041708170704770B506460C4600250C
:10321000144824380068154900EA0105C5F3054043
:103220002070C5F30620607005F07F00A07005F4E3
:103230008000000CE0705EB92078FFF770FF20700E
:103240006078FFF76CFF6070A078FFF768FFA070F0
:1032500070BD00200349091D08680249203909682A
:103260007047000024280040FF007F007F7F7F0020
:103270002DE9F04105460C46002600274DB960783F
:1032800000F01000102804D1607820F010000A30FF
:10329000607005B908E06078FFF741FF0646A07846
:1032A000FFF73DFF064600BF55B1E07800046178A6
:1032B00040EA0120A1780843217840EA413611E034
:1032C000E078FFF71EFF4FEA00486078FFF719FF2C
:1032D00048EA0028A078FFF714FF48EA00082078A1
:1032E00048EA4036CA20FE49086053200860FFF7CC
:1032F000EDFD08B9002714E0FA483040F8492039BC
:103300000860FFF773FEF6481C38006800F02000E4
:1033100030B9FFF7ADFD08B9002702E0012700E052
:103320000127FF20EE4908603846BDE8F081012101
:103330000170817041700021C170704770B5064600
:103340000C460025E64820380068E64900EA0105F9
:10335000280CE070C5F30420607005F03F00A070F9
:10336000C5F3423020705EB9E078FFF7D8FEE07018
:103370006078FFF7D4FE6070A078FFF7D0FEA070F1
:1033800070BD2DE9F04105460E46144600276DB983
:10339000D3481C38006800F0400000B102E0002073
:1033A000E07000BFA06800B91AE019E0CC481C38F2
:1033B000006800F0400020B12078FFF7B0FE07461B
:1033C00002E00020E07000BFA06820B9207BFFF77A
:1033D000A6FE074604E0207BFFF7A1FE074600BFDC
:1033E00095B120780004617840EA0120A178084373
:1033F000E17840EA0140217B40EA0160A16808438E
:10340000616840EA01071BE02078FFF77AFE4FEA87
:1034100000486078FFF775FE48EA0028A078FFF7BB
:1034200070FE48EA0008E07848EA0048207BFFF791
:1034300068FE48EA0060A1680843616840EA010745
:10344000CA20A749086053200860B6F5807F03D1E1
:10345000A3480838076002E0A148001F0760FF206A
:103460009F490860BDE8F0810021C1700170417082
:1034700081708160012101730021416070472DE955
:10348000F04106460F4614460025B7F5807F03D16C
:1034900093480838056802E09148001F0568C5F3A5
:1034A00005402070C5F30620607005F07F00A07015
:1034B00005F48000000CE070C5F30560207305F092
:1034C0008040A06005F0803060607EB92078FFF712
:1034D00026FE20706078FFF722FE6070A078FFF76C
:1034E0001EFEA070207BFFF71AFE2073BDE8F0815E
:1034F00038B502460024009400230020CA24784DE9
:103500002C6053242C6041B1754C1C3C246814433E
:10351000734D1C3D2C6001201EE0714C1C3C246846
:1035200094436F4D1C3D2C6000BF6D4C183C2468CB
:1035300004EA1223009C641C0094009CB4F5803FB4
:1035400001D0002BF1D0664C183C246804EA122408
:103550000CB9002000E00120FF24614D2C6038BD33
:1035600030B50023CA245E4D2C6053242C6041EA00
:103570000203B0F5807F03D1594C2034236002E070
:10358000574C24342360FF24554D2C6030BD014638
:103590000020B1F5807F05D1514A20321268C2F374
:1035A0000E0004E04E4A24321268C2F30E00704747
:1035B000CA214B4A11605321116049491C390968DD
:1035C00021F00701464A1C3A11601146096801437F
:1035D0001160FF21424A11607047CA21404A1160C0
:1035E000532111603E4910390860FF211160704776
:1035F0003B481038006880B2704718B50146002378
:10360000009300220020CA23354C236053232360FB
:1036100049B1334B1C3B1B6843F48063304C1C3C6A
:10362000236001201FE02E4B1C3B1B6823F48063AA
:103630002B4C1C3C236000BF294B183B1B6803F03C
:103640000402009B5B1C0093009BB3F5803F01D0FC
:10365000002AF1D0224B183B1B6803F004030BB97E
:10366000002000E00120FF231D4C236018BDCA226A
:103670001B4B1A6053221A60194A1C3A126822F432
:103680008022174B1C3B1A601A46126840EA01035D
:103690001A43134B1C3B1A60FF22114B1A607047F0
:1036A0000F481C38006800F480207047CA220C4B79
:1036B0001A6053221A600A4A1C3A126822F4E00285
:1036C000074B1C3B1A601A46126840EA01031A4372
:1036D000034B1C3B1A60FF22014B1A60704700002D
:1036E000242800403FFFFF0070B504460D46002629
:1036F000CA20F649086053200860FFF7E7FB00B9CD
:1037000007E044EA0500F1490C390860FFF76EFC58
:103710000126FF20ED490860304670BD30B50446F3
:103720000025CA20E949086053200860FFF7CEFB56
:1037300000B914E044B1E5481C38006840F080004E
:10374000E2491C39086007E0E0481C38006820F0B6
:103750008000DE491C390860FFF748FC0125FF2086
:10376000DA490860284630BDCA21D84A1160532181
:10377000116040B1D5491C39096841F40001D34AB0
:103780001C3A116007E0D1491C39096821F4000195
:10379000CE4A1C3A1160FF21CC4A11607047CA2101
:1037A000CA4A116053211160C8491C39096821F4C3
:1037B0000021C64A1C3A1160114609680143116094
:1037C000FF21C24A1160704770B5034600200024F3
:1037D000CA25BE4E356053253560BC4D183D2D6859
:1037E00005F4803555B100E0641CB84D183D2D68D6
:1037F00005F4803515B1B4F5003FF5D1B34D183D52
:103800002D6805F480353DB943EA01051543AF4EF7
:1038100018363560012000E00020FF25AB4E3560F2
:1038200070BD10B50A460021A84B1C3B1B6840F632
:10383000080423EA04011AB140F40063194300E0CC
:103840000143CA23A14C2360532323609F4B1C3B9D
:103850001960FF23236010BD2DE9F04180460C461E
:1038600015460026002799480C300068984900EA60
:103870000106964810300068964900EA0107C6F331
:1038800005402070C6F30620607006F07F00A0702F
:1038900006F48000000CE0700020E870C7F30420FC
:1038A000687007F03F00A870C7F342302870B8F185
:1038B000000F17D12078FFF732FC20706078FFF7F7
:1038C0002EFC6070A078FFF72AFCA0706878FFF7E4
:1038D00026FC6870A878FFF722FCA8702878FFF70C
:1038E0001EFC2870BDE8F0817848143000687047ED
:1038F00041B9764A1C32126822EA4002734B1C33EB
:103900001A6007E0714A1C32126842EA40026F4BAB
:103910001C331A60704739B16C4A1C32126802437A
:103920006A4B1C331A6006E0684A1C3212688243F4
:10393000664B1C331A60704764491C31096821F4D6
:10394000C051624A1C32116011460968014311607E
:1039500070475E491C31096821F4E0615B4A1C3202
:1039600011601146096801431160704757491C31C5
:10397000096821F4C041554A1C321160114609689A
:1039800001431160704740B150491C31096841F052
:1039900080014E4A1C32116007E04C491C31096815
:1039A00021F08001494A1C321160704740B14749FB
:1039B0001C31096821F40041444A1C32116007E0BF
:1039C00042491C31096841F40041404A1C321160EF
:1039D000704708B5002200923C4A2C320092009AAF
:1039E00002EB80020092009A116008BD08B5014602
:1039F0000020009035482C300090009800EB8100AA
:103A000000900098006808BD30491C31096821F415
:103A100080312E4A1C321160114609680143116041
:103A200070472A491C31096821F40031274A1C32A9
:103A300011601146096801431160704723491C3128
:103A4000096821F48021214A1C321160114609685D
:103A5000014311607047F0B504460D46002700266B
:103A6000CA201A49086053200860184818380068AE
:103A700000F0080050B100E0761C144818380068C7
:103A800000F0080010B1B6F5805FF5D10F48183886
:103A9000006800F0080098B90C481C38006800F075
:103AA000100058B945EA0400084908310860FFF7DA
:103AB000DFF908B9002704E0012702E0002700E051
:103AC0000027FF20014908603846F0BD2428004047
:103AD0007F7F7F003FFFFF00CA223D4B1A605322C9
:103AE0001A6091B13A4A1C3A126820F004031A4352
:103AF000374B1C3B1A60364A1C32126800F0040334
:103B00001A43334B1C331A6011E0314A1C3A1268D5
:103B100020F004039A432E4B1C3B1A602C4A1C32A3
:103B2000126800F004039A43294B1C331A60FF22E9
:103B3000274B1A60704710B5014600200022244B25
:103B4000183B1B68234C03EA040202EA01030BB191
:103B5000012000E0002010BD81B241F080011C4A2C
:103B6000183A126802F0800262EA0101184A183A13
:103B70001160704730B50146002000220023144C2C
:103B80001C34246804F00402114C1C3C24680C40D2
:103B900002EAD13544EA05030D4C183C246804EAD6
:103BA00011121BB194B20CB1012000E0002030BD15
:103BB000002101098AB242F08002054B183B1B68C4
:103BC00003F0800363EA0202014B183B1A6070475E
:103BD000242800407F3F010010B501210807FFF7AE
:103BE00091F800214FF08050FFF78CF810BD52493A
:103BF0000862704701460020504A106820F0E0003B
:103C00000843106070474C49086170474A49A03129
:103C1000086070474849A431086070470146002099
:103C2000464A106820F440400843106070474249FB
:103C30000864704740494864704730B13F4909689B
:103C400041F440213D4A116005E03C49096821F4F6
:103C500040213A4A1160704718B10121364AD162B9
:103C600002E00021344AD162704718B10121324A82
:103C7000916202E00021304A916270472E49486209
:103C8000704710B5024600202C4B186840F60343DD
:103C900098431043294B1860294B1B6843F00403D9
:103CA000274C2360012901D130BF00E020BF244B05
:103CB0001B6823F00403224C236010BD10B502469C
:103CC00000201E4B186840F60343984310431B4BDB
:103CD00018601B4B1B6843F00403194C2360012937
:103CE00001D130BF00E020BF154B1B6823F0040357
:103CF000134C236010BD1148006840F002000F49CA
:103D000008600F48006840F004000D49086000BFDB
:103D100000BF30BF704701460020084A52680A4081
:103D20000AB1012000E0002070470449096841EA17
:103D30008001024A1160704700000E42007000408E
:103D400010ED00E0002041490860091D0860091DD0
:103D50000860091D08603E483C49143108607047FE
:103D600000213A498279002A3AD00A46126803684B
:103D70009A430B461A600A1D126803689A430B1D8A
:103D80001A60027911440A6803681A430A602F4ACC
:103D90000832126803689A432C4B08331A601A1DC4
:103DA000126803689A43294B0C331A604279102A2F
:103DB0000ED11A1F126803681A43244B08331A6085
:103DC0001A1D126803681A43204B0C331A600DE069
:103DD0001E49427911440A6803681A430A6005E0E3
:103DE000027911440A6803689A430A607047002107
:103DF000016001710C2141710021817170471349EB
:103E0000103109680143114A1032116070470146B0
:103E100000200E4A143212680A400AB1012000E064
:103E2000002070470949143108607047014600209E
:103E3000064A143212680A400AB1012000E000204C
:103E4000704702491431086070470000003C01408F
:103E5000FFFF7F000A460021DBE0D30B002B75D06B
:103E6000102971D2DFE801F0080F161D242B32391A
:103E700040464C52585E646A038823F4004303F5BD
:103E80000043038060E0038823F4804303F580430C
:103E9000038059E0038823F4005303F500530380A3
:103EA00052E0038823F4805303F5805303804BE0F2
:103EB000038823F4006303F50063038044E0038870
:103EC00023F4806303F5806303803DE0038823F4DB
:103ED000007303F50073038036E0038823F48073D6
:103EE00003F5807303802FE0038823F08003803381
:103EF000038029E0038823F040034033038023E05C
:103F0000038823F02003203303801DE0038823F07F
:103F100010031033038017E0038823F008030833ED
:103F2000038011E0038823F004031B1D03800BE0D2
:103F3000038823F002039B1C038005E0038823F021
:103F400001035B1C038000BF5DE0FFE7102959D22D
:103F5000DFE801F0080D12171C21262B30353A3FFF
:103F600044494E53038823F4004303804AE0038806
:103F700023F48043038045E0038823F40053038047
:103F800040E0038823F4805303803BE0038823F45C
:103F90000063038036E0038823F48063038031E00C
:103FA000038823F4007303802CE0038823F48073D8
:103FB000038027E0038823F08003038022E0038846
:103FC00023F0400303801DE0038823F020030380D7
:103FD00018E0038823F01003038013E0038823F024
:103FE000080303800EE0038823F00403038009E044
:103FF000038823F00203038004E0038823F0010315
:10400000038000BF00BF4FF6FF7303EA42024B1C60
:10401000D9B21029FFF621AF7047F0B51C46002633
:1040200000250123C1F11007974202DAC1F1100700
:10403000FAB20E46002E0CDD05E0EF18BDB24FF6C9
:10404000FF7707EA43033700A6F1010C0CF0FF06E7
:10405000F3D1D0F814C04FF6FF7797408F402F432D
:104060000CEA070CC0F814C0476904FA01FC47EADF
:104070000C074761F0BD10B56FF00400FDF77EFF3F
:104080001520394908700846007800EB4001C1EB63
:10409000C0104FF6FF7101EAC0003449088010BD1E
:1040A0000146314A12784A434FF0E0235A61002218
:1040B0009A611A46126942F001021A6100BF4FF07C
:1040C000E022106900F001021AB100F48032002AE7
:1040D000F5D04FF0E022126922F001024FF0E02308
:1040E0001A6100229A6170470146204A12884A43A9
:1040F0004FF0E0235A6100229A611A46126942F099
:1041000001021A6100BF4FF0E022106900F00102C5
:104110001AB100F48032002AF5D04FF0E022126983
:1041200022F001024FF0E0231A6100229A617047E9
:1041300070B504464FF4077094FBF0F0C6B24FF42C
:10414000077094FBF0F100FB114085B205E04FF4DD
:104150000770FFF7C9FF701EC6B2002EF7D115B168
:104160002846FFF7C1FF70BD7C0000207E000020C4
:10417000704770477047754600F028F8AE46050056
:104180006946534620F00700854618B020B5FCF775
:10419000DBFABDE820404FF000064FF000074FF07B
:1041A00000084FF0000B21F00701AC46ACE8C00955
:1041B000ACE8C009ACE8C009ACE8C0098D4670475E
:1041C0000446AFF300802046FCF727F8004870470C
:1041D0008000002001491820ABBEFEE72600020047
:1041E00070474FF04070E1EE100A70470000000089
:1041F0000000000000000000000000003F40000040
:1042000000000000000030004000300040000000CE
:1042100009000BC03D000BC03D00090018C0244040
:104220007FE0224031800000180024C01B000D8078
:104230003240018003801C4027401C800740004022
:1042400010006000000000000000000000000000FE
:1042500000001F80204040200000402020401F80A0
:1042600000000000090006001F8006000900000091
:10427000040004003F8004000400000000100060FF
:10428000000000000000000004000400040004001E
:1042900004000000000000400000000000000000DA
:1042A000002001C006003800400000001F802040B0
:1042B000204020401F800000000010403FC0004010
:1042C0000000000018C02140224024401840000097
:1042D00010802040244024401B80000002000D007C
:1042E00011003FC0014000003C8024402440244095
:1042F000238000001F8024402440344003800000BD
:104300003000200027C03800200000001B8024401F
:10431000244024401B8000001C0022C02240224078
:104320001F800000000000000840000000000000A6
:104330000000000004600000000000000000040015
:104340000A0011002080404009000900090009000E
:104350000900000000004040208011000A00040015
:104360001800200023402400180000001F80204077
:10437000274029401F400000004007C039000F00BF
:1043800001C0004020403FC0244024401B8000006A
:104390001F802040204020403080000020403FC04F
:1043A000204020401F80000020403FC024402E407D
:1043B00030C0000020403FC024402E0030000000EC
:1043C0000F001080204022403380020020403FC078
:1043D000040004003FC02040204020403FC0204057
:1043E000204000000060202020203FC0200020004E
:1043F00020403FC024400B0030C0204020403FC040
:1044000020400040004000C03FC03C0003C03C00D2
:104410003FC0000020403FC00C4023003FC02000B0
:104420001F802040204020401F80000020403FC0CF
:1044300024402400180000001F802140214020E07B
:104440001FA0000020403FC02440260019C00040AB
:1044500018C0244024402240318000003000204019
:104460003FC020403000000020003F80004000405E
:104470003F80200020003E0001C0070038002000DF
:10448000380007C03C0007C038000000204039C099
:10449000060039C0204000002000384007C03840E6
:1044A00020000000304021C02640384020C00000DD
:1044B000000000007FE0402040200000000070006D
:1044C0000C000380004000000000402040207FE0FE
:1044D000000000000000200040002000000000005C
:1044E000001000100010001000100010000000006C
:1044F0004000000000000000000002800540054070
:1045000003C0004020003FC004400440038000007E
:1045100000000380044004400640000000000380C7
:10452000044024403FC00040000003800540054097
:1045300003400000000004401FC02440244020002D
:10454000000002E0055005500650042020403FC006
:104550000440040003C000400000044027C00040A5
:104560000000000000100010041027E00000000010
:1045700020403FC00140070004C0044020402040CC
:104580003FC000400040000007C0040007C0040016
:1045900003C00000044007C00440040003C0004002
:1045A000000003800440044003800000041007F072
:1045B00004500440038000000000038004400450C5
:1045C00007F00010044007C002400400040000008F
:1045D000000006400540054004C000000000040043
:1045E0001F80044000400000040007800040044099
:1045F00007C000400400070004C00180060004005A
:10460000060001C0070001C006000000044006C00B
:10461000010006C0044000000410071004E00180FF
:10462000060004000000044005C0064004400000ED
:104630000000000004007BE04020000000000000BB
:104640000000FFF000000000000040207BE00400BC
:1046500000000000400080004000200020004000DA
:10466000000000000000000000000000000000004A
:104670000000000000001FCC000C00000000000043
:1046800000000800300060000800300060000000FA
:10469000022003FC1E20022003FC1E20022000003A
:1046A00000000E1811043FFF10840C780000000079
:1046B0000F0010840F3800C00778188400780000BD
:1046C00000780F8410C411240E9800E400840008C0
:1046D00008006800700000000000000000000000FA
:1046E00000000000000007E018182004400200004D
:1046F000000040022004181807E00000000000003D
:104700000240024001800FF00180024002400000A0
:104710000080008000800FF8008000800080000092
:104720000001000D000E000000000000000000006D
:1047300000000080008000800080008000800080F9
:104740000000000C000C0000000000000000000051
:10475000000000060018006001800600180020001C
:10476000000007F0080810041004080807F0000013
:104770000000080408041FFC0004000400000000FE
:1047800000000E0C10141024104411840E0C0000B4
:1047900000000C1810041104110412880C700000A1
:1047A000000000E00320042408241FFC0024000073
:1047B00000001F981084110411041088107000006C
:1047C000000007F008881104110418880070000028
:1047D00000001C00100010FC13001C001000000062
:1047E00000000E3811441084108411440E3800006B
:1047F00000000700088C10441044088807F00000EF
:10480000000000000000030C030C0000000000008A
:104810000000000000010106000000000000000090
:10482000000000800140022004100808100400006D
:10483000022002200220022002200220022000008A
:10484000000010040808041002200140008000004D
:1048500000000E001200100C106C10800F00000001
:1048600003E00C1813E4142417C4082807D0000030
:104870000004003C03C41C40074000E4001C00048A
:1048800010041FFC1104110411040E8800700000B4
:1048900003E00C1810041004100410081C10000091
:1048A00010041FFC100410041004080807F0000096
:1048B00010041FFC1104110417C410040818000090
:1048C00010041FFC1104110017C0100008000000A4
:1048D00003E00C181004100410441C780040000081
:1048E00010041FFC10840080008010841FFC100442
:1048F0000000100410041FFC10041004000000004D
:1049000000030001100110011FFE10001000000044
:1049100010041FFC110403801464181C1004000010
:1049200010041FFC1004000400040004000C00002C
:1049300010041FFC1F0000FC1F001FFC10040000DF
:1049400010041FFC0C04030000E010181FFC1000F2
:1049500007F00808100410041004080807F000000D
:1049600010041FFC10841080108010800F000000C5
:1049700007F0081810241024101C080A07F2000081
:1049800010041FFC1104110011C011300E0C0004A2
:1049900000000E1C11041084108410441C38000008
:1049A0001800100010041FFC100410001800000074
:1049B00010001FF810040004000410041FF8100079
:1049C00010001E0011E0001C007013801C0010007D
:1049D0001FC0103C00E01F0000E0103C1FC00000A2
:1049E0001004180C163401C001C01634180C100441
:1049F00010001C00130400FC13041C001000000035
:104A00000804101C1064108413041C041018000007
:104A10000000000000007FFE400240024002000053
:104A2000000030000C0003800060001C0003000048
:104A300000004002400240027FFE00000000000033
:104A40000000000020004000400040002000000066
:104A5000000100010001000100010001000100014E
:104A600000004000400020000000000000000000A6
:104A700000000098012401440144014400FC0004AA
:104A800010001FFC00880104010400880070000071
:104A90000000007000880104010401040088000087
:104AA0000000007000880104010411081FFC0004CC
:104AB000000000F8014401440144014400C8000022
:104AC0000000010401040FFC11041104110018007E
:104AD000000000D601290129012901C901060000B1
:104AE00010041FFC008401000100010400FC00040C
:104AF00000000104190419FC000400040000000077
:104B00000000000300010101190119FE000000006E
:104B100010041FFC0024004001B4010C010400003B
:104B20000000100410041FFC00040004000000003A
:104B3000010401FC0104010001FC0104010000FC6E
:104B4000010401FC008401000100010400FC0004D8
:104B5000000000F8010401040104010400F8000051
:104B6000010101FF008501040104008800700000BC
:104B700000000070008801040104010501FF00012C
:104B80000104010401FC0084010401000180000013
:104B9000000000CC0124012401240124019800001C
:104BA00000000100010007F80104010400000000FA
:104BB000010001F8000400040004010801FC0004E5
:104BC000010001800170000C0010016001800100F3
:104BD00001F0010C003001C00030010C01F00100B7
:104BE00000000104018C00740170018C01040000BC
:104BF000010101810171000E0018016001800100B6
:104C000000000184010C013401440184010C000006
:104C1000000000000000000001003EFC40024002D5
:104C20000000000000000000FFFF00000000000086
:104C30000000400240023EFC0100000000000000B5
:104C40000000600080008000400040002000200044
:104C50000000000000000000000000000000000054
:104C60000000000000000000000000000000000044
:104C70000000000000000000000000000000000034
:104C80000000000F80380FFE380F80380000000051
:104C90000000000000000000000000000000010013
:104CA000000600000C000038000031000006000083
:104CB0000C00003800003000000000000000000080
:104CC00061800067F807F980006180006180006101
:104CD000800061800067F807F980006180000000B3
:104CE00000000000000001C0E003E0F0063008040E
:104CF00018081FFFFE040E080787F00381E000007C
:104D00000000000001F000060C00040408060C700E
:104D100001F9C0000E00003BE000EC180708080491
:104D20000C180003E00000000001E00007F003F8A9
:104D300018041C0804170807E1D003C0E00023B0E2
:104D4000003C0800200800001000000000000001E6
:104D500000003100003200001C00000000000000D4
:104D60000000000000000000000000000000000043
:104D70000000000000000000000000000000000033
:104D80007F0001FFC00780F00C0018100004200015
:104D9000020000000000002000021000040C0018B7
:104DA0000780F001FFC0007F00000000000000004D
:104DB000000000000000000000000000420000664B
:104DC00000006600003C0000180003FFC00018004F
:104DD000003C000066000066000042000000000089
:104DE000080000080000080000080000080001FF9B
:104DF000C0000800000800000800000800000800CB
:104E000000000000000100003100003200001C0022
:104E10000000000000000000000000000000000092
:104E2000000000000000000008000008000008006A
:104E3000000800000800000800000800000800004A
:104E40000800000800000000000000000000000052
:104E500038000038000038000000000000000000AA
:104E60000000000000000000000000000000000042
:104E7000000600001C000070000180000E000038D9
:104E80000000C0000700001C00003000000000000F
:104E9000000000007F8001FFE0038070060018041E
:104EA000000804000806001803807001FFE0007F7E
:104EB0008000000000000000000001000801000860
:104EC00001000803FFF807FFF800000800000800D1
:104ED000000800000000000000000001C03802C00F
:104EE00058040098040118040218040418061C1839
:104EF00003F81801E0F800000000000000000001C5
:104F0000C0E003C0F00400080408080408080618FC
:104F10000803F41801E7F00001E0000000000000C1
:104F2000000000000300000D0000110000610000FF
:104F3000810803010807FFF80FFFF80001080001CE
:104F4000080000000000000000E007FCD006080890
:104F5000061008061008061008061838060FF00696
:104F600007C0000000000000000000003F8001FFBB
:104F7000E003843002081804100804100804100824
:104F8000071810030FF00007C00000000000000029
:104F9000000003C0000700000600000600F8060736
:104FA000F806180006E000070000060000000000F8
:104FB00000000001E1E003F7F006341004180804D3
:104FC0001808040C08040C0806161803F3F001C1B5
:104FD000E000000000000000F80003FC3003063889
:104FE0000402080402080402080404100308F00183
:104FF000FFC0007F00000000000000000000000073
:1050000000000000000000007038007038007038A8
:105010000000000000000000000000000000000090
:10502000000000000000000000000000301A003006
:105030001C00000000000000000000000000000054
:105040000000000000000008000014000022000022
:105050004100008080010040020020040010080090
:1050600008000000000000002100002100002100D5
:10507000002100002100002100002100002100008B
:1050800021000021000000000000000000000800D6
:105090000804001002002001004000808000410050
:1050A00000220000140000080000000000000003BF
:1050B000C00004C000040000080038080F380808C9
:1050C000380810000C300007E00003C000000000AA
:1050D000000000003F8000FFE0038070020F100618
:1050E000708804C088048308047F8802C09003018C
:1050F0002000FE400000080000180001F8003E08F3
:1051000001C20007020007E20000FE00001FC80005
:1051100001F800003800000804000807FFF807FF46
:10512000F804080804080804080804080806180811
:1051300003F41801E7F00001E000000000000000A7
:105140003F8001FFE00380700200180400080400A3
:10515000080400080400100600200780C0000000BA
:1051600004000807FFF807FFF8040008040008041B
:10517000000804001802001003807001FFE0007FA7
:105180008000000004000807FFF807FFF804080883
:10519000040808040808040808043E080400080677
:1051A000001801006000000004000807FFF807FF76
:1051B000F8040808040800040800040800043E007D
:1051C0000600000600000180000000000000000052
:1051D0003F8001FFE003807006001804000804020D
:1051E000080402080203F00783F000020000020036
:1051F00004000807FFF807FFF8040808000800008B
:10520000080000080000080004080807FFF807FF6E
:10521000F804000800000000000004000804000872
:1052200004000807FFF807FFF8040008040008045A
:105230000008000000000000000000000006000060
:105240000700000104000104000104000307FFFE41
:1052500007FFFC040000040000040000040008072D
:10526000FFF807FFF8040C08001800003E0004C710
:10527000800503C80600F804003804001800000880
:1052800004000807FFF807FFF80400080000080002
:1052900000080000080000080000080000180000D6
:1052A0006000000004000807FFF807800807FC0002
:1052B000007FC00003F80007C000780007800807DF
:1052C000FFF807FFF804000804000807FFF80700CC
:1052D0000803C00000E000003800001E00000700C6
:1052E0000001C00400F007FFF80400000000000007
:1052F0007F8001FFE00380700600180400080400AE
:105300000806001803003001FFE0007F8000000065
:1053100004000807FFF807FFF80404080404000469
:105320000400040400040400060C0003F80001F06B
:1053300000000000000000007F8001FFE00380709B
:105340000600880400880400C806003C03003E01F3
:10535000FFE6007F8400000004000807FFF807FF55
:10536000F8040808040800040C00040F00040BC033
:105370000610F003F03801E008000008000000010A
:10538000E0F803F030063010041808041808040C84
:1053900008040C080206180207F00781E00000006C
:1053A000018000060000040000040000040008075B
:1053B000FFF807FFF80400080400000400000600DE
:1053C0000001800004000007FFE007FFF004001860
:1053D00000000800000800000800000800000804A1
:1053E000001007FFE004000004000006000007E0D2
:1053F0000007FE00041FE00001F80000380001E093
:10540000043E0007C000060000040000040000077E
:10541000E00007FFC0041FF80007C007F80007FFFF
:1054200080043FF80007C004F800070000040000F3
:1054300000000004000806001807C07805F1C80045
:105440003E00001F800463E80780F806001804008F
:105450000800000004000006000007800007E008C4
:10546000047C08001FF80007F800180804E008078B
:105470000000060000040000000000010008060013
:10548000380400F80403E8040F08047C0805F00859
:1054900007C00807001804006000000000000000BA
:1054A00000000000000000000000003FFFFE2000A0
:1054B0000220000220000220000220000200000062
:1054C00000000000000008000007000000C000000D
:1054D00038000006000001C000003000000E00008F
:1054E0000100000000000000000020000220000277
:1054F0002000022000022000023FFFFE000000000A
:10550000000000000000000000000000000000009B
:1055100000080000100000300000200000300000F3
:105520001000000800000000000000000000010062
:105530000001000001000001000001000001000066
:105540000100000100000100000100000100000155
:1055500000000000000000000020000020000010FB
:10556000000010000000000000000000000000002B
:10557000000000000000000000F00019F8001B18F7
:10558000002208002608002408002410003FF8002C
:105590001FF800000800001800000004000007FFCA
:1055A000F80FFFF00018180010080020080020086D
:1055B000003018001FF0000FC000000000000000C5
:1055C00007C0001FF000183000200800200800204D
:1055D00008003C08001C10000060000000000000F3
:1055E0000000000007C0001FF0003818002008006D
:1055F000200800200804101007FFF80FFFF000003B
:10560000100000000000000000000007C0001FF0B4
:105610000012300022180022080022080032080080
:105620001E10000E200000000000000020000020DE
:105630000800200801FFF803FFF8062008042008EE
:105640000420080720000300000000000000000004
:10565000000E000E6E001FF30031B10020B10020DB
:10566000B1003191001F13002E1E00200E003000EB
:1056700000000004000807FFF80FFFF80010080002
:105680002000002000002008003FF8001FF8000064
:1056900008000000000000000000002008002008B2
:1056A000002008063FF8063FF80000080000080048
:1056B00000080000000000000000000000000000E2
:1056C00003000003002001002001002003063FFE2C
:1056D000063FFC0000000000000000000000000485
:1056E000000807FFF80FFFF8000188000300002FF3
:1056F000C00038F800203800200800000800000032
:10570000000000000000040008040008040008076E
:10571000FFF80FFFF8000008000008000008000074
:1057200000000000002008003FF8003FF8001008CB
:10573000002000003FF8003FF800100800200000A3
:105740003FF8003FF8000008000000002008003F7C
:10575000F8003FF8001008001000002000002008AA
:10576000003FF8001FF800000800000000000000E3
:1057700007C0000FF000183000300800200800209B
:1057800008003008001830000FF00007C0000000CB
:10579000000000002001003FFF003FFF001011004B
:1057A0002009002008002008003038001FF0000FFA
:1057B000C00000000000000007C0001FF000381803
:1057C000002008002008002009001011001FFF0021
:1057D0003FFF00000100000000200800200800201A
:1057E00008003FF8003FF8000808001008002008F3
:1057F0000020000030000030000000000000000029
:105800000000000C78001E18003308002308002157
:10581000080021880021980030F000386000000066
:1058200000000000200000200000200000FFF00326
:10583000FFF80020080020080020080000300000C9
:1058400000000000000000002000003FF0007FF892
:10585000000018000008000008002010003FF800B9
:105860007FF0000010000000000000002000003069
:1058700000003C00003F800023F000007800007032
:10588000002380003C0000300000200000200000C9
:105890003C00003FE00023F80000E0002700003E4D
:1058A00000003FE00021F80001E0003E0000200081
:1058B000000000002008002008003838003E680082
:1058C00027800003C8002CF800383800201800207A
:1058D00008000000000000002000003003003C0130
:1058E000003F830023EC000070002380003C000098
:1058F0002000002000000000000000000000003830
:10590000080020380020F80023E8002F88003E0817
:10591000003808002018000070000000000000009F
:10592000000000000000000000000000080000145B
:10593000001FF7FC300006200002000000000000FD
:105940000000000000000000000000000000000057
:105950000000FFFFFF00000000000000000000004A
:1059600000000000000000000000200002300006DF
:105970001FF7FC00140000080000000000000000F9
:10598000000000000000000000000018000060009F
:10599000004000004000002000001000000800004F
:1059A0000400000400000C000010000000030306C7
:1059B00001040602050003050F0000000F000000AF
:1059C000FF0000000F0000000F0000000F000000AB
:1059D000000000004D6F6E74680000005965617230
:1059E000000000005365636F6E6473004D696E754F
:1059F00074657300486F757273000000446179002C
:105A000046726964617900004D6F6E6461790000CF
:105A100053756E64617900005361747572646179C5
:105A2000000000005765646E6573646179000000D2
:105A30005475657364617900546875727364617933
:105A400000000000645A00080000002080000000F0
:105A5000C4010008E45A000880000020600600002D
:105A6000E0010008085A0008305A0008245A0008CB
:105A7000385A0008005A0008185A0008105A00083E
:105A8000DC590008D4590008FC590008F4590008F2
:105A9000EC590008E4590008007A030A00000000ED
:105AA0000000000001020304060708090000FFFFD0
:105AB00000000000000000000000000000000000E6
:105AC00000000000000000000000000000000000D6
:105AD0000000000001020304010203040607080994
