:020000040800F2
:10000000F86E0120E1090008B5070008B7070008ED
:10001000BB070008BF070008C30700080000000076
:10002000000000000000000000000000C7070008FA
:10003000C907000800000000CB070008CD07000832
:10004000FB090008FB090008FB090008E72300087A
:10005000FB090008FB090008FB090008FB09000870
:10006000FB090008FB090008FB090008FB09000860
:10007000FB090008FB090008FB090008FB09000850
:10008000FB090008FB090008FB090008FB09000840
:10009000FB090008FB090008FB090008FB09000830
:1000A000FB090008FB090008FB090008FB09000820
:1000B000FB090008FB090008FB090008FB09000810
:1000C000FB090008FB090008FB090008FB09000800
:1000D000FB090008FB090008FB090008FB090008F0
:1000E000FB090008B3240008FB090008FB0900080D
:1000F000FB090008FB090008FB090008FB090008D0
:10010000FB09000825490008FB090008FB09000855
:10011000FB090008FB090008FB090008FB090008AF
:10012000FB090008FB090008FB090008FB0900089F
:10013000FB090008FB090008FB090008FB0900088F
:10014000FB090008FB090008FB090008FB0900087F
:10015000FB090008FB090008FB090008FB0900086F
:10016000FB090008FB090008FB090008FB0900085F
:10017000FB090008FB090008FB090008FB0900084F
:10018000FB090008FB09000800F002F800F060F825
:100190000AA090E8000C82448344AAF10107DA45E2
:1001A00001D100F055F8AFF2090EBAE80F0013F0D4
:1001B000010F18BFFB1A43F00103184774D8000061
:1001C00094D8000010F8013B0A4413F0030408BF60
:1001D00010F8014B1D1108BF10F8015B641E05D01B
:1001E00010F8016B641E01F8016BF9D1002D15D0D8
:1001F00010F8014B03F00C030C2BA1EB04040ABF15
:1002000010F8013BA4EB8314A4EB032405F10103D4
:1002100014F8016B5B1E01F8016BF9D5914238BFF0
:1002200010F8013BD1D3704700230024002500269D
:10023000103A28BF78C1FBD8520728BF30C148BF49
:100240000B6070471FB50BF056FB1FBD10B510BDFE
:100250000BF01AFB1146FFF7F5FF00F03EF90BF02B
:1002600038FB03B4FFF7F2FF03BC0BF03DFB0000CB
:1002700030BF72B6704762B6704780F30888704727
:100280001CB5F6A31022D2211E200BF02EF901205E
:100290001021CDE90010F548C2780223D221562062
:1002A00001F0E9FB01201021CDE90010EF48427870
:1002B0000223D2216E2001F0DEFB01201021CDE9C6
:1002C0000010EA4882780223D221862001F0D3FB75
:1002D000E7A31022E6211E200BF007F901201021D0
:1002E000CDE90010E64802780223E621462001F01D
:1002F000C2FB01201021CDE90010E1484278022321
:10030000E6215E2001F0B7FB01201021CDE90010AD
:10031000DB4882780223E621762001F0ACFBD9A3EA
:100320001022FA211E200BF0E0F8D0480078401E81
:10033000D84951F820301022FA2146200BF0D5F888
:100340001CBD7CB505460C46322094FBF0F100FB49
:100350001140B8B94FF6FF701F21CFA31822CDE985
:100360000010B421142001F023FC4FF6FF701F2170
:10037000CDE90010CE4850F825301822B42198203D
:1003800001F016FCCB480078012803D0C94800785A
:1003900002285FD1C748007801282BD1062D28D22A
:1003A000DFE805F003090F151B21B048C078401C99
:1003B000AE49C8701DE0AD484078401CAB4948705C
:1003C00017E0AA488078401CA849887011E0AC4822
:1003D0000078401CAA4908700BE0A9484078401CEE
:1003E000A749487005E0A6488078401CA449887059
:1003F00000BF00BFAF48007802282BD1062D28D2BD
:10040000DFE805F003090F151B219848C078401E4E
:100410009649C8701DE095484078401E9349487041
:1004200017E092488078401E9049887011E0944807
:100430000078401E924908700BE091484078401EB9
:100440008F49487005E08E488078401E8C4988703E
:1004500000BF00BF962C01D1FFF712FF062D3AD244
:10046000DFE805F0030C151E2730312C05D192A3CF
:100470001022D221562001F07BFB2CE0312C05D13B
:100480008DA31022D2216E2001F072FB23E0312CCB
:1004900005D189A31022D221862001F069FB1AE040
:1004A000312C05D184A31022E621462001F060FB07
:1004B00011E0312C05D180A31022E6215E2001F04D
:1004C00057FB08E0312C05D17BA31022E6217620D2
:1004D00001F04EFB00BF00BF7CBD1CB5002700250E
:1004E0004FF4A06004F004FB07F0D3F801F094FB94
:1004F00000F0D5FE00F094FA01F054FF01F07EFC0C
:100500000AF0DBFE002002F004F83221002002F0A5
:10051000BBF880463221002002F0B6F881464FF445
:1005200078406649088066A318220A21084601F02F
:100530001FFB68A3102228210A2001F019FB69A3E0
:10054000182246211E200AF0D0FF6AA3102264213F
:100550001E200AF0CAFF6CA3102278211E200AF088
:10056000C4FF6EA310228C211E200AF0BEFF70A3D0
:100570001022A0211E200AF0B8FF002001F09EFEEC
:10058000FFF77EFEFFE0002000F060FA681CC5B2B5
:1005900017B1012F09D135E069480078042805D149
:1005A00068480088FA2801DD0127E8E0322095FB41
:1005B000F0F100FB115020BB002001F07FFEFFF79F
:1005C0005FFE2A4B9A785978DB7803F5FA60434648
:1005D00002F048FA434610224FF487711E200AF0B9
:1005E00084FF224B9A785978DB7803F5FA604B4602
:1005F00002F01BFB4B4610224FF491711E200AF0B3
:1006000074FFBCE02B480078032804D1601CC4B2FE
:10061000052C00DD002429462046FFF792FE2548E0
:100620000078042819D1FFF72BFE1548807814496B
:100630004978DFF84CC0CDE900109CF80030DFF8B5
:100640002CC09CF802209CF801109CF8030001F0DB
:1006500002FE4FF6FF701F2176E08FE0C8D5C6DAA4
:100660003A323020202D20202D202000660000204E
:10067000CAB1BCE43A20203A20203A2020000000F1
:1006800062000020D0C7C6DA3A2020202020202097
:100690002000000000000020506C6561736520534D
:1006A0006574202020202020202020200000000031
:1006B0001C00002048000020202000004E000020E8
:1006C000496C6C756D696E6174692053544D333299
:1006D00046340000417574686F723A436C65766504
:1006E0007200000031342E525443C5A9C0FACFD451
:1006F000CABE00004B45593320B3A4B0B4203AB56C
:10070000F7D5FBCAB1BCE4002020202020B6CCB035
:10071000B4203AC8B7C8CFB5F7D5FB004B45593020
:100720003ABCD33120204B4559313A20BCF5310039
:100730004B4559323AD3D2D2C6D2BBCEBB00000011
:100740004C0000204A0000200FA31822CDE9001021
:10075000B421142001F02CFA002604E00A2006F04F
:10076000F5FF701CC6B2642EF8DB0CA31822B4216E
:10077000142001F0FDF90024002700E000BF00BFB5
:10078000052006F0E3FFFEE641646A757374204FAE
:100790004B2020202020202020202000202020204E
:1007A0002020202020202020202020202020202049
:1007B00000000000704700BFFEE700BFFEE700BF7B
:1007C000FEE700BFFEE770477047704770470000C4
:1007D0000CB50020019000907648006840F480300D
:1007E0007449086000BF7348006800F4003000904E
:1007F0000198401C0190009818B90198B0F5A04FDD
:10080000F1D16C48006800F4003010B10120009074
:1008100001E0002000900098012846D16548403052
:10082000006840F0805063494031086062480068C9
:1008300040F44040604908605E48083000685D4907
:10084000083108600846006840F400400860084627
:10085000006840F4A05008605848091F0860081F4D
:10086000006840F08070091F086000BF51480068B0
:1008700000F000700028F9D040F20570504908607F
:100880004C480830006820F003004A4908310860ED
:100890000846006840F00200086000BF4548083084
:1008A000006800F00C000828F8D10CBD10B54548D0
:1008B000006840F47000434908603E48006840F01A
:1008C00001003C49086000203A4908310860394875
:1008D00000683D490840374908603C48091D0860E8
:1008E000081F006820F48020091F0860002031499B
:1008F0000C310860FFF76CFF4FF000603149803920
:10090000086010BD70B500200022022300240221DF
:10091000284D08352D6805F00C0020B1042806D0BC
:10092000082834D107E02A4D2A4E356033E02A4D9D
:10093000284E35602FE01F4D2D1D2D68C5F38054C6
:100940001C4D2D1D2D6805F03F0154B1224DB5FB06
:10095000F1F5184E361D3668C6F3881605FB06F20B
:1009600009E01B4DB5FBF1F5124E361D3668C6F396
:10097000881605FB06F20F4D2D1D2D68C5F30145A8
:100980006D1C6B00B2FBF3F5124E356003E0104DA9
:10099000104E356000BF00BF064D08352D68C5F309
:1009A00003150E4E705D0B4D2D68C540094E356028
:1009B00070BD00000038024000700040085440073D
:1009C000003C024088ED00E0FFFFF6FE10300024FE
:1009D0000024F4003400002000127A0038000020C7
:1009E0000948804709480047FEE7FEE7FEE7FEE7C3
:1009F000FEE7FEE7FEE7FEE7FEE7FEE704480549FF
:100A0000054A064B70470000AD0800088901000840
:100A1000F8680120F86E0120F86A0120F86A0120C8
:100A20001CB50121202004F0DBFE4FF47070009013
:100A300000208DF8040003208DF8050001208DF8BA
:100A400007006946314804F02DFC1CBD0021304AE6
:100A500011703049096861B12E49091F096841B117
:100A60002C490839096821B12A490C39096800293B
:100A70003CD12849096819B90121274A117016E0AB
:100A80002449091F096819B90221234A11700EE08F
:100A900020490839096819B903211F4A117006E075
:100AA0001C490C39096811B904211B4A11701A49F3
:100AB00009781A4A1278914210D119490988491CBB
:100AC000174A118014490978164A1170E8B9144977
:100AD0000988012919DD0021117016E00021104A52
:100AE00011800D4909780D4A11700EE00C490988F2
:100AF000022903DD08490978054A11700021074AD7
:100B00001170074A1180074A1170704700140240A3
:100B100049000020248242424C0000204D00002069
:100B20004A00002048000020F64A1080921C1180E4
:100B3000704710B50446F3480480052006F0BEFD5A
:100B4000F048801C008810BDEF480088ED490880FF
:100B5000704700BF0100A0F10102D0B2FAD1704786
:100B600030B5014601F01F04C1F34513CA0AE5027E
:100B700005EB43151544A8B230BD10B503460C462D
:100B8000E248008849F24131884212D1E0480088A9
:100B9000DC4908801812891C0880D8B20880DD481A
:100BA0000088891E08802012891C0880E0B2088015
:100BB00012E0D9480078012804D1D8480088401EA6
:100BC000C01A83B21946D2480088FFF7ADFF21460C
:100BD000D0480088FFF7A8FF10BD3EB504460D467B
:100BE0000020029001900090CC480088844203DAF3
:100BF000CB480088854201DB00203EBD29462046C7
:100C0000FFF7BBFFC148008849F24131884203D158
:100C10002E20BC49088002E02220BA490880B94849
:100C2000801C008808B1002002900220FFF791FF8D
:100C3000B448801C00880290B448008849F24131D1
:100C4000884211D10220FFF784FFAE48801C008843
:100C50000090BDF80800C0B20190BDF804004FF646
:100C6000FF7101EA00200190A848008849F225316F
:100C7000884202D1BDF80800BFE7A448008849F2C5
:100C8000413188420DD1BDF80800C012C002BDF844
:100C90000410891240EA4110BDF8001040EAE1203A
:100CA000ABE7BDF80800FFF75BFFA6E700B5974884
:100CB000008849F24131884203D1292091490880B6
:100CC00004E040F273110720FFF72EFF00BD00B5CE
:100CD0008E48008849F24131884203D12820894951
:100CE000088003E000210720FFF71EFF00BD70B55C
:100CF00004460023002688480078012818D1082CD3
:100D000015D2DFE804F00406080A0C0E10120624BF
:100D10000DE007240BE0042409E0052407E001248A
:100D200005E0002403E0032401E0022400BF00BF2B
:100D30007648008849F2413188425ED1082C1CD2A5
:100D4000DFE804F00406090C0F12151800BF14E0C8
:100D500043F0800311E043F040030EE043F0C00392
:100D60000BE043F0200308E043F0600305E043F0AC
:100D7000A00302E043F0E00300BF00BF362643F0CB
:100D8000080319463046FFF7CFFE03F0200068B194
:100D90006248008862490988884207DA5F48058806
:100DA0005F4800885D4908805D4805805848008894
:100DB000544908800020891C088008805748008812
:100DC000401EC0F30F20088054480078401EC0B277
:100DD000088050480088891E08800020891C0880EF
:100DE00008804F480088401EC0F30F2008804C4800
:100DF0000078401EC0B2088026E0082C1CD2DFE834
:100E000004F004070A0D15180F1243F0300313E025
:100E100043F0100310E043F020030DE000BF0BE0AF
:100E200043F0180308E043F0080305E043F03803FB
:100E300002E043F0280300BF00BF032643F48053C1
:100E400019463046FFF770FE70BD10B504461CBB56
:100E5000002031490870F020304908804FF4A0701C
:100E60002F4908802948008849F24131884209D138
:100E70002C20254908802A20254908802B20254937
:100E800008802CE02220204908802020204908806A
:100E900021202049088022E001201F4908704FF4DA
:100EA000A0701E490880F0201D490880174800885E
:100EB00049F24131884209D12C20134908802A2067
:100EC000134908802B201349088008E022200E498E
:100ED000088021200E49088020200E49088000202B
:100EE000FFF705FF10BD30B504460D4629462046E4
:100EF000FFF743FEFFF728FE0A4800880149891CD6
:100F0000088030BDFE1F006C5A00002052000020F7
:100F10005C0000205E0000205400002056000020ED
:100F2000580000204E00002030B503460C46154600
:100F3000FE48008849F24131884212D1FC480088BD
:100F4000FC4908801812891C0880D8B20880FA4829
:100F50000088891E08802012891C0880E0B2088061
:100F600012E0F6480078012804D1F5480088401EB8
:100F7000C01A83B21946EE480088FFF7D5FD214616
:100F8000ED480088FFF7D0FDEE480088E949088069
:100F9000881C058030BD2DE9FF4F04460D461646DE
:100FA0001F46A019401E86B2E819401E87B2DF48CE
:100FB000008849F2413188421AD1DD480088DD4974
:100FC00008802012891C0880E0B208803012088056
:100FD000F0B20880D8480088891E08802812891C31
:100FE0000880E8B2088038120880F8B2088032E041
:100FF000D248007801280ED1A846B946D0480088CA
:10100000801B401E1FFA80FACD480088001B401E3E
:101010001FFA80FB03E0A046B146AA46BB4650201B
:10102000039051200290522001905320009041469D
:101030000398FFF779FD49460298FFF775FD514681
:101040000198FFF771FD59460098FFF76DFD29469D
:101050002046FFF792FDBDE8FF8F00B59FB001214C
:10106000782004F0BDFB0121084604F0F1FB4FF4A9
:1010700080601D9001208DF8780000208DF87A00A6
:1010800002208DF8790001208DF87B001DA9AE4863
:1010900004F008F94CF233701D9002208DF87800AE
:1010A00000208DF87A0003208DF8790001208DF85A
:1010B0007B001DA9A54804F0F5F84FF680701D903F
:1010C00002208DF8780000208DF87A0003208DF83A
:1010D000790001208DF87B001DA99D4804F0E2F8FD
:1010E00004201D9002208DF8780000208DF87A00F1
:1010F00003208DF8790001208DF87B001DA995480B
:1011000004F0D0F84FF480501D9002208DF8780044
:1011100000208DF87A0003208DF8790001208DF8E9
:101120007B001DA98B4804F0BDF80C2200218748E4
:1011300004F043F90C220121844804F03EF90C220A
:101140000421824804F039F90C2205217F4804F07B
:1011500034F90C2208217D4804F02FF90C220921D2
:101160007A4804F02AF90C220A21784804F025F97B
:101170000C220E21754804F020F90C220F2173482F
:1011800004F01BF90C220721714804F016F90C2217
:1011900008216F4804F011F90C2209216C4804F071
:1011A0000CF90C220A216A4804F007F90C220B21E1
:1011B000674804F002F90C221146654804F0FDF876
:1011C0000C220D21624804F0F8F80C220E21604830
:1011D00004F0F3F80C220F215D4804F0EEF80C2225
:1011E00002215C4804F0E9F80C221146594804F049
:1011F000E4F80F200790002008903C200990002080
:101200000A900B900C900D90092000900020019006
:10121000082002900020039004900590069006207C
:101220000E9000200F90109010201190002012902E
:1012300014901390159016904FF480501790002042
:1012400018904FF48040199000201A9007A81B9026
:10125000CDF870D00EA803F0D6FC0121062003F0D3
:101260005DFD322006F072FA1FB000BD70B5044675
:1012700000250026324800883749098800FB01F61E
:1012800000210846FFF779FCFFF75EFC00BF03E092
:101290002848801C04806D1CB542F9D370BD08B588
:1012A00000200090FFF7D9FE01210020FFF73CFC51
:1012B000322006F04BFA0020FFF73BFC1B49088068
:1012C00008460088FF280ADB084600884FF6FF71B1
:1012D000884204D015480088B0F5134F1DD1D320A3
:1012E00014490880881C0088104908801148801C17
:1012F000008808800F48801C008808800846008805
:101300004FF6FF7101EA0020084908800948801C57
:10131000008809880843054908800448008849F284
:101320004131884237D10D48006819E05200002051
:101330005C000020FE1F006C5E00002054000020B6
:10134000560000205A00002000140240000C024009
:101350000010024000180240580000201C0100A0AC
:1013600020F00F004FF02041C1F81C010846D0F8D2
:101370001C0120F47060C1F81C010846D0F81C0163
:1013800040F00300C1F81C010846D0F81C0140F4ED
:101390000070C1F81C01FE48008849F228318842DB
:1013A0007ED141F28F01EC20FFF7BEFB41F23421E8
:1013B000EF20FFF7B9FB4FF480710120FFF7B4FB7A
:1013C0004FF4E0610220FFF7AFFB41F23001032050
:1013D000FFF7AAFB00210420FFF7A6FB40F2022141
:1013E0000820FFF7A1FB00210920FFF79DFB00214A
:1013F0000A20FFF799FB01210C20FFF795FB002144
:101400000D20FFF791FB00210F20FFF78DFB00213E
:101410001020FFF789FB07211120FFF785FB002132
:101420001220FFF781FB00211320FFF77DFB012134
:101430000720FFF779FB322006F088F941F290414E
:101440001020FFF771FB40F227211120FFF76CFB02
:10145000322006F07BF98A211220FFF765FB32204B
:1014600006F074F94FF4D0511320FFF75DFB06210D
:101470002920FFF759FB0D212B20FFF755FB3220C8
:1014800006F064F900212020FFF74EFB0021212007
:10149000FFF74AFB322006F059F90021302000E026
:1014A00074E0FFF741FB40F204613120FFF73CFBA1
:1014B00040F205313220FFF737FB00213520FFF7DE
:1014C00033FB40F609413620FFF72EFB4FF4017144
:1014D0003720FFF729FB40F201313820FFF724FBCA
:1014E00040F207713920FFF71FFB00213C20FFF776
:1014F0001BFB40F60A213D20FFF716FB322006F0C9
:1015000025F900215020FFF70FFBEF215120FFF7B5
:101510000BFB00215220FFF707FB40F23F11532045
:10152000FFF702FB4FF427416020FFF7FDFA01218E
:101530006120FFF7F9FA00216A20FFF7F5FA002190
:101540008020FFF7F1FA00218120FFF7EDFA00215A
:101550008220FFF7E9FA00218320FFF7E5FA002156
:101560008420FFF7E1FA00218520FFF7DDFA102142
:101570009020FFF7D9FA4FF4C0619220FFF7D4FA18
:1015800040F233110720FFF7CFFAC2E1804800880C
:1015900049F2253188427DD147F6F001E520FFF779
:1015A000C3FA4FF480710120FFF7BEFA4FF4E061F7
:1015B0000220FFF7B9FA41F230010320FFF7B4FA35
:1015C00000210420FFF7B0FA40F202210820FFF7C3
:1015D000ABFA00210920FFF7A7FA00210A20FFF744
:1015E000A3FA00210C20FFF79FFA00210D20FFF73E
:1015F0009BFA00210F20FFF797FA00211020FFF738
:1016000093FA07211120FFF78FFA00211220FFF72C
:101610008BFA00211320FFF787FA00210720FFF73C
:1016200083FA41F290611020FFF77EFA40F2272101
:101630001120FFF779FA9D211220FFF775FA4FF478
:10164000C8511320FFF770FA25212920FFF76CFA03
:101650000D212B20FFF768FA07213020FFF764FAED
:1016600040F203313120FFF75FFA03213220FFF708
:101670005BFA40F206213520FFF756FA08213620A2
:10168000FFF752FA40F206413720FFF74DFA4FF4C8
:10169000417100E058E03820FFF746FA0721392071
:1016A000FFF742FA40F202613C20FFF73DFA0821C1
:1016B0003D20FFF739FA00215020FFF735FAEF21DE
:1016C0005120FFF731FA00215220FFF72DFA40F2A6
:1016D0003F115320FFF728FA4FF427416020FFF70E
:1016E00023FA01216120FFF71FFA00216A20FFF78A
:1016F0001BFA00218020FFF717FA00218120FFF755
:1017000013FA00218220FFF70FFA00218320FFF750
:101710000BFA00218420FFF707FA00218520FFF74C
:1017200003FA10219020FFF7FFF94FF4C0619220D7
:10173000FFF7FAF940F233110720FFF7F5F92221FC
:101740000020FFF7F1F9E4E01148008849F2413147
:101750008842F8D1CF200F4908800020891C0880DA
:10176000C120088030200880ED20891E0880642078
:10177000891C0880032008801220088081200880AE
:10178000E820891E08808520891C0880102003E03D
:1017900052000020FE1F006C08807A200880CB20B9
:1017A000891E08803920891C08802C200880002090
:1017B00008803420088002200880F720891E0880D5
:1017C0002020891C0880EA20891E08800020891CAE
:1017D00008800880C020891E08801B20891C088082
:1017E000C120891E08800120891C0880C520891E0F
:1017F00008803020891C08800880C720891E088046
:10180000B720891C08803620891E08804820891C42
:1018100008803A20891E08805520891C0880B12044
:10182000891E08800020891C08801A200880B620A4
:10183000891E08800A20891C0880A2200880F220C6
:10184000891E08800020891C08802620891E0880A7
:101850000120891C0880E020891E08800F20891C37
:1018600008802A20088028200880082008800E2070
:1018700008800820088054200880A9200880432080
:1018800008800A2008800F20088000200880088037
:1018900008800880E120891E08800020891C0880BB
:1018A0001520088017200880072008801120088054
:1018B000062008802B200880562008803C200880C5
:1018C00005200880102008800F2008803F20088015
:1018D00008800F2008802B20891E08800020891C8A
:1018E00008800880012008803F2008802A20891E67
:1018F00008800020891C088008800880EF2008806C
:101900001120891E0880782005F020FF2920B94980
:1019100008800020FFF799FA0120B74908604FF6C8
:10192000FF70FFF7A3FC08BD2DE9F04F05460E46FA
:1019300017469846DDF824A04FF0000B781B401C9A
:101940001FFA80FB344614E021462846FFF715F9BC
:10195000FFF7FAF84FF0000907E0A648801CA0F84E
:1019600000A009F101001FFA80F9D945F5DB601CE0
:1019700084B24445E8DDBDE8F08F2DE9F84F81469B
:101980000E4617461C4600960C2C01D198460AE0DC
:10199000102C01D1A04606E0182C02D14FF02408EB
:1019A00001E0BDE8F88FA7F12000C7B2002553E0A1
:1019B0000C2C07D107EB4700904901EB800010F891
:1019C00005A012E0102C05D18D4800EB071010F88F
:1019D00005A00AE0182C07D107EBC700894901EBE5
:1019E000800010F805A000E0DBE74FF0000B2DE0D1
:1019F0000AF0800030B18448028831464846FFF73B
:101A000093FA05E08148028831464846FFF78CFA90
:101A10004FEA4A604FEA106A701C86B27C48008820
:101A2000864200DBBDE70098301AA0420AD1009E32
:101A300009F101001FFA80F976480088814500DB32
:101A4000AFE706E00BF1010000F0FF0BBBF1080F60
:101A5000CEDB00BF681CC5B24545A9DB00BFA0E7CF
:101A600010B50246012000E050430B00A1F1010433
:101A7000E1B2F9D110BD2DE9FF4F81B00646914684
:101A80001F46DDE90E4A00200090002544E0781B47
:101A9000401EC1B20A20FFF7E3FFB9FBF0F00A21B4
:101AA000B0FBF1F201FB1208009820BB781EA8429F
:101AB00021DDB8F1000F1CD1BAF1000F0CD0A34604
:101AC00004EBDB71491001FB056188B2234630222B
:101AD0000299FFF752FF0BE0A34604EBDB714910BC
:101AE00001FB056188B2234620220299FFF745FFDA
:101AF00010E001200090A34604EBDB71491001FBCC
:101B0000056188B208F13001CAB223460299FFF795
:101B100034FF00BF681CC5B2BD42B8DB05B0BDE8EC
:101B2000F08F2DE9FF4F82B004460D461646DDE9E1
:101B30001189109F3448B0F800A03448B0F800B0C4
:101B40003148A0F800803148A0F800900F98CDE906
:101B50000007324629462046059BFFF78CFF2A489E
:101B6000A0F800A02948A0F800B006B0BDE8F08FAA
:101B7000F0B506460F4615461C4611E022782B4666
:101B800039463046FFF7F9FE284605EBD07106EBE3
:101B900061018EB21F480088864200DB06E0641CAB
:101BA00020787E2802DC20782028E7DA00BFF0BD0C
:101BB0002DE9F04F04460D4616461F46DDE909891A
:101BC0001148B0F800A01148B0F800B00E48A0F8D5
:101BD00000800E48A0F800903B4632462946204639
:101BE000FFF7C6FF0848A0F800A00848A0F800B01A
:101BF000BDE8F08FFE1F006CA882424200B90008C9
:101C000074BD000864C300084E000020500000208E
:101C100058000020560000201CB50121512003F07F
:101C2000DFFD1820009001208DF8040000208DF8C1
:101C3000060003208DF8050001208DF80700694695
:101C40000E4803F02FFB18210C4803F0A7FB4FF4BC
:101C50000070009069460A4803F024FB4FF40071BD
:101C6000074803F09BFB022000906946054803F0FB
:101C700019FB0221034803F091FB1CBD0010024038
:101C8000001802400000024070B50546002400BF65
:101C90000221484804F0CAFB0028F9D0601CC4B2F5
:101CA000C82C01DD002070BD2946424804F075FBB8
:101CB00000BF01213F4804F0B9FB0028F9D0601CA7
:101CC000C4B2C82C01DD0020EDE73A4804F062FB05
:101CD000C0B2E8E700B587B00121022003F080FD23
:101CE0000121080303F0D6FD3820059002208DF86D
:101CF000180000208DF81A0003208DF8190001202B
:101D00008DF81B0005A92C4803F0CCFA052203210D
:101D1000294803F052FB05220421274803F04DFB1C
:101D200005221146244803F048FB0121080303F073
:101D300006FE00214FF4805003F001FE0020ADF8B4
:101D400000004FF48270ADF802000020ADF80400EE
:101D50000220ADF806000120ADF808004002ADF801
:101D60000A003820ADF80C000020ADF80E00072066
:101D7000ADF8100069460F4804F094F901210D48B0
:101D800004F08AFAFF20FFF77FFF07B000BD10B50F
:101D90000446084800884FF6C77108400549088086
:101DA00008460088204308800121024804F074FAA4
:101DB00010BD0000003001400004024010B50024B6
:101DC0000020F84908609020FFF75EFF0020FFF731
:101DD0005BFF0020FFF758FF0020FFF755FFFF20B3
:101DE000FFF752FF44EA0024FF20FFF74DFF0443B2
:101DF0000120ED49C1F8A002204610BD1CB501210B
:101E0000402003F0EDFC4FF48070009001208DF82D
:101E1000040000208DF8060003208DF80500012045
:101E20008DF807006946E14803F03CFA0120DD49DE
:101E30000860FFF74FFF0020FFF7A9FFFFF7BEFF85
:101E4000DB4908801CBD10B500240020D54908607E
:101E50000520FFF719FFFF20FFF716FF04460120BA
:101E6000D149C1F8A002204610BD10B5044600209B
:101E7000CC4908600120FFF707FF2046FFF704FF69
:101E80000120C949C1F8A00210BD10B50020C54904
:101E900008600620FFF7F8FE0120C349C1F8A00240
:101EA00010BD10B500BFFFF7CEFF00F00100002805
:101EB000F9D110BD10B50020BA4908600420FFF721
:101EC000E3FE0120B849C1F8A00210BD10B5FFF72C
:101ED000DCFFFFF7E6FF0020B2490860C720FFF7EC
:101EE000D3FE0120B049C1F8A002FFF7DAFF10BD10
:101EF00010B504462403FFF7C8FFFFF7D2FF002008
:101F0000A84908602020FFF7BFFEC4F30740FFF791
:101F1000BBFEC4F30720FFF7B7FEE0B2FFF7B4FE45
:101F20000120A149C1F8A002FFF7BBFF10BD10B509
:101F300000209C490860B920FFF7A6FE01209A49BD
:101F4000C1F8A002032005F0B9FB10BD10B50020B8
:101F500094490860AB20FFF797FE01209249C1F831
:101F6000A002032005F0AAFB10BD70B505460C4683
:101F7000164600208B4908600320FFF785FEC4F356
:101F80000740FFF781FEC4F30720FFF77DFEE0B2B4
:101F9000FFF77AFE04E0FF20FFF776FE28706D1C45
:101FA0003000A6F101018EB2F5D101207D49086013
:101FB00070BD70B505460C461646FFF766FF00205B
:101FC000784908600220FFF75FFEC4F30740FFF77F
:101FD0005BFEC4F30720FFF757FEE0B2FFF754FEA5
:101FE00003E02878FFF750FE6D1C3000A6F10101D8
:101FF0008EB2F6D101206B490860FFF752FF70BD29
:102000002DE9F05F07460E4614464FF00008C14622
:10201000C2460025AB4606F0FF0ACAF10000C5B271
:102020002046E11704EB1161C1F30728E11704EB27
:1020300011610912A4EB012101F0FF09BAF1000FAF
:1020400020D1B8F1000F05D1224631463846FFF7BE
:10205000B0FF64E009E04FF4807231463846FFF784
:10206000A8FF06F5807607F580775FEA0800A8F1FB
:10207000010101F0FF08EED14A4631463846FFF72C
:1020800098FF4CE0B8F1000F18D1A94510DDA9EB7D
:10209000050000F0FF0B2A4631463846FFF789FF5E
:1020A0002E442F445A4631463846FFF782FF36E029
:1020B000224631463846FFF77CFF30E0601B84B291
:1020C0002046E11704EB1161C1F30728E11704EB87
:1020D00011610912A4EB012101F0FF092A463146E2
:1020E0003846FFF766FF2E442F4409E04FF4807214
:1020F00031463846FFF75DFF06F5807607F58077B5
:102100005FEA0800A8F1010101F0FF08EED1B9F182
:10211000000F04D04A4631463846FFF74AFFBDE873
:10212000F09F2DE9F05F81460F4616460025DFF847
:1021300084B04FEA1738C7F30B0ACAF58054A64299
:1021400000DC34464FE04FEA08314FF480525846E5
:10215000FFF70BFF002504E0681C85B2A54200D103
:1021600005E00AEB05001BF80000FF28F4D000BFD3
:10217000A54221DA4046FFF7BBFE002507E019F82B
:10218000050005EB0A010BF80100681C85B2A542A9
:10219000F5DB4FEA08314FF480525846FFF730FF25
:1021A0000FE00000A002434200004342001802403A
:1021B00060000020B0010020224639464846FFF763
:1021C0001FFFA64200D10FE008F101084FF0000AFE
:1021D000A1442744301B86B2B6F5805F02DD4FF480
:1021E000805400E03446AEE700BFBDE8F09F000039
:1021F000F0B504460B46154604F16400C1B208462A
:10220000CE1701EB967601EBA602072092FBF0F6C3
:1022100000FB162082B25619581EAD4F385C304470
:1022200082B2CE1701EB9676B610A1EB86061EB9E8
:10223000032B01DA501E82B2072092FBF0F600FB5E
:10224000162008B90720F0BD072092FBF0F600FB2E
:102250001620C0B2F7E72DE9FC4705460E461746A3
:102260001C46DDE90A898DF806708DF805603A464E
:1022700031462846FFF7BCFF8DF804008DF8075063
:102280008DF800408DF801808DF802900C2C03DD54
:1022900040208DF8030002E000208DF8030001A922
:1022A000002004F0F3FA38B16946002004F050FA37
:1022B00010B10120BDE8FC870020FBE710B5044603
:1022C0008449204604F048FB8349204604F0AAFADA
:1022D00010BD10B586B00024012003F01EF90AE0FD
:1022E000601C84B2052005F031FAB4F5FA7F02DBF8
:1022F000012006B010BD412003F0C8F80028EFD03F
:102300004FF4807003F00AFA012003F022FA7F20D4
:102310000490FF2005900020039003A804F07DF9AD
:102320001E2002210D230B22CDE9001003210F20D6
:10233000FFF791FF0020DCE77CB505460C46002046
:1023400004F069FC284604F041FC204604F053FCEC
:102350004FF4804004F03AFF4FF4800005F07FF81E
:102360000121880304F0C6FE012004F054FC4FF460
:102370008000009000208DF8040008208DF80500F2
:1023800001208DF80600684604F0F8FF0320534949
:1023900008700220487088700120C870084602F05A
:1023A000ACFB7CBD10B500240121080703F061FAE5
:1023B000012004F02AFF002004F026FE45F25551CA
:1023C00088420AD0FFF785FF0446012C00D110BDDA
:1023D00045F25551002004F00AFE00210420FFF7C9
:1023E000ABFF0020F3E710B54FF4806004F0B1FEBE
:1023F00001280AD1800204F0BDFE3948006808B9FE
:10240000012000E00020364908604FF4800005F00C
:1024100026F810BDF0B587B004460D4616461F4697
:1024200000214FF4807004F071FB8DF800508DF89E
:1024300001608DF8027000208DF803008DF81040C7
:102440004FF080400390002002900098019001AA74
:102450004FF48071002004F0A2FA4FF4805004F091
:10246000B5FE4FF4003004F0FAFF0121080304F038
:1024700041FE0121080204F049FB4FF400300590B1
:1024800000208DF8180008208DF8190001208DF823
:102490001A0005A804F072FF2920104908700220D4
:1024A000487088700120C870084602F026FB07B00B
:1024B000F0BD10B54FF4807004F04BFE012802D13E
:1024C000000204F057FE4FF4003004F0C8FF10BDC6
:1024D000C0D0000866000020620000206A000020D2
:1024E0008C02424270B503460C4603E014F8015BCF
:1024F00003F8015B1500A2F10102F7D170BD30B500
:10250000034601E003F8011B1400A2F10102F9D116
:1025100030BD10B50446744951F824104A0073497F
:1025200051F824000021FFF7EAFF714951F82420F7
:10253000704951F824000021FFF7E1FF01206E49A6
:10254000085510BD10B501460023002207E067487A
:1025500050F8210030F8120000B15B1C521C624898
:1025600050F821009042F2D8642058435E4C54F851
:102570002140B0FBF4F0C0B210BD2DE9F043044699
:102580000F460025A9465C48005D10B92046FFF7BC
:10259000C0FF1FB94FF0FF30BDE8F083574850F837
:1025A0002400B7FBF0F086B2544850F82400B7FB83
:1025B000F0F100FB117008B1701C86B24A4850F867
:1025C0002400451E22E0494850F8240030F8150048
:1025D00020B909F101001FFA80F901E04FF000096C
:1025E000B14512D14FF0000808E0404850F82400EF
:1025F00005EB080120F8116008F10108B045F4D39B
:102600003E4850F824006843C6E76D1E002DDADA14
:102610004FF0FF30C0E7F0B504460E463648005D87
:1026200020B92046FFF775FF0120F0BD304850F873
:102630002400B04217D9314850F82400B6FBF0F11D
:102640002A4850F8240030F81120002507E0002027
:10265000264B53F824304F1923F817006D1C954270
:10266000F5DB0020E1E70220DFE770B505460C4608
:1026700004B970BD1F4850F82500261A3146284677
:10268000FFF7C9FF00BFF4E770B504460E463146B8
:102690002046FFF772FF0546681C08B9002070BD90
:1026A000144850F824002844F9E7F0B504460F46D2
:1026B000164631462046FFF760FF0546681C08B9FC
:1026C0000020F0BD0B4951F8241048193246394614
:1026D000FFF708FF39462046FFF7C7FF054850F8C7
:1026E00024002844EDE70000CCD00008780000204A
:1026F000DCD000087000002080000020D4D000084A
:1027000002460E2A70D2DFE802F086071019222B4B
:10271000353F49535D67727CF748405C00F0080024
:1027200008B9002070470120FCE7F348405C00F046
:10273000040008B90020F5E70120F3E7EE48405C0B
:1027400000F0020008B90020ECE70120EAE7EA48BF
:10275000405C00F0010008B90020E3E70120E1E758
:10276000E54B481C185C00F0800008B90020D9E750
:102770000120D7E7E04B481C185C00F0400008B986
:102780000020CFE70120CDE7DB4B481C185C00F0B0
:10279000200008B90020C5E70120C3E7D64B481C3C
:1027A000185C00F0100008B90020BBE70120B9E771
:1027B000D14B481C185C00F0080008B90020B1E7B4
:1027C0000120AFE7CC4B481C185C00F0040008B9AE
:1027D0000020A7E70120A5E7C74B481C185C00F0C4
:1027E000020010B900209DE715E001209AE7C24BD6
:1027F000481C185C00F0010008B9002092E7012095
:1028000090E7BD4B881C185C00F0800008B90020E0
:1028100088E7012086E7002084E72DE9FF4F83B099
:102820000C461F466421039890FBF1F0C0B2019062
:10283000039890FBF1F201FB1200C5B20198132836
:1028400006D00198142803D0002007B0BDE8F08F0F
:102850000198142806D105F1630000EB40001FFA2F
:1028600080F904E0681E00EB40001FFA80F9A249DD
:1028700009F10200085C00F0600A4FEA6A1A09F1E7
:102880000200085C00F01F0BBAF1010F04D1ABF19C
:10289000010000F0FF0803E00BF11E0000F0FF084C
:1028A0000A2C07DA601E9549095C05980844401E09
:1028B00086B208E0A4F10A00914931F81010059899
:1028C0000844401E86B2022C08DDE91705EB917121
:1028D0008910A5EB810109B9701C86B246453EDB23
:1028E000A6EB080086B2012401200290002000908F
:1028F00049460298FFF704FF10B94FF01D0A01E0A6
:102900004FF01E0A7C4911F80900C11700EB117144
:102910004FEA211B1DE0A6EB0A0086B20298401C7C
:10292000C0B202905C4508D10098C043C0B200908C
:10293000009820B9601CC4B201E0601CC4B24946D2
:102940000298FFF7DDFE10B94FF01D0A01E04FF0CD
:102950001E0A5645DFDA701CC0B205904FE0A8EBA6
:10296000060000F0FF081DB963251320019001E067
:10297000681EC5B2A9F103001FFA80F90C245E4954
:1029800011F80900C11700EB11714FEA211BBBF1CF
:10299000000F02D10C20029001E00D2002900020D7
:1029A000009049460298FFF7ABFE10B94FF01D0AA0
:1029B00001E04FF01E0A1BE0A8EB0A0000F0FF0840
:1029C0000298401EC0B20290009808B9601EC4B2BE
:1029D0005C4503D10098C043C0B2009049460298BC
:1029E000FFF78EFE10B94FF01D0A01E04FF01E0AEE
:1029F000D045E1DCAAEB0800401CC0B2059001986C
:102A000007F8010B07F8015B07F8014B05983870D0
:102A100001201AE710B50A46B0F5F86F09DBA0F5FA
:102A2000F86398B23C2390FBF3F403FB1403D9B290
:102A30000AE0C0F5F86398B23C2390FBF3F403FB83
:102A40001403C3F13C03D9B2117010BD10B50023BB
:102A500005E011F8014B00F8014B5C1CE3B2934216
:102A6000F7DB10BD2DE9FC4105460E4617461C4616
:102A70000F2224A12046FFF7E9FF01AB3A46314679
:102A80002846FFF7CAFE08B9BDE8FC819DF805207D
:102A90009DF8041001EBC10303EB011102EB81006F
:102AA0006946FFF7B7FF9DF800000A2190FBF1F29D
:102AB00001FB1200174951F82080022241462046AE
:102AC000FFF7C4FF9DF800000C2190FBF1F201FB21
:102AD0001200114951F8208002224146A01CFFF744
:102AE000B5FF9DF8060001281AD102220BA1A01DF6
:102AF000FFF7ACFF1EE00000E4D00008EAD30008B6
:102B0000F4D30008BCD7D7D3C4EAD5FDD4C2B3F5FB
:102B1000D2BB0000E40000200C010020D5FD000025
:102B20009DF80600401E8C4A52F820100222A01D7B
:102B3000FFF78CFF9DF807000A280EDD9DF80700BF
:102B40000A2190FBF1F0854951F82080022241468C
:102B500004F10A00FFF77AFF05E0022280A104F1E8
:102B60000A00FFF773FF9DF80700401E0A2190FB43
:102B7000F1F201FB1200784951F82080022241460F
:102B800004F10C00FFF762FF00BF7DE72DE9F04183
:102B900004460D46B4F5FA6F03DB40F602008442AA
:102BA00002DD0020BDE8F0810DB10C2D01DD00201B
:102BB000F8E7681E4006010E0F2A01DB481CC1B26F
:102BC00008464FEAE17C01EB5C7C4FEAEC08A4F597
:102BD000FA6C0CEB4C0CC444DFF8888118F80C60DC
:102BE0004FEAE17C01EB5C7C4FEAEC0CA1EBCC0CF6
:102BF00006FA0CFC0CF080075B48405C187097B13B
:102C0000012905D00B2903D0122901D0152907D19C
:102C100040F2FC70844203DA1878401C187002E01D
:102C20001878401E18700120BCE72DE9F8430546CE
:102C3000884614461E466B46224641462846FFF704
:102C4000A5FF10B90020BDE8F883A8F101004006F7
:102C5000070E0F2C01DB781CC7B29DF800008442E0
:102C600008D1424850F8271005223046FFF7EEFE03
:102C70000120E8E70F223EA13046FFF7E7FE9DF86E
:102C8000000084420BDA394850F827100422B01CA7
:102C9000FFF7DCFE9DF80000001BC4B24DE0781C7D
:102CA000172801DD0020CEE7304A781C52F82010AA
:102CB0000422B01CFFF7CAFE0F2C0ADA6B460F2263
:102CC00041462846FFF762FF9DF80000001BC4B292
:102CD00033E0A8F101002A4911F80090B8F1020F81
:102CE00017D1E91705EB91718910A5EB810181B925
:102CF000642195FBF1F201FB125131B94FF4C87117
:102D000095FBF1F201FB125119B909F1010000F034
:102D1000FF0908F10100C0B280460D2801D14FF033
:102D200001086B46012241462846FFF72FFFA9EB19
:102D300004009DF800100844C4B20A2094FBF0F08F
:102D40003030B0720A2094FBF0F100FB11403030BB
:102D5000F072012077E700003C0100206C010020A8
:102D6000B3F5000039D30008D2D300088400002056
:102D7000C0EBC1A2B6ACBBB9D3D03F3FCCEC000096
:102D8000FAD300080020FE490860091D0860091DEB
:102D90000860091D0860FA4924310860091D0860AF
:102DA000091D0860F748F649383108600020091D00
:102DB0000860704701460020012900D011B9F24B8C
:102DC000197000E0262070470146ED4A121D106878
:102DD00020F0FF0008431060704770B5044606E01D
:102DE000E7483430056805F0450000B100E0F7E73A
:102DF00000BF042002F010FF20B1042002F017FFF2
:102E0000032070BD012002F007FF20B1012002F075
:102E10000EFF0120F5E7DA4810300068A04201D02B
:102E20001020EEE740F2FF5002F001FFD4481430CA
:102E3000006808210840C0B2E3E72DE9FC410746DD
:102E40000D46002600240020009001900820CF4964
:102E5000086010204860402088600020C8604FF45F
:102E600080600861084602F044FE1020FFF7B5FFBD
:102E7000044614B12046BDE8FC81C5480088000422
:102E8000C249086037204860402088600020C86040
:102E90004FF480600861084602F02BFE3720FFF7F0
:102EA0009CFF04460CB12046E5E74FF0FF30B949DE
:102EB000086008204860302088600220C860002038
:102EC000086101204861084602F03FFE0020AF493A
:102ED000086033204860402088600020C8604FF4BC
:102EE00080600861084602F004FE3320FFF775FF9A
:102EF00004460CB12046BEE70DE04FF4001002F08E
:102F00008BFE40B19E48803000684DF82600761C4C
:102F1000022E00D307E09A483430006840F22A615C
:102F200008400028E9D000BF082002F075FE20B15B
:102F3000082002F07CFE04209DE7022002F06CFED7
:102F400020B1022002F073FE022094E7202002F05C
:102F500063FE20B1202002F06AFE06208BE74FF4CA
:102F6000007002F059FE28B14FF4007002F05FFECD
:102F7000072080E740F2FF5002F059FE009800065B
:102F8000009901F47F4140EA0120009901F47F019A
:102F900040EA1120009940EA11606860019800063B
:102FA000019901F47F4140EA0120019901F47F0178
:102FB00040EA1120019940EA1160286020465AE752
:102FC0007CB50546002400200090019000260DB13C
:102FD000022600E000266A481430006800F0007005
:102FE00008B10E207CBD6A49098888B26946FFF79E
:102FF00024FF04460CB12046F4E7019800F4802039
:1030000060B3634800880004604908603720486066
:10301000402088600020C8604FF480600861084646
:1030200002F067FD3720FFF7D8FE04460CB12046BA
:10303000D8E756480660062054494860402088601A
:103040000020C8604FF480600861084602F051FD1E
:103050000620FFF7C2FE04462046C3E72520C1E74D
:1030600070B5044600254C480078032802D1272576
:10307000284670BD4848007838B147480078012894
:1030800003D045480078022819D1B4F5805F02D1F9
:1030900027252846EDE7E0B2FFF792FF054675B910
:1030A0003748001D006820F4C0503549091D0860EC
:1030B0000846006820430860084600680860284603
:1030C000D7E710B504463148046007202F4948600F
:1030D000402088600020C8604FF480600861084686
:1030E00002F007FD0720FFF778FE10BDF0B501469E
:1030F00000200022284B1B7881F85630244B1B8877
:10310000A1F85430254B1B681A0E93090B70C2F3BB
:1031100083034B7002F003038B70204B1B68C3F3D7
:103120000742CA701D4B1B88C3F307220A711B4B51
:103130001A784A715B681A0E1301CB80174B5B68D3
:10314000C3F30742CB8843EA1213CB8002F00F038C
:103150000B72124B9B88C3F30722D3094B72C2F345
:1031600080138B72C2F34013CB72C2F300130B7344
:1031700000234B73084B1B78C3B1074B1B780FE040
:10318000002C0140FF07C00084010020C865012019
:1031900080010020DC6501207C010020F465012015
:1031A000012B03D0FE4B1B78032B4FD193071B0D34
:1031B0000B61FC4B1A790B6943EA82030B61F94BF3
:1031C0009B681A0E0B6943EA92130B61C2F3C203A8
:1031D0000B7502F007034B75F24B9B68C3F3074274
:1031E00053098B75C2F38203CB7593075B0F0B7684
:1031F000EC4B1B89C3F307220B7E43EAD2130B76F9
:103200000B695B1C0024C1E912340B7E9B1C01245A
:1032100004FA03F3DC17D1E91256A5FB037C06FB85
:1032200003C305FB0433C1E912730C7A0123A340E5
:103230000B650024D1E912650B6DA6FB037C05FB31
:1032400003C306FB0433C1E912732EE0D44B1B7891
:10325000022B2AD1D34B1A7993069B0A0B61D14BCF
:103260009B681A0E0B6943EA02230B61CD4B9B68E6
:10327000C3F307420B6913430B61CA4B1B89C3F3AA
:1032800007220B695B1C4FF40074A3FB04464FF448
:1032900080630025A4FB037C06FB03C304FB05330A
:1032A000C1E912734FF400730B65C2F3801301F888
:1032B000193F93065B0E4B70BA4B1A7A4B7843EA70
:1032C000D2134B7002F07F038B70B64BDB681A0E83
:1032D000D309CB70C2F341130B71C2F382034B715C
:1032E00093071B0F8B71AF4BDB68C3F307428B79DE
:1032F00043EA92138B71C2F34013CB7100230B721C
:1033000002F001034B72A74B9B89C3F30722D30939
:103310008B72C2F38013CB72C2F340130B73C2F3F0
:1033200000134B73C2F381038B7302F00303CB735F
:103330009C4B1A7B53080B7401234B749A4B1B68EC
:103340001A0ECA741939984B1B68C3F3074214024A
:10335000CC85954B1B88C3F30722CB8D1343CB85BC
:10336000914B1A7814060C635B681A0E0B6B43EAD8
:1033700002440C638C4B5B68C3F307420B6B43EA5C
:1033800002240C63884B9B88C3F307220B6B134307
:103390000B63854B1A7934235A54834B9B681A0E5E
:1033A00035235A54804B9B68C3F3074214068C6341
:1033B0007D4B1B89C3F307228B6B43EA02448C636A
:1033C000794B1A7A8B6B43EA02248C63764BDB6869
:1033D0001A0E8B6B13438B63734BDB68C3F307428B
:1033E0003C235B5C43EA12143C235C5413071C0D22
:1033F000CC876D4B9B89C3F30722CB8F1343CB87BD
:10340000694B1A7B540840235C54012441235C54CB
:10341000F0BD70B500264FF4803505E063480468C0
:1034200004F0450000B103E02800A5F10105F5D145
:1034300000BF15B104F0040028B10326042002F0F7
:10344000F6FB304670BD012002F0E6FB18B1012604
:10345000012002F0ECFB40F2FF5002F0E8FB3046A6
:10346000F0E72DE9F04105460E464FF0000805E073
:103470004E48076807F0450000B100E0F8E700BFDC
:10348000042002F0C9FB28B1042002F0D0FB032085
:10349000BDE8F081012002F0BFFB20B1012002F065
:1034A000C6FB0120F4E7414824380068A84201D057
:1034B0001020EDE740F2FF5002F0B9FB3B48203806
:1034C000046804F4604018B9200C30804046DFE7FF
:1034D00004F4005008B11320DAE704F4804008B186
:1034E0001020D5E704F4004008B10F20D0E7404693
:1034F000CEE738B500240120009002F0F4FA10B9AC
:103500002524204638BD26480078042825D00020F0
:103510002749086002204860C02088600020C860F9
:103520004FF480600861084602F0E3FAFFF771FF8C
:1035300004460CB12046E5E71C48203800681A49CB
:1035400008601A481C380068486018481838006835
:103550008860164814380068C8601148007858B16F
:103560000F480078012807D00D480078062803D0BE
:103570000B480078022821D100200D490860032063
:103580004860402088600020C8604FF48060086177
:10359000084602F0AEFA69460320FFF762FF09E031
:1035A0007C010020F465012004660120342C0140D8
:1035B000C865012004460CB12046A3E7FE48007808
:1035C000032816D1BDF800000004FC490860032060
:1035D0004860402088600020C8604FF48060086127
:1035E000084602F086FAFFF714FF04460CB12046A5
:1035F00088E7F148007804282AD0BDF80000F04997
:103600000860BDF800000004EC490860092048602B
:10361000C02088600020C8604FF4806008610846C0
:1036200002F067FAFFF7F5FE04460CB1204669E7A1
:10363000E4480068E4490860E248001D006848600A
:10364000E048083000688860DE480C300068C860D8
:10365000002057E710B506E0DA482030046804F08F
:10366000450000B100E0F7E700BF042002F0D4FA03
:1036700020B1042002F0DBFA032010BD40F2FF501D
:1036800002F0D5FA0020F8E770B500264FF4803537
:1036900006E0CC482030046804F0450000B103E0A7
:1036A0002800A5F10105F4D100BF15B104F0040014
:1036B00028B10326042002F0BAFA304670BD04F0A7
:1036C000400018B10026402002F0B1FA3046F5E77C
:1036D00070B500254FF4803404E0802002F09CFA9D
:1036E00000B103E02000A4F10104F6D100BF0CB941
:1036F000032070BD40F2FF5002F099FA2846F8E727
:103700002DE9F0470027002400260025A046A14609
:103710007620AE4908750020086048608860C8605F
:103720000861084602F0BBF9032002F0D8F9A54869
:103730001038006840F48070A2491039086000BF5A
:1037400012E000209D49086048608860C8604FF41E
:1037500080600861084602F0CCF9FFF7B9FF044623
:1037600004B903E0781CC7B24A2FEADB00BF14B1EA
:103770002046BDE8F0874FF4D570904908600820D6
:103780004860402088600020C8604FF48060086175
:10379000084602F0AEF9FFF777FF044624B901208E
:1037A000854908704FF0804900208449086037201F
:1037B0004860402088600020C8604FF48060086145
:1037C000084602F096F93720FFF707FB0446002C65
:1037D0004BD134E000207949086037204860402010
:1037E00088600020C8604FF480600861084602F0DD
:1037F00080F93720FFF7F1FA04460CB12046B8E70C
:10380000734849EA00006D4908602920486040205B
:1038100088600020C8604FF480600861084602F0AC
:1038200068F9FFF717FF04460CB12046A1E7654889
:103830000668012080EAD67080F001086D1CB8F19E
:10384000000F03D14FF6FF708542C3D34FF6FF70D0
:10385000854202D31B2420468BE706F080400600F9
:1038600032D00220544908702EE01CE059485349D8
:10387000086001204860402088600020C8604FF444
:1038800080600861084602F034F9FFF7E3FE044661
:103890000CB120466DE74B480668012080EAD670DF
:1038A00080F001086D1CB8F1000F03D14FF6FF70D6
:1038B0008542DBD34FF6FF70854202D31B2420469E
:1038C00057E703203C490870204652E73EB50024E4
:1038D00000250121404801F083FF0121C80201F0C9
:1038E000D9FF0121C80202F02AF84FF4F8500190E4
:1038F00002208DF808008DF8090000208DF80A00DC
:1039000001208DF80B0001A9344801F0CBFC042004
:10391000019001A9324801F0C5FC0C2208212F4872
:1039200001F04BFD0C2209212C4801F046FD0C2230
:103930000A212A4801F041FD0C220B21274801F001
:103940003CFD0C221146254801F037FD0C220221D6
:10395000234801F032FD00214FF4006001F0EFFF39
:10396000FFF710FA31208DF8000000208DF80100DB
:103970008DF8020001208DF80300684601F0BDF8C3
:10398000FFF7BEFE044614B9FFF7B3FD04461CB9A9
:103990001448FFF7ABFB044634B91249B1F8541090
:1039A0000804FFF78EFB044624B94FF40060FFF7CC
:1039B00057FB0446E4B117E07C010020C8650120F4
:1039C00080010020142C0140F4650120B065012025
:1039D000000010800080FF800C00400000080240C2
:1039E000000C024018660120FE480078032812D11E
:1039F000FD4890F8560020B1FB4890F85600012889
:103A000001D1022500E000252846FFF7DDF900205E
:103A1000FFF7D0F9044620463EBD10B5002002F065
:103A20005EF8002010BD70B590B004460E461546F5
:103A300000BFEE4802F03FFA0028FAD1EB4802F04E
:103A400011F94FF000600190E94802900394049549
:103A50000020059006904FF4806007908000089049
:103A60008000099000200A904FF440300B90042011
:103A70000C9003200D904FF400000E9080100F90DA
:103A800001A9DA4802F090F92021D84802F0DCF9C7
:103A90000121D64802F0C2F910B070BD01460020E5
:103AA00002E04910421CD0B20129FAD170472DE939
:103AB000F84F8146174698460A9C4FF0000AD346B5
:103AC0004D464FF0FF36B9F1000F02D12620BDE878
:103AD000F88F0020C64954390860C248007802288F
:103AE00005D10402780A40EAC8574FEA6828002046
:103AF000C04988604860401E08600120486100207D
:103B0000C8600861084602F020F8B9486C380068BF
:103B100000F0007008B10E20D9E7002C21DDB4F5CB
:103B2000006F1EDC601E2040D8B92046FFF7B6FFAC
:103B30000090B14804601020AF4948604020886080
:103B40000020C8604FF480600861084601F0D1FF92
:103B50001020FFF742F98246BAF1000F03D0504619
:103B6000B5E72620B3E700980001A249886008461F
:103B700044604FF0FF300860012048610220C860B7
:103B800000200861084601F0E0FF9B480760112013
:103B900099494860402088600020C8604FF48060E8
:103BA0000861084601F0A5FF1120FFF716F98246CB
:103BB000BAF1000F01D0504689E7904800780028FC
:103BC0005AD1FCF756FB17E04FF4004002F024F8FE
:103BD00070B14FF0000B05E08548006845F82B00F8
:103BE0000BF1010BBBF1080FF6D32035844E03E037
:103BF0000EB904206BE7761E7D484C38006840F211
:103C00002A6108400028DFD0082002F005F820B122
:103C1000082002F00CF8042059E7022001F0FCFF14
:103C200020B1022002F003F8022050E7202001F02A
:103C3000F3FF20B1202001F0FAFF062047E74FF400
:103C4000007001F0E9FF28B14FF4007001F0EFFFC0
:103C500007203CE703E06648006828602D1D4FF40C
:103C6000001001F0D9FF0028F5D1FCF704FB40F269
:103C7000FF5001F0DCFF39E060480078012835D1C1
:103C80000020604908706049087060490870584811
:103C90004438006840F22A310843554944390860E5
:103CA00053485438006840F00800514954390860BE
:103CB000002221464846FFF7B6FE00E0761E4B483C
:103CC0005838006800F0006038B95048007820B9D2
:103CD0004C48007808B9002EF0D10EB90420F6E661
:103CE0004848007810B1474890F800A05046EEE6EA
:103CF0002DE9FF5F17469846DDE90E464FF00009B3
:103D0000CA464FF0FF354249009808600020384904
:103D10005439086033480078022805D10402780A33
:103D200040EAC8574FEA6828002032498860486056
:103D3000401E0860012048610020C86008610846F4
:103D400001F003FF2A486C38006800F0007018B1D9
:103D50000E2004B0BDE8F09F002C21DDB4F5006F0B
:103D60001EDC601E2040D8B92046FFF797FE834630
:103D700021480460102020494860402088600020CD
:103D8000C8604FF480600861084601F0B2FE102060
:103D9000FFF723F88146B9F1000F03D04846D8E772
:103DA0002620D6E7012E6ED906FB04F0B0F1007F85
:103DB00001D32620CDE74FEA0B100E49886006FBA1
:103DC00004F048604FF0FF30086001204861022095
:103DD000C86000200861084601F0B7FE0648076089
:103DE000122017E07C010020186601205864024070
:103DF000802C0140DC650120C86501208401002081
:103E0000FFFF7F0086010020850100208701002040
:103E100088010020F9494860402088600020C8607F
:103E20004FF480600861084601F063FE1220FEF73F
:103E3000D4FF8146B9F1000F01D0484689E7F04828
:103E4000007800287ED1FCF714FA1EE04FF4004001
:103E500001F0E2FEA0B14FF0000A07E0E948006877
:103E6000E949096841F82A000AF1010ABAF1080F84
:103E7000F4D3E54800682030E3490860E34D04E0EE
:103E800015B9042065E7AEE06D1EDE484C380068C9
:103E900040F22A3108400028D8D0082001F0BCFEAA
:103EA00020B1082001F0C3FE042052E7022001F0F7
:103EB000B3FE20B1022001F0BAFE022049E7202023
:103EC00001F0AAFE20B1202001F0B1FE062040E75B
:103ED0004FF4007001F0A0FE28B14FF4007001F023
:103EE000A6FE072035E709E0C6480068C64909680C
:103EF0000860C5480068001DC34908604FF4001001
:103F000001F08AFE0028EFD14FF4807001F084FEAA
:103F100020B3BF48007838B1BD480078012803D0ED
:103F2000BB480078022819D10020B44908600C2051
:103F30004860402088600020C8604FF480600861BD
:103F4000084600E011E001F0D4FD0C20FEF745FF2B
:103F50008146B9F1000F01D04846FAE6FCF78BF92B
:103F600040F2FF5001F063FE3DE0A54800780128D3
:103F700039D10020A74908700120A7490870002006
:103F8000A64908709F484438006840F22A31084327
:103F90009C49443908609B485438006840F0080048
:103FA00098495439086006FB04F100220098FFF795
:103FB0003AFD00E06D1E9A48006800F0006008B904
:103FC000002DF7D10DB90420C3E600BF9348007857
:103FD00018B9904800780028F8D08E48007810B1C1
:103FE0008C4890F800904846B3E61CB50446002083
:103FF000019000908B4800880004804908600D20E3
:104000004860402088600020C8604FF480600861EC
:10401000084601F06EFD7B484C380068009003E0D4
:1040200078484C3800680090009800F0450000285F
:10403000F6D0012001F0F0FD20B1012001F0F7FDE4
:1040400001201CBD042001F0E7FD20B1042001F097
:10405000EEFD0320F5E76B48703800680D2801D0AD
:104060001020EEE740F2FF5001F0E1FD65486C38AA
:10407000006801900198C0F3432020700020E0E721
:104080002DE9FF5F86B017469846149D0026002054
:104090000590049000248146039082460290019589
:1040A000DDF818B0DDF818B0BBF1000F03D1262001
:1040B0000AB0BDE8F09F00205249543908605A49BF
:1040C00088604860401E0860012048610020C86088
:1040D0000861084601F039FD4A486C38006800F074
:1040E000007008B10E20E3E749480078022805D1A6
:1040F0000502780A40EAC8574FEA6828002D1FDDFC
:10410000B5F5006F1CDC681E2840C8B92846FFF7CB
:10411000C5FC0590394805601020384948604020AA
:1041200088600020C8604FF480600861084601F094
:10413000E0FC1020FEF751FE06461EB13046B7E700
:104140002620B5E73748008800042C4908600D2078
:104150004860402088600020C8604FF4806008619B
:10416000084601F0C6FC0D20FEF737FE06460EB1EC
:1041700030469DE723486C38006803904FF0FF34C9
:104180001CE0641E2748008800041C4908600D20BC
:104190004860402088600020C8604FF4806008615B
:1041A000084601F0A6FC0D20FEF717FE06460EB1EC
:1041B00030467DE713486C3800680390039800F49C
:1041C000807008B9002CDCD10CB9292070E70B48AD
:1041D0000760182009494860402088600020C860B6
:1041E0004FF480600861084601F083FC1820FEF758
:1041F000F4FD0646D6B130465AE70000C8650120F6
:1042000084010020802C014088010020FFFF7F00F6
:104210007C0100208601002085010020870100200C
:104220000064024080010020DC6501200020F84984
:10423000087005980001F7498860084645604FF00E
:10424000FF300860012048610020C860086108460E
:1042500001F07BFC4FF0FF34EF48007800287CD160
:10426000FCF707F843E04FF4804001F0D5FCC8B3F9
:104270000198A0EB0900202821D20198A0EB0900A9
:1042800000F0030020B90198A0EB0900800804E0C9
:104290000198A0EB09008008401C02904FF0000A32
:1042A00009E0DE49DBF8000008600AF1010A0BF1C1
:1042B000040B09F1040902988245F2D30FE04FF094
:1042C000000A05E05BF82A00D44908600AF1010AF7
:1042D000BAF1080FF6D30BF1200B09F120096FF0AA
:1042E000404404E0FFE70CB90420E1E6641ECB483B
:1042F0004C38006840F21A6108400028B3D008200A
:1043000001F08AFC20B1082001F091FC0420CFE6E6
:10431000022001F081FC20B1022001F088FC022083
:10432000C6E6102001F078FC20B1102001F07FFCDF
:104330000520BDE64FF4007001F06EFC30B14FF483
:10434000007001F074FC0720B2E606E0FBF793FF73
:1043500040F2FF5001F06BFC43E0AF4800780128C9
:104360003FD10020AE490870A9490870AD490870D6
:10437000AA484438006840F21A310843A749443932
:104380000860402229460698FFF74DFBA3485438A1
:10439000006840F00800A1495439086000E0641E3C
:1043A000A148006800F0006008B9002CF7D11CB9E2
:1043B000FFF78CFA04207BE64FF0FF3400E0641E28
:1043C0009848007820B99648007808B9002CF6D1B2
:1043D0000CB904206CE69248007810B1904800783F
:1043E00066E640F2FF5001F022FC04A8FFF7FDFD55
:1043F000064603E004A8FFF7F8FD06463EB99DF81F
:1044000010000728F6D09DF810000628F2D030469C
:104410004EE62DE9FF5F84B0DDE91247002600205B
:1044200003900290002580468146019007FB04FB23
:10443000DDF810A0DDF810A0BAF1000F03D126209E
:1044400008B0BDE8F09F00207449543908607149F4
:1044500088604860401E0860012048610020C860F4
:104460000861084601F071FB6C486C38006800F088
:10447000007008B10E20E3E76C480078022808D1EC
:104480000402DDE90601400A40EAC1504912CDE9C3
:104490000601002C1FDDB4F5006F1CDC601E2040FF
:1044A000C8B92046FFF7FAFA03906148046010206B
:1044B0005F494860402088600020C8604FF48060F9
:1044C0000861084601F015FB1020FEF786FC064641
:1044D0001EB13046B4E72620B2E7012F6FD907FBA3
:1044E00004F0B0F1007F01D32620A9E74F480078FF
:1044F00038B14E480078012803D04C480078022893
:104500002DD14C4800880004494908603720486094
:10451000402088600020C8604FF480600861084631
:1045200001F0E7FA3720FEF758FC06460EB1304698
:1045300086E73F48076017203D4948604020886073
:104540000020C8604FF480600861084601F0D1FA8D
:104550001720FEF742FC06460EB1304670E734499C
:104560000698086019204860402088600020C860D4
:104570004FF480600861084601F0BBFA1920FEF78D
:104580002CFC06460EB130465AE70398000121493B
:10459000886007FB04F048604FF0FF30086001209E
:1045A00048610020C8600861084601F0CEFA1A4848
:1045B0000078002872D1451EFBF75BFE54E0F8E05E
:1045C0004FF4804001F028FBB0B3ABEB080020288B
:1045D00033D2ABEB080000F0030018B9ABEB0800D6
:1045E000800803E0ABEB08008008401C01904FF00E
:1045F000000909E00949DAF80000086009F1010939
:104600000AF1040A08F1040801988145F2D324E074
:1046100085010020DC65012084010020802C014000
:104620008601002087010020006402407C010020F8
:10463000C86501208001002012E04FF0000905E06C
:104640005AF82900F849086009F10109B9F1080F81
:10465000F6D30AF1200A08F120086FF0404503E084
:104660000DB90420ECE66D1EEF484C38006840F2AE
:104670001A3108400028A3D0082001F0CDFA20B15B
:10468000082001F0D4FA0420DAE6022001F0C4FA8E
:1046900028B1022001F0CBFA0220D1E640E0102040
:1046A00001F0BAFA20B1102001F0C1FA0520C7E6E6
:1046B0004FF4007001F0B0FA28B14FF4007001F02F
:1046C000B6FA0720BCE64FF4807001F0A5FA00B3FB
:1046D000D648007838B1D5480078012803D0D348AF
:1046E0000078022815D10020D14908600C204860CC
:1046F000402088600020C8604FF480600861084650
:1047000001F0F7F90C20FEF768FB06460EB13046C3
:1047100096E6FBF7B0FD40F2FF5001F088FA48E062
:10472000C4480078012844D10020C3490870012002
:10473000C24908700020C2490870BB48443800686C
:1047400040F21A310843B8494439086007FB04F1C4
:1047500040220498FFF767F9B3485438006840F0E6
:104760000800B149543908604FF0FF3500E06D1E74
:10477000B448006800F0006008B9002DF7D11DB9F9
:10478000FFF7A4F804205BE64FF0FF3500E06D1E54
:10479000AB48007820B9A848007808B9002DF6D1B8
:1047A0000DB904204CE6A448007810B1A248007866
:1047B00046E640F2FF5001F03AFA02A8FFF715FC76
:1047C000064603E002A8FFF710FC06463EB99DF836
:1047D00008000728F6D09DF808000628F2D03046D9
:1047E0002EE610B54FF4807001F016FA88B39348A6
:1047F0000078012814D100208D4908600C20486001
:10480000402088600020C8604FF48060086108463E
:1048100001F06FF90C20FEF7E0FA8749087002E01A
:1048200000208549087080484838006840F480704E
:104830007D4948390860081D00684CF23A318843C8
:1048400079494439086001207D4908707A48007828
:1048500010BDFFE7022001F0DFF978B1022001F07E
:10486000E6F97148443800684CF23A3188436E49A1
:1048700044390860022070490870E9E7082001F017
:10488000CBF978B1082001F0D2F9674844380068C4
:104890004CF23A318843644944390860042066493F
:1048A0000870D5E7202001F0B7F978B1202001F099
:1048B000BEF95D48443800684CF23A3188435A49A1
:1048C0004439086006205C490870C1E7102001F0F7
:1048D000A3F978B1102001F0AAF9534844380068D0
:1048E0004CF23A3188435049443908600520524916
:1048F0000870ADE74FF4007001F08EF980B14FF40D
:10490000007001F094F94848443800684CF23A319C
:10491000884345494439086007204749087097E7AC
:10492000002095E710B5FFF75CFF10BD70B5044699
:10493000002514B92625284670BD43480088000488
:104940003B4908600D204860402088600020C86016
:104950004FF480600861084601F0CBF80D20FEF7A7
:104960003CFA05460DB12846E6E72F486C3800684A
:1049700020602846E0E708B5002000906846FFF771
:10498000D5FF08B1FF2008BD0098C0F34320FAE727
:104990002DE9FE4F83460E469146002002900025E9
:1049A00034462248007818B1680240EAD4556402BF
:1049B0000BF00300F0B14FF0000A18E04FF4007064
:1049C00000904FEA4A20071945EBE0733A461F482A
:1049D000FFF76DF802904FF400721C49584606F03C
:1049E00062FE0BF5007B0AF1010000F0FF0ACA45E8
:1049F000E4DB16E0B9F1010F09D14FF40070224653
:104A00002B4600905846FFF752F8029009E04FF409
:104A1000007022462B46CDE900095846FFF768F999
:104A200002900298BDE8FE8F802C01407C0100209E
:104A3000C865012084010020860100208501002036
:104A40008701002000640240800100207066012080
:104A50002DE9FE4F06468946924600200290002529
:104A60004C462148007818B1680240EAD4556402E7
:104A700006F00300F0B14FF0000B18E04FF40072A5
:104A800031461A4806F00FFE4FF4007000904FEACE
:104A90004B20071945EBE0733A461448FFF7F0FA4C
:104AA000029006F500760BF1010000F0FF0BD345F4
:104AB000E4DB16E0BAF1010F09D14FF40070224691
:104AC0002B4600903046FFF7DBFA029009E04FF4E6
:104AD000007022462B46CDE9000A3046FFF799FCCC
:104AE00002900298BDE8FE8F7C01002070660120D4
:104AF00032490143324A1160704770B500210023EA
:104B00000F22C4781CB32E4C246804F4E064C4F56E
:104B1000E064C4F30721C1F10404E3B20A4144781C
:104B20009C40E1B28478144021430C07210E254CAF
:104B300005786155047804F01F050124AC40057820
:104B40006D11AD0005F1E025C5F8004109E00478DC
:104B500004F01F050124AC401B4D0678761145F882
:104B6000264070BD194A0A400243154B1B1F1A60AC
:104B7000704739B1124A121D12680243104B1B1DB7
:104B80001A6006E00E4A121D126882430C4B1B1D70
:104B90001A607047042808D14FF0E021096941F0FC
:104BA00004014FF0E022116107E04FF0E0210969B4
:104BB00021F004014FF0E022116170470000FA0576
:104BC0000CED00E000E400E080E100E080FFFF1F6A
:104BD00030B943F2DB028100A1F1C0410A6005E077
:104BE00043F2D2028100A1F1C0410A606FF070422D
:104BF000411C8900A1F1C0410A608100A1F1C041BE
:104C0000C1F804217047D0E901121143C268114371
:104C1000026911434269114382691143C269114318
:104C2000026A1143426A1143826A1143C26A114304
:104C3000026B114302689200A2F1C04211608168C8
:104C400008290BD101688900A1F1C041096841F030
:104C5000400201688900A1F1C0410A60416B096806
:104C6000426B526841EA0211426B926841EA0221AA
:104C7000426B928941EA0241426B128A41EA025137
:104C8000426B127D41EA0261426B926911430268F4
:104C9000521C9200A2F1C0421160C16AB1F5804F6E
:104CA0001BD1816B0968826B526841EA0211826BE9
:104CB000926841EA0221826B128A41EA0251826BB8
:104CC000127D41EA0261826B92691143026892008F
:104CD000A2F1C042C2F8041107E06FF0704201680F
:104CE0008900A1F1C041C1F8042170470021016091
:104CF0000221416000218160C160016141618161E7
:104D0000C16101624FF4805141624900816200211A
:104D1000C1620163F84941638163704751B1820008
:104D2000A2F1C042126842F001038200A2F1C04227
:104D3000136009E08200A2F1C0421268EF4B1A40F2
:104D40008300A3F1C0431A60704710280AD11821CC
:104D50004FF020421166402151664FF0FC319166C0
:104D6000D16610E01821E64A116040214FF0204240
:104D7000C2F884104FF0FC31E14A083211604FF064
:104D80002042C2F88C10704730B500210022002369
:104D9000446844F0080485682C43C5682C430569C1
:104DA0002C43456944EA4524856944EA4531C46990
:104DB0002468C5696D6844EA0524C5692D8944EAFB
:104DC0000544C5692D7B44EA0562046A2468056AC6
:104DD0006D6844EA0524056A2D8944EA0544056A9C
:104DE0002D7B44EA05630468102C05D14FF0204464
:104DF0002166A266E36608E0C14C21604FF02044C2
:104E0000C4F88820BE4C0C34236030BD10210160F2
:104E1000002141608160C160016141618161FC21CB
:104E2000C2691160C2695160C2699160C269D16092
:104E3000026A1160026A5160026A9160026AD1607E
:104E4000704799B1102808D14FF02042126E42F0FD
:104E500004024FF020431A661DE0A94A126842F08E
:104E600004024FF02043C3F8802014E0102809D139
:104E70004FF02042126EA14BDB1E1A404FF0204330
:104E80001A6608E09E4A12689C4BDB1E1A404FF0DF
:104E90002043C3F88020704799B1102808D14FF003
:104EA0002042126E42F040024FF020431A661DE08D
:104EB000934A126842F040024FF02043C3F880202A
:104EC00014E0102809D14FF02042126E8B4B3F3B6B
:104ED0001A404FF020431A6608E0894A1268874B4F
:104EE0003F3B1A404FF02043C3F8802070470146F3
:104EF0000020102903D14FF02042506F02E0804A79
:104F000014321068704718207D4920310860002055
:104F10000906C1F8A4004FF0FC3079492831086037
:104F2000091D0860091D08607047016841F0100103
:104F3000426841EA4221826841EA4231704A2032A5
:104F40001160C1680968C268526841EA0221C268FA
:104F5000128941EA0241C268127B41EA0261684A51
:104F600028321160016909680269526841EA022128
:104F70000269128941EA02410269127B41EA026137
:104F80005F4A2C321160416909684269526841EAFE
:104F900002214269128941EA02414269127B41EAD7
:104FA00002614FF02042C2F8B0107047002101604A
:104FB00041608160FC21C2681160C2685160C268B2
:104FC0009160C268D1600269116002695160026932
:104FD00091600269D1604269116042695160426921
:104FE00091604269D160704748B1454920310968F4
:104FF00041F004014FF02042C2F8A01009E04049FE
:10500000203109683D4AD21E11404FF02042C2F8BB
:10501000A010704710B5F2B1102807D14FF020430F
:105020005B6E0B434FF02044636632E0B0F5807F47
:1050300008D1334B1B1D1B680B434FF02044C4F8B1
:10504000843026E02E4B24331B680B434FF0204462
:10505000C4F8A4301DE0102807D14FF020435B6E48
:105060008B434FF02044636613E0B0F5807F08D196
:10507000234B1B1D1B688B434FF02044C4F8843026
:1050800007E01F4B24331B688B434FF02044C4F8C8
:10509000A43010BD10B5024600200023102A03D111
:1050A0004FF02044636E09E0B2F5807F03D1144CC9
:1050B000241D236802E0124C2434236803EA01040F
:1050C0000CB1012000E0002010BD102807D14FF0E6
:1050D0002042526E8A434FF020435A6619E0B0F5E1
:1050E000807F0FD1064A121D12688A434FF0204379
:1050F000C3F884200DE0000008D40008FEFF0F0074
:10510000800000A0234A12688A434FF02043C3F86E
:10511000A420704770B5024600200023002400251B
:10512000102A03D14FF02046736E08E0B2F5807F5D
:1051300003D1184E203E336801E0164E336803EA6F
:10514000010403EAD10514B10DB1012000E00020F3
:1051500070BD102808D14FF02042526E22EAD102D1
:105160004FF020435A6614E0B0F5807F09D1094A18
:10517000203A126822EAD1024FF02043C3F884207B
:1051800007E0044A126822EAD1024FF02043C3F834
:10519000A4207047A40000A010B50446984884429B
:1051A00008D10121084600F086FB0021012000F013
:1051B00082FB76E09348844208D10121022000F06E
:1051C0007AFB0021022000F076FB6AE08E488442E0
:1051D00008D10121042000F06EFB0021042000F022
:1051E0006AFB5EE08948844208D10121082000F072
:1051F00062FB0021082000F05EFB52E084488442FC
:1052000008D10121102000F056FB0021102000F0F1
:1052100052FB46E07F48844208D10121202000F063
:105220004AFB0021202000F046FB3AE07A48844205
:1052300008D10121402000F03EFB0021402000F079
:105240003AFB2EE07548844208D10121802000F00D
:1052500032FB0021802000F02EFB22E070488442C7
:1052600008D10121801500F026FB0021A01500F0D7
:1052700022FB16E06B48844208D10121401500F062
:105280001AFB0021601500F016FB0AE06648844214
:1052900007D10121001500F00EFB0021201500F0C0
:1052A0000AFB10BDF0B50A4600210023002400BF10
:1052B0003DE0012505FA01F3156805EA03049C4267
:1052C00034D105684F000326BE40B543056015790B
:1052D0004E00B5400668354305601579012D02D0B2
:1052E0001579022D16D185684F000326BE40B543BF
:1052F000856055794E00B5408668354385604568C0
:1053000001268E40B5434560456896798E40B6B219
:1053100035434560C5684F000326BE40B543C560B0
:10532000D5794E00B540C6683543C560491C102983
:10533000BFD3F0BD4FF6FF710160002101714171D3
:105340008171C171704708B54FF480320092009AA4
:105350000A430092009AC261C161009AC261C269A7
:105360000092C269009208BD0246002013690B40FA
:105370000BB1012000E0002070470146086980B2AF
:1053800070470246002053690B400BB1012000E03A
:10539000002070470146486980B27047018370471A
:1053A000418370470AB1018300E041837047416146
:1053B000704742694A4042617047F0B500230024BB
:1053C0004D07ED0E02FA05F3CE1000F1200555F859
:1053D00026504E07F70E0F26BE40B543CF1000F102
:1053E000200646F82750CE1000F1200555F826502B
:1053F00045EA0304CE1000F1200545F82640F0BD33
:10540000000002400004024000080240000C02407C
:10541000001002400014024000180240001C02402C
:10542000002002400024024000280240F9480068A1
:1054300040F00100F74908600020F6490831086093
:10544000F4480068F4490840F2490860F348091D2F
:105450000860F348EF4984310860F0481038091DAE
:105460000860EC48006820F48020EA4908600020C9
:10547000E8490C310860E7498C3108607047002129
:10548000E44A921C117011460870704710B501462D
:105490000022002300204A11012A02D1DD4C23689A
:1054A00008E0022A03D1DB4C7034236802E0D94CB7
:1054B0007434236801F01F02012494401C400CB195
:1054C000012000E0002010BD38B50020009000242D
:1054D000002500BF3120FFF7D9FF05460098401C8A
:1054E00000900098B0F5A04F01D0002DF2D03120EF
:1054F000FFF7CCFF08B1012400E00024204638BDAE
:1055000001460020C34A106820F0F80040EAC100BC
:1055100010607047C349086070470021BD4A70326F
:1055200011701170012802D004280AD104E0012171
:10553000B84A7032117005E00521B64A7032117018
:1055400000E000BF00BF7047B7490860704770B502
:10555000049C41EA82150126C6EB530645EA06453E
:10556000054345EA0465AB4E361D356070BDAD4957
:1055700008667047820142EA0172A64B84331A60C2
:105580007047A8498866704710B5830143EA0163F4
:1055900043EA02739F4C8834236010BDA149086719
:1055A0007047A049C864704702460020994B0833F1
:1055B000186820F0EC6042EA01031843954B083369
:1055C0001860704702460020924B0833186820F09C
:1055D000784042EA010318438E4B08331860704745
:1055E000014600208B4A0832106820F0030008436F
:1055F0001060704787480830006800F00C00704762
:1056000001460020834A0832106820F0F000084369
:1056100010607047014600207E4A0832106820F46E
:10562000E05008431060704701460020794A083274
:10563000106820F4604040EAC10010607047F0B587
:10564000002100220024022500260223714F083782
:105650003F6807F00C0121B1042905D0082937D192
:1056600005E0724F076036E0714F076033E0694F25
:105670003F1D3F68C7F38056664F3F1D3F6807F0E8
:105680003F036EB16A4FB7FBF3F7DFF888C10CF147
:10569000040CDCF800C0CCF3881C07FB0CF40CE015
:1056A000624FB7FBF3F7DFF86CC10CF1040CDCF8C8
:1056B00000C0CCF3881C07FB0CF4564F3F1D3F681D
:1056C000C7F301477F1C7D00B4FBF5F7076002E0DC
:1056D000564F076000BF00BF4E4F08373F6807F0C6
:1056E000F0010909534F7A5C0768D7404760494F7A
:1056F00008373F6807F4E051890A4E4F7A5C4768E3
:10570000D7408760434F08373F6807F46041490B33
:10571000484F7A5C4768D740C760F0BD002100F46D
:105720004072B2F5407F0AD13A4A0832116821F43A
:10573000F811414A02401143364A08321160354A95
:1057400070321268C0F30B031A43324B70331A6085
:10575000704735494439086070473349403908601B
:10576000704736490860704701460020294A8C324C
:10577000106820F01F004A1E1043264A8C32106029
:10578000704701460020234A8C32106820F4F850FC
:105790004A1E40EA02201F4A8C32106070470146C0
:1057A00000201C4A8C32106820F44010084310601E
:1057B000704701460020174A8C32106820F44000E0
:1057C00008431060704701460020124A8C3210686E
:1057D00020F4403008431060704719490860704752
:1057E00039B10C4A3032126802430A4B30331A6026
:1057F00006E0084A303212688243064B30331A60A2
:105800007047F9B1034A343212680243014B343312
:105810001A601CE000380240FFFFF6EA1030002456
:105820000030002000004742800E47420024F40070
:1058300000127A008C010020FFFCFF0F5C01474240
:10584000E01147428F4A126882438E4B1A607047BC
:1058500039B18C4A121D126802438A4B1B1D1A6013
:1058600006E0884A121D12688243864B1B1D1A608F
:10587000704739B1834A0C3212680243814B0C33B2
:105880001A6006E07F4A0C32126882437D4B0C336B
:105890001A60704739B17B4A103212680243794B63
:1058A00010331A6006E0774A103212688243754B53
:1058B00010331A60704739B1724A243A12680243B1
:1058C000704B243B1A6006E06E4A243A1268824309
:1058D0006C4B243B1A60704739B16A4A203A12680F
:1058E0000243684B203B1A6006E0664A203A126881
:1058F0008243644B203B1A60704739B1614A1C3ABD
:10590000126802435F4B1C3B1A6006E05D4A1C3A7A
:10591000126882435B4B1C3B1A60704739B1594A8D
:10592000143A12680243574B143B1A6006E0554A7A
:10593000143A12688243534B143B1A60704739B1D2
:10594000504A103A126802434E4B103B1A6006E070
:105950004C4A103A126882434A4B103B1A60704717
:1059600039B1484A1C3212680243464B1C331A6054
:1059700006E0444A1C3212688243424B1C331A60D0
:10598000704739B13F4A2032126802433D4B203301
:105990001A6006E03B4A203212688243394B2033BA
:1059A0001A60704739B1374A243212680243354BC6
:1059B00024331A6006E0334A243212688243314BA2
:1059C00024331A60704739B12E4A2C3212680243D0
:1059D0002C4B2C331A6006E02A4A2C321268824380
:1059E000284B2C331A60704739B1264A303212687E
:1059F0000243244B30331A6006E0224A30321268E8
:105A00008243204B30331A607047012808D11D496A
:105A10003C31096841F008011A4A3C32116007E044
:105A200018493C31096821F00801164A3C321160DE
:105A3000704739B1134A273A12780243114B273B7A
:105A40001A7006E00F4A273A127882430D4B273B23
:105A50001A7070470B484030006840F08070094968
:105A600040310860704701460020064A283A126813
:105A70000A400AB1012000E00020704701492639A0
:105A8000087070473438024010B50121C802FFF792
:105A900056FF00214FF40060FFF751FF10BD0021B9
:105AA0006C4A116847F6FF629143027D83681A438E
:105AB00043681A43C3681A4303681A4303691A43C5
:105AC0001143644A11607047002101750160416013
:105AD0008160C160016170475F49086070475D493E
