:020000040800F2
:10000000A0060020710400085504000857040008E9
:100010005B0400085F04000863040008000000009F
:10002000000000000000000000000000670400085D
:1000300069040008000000006B0400086D0400085B
:100040008B0400088B0400088B0400088B04000854
:100050008B0400088B0400088B0400088B04000844
:100060008B0400088B0400088B0400088B04000834
:100070008B0400088B0400088B0400088B04000824
:100080008B0400088B0400088B0400088B04000814
:100090008B0400088B0400088B0400088B04000804
:1000A0008B0400088B0400088B0400088B040008F4
:1000B0008B0400088B0400088B0400088B040008E4
:1000C0008B0400088B0400088B0400088B040008D4
:1000D0008B0400088B0400088B0400088B040008C4
:1000E0008B0400088B0400088B0400088B040008B4
:1000F0008B0400088B0400088B0400088B040008A4
:100100008B0400088B0400088B0400088B04000893
:100110008B0400088B0400088B0400088B04000883
:100120008B0400088B0400088B0400088B04000873
:100130008B0400088B0400088B0400088B04000863
:100140008B0400088B0400088B0400088B04000853
:100150008B0400088B0400088B0400088B04000843
:100160008B0400088B0400088B0400088B04000833
:100170008B0400088B0400088B0400088B04000823
:100180008B0400088B04000800F002F800F04CF823
:100190000AA090E8000C82448344AAF10107DA45E2
:1001A00001D100F041F8AFF2090EBAE80F0013F0E8
:1001B000010F18BFFB1A43F0010318471463000036
:1001C00034630000103A24BF78C878C1FAD85207C7
:1001D00024BF30C830C144BF04680C6070470000C1
:1001E0000023002400250026103A28BF78C1FBD840
:1001F000520728BF30C148BF0B607047652904F023
:100200002285642903F02281002070471FB504F085
:1002100010FD03F077FC04000020002104F0BAF97F
:10022000E0601FBD10B510BD03F066FD1146FFF77D
:10023000EDFF00F009F803F084FD03B4FFF7F2FFCF
:1002400003BC03F0C5FD00002DED048B82B000243B
:100250004FF4A06001F02AFC03F03FF801F0A8FA87
:1002600000F0E9FD01F060FB01F0DAFA01F0B4FB07
:100270004FF478405649088056A318220A210846B0
:1002800001F042FA58A3102228210A2001F03CFA7A
:1002900059A3182250211E2001F036FA59A310222A
:1002A0006E211E2001F030FA1F20494908802146A6
:1002B000002002F06FFE8AE0002001F0C7FA5648E5
:1002C000007801280AD1B4F57A6F02DA04F1C80087
:1002D00084B22146002002F05DFE0EE04E48007818
:1002E00002280AD1C82C03DDA4F1C80084B200E0C2
:1002F00000242146002002F04DFE474800780228E5
:1003000003D04548007801285ED1002002F06CFE41
:100310000646324641A1684603F05CF86B4610225F
:1003200096211E2001F0F0F900EE106AB8EE400AA6
:1003300010EE100A04F00CFC41EC190B9FED3B0B86
:1003400053EC102B04F006FB41EC180B04F038F9C9
:100350000746384604F0FCFB41EC180B53EC182B15
:1003600034A1684603F036F86B461022AA211E20FD
:1003700001F0CAF9062001F015FB054600EE105AFF
:10038000B8EE400A10EE100A04F0E2FB41EC190B43
:100390009FED260B53EC102B04F0DCFA41EC180B0C
:1003A00004F00EF90746384604F0D2FB41EC180B76
:1003B00053EC182B23A1684603F00CF86B4610226F
:1003C000BE211E2001F0A0F90A2002F0E3FF73E72E
:1003D00014000020496C6C756D696E61746920535E
:1003E000544D333246340000417574686F723A439D
:1003F0006C65766572000000392E444143205445F7
:10040000535400004B4559303A20562B2B20204B9B
:100410004559313A562D2D002600002044414320F5
:1004200056414C3A3A2530366400000066666666EE
:1004300066664A3F44414320564F4C3A2530366564
:100440000000000041444320564F4C3A25303665A9
:1004500000000000704700BFFEE700BFFEE700BFDE
:10046000FEE700BFFEE77047704770477047000027
:100470000948804709480047FEE7FEE7FEE7FEE738
:10048000FEE7FEE7FEE7FEE7FEE7FEE70448054974
:10049000054A064B704700008D05000889010008D9
:1004A000A0000020A0060020A0020020A002002042
:1004B0000CB50020019000907648006840F4803030
:1004C0007449086000BF7348006800F40030009071
:1004D0000198401C0190009818B90198B0F5A04F00
:1004E000F1D16C48006800F4003010B10120009098
:1004F00001E0002000900098012846D16548403076
:10050000006840F0805063494031086062480068EC
:1005100040F44040604908605E48083000685D492A
:10052000083108600846006840F40040086008464A
:10053000006840F4A05008605848091F0860081F70
:10054000006840F08070091F086000BF51480068D3
:1005500000F000700028F9D040F2057050490860A2
:100560004C480830006820F003004A490831086010
:100570000846006840F00200086000BF45480830A7
:10058000006800F00C000828F8D10CBD10B54548F3
:10059000006840F47000434908603E48006840F03D
:1005A00001003C49086000203A4908310860394898
:1005B00000683D490840374908603C48091D08600B
:1005C000081F006820F48020091F086000203149BE
:1005D0000C310860FFF76CFF4FF000603149803943
:1005E000086010BD70B50020002202230024022103
:1005F000284D08352D6805F00C0020B1042806D0E0
:10060000082834D107E02A4D2A4E356033E02A4DC0
:10061000284E35602FE01F4D2D1D2D68C5F38054E9
:100620001C4D2D1D2D6805F03F0154B1224DB5FB29
:10063000F1F5184E361D3668C6F3881605FB06F22E
:1006400009E01B4DB5FBF1F5124E361D3668C6F3B9
:10065000881605FB06F20F4D2D1D2D68C5F30145CB
:100660006D1C6B00B2FBF3F5124E356003E0104DCC
:10067000104E356000BF00BF064D08352D68C5F32C
:1006800003150E4E705D0B4D2D68C540094E35604B
:1006900070BD000000380240007000400854400760
:1006A000003C024088ED00E0FFFFF6FE1030002421
:1006B0000024F4000000002000127A000400002052
:1006C000F64A1080921C1180704710B50446F3481A
:1006D0000480052002F016FEF048801C008810BD42
:1006E000EF480088ED490880704700BF0100A0F185
:1006F0000102D0B2FAD1704730B5014601F01F04B3
:10070000C1F34513CA0AE50205EB43151544A8B227
:1007100030BD10B503460C46E248008849F241312D
:10072000884212D1E0480088DC4908801812891CF0
:100730000880D8B20880DD480088891E0880201211
:10074000891C0880E0B2088012E0D94800780128AE
:1007500004D1D8480088401EC01A83B21946D24836
:100760000088FFF7ADFF2146D0480088FFF7A8FFBB
:1007700010BD3EB504460D46002002900190009049
:10078000CC480088844203DACB480088854201DBEC
:1007900000203EBD29462046FFF7BBFFC148008828
:1007A00049F24131884203D12E20BC49088002E041
:1007B0002220BA490880B948801C008808B100206E
:1007C00002900220FFF791FFB448801C008802903D
:1007D000B448008849F24131884211D10220FFF724
:1007E00084FFAE48801C00880090BDF80800C0B2AD
:1007F0000190BDF804004FF6FF7101EA002001905E
:10080000A848008849F22531884202D1BDF8080085
:10081000BFE7A448008849F2413188420DD1BDF8B4
:100820000800C012C002BDF80410891240EA41104D
:10083000BDF8001040EAE120ABE7BDF80800FFF783
:100840005BFFA6E700B59748008849F2413188422E
:1008500003D129209149088004E040F27311072058
:10086000FFF72EFF00BD00B58E48008849F24131E8
:10087000884203D128208949088003E0002107200D
:10088000FFF71EFF00BD70B5044600230026884810
:100890000078012818D1082C15D2DFE804F00406EE
:1008A000080A0C0E101206240DE007240BE00424A5
:1008B00009E0052407E0012405E0002403E0032407
:1008C00001E0022400BF00BF7648008849F24131B0
:1008D00088425ED1082C1CD2DFE804F00406090C23
:1008E0000F12151800BF14E043F0800311E043F02D
:1008F00040030EE043F0C0030BE043F0200308E0A8
:1009000043F0600305E043F0A00302E043F0E0039E
:1009100000BF00BF362643F0080319463046FFF7F4
:10092000CFFE03F0200068B1624800886249098860
:10093000884207DA5F4805885F4800885D4908807B
:100940005D48058058480088544908800020891C6B
:100950000880088057480088401EC0F30F20088098
:1009600054480078401EC0B2088050480088891E54
:1009700008800020891C088008804F480088401E9D
:10098000C0F30F2008804C480078401EC0B2088099
:1009900026E0082C1CD2DFE804F004070A0D151825
:1009A0000F1243F0300313E043F0100310E043F064
:1009B00020030DE000BF0BE043F0180308E043F014
:1009C000080305E043F0380302E043F0280300BFCA
:1009D00000BF032643F4805319463046FFF770FEEC
:1009E00070BD10B504461CBB002031490870F020D2
:1009F000304908804FF4A0702F49088029480088AA
:100A000049F24131884209D12C20254908802A2009
:100A1000254908802B20254908802CE022202049E8
:100A2000088020202049088021202049088022E0D9
:100A300001201F4908704FF4A0701E490880F02063
:100A40001D4908801748008849F24131884209D180
:100A50002C20134908802A20134908802B20134991
:100A6000088008E022200E49088021200E490880D5
:100A700020200E4908800020FFF705FF10BD30B58B
:100A800004460D4629462046FFF743FEFFF728FEA1
:100A90000A4800880149891C088030BDFE1F006C8F
:100AA0002000002018000020220000202400002048
:100AB0001A0000201C0000201E000020140000204E
:100AC00030B503460C461546FE48008849F24131D0
:100AD000884212D1FC480088FC4908801812891C01
:100AE0000880D8B20880FA480088891E0880201241
:100AF000891C0880E0B2088012E0F64800780128DE
:100B000004D1F5480088401EC01A83B21946EE4849
:100B10000088FFF7D5FD2146ED480088FFF7D0FD9E
:100B2000EE480088E9490880881C058030BD2DE921
:100B3000FF4F04460D4616461F46A019401E86B2BA
:100B4000E819401E87B2DF48008849F241318842E7
:100B50001AD1DD480088DD4908802012891C0880F0
:100B6000E0B2088030120880F0B20880D8480088CF
:100B7000891E08802812891C0880E8B20880381273
:100B80000880F8B2088032E0D248007801280ED1FF
:100B9000A846B946D0480088801B401E1FFA80FA3C
:100BA000CD480088001B401E1FFA80FB03E0A046D2
:100BB000B146AA46BB4650200390512002905220D5
:100BC00001905320009041460398FFF779FD494674
:100BD0000298FFF775FD51460198FFF771FD5946E0
:100BE0000098FFF76DFD29462046FFF792FDBDE80E
:100BF000FF8F00B59FB00121782001F0CFFD0121CA
:100C0000084601F003FE4FF480601D9001208DF82E
:100C1000780000208DF87A0002208DF879000120FC
:100C20008DF87B001DA9AE4801F036F84CF2337008
:100C30001D9002208DF8780000208DF87A000320A6
:100C40008DF8790001208DF87B001DA9A54801F0E1
:100C500023F84FF680701D9002208DF87800002058
:100C60008DF87A0003208DF8790001208DF87B0043
:100C70001DA99D4801F010F804201D9002208DF858
:100C8000780000208DF87A0003208DF8790001208B
:100C90008DF87B001DA9954800F0FEFF4FF48050B1
:100CA0001D9002208DF8780000208DF87A00032036
:100CB0008DF8790001208DF87B001DA98B4800F08C
:100CC000EBFF0C220021874801F071F80C22012172
:100CD000844801F06CF80C220421824801F067F886
:100CE0000C2205217F4801F062F80C2208217D4882
:100CF00001F05DF80C2209217A4801F058F80C2225
:100D00000A21784801F053F80C220E21754801F0B1
:100D10004EF80C220F21734801F049F80C220721EC
:100D2000714801F044F80C2208216F4801F03FF8A7
:100D30000C2209216C4801F03AF80C220A216A4879
:100D400001F035F80C220B21674801F030F80C2235
:100D50001146654801F02BF80C220D21624801F084
:100D600026F80C220E21604801F021F80C220F21F8
:100D70005D4801F01CF80C2202215C4801F017F8D4
:100D80000C221146594801F012F80F20079000205C
:100D900008903C20099000200A900B900C900D9038
:100DA000092000900020019008200290002003906C
:100DB00004900590069006200E9000200F90109051
:100DC00010201190002012901490139015901690FE
:100DD0004FF480501790002018904FF480401990E5
:100DE00000201A9007A81B90CDF870D00EA801F033
:100DF00032F80121062001F0B9F8322002F0CAFAD7
:100E00001FB000BD70B5044600250026324800889A
:100E10003749098800FB01F600210846FFF779FCF5
:100E2000FFF75EFC00BF03E02848801C04806D1CB7
:100E3000B542F9D370BD08B500200090FFF7D9FE88
:100E400001210020FFF73CFC322002F0A3FA002031
:100E5000FFF73BFC1B49088008460088FF280ADB97
:100E6000084600884FF6FF71884204D01548008874
:100E7000B0F5134F1DD1D32014490880881C008879
:100E8000104908801148801C008808800F48801C89
:100E900000880880084600884FF6FF7101EA0020AC
:100EA000084908800948801C0088098808430549CA
:100EB00008800448008849F24131884237D10D4802
:100EC000006819E01800002022000020FE1F006CBE
:100ED000240000201A0000201C0000202000002018
:100EE00000140240000C02400010024000180240B2
:100EF0001E0000201C0100A020F00F004FF0204138
:100F0000C1F81C010846D0F81C0120F47060C1F83B
:100F10001C010846D0F81C0140F00300C1F81C0178
:100F20000846D0F81C0140F40070C1F81C01FE48CE
:100F3000008849F2283188427ED141F28F01EC20AD
:100F4000FFF7BEFB41F23421EF20FFF7B9FB4FF46E
:100F500080710120FFF7B4FB4FF4E0610220FFF73E
:100F6000AFFB41F230010320FFF7AAFB0021042070
:100F7000FFF7A6FB40F202210820FFF7A1FB0021AA
:100F80000920FFF79DFB00210A20FFF799FB0121B3
:100F90000C20FFF795FB00210D20FFF791FB0021AE
:100FA0000F20FFF78DFB00211020FFF789FB0721A1
:100FB0001120FFF785FB00211220FFF781FB0021A4
:100FC0001320FFF77DFB01210720FFF779FB32207B
:100FD00002F0E0F941F290411020FFF771FB40F27E
:100FE00027211120FFF76CFB322002F0D3F98A2170
:100FF0001220FFF765FB322002F0CCF94FF4D051FC
:101000001320FFF75DFB06212920FFF759FB0D2177
:101010002B20FFF755FB322002F0BCF900212020E5
:10102000FFF74EFB00212120FFF74AFB322002F0A0
:10103000B1F90021302000E074E0FFF741FB40F2FD
:1010400004613120FFF73CFB40F205313220FFF70D
:1010500037FB00213520FFF733FB40F609413620EE
:10106000FFF72EFB4FF401713720FFF729FB40F209
:1010700001313820FFF724FB40F207713920FFF7D8
:101080001FFB00213C20FFF71BFB40F60A213D20FF
:10109000FFF716FB322002F07DF900215020FFF708
:1010A0000FFBEF215120FFF70BFB00215220FFF730
:1010B00007FB40F23F115320FFF702FB4FF427419B
:1010C0006020FFF7FDFA01216120FFF7F9FA002106
:1010D0006A20FFF7F5FA00218020FFF7F1FA0021DE
:1010E0008120FFF7EDFA00218220FFF7E9FA0021C5
:1010F0008320FFF7E5FA00218420FFF7E1FA0021C1
:101100008520FFF7DDFA10219020FFF7D9FA4FF480
:10111000C0619220FFF7D4FA40F233110720FFF7A5
:10112000CFFAC2E18048008849F2253188427DD15A
:1011300047F6F001E520FFF7C3FA4FF48071012074
:10114000FFF7BEFA4FF4E0610220FFF7B9FA41F26F
:1011500030010320FFF7B4FA00210420FFF7B0FAB2
:1011600040F202210820FFF7ABFA00210920FFF727
:10117000A7FA00210A20FFF7A3FA00210C20FFF7AD
:101180009FFA00210D20FFF79BFA00210F20FFF7A7
:1011900097FA00211020FFF793FA07211120FFF79B
:1011A0008FFA00211220FFF78BFA00211320FFF79E
:1011B00087FA00210720FFF783FA41F2906110209F
:1011C000FFF77EFA40F227211120FFF779FA9D21DF
:1011D0001220FFF775FA4FF4C8511320FFF770FA89
:1011E00025212920FFF76CFA0D212B20FFF768FA43
:1011F00007213020FFF764FA40F203313120FFF776
:101200005FFA03213220FFF75BFA40F20621352016
:10121000FFF756FA08213620FFF752FA40F206414E
:101220003720FFF74DFA4FF4417100E058E03820C5
:10123000FFF746FA07213920FFF742FA40F2026130
:101240003C20FFF73DFA08213D20FFF739FA002145
:101250005020FFF735FAEF215120FFF731FA002136
:101260005220FFF72DFA40F23F115320FFF728FAE2
:101270004FF427416020FFF723FA01216120FFF797
:101280001FFA00216A20FFF71BFA00218020FFF7D8
:1012900017FA00218120FFF713FA00218220FFF7BF
:1012A0000FFA00218320FFF70BFA00218420FFF7BB
:1012B00007FA00218520FFF703FA10219020FFF79D
:1012C000FFF94FF4C0619220FFF7FAF940F23311B1
:1012D0000720FFF7F5F922210020FFF7F1F9E4E0FC
:1012E0001148008849F241318842F8D1CF200F4996
:1012F00008800020891C0880C120088030200880D8
:10130000ED20891E08806420891C08800320088045
:101310001220088081200880E820891E088085200E
:10132000891C0880102003E018000020FE1F006CBC
:1013300008807A200880CB20891E08803920891CEB
:1013400008802C200880002008803420088002209B
:101350000880F720891E08802020891C0880EA2048
:10136000891E08800020891C08800880C020891EF2
:1013700008801B20891C0880C120891E088001204C
:10138000891C0880C520891E08803020891C08809F
:101390000880C720891E0880B720891C0880362055
:1013A000891E08804820891C08803A20891E0880F0
:1013B0005520891C0880B120891E08800020891CC6
:1013C00008801A200880B620891E08800A20891CFF
:1013D0000880A2200880F220891E08800020891C35
:1013E00008802620891E08800120891C0880E020B2
:1013F000891E08800F20891C08802A200880282048
:101400000880082008800E200880082008805420CA
:101410000880A9200880432008800A2008800F2027
:10142000088000200880088008800880E120891E4C
:1014300008800020891C088015200880172008805B
:101440000720088011200880062008802B200880B3
:10145000562008803C200880052008801020088045
:101460000F2008803F20088008800F2008802B2054
:10147000891E08800020891C0880088001200880BF
:101480003F2008802A20891E08800020891C0880AF
:1014900008800880EF2008801120891E08807820AD
:1014A00001F078FF2920B94908800020FFF799FA58
:1014B0000120B74908604FF6FF70FFF7A3FC08BD95
:1014C0002DE9F04F05460E4617469846DDF824A054
:1014D0004FF0000B781B401C1FFA80FB344614E0D1
:1014E00021462846FFF715F9FFF7FAF84FF00009F3
:1014F00007E0A648801CA0F800A009F101001FFA2F
:1015000080F9D945F5DB601C84B24445E8DDBDE8CF
:10151000F08F2DE9F84F81460E4617461C4600967F
:101520000C2C01D198460AE0102C01D1A04606E00F
:10153000182C02D14FF0240801E0BDE8F88FA7F184
:101540002000C7B2002553E00C2C07D107EB470061
:10155000904901EB800010F805A012E0102C05D195
:101560008D4800EB071010F805A00AE0182C07D1F1
:1015700007EBC700894901EB800010F805A000E0E7
:10158000DBE74FF0000B2DE00AF0800030B184481B
:10159000028831464846FFF793FA05E08148028801
:1015A00031464846FFF78CFA4FEA4A604FEA106A24
:1015B000701C86B27C480088864200DBBDE700983C
:1015C000301AA0420AD1009E09F101001FFA80F9E9
:1015D00076480088814500DBAFE706E00BF10100AB
:1015E00000F0FF0BBBF1080FCEDB00BF681CC5B2DB
:1015F0004545A9DB00BFA0E710B50246012000E089
:1016000050430B00A1F10104E1B2F9D110BD2DE965
:10161000FF4F81B0064691461F46DDE90E4A002085
:101620000090002544E0781B401EC1B20A20FFF75D
:10163000E3FFB9FBF0F00A21B0FBF1F201FB120865
:10164000009820BB781EA84221DDB8F1000F1CD104
:10165000BAF1000F0CD0A34604EBDB71491001FB7B
:10166000056188B2234630220299FFF752FF0BE052
:10167000A34604EBDB71491001FB056188B22346E8
:1016800020220299FFF745FF10E001200090A346B9
:1016900004EBDB71491001FB056188B208F13001F0
:1016A000CAB223460299FFF734FF00BF681CC5B2D7
:1016B000BD42B8DB05B0BDE8F08F2DE9FF4F82B029
:1016C00004460D461646DDE91189109F3448B0F8EE
:1016D00000A03448B0F800B03148A0F8008031488C
:1016E000A0F800900F98CDE9000732462946204621
:1016F000059BFFF78CFF2A48A0F800A02948A0F816
:1017000000B006B0BDE8F08FF0B506460F461546AE
:101710001C4611E022782B4639463046FFF7F9FE89
:10172000284605EBD07106EB61018EB21F48008898
:10173000864200DB06E0641C20787E2802DC2078EC
:101740002028E7DA00BFF0BD2DE9F04F04460D4632
:1017500016461F46DDE909891148B0F800A0114876
:10176000B0F800B00E48A0F800800E48A0F8009035
:101770003B46324629462046FFF7C6FF0848A0F8F8
:1017800000A00848A0F800B0BDE8F08FFE1F006C74
:10179000A88242424A4C0008BE500008AE560008DB
:1017A00014000020160000201E0000201C00002055
:1017B0001CB50121512000F0F1FF182000900120FC
:1017C0008DF8040000208DF8060003208DF8050038
:1017D00001208DF8070069460E4800F05DFA1821D7
:1017E0000C4800F0D5FA4FF40070009069460A48A2
:1017F00000F052FA4FF40071074800F0C9FA0220D5
:1018000000906946054800F047FA0221034800F0BD
:10181000BFFA1CBD00100240001802400000024048
:101820001CB50121202000F0B9FF4FF4707000902A
:1018300000208DF8040003208DF8050001208DF8AC
:1018400007006946314800F027FA1CBD0021304AE4
:1018500011703049096861B12E49091F096841B109
:101860002C490839096821B12A490C39096800292D
:101870003CD12849096819B90121274A117016E09D
:101880002449091F096819B90221234A11700EE081
:1018900020490839096819B903211F4A117006E067
:1018A0001C490C39096811B904211B4A11701A49E5
:1018B00009781A4A1278914210D119490988491CAD
:1018C000174A118014490978164A1170E8B9144969
:1018D0000988012919DD0021117016E00021104A44
:1018E00011800D4909780D4A11700EE00C490988E4
:1018F000022903DD08490978054A11700021074AC9
:101900001170074A1180074A117070470014024095
:1019100027000020248242422A0000202B000020C1
:10192000280000202600002000B58DB001210846C7
:1019300000F034FF0121080200F08AFF40200B90E4
:1019400003208DF8300000208DF833000BA92048CB
:1019500000F0A2F90121080200F0CFFF00214FF4AE
:10196000807000F0CAFF002007900A9009904FF4A1
:101970008030089007A801F09FF8002001908DF8B2
:1019800008008DF809000390059001208DF81800DB
:1019900001A9104801F061F801210E4801F0A3F8F7
:1019A0000DB000BD10B504460723012221460948A9
:1019B00001F0D9F8074801F032F900BF02210548CB
:1019C00001F04EFA0028F9D0024801F064F910BD88
:1019D000000002400020014000B587B00121084608
:1019E00000F0DCFE0121480700F021FF10200590E7
:1019F00003208DF8180002208DF81B0005A924484B
:101A000000F04AF900200190029003900220049017
:101A100001A9002001F053FA0121002001F06CFA25
:101A20000021084601F0B6FA07B000BD70B52DEDF3
:101A3000048B0446204602F07AFF41EC180B9FED20
:101A4000150B53EC102B51EC180B02F0EBFD41EC95
:101A5000180B9FED120B53EC102B51EC180B02F0EE
:101A600079FF41EC190B9FED0F0B53EC102B02F09B
:101A7000D9FD41EC180B51EC180B02F02BFF85B28D
:101A80002946002001F086FABDEC048B70BD0000F1
:101A9000000002400000000000408F4000000000F5
:101AA0000000B0406666666666660A4032490143D9
:101AB000324A1160704770B5002100230F22C478AC
:101AC0001CB32E4C246804F4E064C4F5E064C4F351
:101AD0000721C1F10404E3B20A4144789C40E1B219
:101AE0008478144021430C07210E254C057861555C
:101AF000047804F01F050124AC4005786D11AD0099
:101B000005F1E025C5F8004109E0047804F01F055F
:101B10000124AC401B4D0678761145F8264070BD77
:101B2000194A0A400243154B1B1F1A60704739B10E
:101B3000124A121D12680243104B1B1D1A6006E068
:101B40000E4A121D126882430C4B1B1D1A6070470F
:101B5000042808D14FF0E021096941F004014FF059
:101B6000E022116107E04FF0E021096921F0040152
:101B70004FF0E022116170470000FA050CED00E023
:101B800000E400E080E100E080FFFF1F10B50446A4
:101B90009848844208D10121084600F06AFE0021DD
:101BA000012000F066FE76E09348844208D10121CE
:101BB000022000F05EFE0021022000F05AFE6AE0E2
:101BC0008E48844208D10121042000F052FE0021F9
:101BD000042000F04EFE5EE08948844208D10121D5
:101BE000082000F046FE0021082000F042FE52E0EE
:101BF0008448844208D10121102000F03AFE0021DF
:101C0000102000F036FE46E07F48844208D10121D2
:101C1000202000F02EFE0021202000F02AFE3AE0D5
:101C20007A48844208D10121402000F022FE0021A0
:101C3000402000F01EFE2EE07548844208D10121AC
:101C4000802000F016FE0021802000F012FE22E02D
:101C50007048844208D10121801500F00AFE00215D
:101C6000A01500F006FE16E06B48844208D1012161
:101C7000401500F0FEFD0021601500F0FAFD0AE0BD
:101C80006648844207D10121001500F0F2FD0021D1
:101C9000201500F0EEFD10BDF0B50A46002100232E
:101CA000002400BF3DE0012505FA01F3156805EAAF
:101CB00003049C4234D105684F000326BE40B5435F
:101CC000056015794E00B540066835430560157905
:101CD000012D02D01579022D16D185684F000326FB
:101CE000BE40B543856055794E00B54086683543A2
:101CF0008560456801268E40B54345604568967904
:101D00008E40B6B235434560C5684F000326BE40DD
:101D1000B543C560D5794E00B540C6683543C5604A
:101D2000491C1029BFD3F0BD4FF6FF71016000219F
:101D3000017141718171C171704708B54FF48032F2
:101D40000092009A0A430092009AC261C161009A0F
:101D5000C261C2690092C269009208BD02460020B9
:101D600013690B400BB1012000E0002070470146D1
:101D7000086980B270470246002053690B400BB1DE
:101D8000012000E0002070470146486980B270479A
:101D900001837047418370470AB1018300E04183AA
:101DA00070474161704742694A4042617047F0B5EF
:101DB000002300244D07ED0E02FA05F3CE1000F1CA
:101DC000200555F826504E07F70E0F26BE40B543A6
:101DD000CF1000F1200646F82750CE1000F1200564
:101DE00055F8265045EA0304CE1000F1200545F8C9
:101DF0002640F0BD000002400004024000080240FE
:101E0000000C024000100240001402400018024082
:101E1000001C024000200240002402400028024032
:101E200030B943F2DB028100A1F1C0410A6005E054
:101E300043F2D2028100A1F1C0410A606FF070420A
:101E4000411C8900A1F1C0410A608100A1F1C0419B
:101E5000C1F804217047D0E901121143C26811434F
:101E6000026911434269114382691143C2691143F6
:101E7000026A1143426A1143826A1143C26A1143E2
:101E8000026B114302689200A2F1C04211608168A6
:101E900008290BD101688900A1F1C041096841F00E
:101EA000400201688900A1F1C0410A60416B0968E4
:101EB000426B526841EA0211426B926841EA022188
:101EC000426B928941EA0241426B128A41EA025115
:101ED000426B127D41EA0261426B926911430268D2
:101EE000521C9200A2F1C0421160C16AB1F5804F4C
:101EF0001BD1816B0968826B526841EA0211826BC7
:101F0000926841EA0221826B128A41EA0251826B95
:101F1000127D41EA0261826B92691143026892006C
:101F2000A2F1C042C2F8041107E06FF070420168EC
:101F30008900A1F1C041C1F804217047002101606E
:101F40000221416000218160C160016141618161C4
:101F5000C16101624FF480514162490081620021F8
:101F6000C1620163F84941638163704751B18200E6
:101F7000A2F1C042126842F001038200A2F1C04205
:101F8000136009E08200A2F1C0421268EF4B1A40D0
:101F90008300A3F1C0431A60704710280AD11821AA
:101FA0004FF020421166402151664FF0FC3191669E
:101FB000D16610E01821E64A116040214FF020421E
:101FC000C2F884104FF0FC31E14A083211604FF042
:101FD0002042C2F88C10704730B500210022002347
:101FE000446844F0080485682C43C5682C4305699F
:101FF0002C43456944EA4524856944EA4531C4696E
:102000002468C5696D6844EA0524C5692D8944EAD8
:102010000544C5692D7B44EA0562046A2468056AA3
:102020006D6844EA0524056A2D8944EA0544056A79
:102030002D7B44EA05630468102C05D14FF0204441
:102040002166A266E36608E0C14C21604FF020449F
:10205000C4F88820BE4C0C34236030BD10210160D0
:10206000002141608160C160016141618161FC21A9
:10207000C2691160C2695160C2699160C269D16070
:10208000026A1160026A5160026A9160026AD1605C
:10209000704799B1102808D14FF02042126E42F0DB
:1020A00004024FF020431A661DE0A94A126842F06C
:1020B00004024FF02043C3F8802014E0102809D117
:1020C0004FF02042126EA14BDB1E1A404FF020430E
:1020D0001A6608E09E4A12689C4BDB1E1A404FF0BD
:1020E0002043C3F88020704799B1102808D14FF0E1
:1020F0002042126E42F040024FF020431A661DE06B
:10210000934A126842F040024FF02043C3F8802007
:1021100014E0102809D14FF02042126E8B4B3F3B48
:102120001A404FF020431A6608E0894A1268874B2C
:102130003F3B1A404FF02043C3F8802070470146D0
:102140000020102903D14FF02042506F02E0804A56
:1021500014321068704718207D4920310860002033
:102160000906C1F8A4004FF0FC3079492831086015
:10217000091D0860091D08607047016841F01001E1
:10218000426841EA4221826841EA4231704A203283
:102190001160C1680968C268526841EA0221C268D8
:1021A000128941EA0241C268127B41EA0261684A2F
:1021B00028321160016909680269526841EA022106
:1021C0000269128941EA02410269127B41EA026115
:1021D0005F4A2C321160416909684269526841EADC
:1021E00002214269128941EA02414269127B41EAB5
:1021F00002614FF02042C2F8B01070470021016028
:1022000041608160FC21C2681160C2685160C2688F
:102210009160C268D160026911600269516002690F
:1022200091600269D16042691160426951604269FE
:1022300091604269D160704748B1454920310968D1
:1022400041F004014FF02042C2F8A01009E04049DB
:10225000203109683D4AD21E11404FF02042C2F899
:10226000A010704710B5F2B1102807D14FF02043ED
:102270005B6E0B434FF02044636632E0B0F5807F25
:1022800008D1334B1B1D1B680B434FF02044C4F88F
:10229000843026E02E4B24331B680B434FF0204440
:1022A000C4F8A4301DE0102807D14FF020435B6E26
:1022B0008B434FF02044636613E0B0F5807F08D174
:1022C000234B1B1D1B688B434FF02044C4F8843004
:1022D00007E01F4B24331B688B434FF02044C4F8A6
:1022E000A43010BD10B5024600200023102A03D1EF
:1022F0004FF02044636E09E0B2F5807F03D1144CA7
:10230000241D236802E0124C2434236803EA0104EC
:102310000CB1012000E0002010BD102807D14FF0C3
:102320002042526E8A434FF020435A6619E0B0F5BE
:10233000807F0FD1064A121D12688A434FF0204356
:10234000C3F884200DE000000C640008FEFF0F00BD
:10235000800000A0234A12688A434FF02043C3F84C
:10236000A420704770B502460020002300240025F9
:10237000102A03D14FF02046736E08E0B2F5807F3B
:1023800003D1184E203E336801E0164E336803EA4D
:10239000010403EAD10514B10DB1012000E00020D1
:1023A00070BD102808D14FF02042526E22EAD102AF
:1023B0004FF020435A6614E0B0F5807F09D1094AF6
:1023C000203A126822EAD1024FF02043C3F8842059
:1023D00007E0044A126822EAD1024FF02043C3F812
:1023E000A4207047A40000A0F948006840F0010054
:1023F000F74908600020F64908310860F448006891
:10240000F4490840F2490860F348091D0860F348A0
:10241000EF4984310860F0481038091D0860EC4825
:10242000006820F48020EA4908600020E8490C3167
:102430000860E7498C31086070470021E44A921C2B
:10244000117011460870704710B501460022002334
:1024500000204A11012A02D1DD4C236808E0022A3B
:1024600003D1DB4C7034236802E0D94C7434236808
:1024700001F01F02012494401C400CB1012000E037
:10248000002010BD38B5002000900024002500BFBA
:102490003120FFF7D9FF05460098401C00900098B6
:1024A000B0F5A04F01D0002DF2D03120FFF7CCFFC6
:1024B00008B1012400E00024204638BD0146002078
:1024C000C34A106820F0F80040EAC100106070476D
:1024D000C349086070470021BD4A70321170117005
:1024E000012802D004280AD104E00121B84A703240
:1024F000117005E00521B64A7032117000E000BF8E
:1025000000BF7047B7490860704770B5049C41EA46
:1025100082150126C6EB530645EA0645054345EA02
:102520000465AB4E361D356070BDAD490866704719
:10253000820142EA0172A64B84331A607047A849AF
:102540008866704710B5830143EA016343EA02736A
:102550009F4C8834236010BDA14908677047A0498B
:10256000C864704702460020994B0833186820F071
:10257000EC6042EA01031843954B0833186070473A
:1025800002460020924B0833186820F0784042EA57
:10259000010318438E4B0833186070470146002032
:1025A0008B4A0832106820F003000843106070471F
:1025B00087480830006800F00C0070470146002092
:1025C000834A0832106820F0F0000843106070471A
:1025D000014600207E4A0832106820F4E05008438B
:1025E0001060704701460020794A0832106820F4D4
:1025F000604040EAC10010607047F0B50021002241
:102600000024022500260223714F08373F6807F097
:102610000C0121B1042905D0082937D105E0724FFA
:10262000076036E0714F076033E0694F3F1D3F6838
:10263000C7F38056664F3F1D3F6807F03F036EB1FA
:102640006A4FB7FBF3F7DFF888C10CF1040CDCF834
:1026500000C0CCF3881C07FB0CF40CE0624FB7FB06
:10266000F3F7DFF86CC10CF1040CDCF800C0CCF31C
:10267000881C07FB0CF4564F3F1D3F68C7F301470A
:102680007F1C7D00B4FBF5F7076002E0564F076042
:1026900000BF00BF4E4F08373F6807F0F00109093F
:1026A000534F7A5C0768D7404760494F08373F6807
:1026B00007F4E051890A4E4F7A5C4768D74087603B
:1026C000434F08373F6807F46041490B484F7A5C35
:1026D0004768D740C760F0BD002100F44072B2F5F2
:1026E000407F0AD13A4A0832116821F4F811414A70
:1026F00002401143364A08321160354A703212687E
:10270000C0F30B031A43324B70331A6070473549DC
:10271000443908607047334940390860704736498A
:102720000860704701460020294A8C32106820F06A
:102730001F004A1E1043264A8C3210607047014623
:102740000020234A8C32106820F4F8504A1E40EAD8
:1027500002201F4A8C3210607047014600201C4A3C
:102760008C32106820F44010084310607047014616
:102770000020174A8C32106820F440000843106093
:10278000704701460020124A8C32106820F4403015
:1027900008431060704719490860704739B10C4A06
:1027A0003032126802430A4B30331A6006E0084A9E
:1027B000303212688243064B30331A607047F9B1E9
:1027C000034A343212680243014B34331A601CE06E
:1027D00000380240FFFFF6EA1030002400300020ED
:1027E00000004742800E47420024F40000127A00A5
:1027F0002C000020FFFCFF0F5C014742E011474224
:102800008F4A126882438E4B1A60704739B18C4AE6
:10281000121D126802438A4B1B1D1A6006E0884A8B
:10282000121D12688243864B1B1D1A60704739B116
:10283000834A0C3212680243814B0C331A6006E063
:102840007F4A0C32126882437D4B0C331A6070470A
:1028500039B17B4A103212680243794B10331A6047
:1028600006E0774A103212688243754B10331A60C3
:10287000704739B1724A243A12680243704B243BC4
:102880001A6006E06E4A243A126882436C4B243B7D
:102890001A60704739B16A4A203A12680243684B9D
:1028A000203B1A6006E0664A203A12688243644B75
:1028B000203B1A60704739B1614A1C3A12680243E2
:1028C0005F4B1C3B1A6006E05D4A1C3A126882436B
:1028D0005B4B1C3B1A60704739B1594A143A126875
:1028E0000243574B143B1A6006E0554A143A1268EB
:1028F0008243534B143B1A60704739B1504A103A27
:10290000126802434E4B103B1A6006E04C4A103AE4
:10291000126882434A4B103B1A60704739B1484AEB
:102920001C3212680243464B1C331A6006E0444ACC
:102930001C3212688243424B1C331A60704739B113
:102940003F4A2032126802433D4B20331A6006E0B2
:102950003B4A203212688243394B20331A60704759
:1029600039B1374A243212680243354B24331A6096
:1029700006E0334A243212688243314B24331A6012
:10298000704739B12E4A2C32126802432C4B2C333B
:102990001A6006E02A4A2C3212688243284B2C33F4
:1029A0001A60704739B1264A303212680243244B0C
:1029B00030331A6006E0224A303212688243204BDC
:1029C00030331A607047012808D11D493C3109682D
:1029D00041F008011A4A3C32116007E018493C31C5
:1029E000096821F00801164A3C321160704739B17C
:1029F000134A273A12780243114B273B1A7006E01C
:102A00000F4A273A127882430D4B273B1A707047C2
:102A10000B484030006840F0807009494031086040
:102A2000704701460020064A283A12680A400AB157
:102A3000012000E0002070470149263908707047E6
:102A40003438024010B501210802FFF756FF00217B
:102A50004FF48070FFF751FF10BD30B502460020E3
:102A600000235068F84C20400D790C6844EA052496
:102A7000204350609068F54C2040D1E903542C432A
:102A80008D682C434D7944EA450420439060D06A18
:102A900020F470000C7D641EE4B2234340EA03502E
:102AA000D06230BD00210160017141718160C1605F
:102AB00001610121017570470021E54A1168E54A6D
:102AC0001140D0E900231A4383681A43C3681A43AC
:102AD0001143E14AC2F804137047002101604160CC
:102AE0008160C160704721B1826842F0010282605A
:102AF00003E0826822F00102826070470A460021EA
:102B00004168D64B1940114341607047416282626F
:102B100070470A460021416821F01F0111434160BE
:102B2000704738B1CA49096841F40001CA4AC2F87D
:102B3000041306E0C649096821F40001C64AC2F838
:102B40000413704738B1C249096841F48001C24A90
:102B5000C2F8041306E0BE49096821F48001BE4AA8
:102B6000C2F804137047F0B504460D46002000215A
:102B7000092D11DDE068A5F10A0606EB46070726D8
:102B800006FA07F18843A5F10A0606EB460603FAA2
:102B900006F10843E0600CE0206905EB45070726D5
:102BA00006FA07F1884305EB450603FA06F10843E8
:102BB0002061072A0FDA606B561E06EB86071F2678
:102BC00006FA07F18843561E06EB860605FA06F15B
:102BD0000843606322E00D2A0FDA206BD61F06EB54
:102BE00086071F2606FA07F18843D61F06EB8606DE
:102BF00005FA06F10843206310E0E06AA2F10D0631
:102C000006EB86071F2606FA07F18843A2F10D0698
:102C100006EB860605FA06F10843E062F0BD81681E
:102C200041F0804181607047014600208A6802F0CF
:102C300080420AB1012000E00020704721B1826883
:102C400042F48062826003E0826822F480628260E3
:102C5000704721B1826842F00202826003E082681C
:102C600022F002028260704710B50A46002100235C
:102C7000416821F46041531E41EA4331416010BD77
:102C800021B1426842F40062426003E0426822F4EB
:102C90000062426070470146C86C80B270476C4861
:102CA000001D0068704721B1826842F48072826022
:102CB00003E0826822F480728260704721B18268EA
:102CC00042F40072826003E0826822F40072826043
:102CD000704738B15E49096841F400515E4AC2F854
:102CE000041306E05A49096821F400515A4AC2F80F
:102CF00004137047F0B50446154600200022002654
:102D0000092911DDE068A1F10A0707EB470C072745
:102D100007FA0CF29043A1F10A0707EB470703FA01
:102D200007F21043E0600CE0206901EB410C07273B
:102D300007FA0CF2904301EB410703FA07F2104344
:102D40002061A06BC0F30156EF1C06F1010CA7EB4C
:102D50000C0707EB870C1F2707FA0CF29043EF1CB8
:102D600006F1010CA7EB0C0707EB870701FA07F246
:102D70001043A063F0BD10B50A4600210023816B0B
:102D800021F44011531E41EA0351816310BD08B57F
:102D9000002300930090009B0B440093009B1A605B
:102DA00008BD0A460021816821F470211143816029
:102DB00070470A460021816821F440111143816067
:102DC0007047816841F480018160704701460020AE
:102DD0008A6802F480020AB1012000E000207047F6
:102DE00021B1426842F48062426003E0426822F40A
:102DF00080624260704721B1426842F48052426072
:102E000003E0426822F480524260704708B50246EF
:102E100000200090009201F12800009B18440090CF
:102E20000098006880B208BD10B50B460021D9B2E9
:102E3000012404FA01F11AB144680C43446002E031
:102E400044688C43446010BDFFFEFFFCFDF7FFC0EB
:102E500004230140E030FCFF00200140FFFD3FFF64
:102E60000246002013680B400BB1012000E0002057
:102E70007047CA430260704770B5024600200023C5
:102E800000240B12556801268E4005EA06041568D9
:102E90001D4015B10CB1012000E0002070BD0022E2
:102EA0000A12D3430360704710B501214807FFF7AA
:102EB00013FD00214FF00050FFF70EFD10BD30B59F
:102EC000002200237B4C226840F6FE748440A2431B
:102ED000D1E900452C438D682C43CD6844EA0503B5
:102EE00003FA00F42243734C226030BD00210160DC
:102EF00041608160C160704739B16E4A1268012338
:102F000083401A436B4B1A6006E06A4A1268012339
:102F100083409A43674B1A60704710B551B1654AB8
:102F2000121D126804090123A3401A43614B1B1DA3
:102F30001A6009E05F4A121D126804090123A340C8
:102F40009A435C4B1B1D1A6010BD40B15949091DC5
:102F5000096841F00301574A121D116007E0554905
:102F6000091D096821F00301524A121D11607047C2
:102F700010B53AB14F4B1B6801FA00F423434D4C96
:102F8000236006E04B4B1B6801FA00F4A343494C55
:102F9000236010BD08B500220092464A009200F15D
:102FA0000802009B1A440092009A116008BD08B5FF
:102FB000002200923F4A009200F11402009B1A4442
:102FC0000092009A116008BD30B500240023082843
:102FD00002D142EA012401E042EA0144354B00F10A
:102FE00020052B441C6030BD08B501460020009030
:102FF000304800902C2000EB9100009A1044009083
:103000000098006880B208BD41B12A4A12684FF4A6
:10301000805383401A43274B1A6007E0254A126801
:103020004FF4805383409A43224B1A60704710B587
:103030003AB1204B1B6801FA00F423431D4C236076
:1030400006E01C4B1B6801FA00F4A343194C2360F3
:1030500010BD10B502460020164B34331B6801FA30
:1030600002F423400BB1012000E0002010BD01FA62
:1030700000F2104B34331A60704730B5024600201E
:1030800000230C4C246801FA02F504EA0503094CFC
:103090003434246801FA02F52C4014B10BB101203C
:1030A00000E0002030BD01FA00F2024B34331A6018
:1030B00070470000007400400A460021DBE0D30B9B
:1030C000002B75D0102971D2DFE801F0080F161D12
:1030D000242B323940464C52585E646A038823F4EC
:1030E000004303F50043038060E0038823F480433A
:1030F00003F58043038059E0038823F4005303F56C
:103100000053038052E0038823F4805303F5805377
:1031100003804BE0038823F4006303F5006303801E
:1031200044E0038823F4806303F5806303803DE07B
:10313000038823F4007303F50073038036E00388EB
:1031400023F4807303F5807303802FE0038823F05A
:1031500080038033038029E0038823F04003403359
:10316000038023E0038823F02003203303801DE045
:10317000038823F010031033038017E0038823F043
:1031800008030833038011E0038823F004031B1DA8
:1031900003800BE0038823F002039B1C038005E0FF
:1031A000038823F001035B1C038000BF5DE0FFE7A1
:1031B000102959D2DFE801F0080D12171C21262B27
:1031C00030353A3F44494E53038823F4004303808B
:1031D0004AE0038823F48043038045E0038823F416
:1031E0000053038040E0038823F4805303803BE0D6
:1031F000038823F40063038036E0038823F48063AC
:10320000038031E0038823F4007303802CE00388FB
:1032100023F48073038027E0038823F08003038076
:1032200022E0038823F0400303801DE0038823F09D
:103230002003038018E0038823F01003038013E0C9
:10324000038823F0080303800EE0038823F00403BF
:10325000038009E0038823F00203038004E003886D
:1032600023F00103038000BF00BF4FF6FF7303EAA2
:1032700042024B1CD9B21029FFF621AF7047F0B5BE
:103280001C46002600250123C1F11007974202DAEF
:10329000C1F11007FAB20E46002E0CDD05E0EF1862
:1032A000BDB24FF6FF7707EA43033700A6F1010CE2
:1032B0000CF0FF06F3D1D0F814C04FF6FF7797401B
:1032C0008F402F430CEA070CC0F814C0476904FA7A
:1032D00001FC47EA0C074761F0BD10B56FF0040030
:1032E000FEF736FC1520394908700846007800EBD7
:1032F0004001C1EBC0104FF6FF7101EAC000344934
:10330000088010BD0146314A12784A434FF0E0234D
:103310005A6100229A611A46126942F001021A614A
:1033200000BF4FF0E022106900F001021AB100F472
:103330008032002AF5D04FF0E022126922F001021B
:103340004FF0E0231A6100229A6170470146204A3B
:1033500012884A434FF0E0235A6100229A611A46CC
:10336000126942F001021A6100BF4FF0E0221069B9
:1033700000F001021AB100F48032002AF5D04FF0BB
:10338000E022126922F001024FF0E0231A610022CC
:103390009A61704770B504464FF4077094FBF0F0E3
:1033A000C6B24FF4077094FBF0F100FB114085B2F8
:1033B00005E04FF40770FFF7C9FF701EC6B2002E7C
:1033C000F7D115B12846FFF7C1FF70BD3C000020C2
:1033D0003E0000200FB41CB5074B06AA7B4469468B
:1033E0000090059800F075FB0020694600F084FB12
:1033F0001CBC5DF814FB00001907000070B5044602
:1034000085690068C10601D5302600E02026C00786
:1034100007D070BDD4E9012130469047206A401C96
:1034200020626D1EF6D570BD70B5044685690078C2
:10343000C00707D170BDD4E9012120209047206A40
:10344000401C20626D1EF6D570BD00002DE9F041D4
:103450000646002410687529314615A510D0AFF333
:103460000080002802DA404212A507E031688A078E
:1034700001D511A502E0490704D510A5012401E0FA
:10348000AFF3008000210A2306F1240707E0B0FB18
:10349000F3F203FB1200303078541046491C002828
:1034A000F5D123462A463046BDE8F04100F0A7B8E2
:1034B000000000002D0000002B0000002000000094
:1034C0002DE9F05F894604464FF0000ADFF824B189
:1034D000FB44C0F820A02046E168884700287DD042
:1034E000252806D0D4E901219047206A401C20629B
:1034F000F1E700255F462046E16888472028064618
:1035000007DB312E05D2B81910F8200C08B105439D
:10351000F1E7A80701D525F00405C4F81CA0002791
:10352000C4F818A02A2E09D0304601F02BF838B381
:1035300004EB8708303EC8F8186019E059F8041BFE
:10354000204604EB87029161E1688847012F064617
:1035500018D1E069002820DA25F020051DE0D8F810
:10356000180000EB800006EB40003038C8F8180067
:103570002046E1688847064601F004F80028EED1AD
:10358000012F0AD02E2E08D12046E16888477F1CE3
:103590000646022F45F02005C4DBA069002803DAA7
:1035A000404245F00105A061E80701D025F0100573
:1035B000A6B1A6F14100192802D8203645F40065CD
:1035C0004A463146204625604D46FCF717FE60B15D
:1035D000012807D0ED1D25F0070000E007E000F10D
:1035E000080978E705F1040975E730467AE7206AAB
:1035F000BDE8F09F542F00007047704770472DE9D9
:10360000F0470D4699469246044600F124080168A9
:10361000880604D5E06921F01001216000E0012056
:10362000A84201DD471B00E00027A1697A1902EBDF
:103630000900081AA0612078C00602D42046FFF7CE
:10364000DDFE002608E0D4E901211AF806009047C3
:10365000206A401C761C20624E45F4DB2078C006B0
:103660000AD52046FFF7CAFE06E0D4E90121302042
:103670009047206A401C2062381EA7F10107F4DC45
:1036800007E0D4E9012118F805009047206A401CA2
:103690002062281EA5F10105F3DC2046FFF7C4FED9
:1036A0002078000602D50220BDE8F0870120FBE764
:1036B00070472DE9FF4F0C461E464FF0FF378BB089
:1036C000D2E90001DDF860800A908A46C1F30A550C
:1036D00005B93D46002108464FF00000BAF1000F41
:1036E00000F4400005DA00EB80004FF4400101EAED
:1036F00050004FEA9059B9F1010F00DDB9460A9820
:1037000050EA4A000ED044F61050A5F2FF3545436A
:103710002F14B8F1000F1ED07542291E1EDDC9F10D
:1037200000021CE0B8F1010F4FF0000001D0302181
:1037300003E0F24305E02154401CB042FBDB30467D
:103740000022002121540B99C1F80880C1E9002012
:103750000FB0BDE8F08FBD1B6D1CDEE74A4600DAF6
:10376000694206A800F058FA06AB93E8070003ABDD
:1037700083E8070050460A9900F031FB8DE8070006
:10378000A0F500501F3800900398002D09DD42F28B
:103790001F014A46084403A90390684600F090FDC3
:1037A00008E0A0F500504A461F3803A90390684678
:1037B00000F09AFD8DE807000004000C03D04FF0E4
:1037C000FF30410800E01046B8F1000F03D000229E
:1037D000009215461EE0751E05D400F097F93032B0
:1037E00062556D1EF9D5B3460122084302D000226E
:1037F0007F1C04E02078302801D100227F1E002A9F
:10380000099786D01DE0112D07DA00F07FF93032DC
:1038100062556D1C50EA0102F5D1084302D00098B0
:10382000C8B10EE00021681E05E0235C625C6354B1
:103830002254401E491C8142F7DBAB46A81B401EA8
:103840000990002004F80B000B98099AC0F8088032
:10385000C0E9002B7CE711264FF0000859E72DE95D
:10386000F04F88460446D21D22F0070191B0D1E9FD
:103870000001CDE90A0100F06DFE02460B98C00F71
:1038800001D02D2007E02068810701D52B2002E020
:10389000202101EAC000032A099001D0072A05DB94
:1038A00003464146204600F077F909E1207880067A
:1038B00001D5E06900E00620B8F1650F814606D029
:1038C000B8F1660F18D0B8F1670F70D131E0002061
:1038D000B9F1110F009001DB112301E009F101039F
:1038E0000AAA01A90CA8FFF7E4FEDDE90C70002686
:1038F00009F10105834647E001204B4600904FF057
:1039000000470AAA01A90CA8FFF7D3FEDDE90DB014
:103910000C995D46002610B909F101000D18B9EBAC
:10392000050003D4C0F1FF3609F10105A5EB09003C
:103930002BE0B9F1010F01DA4FF001090020B9F1D4
:10394000110F0090484601DD112300E003460AAA4A
:1039500001A90CA8FFF7ADFEDDE90C704D4600266D
:103960008346207800070AD4AB4500DA5D4601A8FB
:10397000012D04DD411911F8011C302907D04F45F4
:1039800002DA17F1040F04DA012082460FE06D1EFF
:10399000EEE7002F02DCED1B3E4403E0781CA8425A
:1039A00000DD7D1CB81B00F1010A4FF000472078B4
:1039B000000703D4AA4501DB4FF0FF3A0021B7F11D
:1039C000004F0DF143088DF8431022D002202B2325
:1039D000002F01DA7F422D234FF00A0C011EA0F1C7
:1039E000010000DC47B197FBFCF10CFB11720F46A4
:1039F000303208F8012DF1E7A8F1010003702188A9
:103A0000090501D5452100E06521A0F1010800F874
:103A1000011C09980FA9A1EB0807FF1D00B10120A7
:103A2000411901EBEA70A1693844081A401EA061EF
:103A30002078C00602D42046FFF7E0FC099828B1A0
:103A4000D4E901219047206A401C20622078C006FA
:103A500022D52046FFF7D2FC1EE0002E04DBB34542
:103A600002DD01A8805D00E03020D4E9012190470B
:103A7000206A401C2062761CAAF101005FEA000A5D
:103A80000AD100F03FF8C0680168405CD4E9012128
:103A90009047206A401C2062281EA5F10105DCDC4D
:103AA00007E0D4E9012118F8010B9047206A401C77
:103AB0002062381EA7F10107F3DC2046FFF7B4FCB3
:103AC000022011B045E6000001694A1C0261087835
:103AD000704700B58FB0CDE901310021059105494E
:103AE0007944CDE9031011466846FFF7E9FC0FB0B1
:103AF00000BD0000E5FFFFFF0A6802F8010B0A6045
:103B000070470000004870476000002030B5B0F1F9
:103B10000A024FEA900E71F100034EEA817EB0EB8B
:103B20000E0061EB91014FEA101E4EEA017E10EB90
:103B30000E0041EB11114FEA102E4EEA016E10EB10
:103B40000E0041EB11214FEA104E4EEA014E10EBF0
:103B50000E0041EB1141401841F100014FEAD00045
:103B600040EA41704FEAD10110EB80054FEA810431
:103B700044EA907444EB01046D1944EB0404521BB5
:103B8000A3414FF0000348BF0A3200D530BD401CAE
:103B900041F1000130BD00002DE9F0411F4604460F
:103BA00003260168072A01F4006004DB08B116A5AA
:103BB00005E016A503E008B115A500E015A521F064
:103BC00010002060A069C01EA0610FB1401EA0615E
:103BD0002046FFF713FC4FB1D4E901213846904746
:103BE000206A401C2062C01C206206E0206AFAE7BE
:103BF000D4E9012115F8010B9047761EF8D2204632
:103C0000FFF712FCBDE8F0814E414E006E616E0080
:103C1000494E4600696E66002DE9F047814616461A
:103C20008AB0324878440DC88DE80D002F4878449A
:103C3000801C03AC0DC884E80D0041F69B30372290
:103C4000014491FBF2F0A0F1800502FB10141B3C33
:103C500002D56442012000E00020DFF890A08046F9
:103C60000027FA44AAF1BA0A0DE0E00709D032466B
:103C7000684607EB47010AEB810100F035FB8DE850
:103C8000070064107F1C002CEFD1184F7F44A83F21
:103C900018E0E80714D007EB04100DF1180A90E8BB
:103CA0000E008AE80E00C068F04201D19819089011
:103CB000324606A903A800F017FB03AB83E8070010
:103CC0006D10641C002DE4D132466946B8F1000F36
:103CD00003A802D000F0F4FA01E000F005FBC9E906
:103CE0000001C9F808200AB0BDE8F087902800005C
:103CF00000487047400000207546FFF7F9FFAE46C8
:103D000005006946534620F00700854618B020B5E7
:103D1000FCF7BCFBBDE820404FF000064FF0000769
:103D20004FF000084FF0000B21F00701AC46ACE863
:103D3000C009ACE8C009ACE8C009ACE8C0098D46D0
:103D400070470446AFF300802046FCF776FA000087
:103D50004FF0013C50F8042B51F8043B9A4221D11A
:103D6000A2EB0C03934313EACC1317D150F8042BA6
:103D700051F8043B9A4215D1A2EB0C03934313EA8A
:103D8000CC130BD150F8042B51F8043B9A4209D1C3
:103D9000A2EB0C03934313EACC13DBD04FF00000EB
:103DA000704700BFD01A01BAB1FA81F101F01801D1
:103DB00022FA01F0CB40C1F12001DBB2C0B2C01A3F
:103DC0002CFA01F3D11A914311EAC311E6D17047DD
:103DD00001491820ABBEFEE72600020070475FEAEB
:103DE000400C08BF91F0000F4FEA8C234FEAC1222C
:103DF00043EA51514FEA1C5018BF00F5F0404FEA1A
:103E0000300018BF41F000415FEA6C5C00F029808F
:103E1000BCF1FF3F08BF40F080407047130C06BF65
:103E200012044FF0100C4FF0000C130E04BF1202DE
:103E30000CF1080C130F04BF12010CF1040C930FCA
:103E400004BF92000CF1020CD30F04BF52000CF11E
:103E5000010C11464FF00002A0F11F00A0EB0C0076
:103E6000704711F0004F08BF704731F000413FF438
:103E7000D5AF0B0C06BF09044FF0100C4FF0000C2F
:103E80000B0E04BF09020CF1080C0B0F04BF090153
:103E90000CF1040C8B0F04BF89000CF1020CCB0F4A
:103EA00004BF49000CF1010CCCF12003A0EB0C0085
:103EB00022FA03F302FA0CF241EA030100F10100D5
:103EC000704720F07F4C80EA030023F07F47ACEB83
:103ED000070303F57C5300F0004003F1FF032DE9D5
:103EE00080494FEA154B09B44FEA144325EA0B4EBB
:103EF00024EA03480FF2042606EB132749083E780C
:103F00005FEA320203FB0667C7F5000707FB06F608
:103F10004FEA54374FEAD64606F1020607FB066C15
:103F2000CCF1005C4FEA1C472CEA074C07FB06F477
:103F30000CFB06F504EB15464FEA961634BF00203D
:103F40004FF000404FEAD13706FB07FC4FEA1C4C0C
:103F50000CFB0BF7D21B03FB0CF761EB07010CFB0F
:103F60000EF7B0EB074072EB17420CFB08F734BFBB
:103F7000A2EB0742B2EB074261EB17414FEA0C4458
:103F80004FEA910706FB07FC4FEA1C4C0CFB0BF7B2
:103F9000B0EBC74072EB573203FB0CF734BFA2EB18
:103FA000C742B2EBC74261EB57310CFB0EF7B0EBE7
:103FB000C70072EB57720CFB08F734BFA2EBC702C5
:103FC000B2EBC70261EB5771039F4FEA816141EA8F
:103FD000921104EBCC044FEAD1374FEA826206FB20
:103FE00007FC42EA90124FEA80604FEA1C4C0CFB3F
:103FF0000BF7D21B03FB0CF761EB07010CFB0EF771
:10400000B0EB074072EB17420CFB08F734BFA2EB92
:104010000742B2EB074261EB17414FEA8C554FEA7A
:10402000910704EB9C2406FB07FC4FEA1C4C0CFB9D
:104030000BF7B0EBC74072EB573203FB0CF734BF02
:10404000A2EBC742B2EBC74261EB57310CFB0EF754
:10405000B0EBC70072EB57720CFB08F734BFA2EB52
:10406000C702B2EBC70261EB577115EB4C254FEA63
:10407000816141EA92114FEA82624FEAD13742EA06
:10408000901206FB07FC44F100044FEA80604FEAFF
:104090001C4C0CFB0BF7D21B03FB0CF761EB07016D
:1040A0000CFB0EF7B0EB074072EB17420CFB08F766
:1040B00034BFA2EB0742B2EB074261EB174115EBAD
:1040C0001C154FEA813141EA92414FEA823242EABD
:1040D00090424FEA80304FEA0C7644F1000448EAFF
:1040E00003434EEA0B484FF0000EB2EB080C71EBA5
:1040F000030724BF624639464EEB0E0E4FF0000B0D
:104100000018524149414BEB0B0BB2EB080C71EB21
:1041100003077BF1000B24BF624639464EEB0E0EBF
:104120004FF0000B0018524149414BEB0B0BB2EB27
:10413000080C71EB03077BF1000B24BF6246394684
:104140004EEB0E0E51EA020718BF46F0010616EBC1
:104150000E7655F1000254F1000103D5BDE8890146
:10416000BDE80088BDE88901B619BDE800485241A4
:1041700041EB0101A3F10103704780807F7E7D7CCC
:104180007B7A7978777676757473727171706F6EE9
:104190006E6D6C6C6B6A6A69686867666665646494
:1041A000636362616160605F5F5E5E5D5D5C5C5B1E
:1041B0005B5A5A595958585757565655555554548D
:1041C000535352525251515050504F4F4F4E4E4DEB
:1041D0004D4D4C4C4C4B4B4B4A4A4A494949484837
:1041E0004847474747464646454545444444444377
:1041F00043434342424242414141002B26D477008F
:1042000021D01CB54FEA370703B44FF010004FF030
:1042100010014FF000000FBC0BF1010BBDE8104086
:10422000BBF1010F08BF5FEA170722BF12F10102BD
:1042300011F101014FF0004143F1000300F0004093
:1042400043EA00007047F9D35708DAE746EA064622
:1042500013F1400F4FEA16461FDD13F1200FDFBFA9
:1042600016430A46002120335B42C8D0C3F1200721
:1042700046EA064602FA07F74FEA164646EA0706F6
:10428000C3F1200722FA03F201FA07F721FA03F13A
:104290004FF0000342EA0702B1E746EA020646EAA7
:1042A00006464FEA164646EA0106BCBF46EA0646FF
:1042B000360C4FF000034FF000024FF000019EE774
:1042C0002DE9C048934630B491E8380007C831EA78
:1042D000400C48BF34EA430C03D5FFF7F2FDFFF76B
:1042E0008CFFF0BCBDE800882DE9C048934630B48F
:1042F00091E8380007C810F0804F08BF13F0804FD6
:1043000003D100F005F8FFF778FFF0BCBDE80088A6
:1043100020F07F4780EA030023F07F4C07EB0C037B
:10432000A3F57C5300F00040A3F1FE0392F0000FD0
:1043300000F0B38095F0000F00F077802DE901497F
:104340004FEA11404FEA144621EA004800FB06FC00
:1043500024EA064708FB06F607FB08F800FB07F708
:1043600018EB06484CEB164C4FEA124B18EB07487B
:104370004FEA15464CEB174022EA0B4E0BFB06FCAE
:1043800025EA06470EFB06F607FB0EFE0BFB07F7BA
:104390001EEB064E4CEB164C4FF000061EEB074E84
:1043A0004CEB174B18EB0B0840F1000018EB0E0B11
:1043B00058EB000840F100008F1A4FF000013CBF9D
:1043C000C943661B14BFB5EB040C00213CBFC943B5
:1043D000F61B4FEA17444EEA8E0E27EA04454FEAD1
:1043E0001C4704FB07622CEA074C05FB07F70CFB94
:1043F00005F604FB0CFC16EB074642EB174216EBE6
:104400000C4642EB1C421BEB060658EB02024141F4
:1044100046EA9E0601D5BDE80189B619524141EB35
:104420000101A3F10103BDE801894FEA14454FEAF8
:10443000114724EA054621EA074C05FB07F406FB71
:1044400007F70CFB06F105FB0CFC11EB074144EBF5
:1044500017444FEA124711EB0C4144EB1C4422EA8B
:10446000074C05FB07F206FB07F70CFB06F605FBFE
:104470000CFC16EB074642EB174216EB0C4642EBE0
:104480001C456A1854F1000148BF7047B6195241E3
:1044900041EB0101A3F10103704795F0000F37D004
:1044A0004FEA11424FEA144721EA024624EA074C38
:1044B00002FB07F106FB07F70CFB06F402FB0CFC02
:1044C00014EB074441EB17414FEA154714EB0C443A
:1044D00041EB1C4125EA074C02FB07F506FB07F7F9
:1044E0000CFB06F602FB0CFC16EB074645EB1745EA
:1044F00016EB0C4645EB1C42121951F1000148BF66
:104500007047B619524141EB0101A3F10103704715
:104510004FEA14454FEA114724EA054621EA074CC1
:1045200005FB07F106FB07F70CFB06F24FF0000650
:1045300005FB0CFC12EB074241EB174112EB0C425E
:1045400051EB1C4148BF7047921841EB0101A3F1A8
:104550000103704703B401984100009850EAC1205C
:1045600018BF04204A0D18BF40F0010040F2FF724E
:10457000B2EB515F08BF40F00200012808BF0520E0
:1045800002B0704730380A2801D20120704700205D
:104590007047000010B500290AD00878002807D01D
:1045A00005487844FFF7D4FB002801D0002010BD57
:1045B0000248784410BD00004E1F0000461F000056
:1045C00021F00042A2F16052B2F5801F01F00043D9
:1045D00028BFD2F17F6C0BD95FEA001C43EAC2020C
:1045E00042EB507018BF704728BF20F001007047A1
:1045F000B2F5801FBCBF184670474FEA410C1CF54E
:10460000001F02D2084600F019BB70B500F04CFA4A
:1046100000000089FFF7F6BF4FF00040A0F58000D2
:10462000704700002DE9C04130B4DFF8A0C23CEA79
:10463000111418BF3CEA131400F0EC8081EA030562
:104640001CEA111444EAD57418BF1CEA131500F0D3
:10465000C780A4EB05044FF0004545EAC12145EAB7
:10466000C32341EA505143EA525304F17F74994203
:1046700004F500344FEAC0204FEAC22208BF90423E
:1046800000F09C804FEA13650FF24016765D4FEA0A
:10469000134506FB05F7C7F1807706FB07F74FEADE
:1046A000D737A7FB03687642C8F58038A7FB06CE4C
:1046B00038BFA8F1010807FB08E64FF0000EA6FB83
:1046C000028CE6FB03CEDCF1000CCEF1004E38BFCD
:1046D000AEF1010EA6FB0C584FF000074FF000059D
:1046E000E6FB0E87A1FB08C6A0FB07CE16EB0E0665
:1046F00045F10005E1FB076515F1E04E7EBFA4F52D
:1047000080345FEA46066D4116F1800745F10005E9
:104710004FEA17274FEA066647EA0567A6F1DE4625
:10472000B6F1805F4FEA15251FD9384624F0010CF9
:1047300005EBC471BCF1FE6F01EB0C1102D8F0BCAB
:10474000BDE8008124425CBF01F5801E9EEAC47F63
:1047500002D4F0BCBDE80081244238D4F0BCA1F101
:10476000C041BDE8004100F0EDB94FEAD22242EA73
:1047700043524FEAD323A7FB02864FEAD02040EAF8
:10478000415007FB03661EEA0E0F4FEAD12105FBDD
:10479000026658BFA6EB0056B6EB00564FEA520E23
:1047A0004EEAC37E18EB0E0E56EB530EBDD518EB3A
:1047B00002085E417F1C55F10005B6E74FF48015F5
:1047C0004FF000074FF000064FF00008ADE7F0BCD7
:1047D0004FF0000001F1C04101F00041BDE800814F
:1047E00011EA0C1F0CEA131500D00CE013EA0C1FA1
:1047F00000F025804FF00000F0BC81EA030101F0D9
:104800000041BDE80081F0BC81EA0301BDE8004140
:1048100000F098B9F0BCBDE8004170B500F044F973
:10482000097EFC3E00F007B881EA03014FF000006A
:1048300001F00041704781EA030100F083B9F0BC48
:104840004FF000002249BDE800417047FFFDFBF931
:10485000F7F5F4F2F0EEEDEBE9E8E6E4E3E1E0DEB3
:10486000DDDBDAD8D7D5D4D3D1D0CFCDCCCBCAC825
:10487000C7C6C5C4C2C1C0BFBEBDBCBBBAB9B8B74C
:10488000B6B5B4B3B2B1B0AFAEADACABAAA9A8A83F
:10489000A7A6A5A4A3A3A2A1A09F9F9E9D9C9C9B0D
:1048A0009A999998979796959594939392919190B8
:1048B0008F8F8E8E8D8C8C8B8B8A89898888878749
:1048C0008685858484838382828181800000FF07BE
:1048D0000000F87F4FEA1153A3F58063D3F11E0364
:1048E000A8BFD3F1200C08DB4FF0004242EAC122FE
:1048F00052EA505232FA03F0704709420BD4102B9F
:10490000C4BF0020704703F5787CBCF1FF3F05D0A1
:104910004FF0FF3070474FF00000704770B500F067
:10492000C3F800BF4992248000207047F0E7B0FA36
:1049300080F310FA03F10AD0C3F11D0303F580637D
:104940004FEA41504FEA035202EBD12170474FF03A
:1049500000007047DFF848C170B51CEA111E1EBF89
:104960001CEA13159EEA0C0F95EA0C0F00F06F80FD
:1049700081EA030423EA4C134EEAD47E21EA4C1167
:1049800041F4801143F48013AE44A1FB024CA0FB20
:104990000365AEF17F7E361955EB0C05A1FB034C88
:1049A0004CF10003A0FB021C16EB0C06654153F111
:1049B0000003094218BF46F0010613F4007F0BD133
:1049C0004FEA03314FEA0530340341EA155140EA1A
:1049D00016506FF003020AE04FEAC3214FEAC520E8
:1049E000F40241EA555140EA56506FF0020202EBE0
:1049F0002E4201EB025585EACE710AD05FEA440CE3
:104A000018BF24F0004450F1000041F1000120EAF9
:104A1000D47040F2FE7C624500D270BDA84214BF43
:104A20004FF080444FF04044002E08BF0024BEF1F8
:104A3000806FA8BFA1F1C041BDE8704080F28280C4
:104A40004FF0000001F1C04101F0004170479EEAC3
:104A50000C0F0CEA131518BF95EA0C0F06D04FF097
:104A6000000081EA030E0EF0004170BD00F01CF85A
:104A70008900013E00F007B800F009B84FEA430C86
:104A80005FEA5C5C08D081EA030100F05BB84FEAA2
:104A9000410C5FEA5C5CF6D14FF0000001497047C1
:104AA0000000FF070000F87F0EF1020E2EF0030E4B
:104AB0005EF8046B364205D4012A43EB030515F575
:104AC000001F12D8012841EB010C1CF5001F0CD867
:104AD0000ED14FEAD17C15F5001F0CEB4C0C0CF1FC
:104AE000020C08BF4CEBD37C04E04FF0080C01E053
:104AF0004FEAD37C0CEB4C0526FA05F606F00706C8
:104B0000B6F1040C06D20EEB860CBDE870404CF0FA
:104B1000010C6047DFE80CF0090B02024FF0004186
:104B20004FF00000A1F5002170BD19461046012884
:104B300051EB010418BFD4F5001484BF002001F02C
:104B4000004170BD0808A0F500114FEA310170471F
:104B500043004FEAD30C4FEA3C0C43401FBF4007D1
:104B60000CF1605113F0FE4F70471CF0006F03D141
:104B700000200CF0004170470CF0004343EA5070F5
:104B800010B540EACC0000F00EF800BF0000009223
:104B90004FEA0001FFF7D6BF4FF000414FF0000091
:104BA000A1F5002170470EF1020E2EF0030E5EF803
:104BB000044B244204D44FEA4102B2F17F4F11D892
:104BC0004FEA4003B3F17F4F0CD80ED14FEAD07CAF
:104BD000B2F17F4F0CEB4C0C0CF1020C08BF4CEB0C
:104BE000D17C04E04FF0080C01E04FEAD17C0CEBE3
:104BF0004C0324FA03F404F00704B4F1040C06D2C5
:104C00000EEB840CBDE810404CF0010C6047DFE86F
:104C10000CF0070802024FF00040A0F5800010BD24
:104C20000846420018BFD2F1807288BF00F00040F1
:104C300010BD4FF04070E1EE100A7047FF2141EACD
:104C4000D050C0057047FEF70ABE0000000000000B
:104C5000000000000000000000003F4000000000D5
:104C6000000000003000400030004000000009005B
:104C70000BC03D000BC03D00090018C024407FE080
:104C8000224031800000180024C01B000D803240FB
:104C9000018003801C4027401C800740004010001A
:104CA00060000000000000000000000000000000A4
:104CB0001F80204040200000402020401F80000036
:104CC0000000090006001F80060009000000040023
:104CD00004003F8004000400000000100060000099
:104CE00000000000000004000400040004000400B0
:104CF0000000000000400000000000000000002054
:104D000001C006003800400000001F802040204005
:104D100020401F800000000010403FC00040000005
:104D2000000018C02140224024401840000010809C
:104D30002040244024401B80000002000D00110090
:104D40003FC0014000003C80244024402440238098
:104D500000001F80244024403440038000003000C5
:104D6000200027C03800200000001B802440244081
:104D700024401B8000001C0022C0224022401F80D3
:104D800000000000000008400000000000000000DB
:104D900000000460000000000000000004000A00A1
:104DA00011002080404009000900090009000900A5
:104DB000000000004040208011000A00040018009C
:104DC000200023402400180000001F8020402740BE
:104DD00029401F400000004007C039000F0001C0FB
:104DE000004020403FC0244024401B8000001F8022
:104DF0002040204020403080000020403FC0204024
:104E000020401F80000020403FC024402E4030C082
:104E1000000020403FC024402E00300000000F0062
:104E20001080204022403380020020403FC0040018
:104E300004003FC02040204020403FC02040204090
:104E400000000060202020203FC0200020002040E3
:104E50003FC024400B0030C0204020403FC02040D5
:104E60000040004000C03FC03C0003C03C003FC0C9
:104E7000000020403FC00C4023003FC020001F80A6
:104E80002040204020401F80000020403FC02440A0
:104E90002400180000001F802140214020E01FA0B6
:104EA000000020403FC02440260019C0004018C028
:104EB00024402440224031800000300020403FC088
:104EC00020403000000020003F80004000403F8034
:104ED000200020003E0001C00700380020003800FC
:104EE00007C03C0007C038000000204039C0060061
:104EF00039C0204000002000384007C03840200062
:104F00000000304021C02640384020C00000000092
:104F100000007FE0402040200000000070000C00F6
:104F20000380004000000000402040207FE000009F
:104F300000000000200040002000000000000010E1
:104F400000100010001000100010000000004000D1
:104F5000000000000000000002800540054003C082
:104F6000004020003FC004400440038000000000D7
:104F70000380044004400640000000000380044019
:104F800024403FC00040000003800540054003402E
:104F90000000000004401FC0244024402000000006
:104FA00002E0055005500650042020403FC0044058
:104FB000040003C000400000044027C0004000007F
:104FC000000000100010041027E000000000204046
:104FD0003FC00140070004C00440204020403FC0C3
:104FE00000400040000007C0040007C0040003C0E8
:104FF0000000044007C00440040003C0004000005B
:1050000003800440044003800000041007F00450B3
:10501000044003800000000003800440045007F0B7
:105020000010044007C0024004000400000000001B
:1050300006400540054004C00000000004001F8039
:10504000044000400000040007800040044007C006
:1050500000400400070004C00180060004000600B0
:1050600001C0070001C006000000044006C00100A6
:1050700006C0044000000410071004E00180060090
:1050800004000000044005C0064004400000000089
:10509000000004007BE04020000000000000000051
:1050A000FFF000000000000040207BE00400000052
:1050B0000000400080004000200020004000000070
:1050C00000000000000000000000000000000000E0
:1050D000000000001FCC000C0000000000000000D9
:1050E000080030006000080030006000000002206E
:1050F00003FC1E20022003FC1E20022000000000F2
:105100000E1811043FFF10840C78000000000F00FF
:1051100010840F3800C007781884007800000078E9
:105120000F8410C411240E9800E4008400080800C5
:105130006800700000000000000000000000000097
:105140000000000007E018182004400200000000E2
:1051500040022004181807E0000000000000024090
:10516000024001800FF001800240024000000080F8
:10517000008000800FF800800080008000000001A7
:10518000000D000E00000000000000000000000004
:10519000008000800080008000800080008000008F
:1051A000000C000C000000000000000000000000E7
:1051B00000060018006001800600180020000000B2
:1051C00007F0080810041004080807F000000000A9
:1051D000080408041FFC0004000400000000000094
:1051E0000E0C10141024104411840E0C000000004A
:1051F0000C1810041104110412880C700000000037
:1052000000E00320042408241FFC00240000000008
:105210001F98108411041104108810700000000001
:1052200007F00888110411041888007000000000BD
:105230001C00100010FC13001C00100000000000F7
:105240000E3811441084108411440E380000000000
:105250000700088C10441044088807F00000000084
:1052600000000000030C030C000000000000000020
:105270000000000101060000000000000000000026
:1052800000800140022004100808100400000220E1
:105290000220022002200220022002200000000042
:1052A00010040808041002200140008000000000E3
:1052B0000E001200100C106C10800F00000003E0B4
:1052C0000C1813E4142417C4082807D000000004A5
:1052D000003C03C41C40074000E4001C0004100410
:1052E0001FFC1104110411040E880070000003E07B
:1052F0000C1810041004100410081C1000001004F6
:105300001FFC100410041004080807F0000010042B
:105310001FFC1104110417C4100408180000100425
:105320001FFC1104110017C010000800000003E06A
:105330000C181004100410441C78004000001004E5
:105340001FFC10840080008010841FFC10040000EB
:10535000100410041FFC10041004000000000003DF
:105360000001100110011FFE1000100000001004C9
:105370001FFC110403801464181C100400001004A6
:105380001FFC1004000400040004000C00001004C2
:105390001FFC1F0000FC1F001FFC10040000100475
:1053A0001FFC0C04030000E010181FFC100007F0A5
:1053B0000808100410041004080807F00000100486
:1053C0001FFC10841080108010800F00000007F078
:1053D000081810241024101C080A07F200001004FA
:1053E0001FFC1104110011C011300E0C000400004C
:1053F0000E1C11041084108410441C380000180086
:10540000100010041FFC1004100018000000100011
:105410001FF810040004000410041FF8100010000E
:105420001E0011E0001C007013801C0010001FC043
:10543000103C00E01F0000E0103C1FC00000100402
:10544000180C163401C001C01634180C10041000DA
:105450001C00130400FC13041C00100000000804CE
:10546000101C1064108413041C04101800000000A9
:10547000000000007FFE40024002400200000000E9
:1054800030000C0003800060001C000300000000DE
:105490004002400240027FFE0000000000000000C9
:1054A00000002000400040004000200000000001FB
:1054B00000010001000100010001000100010000E5
:1054C000400040002000000000000000000000003C
:1054D0000098012401440144014400FC0004100030
:1054E0001FFC008801040104008800700000000017
:1054F000007000880104010401040088000000001D
:10550000007000880104010411081FFC0004000061
:1055100000F8014401440144014400C800000000B7
:10552000010401040FFC1104110411001800000013
:1055300000D601290129012901C901060000100432
:105540001FFC008401000100010400FC00040000B5
:105550000104190419FC000400040000000000000C
:10556000000300010101190119FE000000001004F0
:105570001FFC0024004001B4010C010400000000E5
:10558000100410041FFC00040004000000000104CB
:1055900001FC0104010001FC0104010000FC010404
:1055A00001FC008401000100010400FC0004000073
:1055B00000F8010401040104010400F800000101E5
:1055C00001FF008501040104008800700000000054
:1055D0000070008801040104010501FF00010104BD
:1055E000010401FC008401040100018000000000AE
:1055F00000CC0124012401240124019800000000B2
:105600000100010007F8010401040000000001008E
:1056100001F8000400040004010801FC000401007A
:1056200001800170000C001001600180010001F098
:10563000010C003001C00030010C01F0010000003D
:105640000104018C00740170018C0104000001014F
:1056500001810171000E001801600180010000004D
:105660000184010C013401440184010C000000009C
:1056700000000000000001003EFC4002400200006B
:10568000000000000000FFFF00000000000000001C
:10569000400240023EFC010000000000000000004B
:1056A00060008000800040004000200020000000DA
:1056B00000000000000000000000000000000000EA
:1056C00000000000000000000000000000000000DA
:1056D00000000000000000000000000000000000CA
:1056E000000F80380FFE380F8038000000000000E7
:1056F00000000000000000000000000001000006A3
:1057000000000C00003800003100000600000C0012
:105710000038000030000000000000000000618040
:105720000067F807F98000618000618000618000F7
:1057300061800067F807F9800061800000000000C8
:105740000000000001C0E003E0F006300804180883
:105750001FFFFE040E080787F00381E00000000031
:10576000000001F000060C00040408060C7001F9AA
:10577000C0000E00003BE000EC18070808040C18FD
:105780000003E00000000001E00007F003F8180447
:105790001C0804170807E1D003C0E00023B0003C58
:1057A00008002008000010000000000000010000B8
:1057B0003100003200001C0000000000000000006A
:1057C00000000000000000000000000000000000D9
:1057D00000000000000000000000000000007F004A
:1057E00001FFC00780F00C00181000042000020028
:1057F00000000000002000021000040C00180780C8
:10580000F001FFC0007F0000000000000000000069
:1058100000000000000000000000420000660000E0
:105820006600003C0000180003FFC0001800003CA8
:105830000000660000660000420000000000080052
:1058400000080000080000080000080001FFC00078
:105850000800000800000800000800000800000020
:105860000000000100003100003200001C000000B8
:105870000000000000000000000000000000000028
:1058800000000000000008000008000008000008F8
:1058900000000800000800000800000800000800E0
:1058A00000080000000000000000000000003800B8
:1058B0000038000038000000000000000000000078
:1058C00000000000000000000000000000000006D2
:1058D00000001C000070000180000E000038000075
:1058E000C0000700001C00003000000000000000A5
:1058F00000007F8001FFE0038070060018040008AC
:1059000004000806001803807001FFE0007F80009B
:105910000000000000000000010008010008010074
:105920000803FFF807FFF80000080000080000085F
:1059300000000000000000000001C03802C0580450
:105940000098040118040218040418061C1803F82F
:105950001801E0F800000000000000000001C0E0B5
:1059600003C0F00400080408080408080618080327
:10597000F41801E7F00001E0000000000000000062
:1059800000000300000D000011000061000081080C
:1059900003010807FFF80FFFF800010800010800E5
:1059A00000000000000000E007FCD0060808061018
:1059B00008061008061008061838060FF00607C07B
:1059C000000000000000000000003F8001FFE00335
:1059D000843002081804100804100804100807187E
:1059E00010030FF00007C0000000000000000000DE
:1059F00003C0000700000600000600F80607F806CE
:105A0000180006E00007000006000000000000008B
:105A10000001E1E003F7F006341004180804180848
:105A2000040C08040C0806161803F3F001C1E0008A
:105A3000000000000000F80003FC300306380402F8
:105A4000080402080402080404100308F001FFC05F
:105A5000007F0000000000000000000000000000C7
:105A6000000000000000703800703800703800003E
:105A70000000000000000000000000000000000026
:105A800000000000000000000000301A00301C0080
:105A90000000000000000000000000000000000006
:105AA0000000000000080000140000220000410077
:105AB000008080010040020020040010080008005F
:105AC0000000000000002100002100002100002152
:105AD0000000210000210000210000210000210021
