:020000040800F2
:10000000D8EA0020ED020008D3020008D50200085B
:10001000D9020008DD020008E1020008000000002B
:10002000000000000000000000000000E5020008E1
:10003000E702000800000000E9020008EB020008E7
:100040000703000807030008070300080703000868
:100050000703000807030008070300080703000858
:100060000703000807030008070300080703000848
:100070000703000807030008070300080703000838
:100080000703000807030008070300080703000828
:100090000703000807030008070300080703000818
:1000A0000703000807030008070300080703000808
:1000B00007030008FD170008771800080703000869
:1000C00007030008070300080703000807030008E8
:1000D00007030008070300080703000807030008D8
:1000E00007030008070300080703000807030008C8
:1000F00007030008070300080703000807030008B8
:1001000007030008070300080703000807030008A7
:100110000703000807030008070300080703000897
:100120000703000807030008070300080703000887
:100130000703000807030008070300080703000877
:100140000703000807030008070300080703000867
:100150000703000807030008070300080703000857
:100160000703000807030008070300080703000847
:100170000703000807030008070300080703000837
:10018000070300080703000800F002F800F05EF81B
:100190000AA090E8000C82448344AAF10107DA45E2
:1001A00001D100F053F8AFF2090EBAE80F0013F0D6
:1001B000010F18BFFB1A43F001031847905E0300BC
:1001C000B05E03000A444FF0000C10F8013B13F03E
:1001D000070408BF10F8014B1D1108BF10F8015BA0
:1001E000641E05D010F8016B641E01F8016BF9D193
:1001F00013F0080F1EBF10F8014BAD1C0C1B09D1EA
:100200006D1E58BF01F801CBFAD505E014F8016B5B
:1002100001F8016B6D1EF9D59142D6D370470000ED
:100220000023002400250026103A28BF78C1FBD8FF
:10023000520728BF30C148BF0B6070471FB517F089
:10024000A0F815F052FC1FBD10B510BD15F02EFE24
:100250001146FFF7F3FF00F023F815F04CFE03B44E
:10026000FFF7F2FF03BC15F04DFE00000B49D1F87B
:1002700000C04A685CF8043B1068184442F8040B5C
:100280008C4528BFA1F1DC0C8A4228BFA1F1DC0219
:10029000C1F800C04A6020F00040704770E40020C0
:1002A00003F063FC00F04AF900F080F9532140F2BA
:1002B000E73001F077FA40F2473140F2E73001F0E1
:1002C000AEFA01F08CFC07F060FA01E011F0E9FFF2
:1002D000FCE7704700BFFEE700BFFEE700BFFEE798
:1002E00000BFFEE770477047704770470948804776
:1002F00009480047FEE7FEE7FEE7FEE7FEE7FEE708
:10030000FEE7FEE7FEE7FEE704480549054A064B1F
:10031000704700000904000889010008D8E40020A3
:10032000D8EA0020D8E60020D8E600200CB500204E
:10033000019000907648006840F48030744908606D
:1003400000BF7348006800F4003000900198401C22
:100350000190009818B90198B0F5A04FF1D16C4800
:10036000006800F4003010B10120009001E000208E
:1003700000900098012846D165484030006840F060
:1003800080506349403108606248006840F4404052
:10039000604908605E48083000685D4908310860BF
:1003A0000846006840F4004008600846006840F4D1
:1003B000A05008605848091F0860081F006840F0F6
:1003C0008070091F086000BF5148006800F000708D
:1003D0000028F9D040F20570504908604C480830B8
:1003E000006820F003004A490831086008460068A8
:1003F00040F00200086000BF45480830006800F087
:100400000C000828F8D10CBD10B54548006840F430
:100410007000434908603E48006840F001003C49D4
:10042000086000203A4908310860394800683D49B1
:100430000840374908603C48091D0860081F0068EB
:1004400020F48020091F0860002031490C31086029
:10045000FFF76CFF4FF0006031498039086010BD34
:1004600070B500200022022300240221284D083507
:100470002D6805F00C0020B1042806D0082834D1DE
:1004800007E02A4D2A4E356033E02A4D284E35606C
:100490002FE01F4D2D1D2D68C5F380541C4D2D1DC3
:1004A0002D6805F03F0154B1224DB5FBF1F5184E12
:1004B000361D3668C6F3881605FB06F209E01B4DAB
:1004C000B5FBF1F5124E361D3668C6F3881605FBEE
:1004D00006F20F4D2D1D2D68C5F301456D1C6B00F7
:1004E000B2FBF3F5124E356003E0104D104E35604F
:1004F00000BF00BF064D08352D68C5F303150E4E2D
:10050000705D0B4D2D68C540094E356070BD000013
:10051000003802400070004008544007003C024090
:1005200088ED00E0FFFFF6FE103000240024F40008
:100530000000002000127A00040000201CB50121F8
:10054000512002F05BFA1820009001208DF8040081
:1005500000208DF8060003208DF8050001208DF89D
:10056000070069460E4801F0C7FC18210C4801F04D
:100570003FFD4FF40070009069460A4801F0BCFC52
:100580004FF40071074801F033FD022000906946E6
:10059000054801F0B1FC0221034801F029FD1CBD12
:1005A0000010024000180240000002401CB501216A
:1005B000202002F023FA4FF47070009000208DF894
:1005C000040003208DF8050001208DF8070069461E
:1005D000314801F091FC1CBD0021304A11703049B6
:1005E000096861B12E49091F096841B12C490839D0
:1005F000096821B12A490C39096800293CD12849E8
:10060000096819B90121274A117016E02449091F08
:10061000096819B90221234A11700EE020490839EE
:10062000096819B903211F4A117006E01C490C39E9
:10063000096811B904211B4A11701A4909781A4A2C
:100640001278914210D119490988491C174A118022
:1006500014490978164A1170E8B914490988012922
:1006600019DD0021117016E00021104A11800D499A
:1006700009780D4A11700EE00C490988022903DD42
:1006800008490978054A11700021074A1170074A84
:100690001180074A117070470014024015000020B5
:1006A0002482424218000020190000201600002079
:1006B00014000020F64A1080921C1180704710B57B
:1006C0000446F3480480052003F064FAF048801CD7
:1006D000008810BDEF480088ED490880704700BFD2
:1006E0000100A0F10102D0B2FAD1704730B5014645
:1006F00001F01F04C1F34513CA0AE50205EB4315D7
:100700001544A8B230BD10B503460C46E248008837
:1007100049F24131884212D1E0480088DC49088022
:100720001812891C0880D8B20880DD480088891E0C
:1007300008802012891C0880E0B2088012E0D948A5
:100740000078012804D1D8480088401EC01A83B21E
:100750001946D2480088FFF7ADFF2146D0480088EF
:10076000FFF7A8FF10BD3EB504460D4600200290DD
:1007700001900090CC480088844203DACB4800887E
:10078000854201DB00203EBD29462046FFF7BBFF26
:10079000C148008849F24131884203D12E20BC492A
:1007A000088002E02220BA490880B948801C0088ED
:1007B00008B1002002900220FFF791FFB448801C8E
:1007C00000880290B448008849F24131884211D132
:1007D0000220FFF784FFAE48801C00880090BDF81F
:1007E0000800C0B20190BDF804004FF6FF7101EAA5
:1007F00000200190A848008849F22531884202D1A2
:10080000BDF80800BFE7A448008849F2413188429A
:100810000DD1BDF80800C012C002BDF80410891245
:1008200040EA4110BDF8001040EAE120ABE7BDF816
:100830000800FFF75BFFA6E700B59748008849F27C
:100840004131884203D129209149088004E040F2D7
:1008500073110720FFF72EFF00BD00B58E480088FA
:1008600049F24131884203D128208949088003E0B8
:1008700000210720FFF71EFF00BD70B504460023CE
:10088000002688480078012818D1082C15D2DFE806
:1008900004F00406080A0C0E101206240DE00724CA
:1008A0000BE0042409E0052407E0012405E000240E
:1008B00003E0032401E0022400BF00BF7648008863
:1008C00049F2413188425ED1082C1CD2DFE804F0A5
:1008D0000406090C0F12151800BF14E043F0800342
:1008E00011E043F040030EE043F0C0030BE043F09F
:1008F000200308E043F0600305E043F0A00302E0BA
:1009000043F0E00300BF00BF362643F0080319465A
:100910003046FFF7CFFE03F0200068B16248008840
:1009200062490988884207DA5F4805885F4800887D
:100930005D4908805D480580584800885449088012
:100940000020891C0880088057480088401EC0F39A
:100950000F20088054480078401EC0B208805048DC
:100960000088891E08800020891C088008804F4864
:100970000088401EC0F30F2008804C480078401EBD
:10098000C0B2088026E0082C1CD2DFE804F004077F
:100990000A0D15180F1243F0300313E043F0100353
:1009A00010E043F020030DE000BF0BE043F018031C
:1009B00008E043F0080305E043F0380302E043F0A9
:1009C000280300BF00BF032643F480531946304676
:1009D000FFF770FE70BD10B504461CBB0020314906
:1009E0000870F020304908804FF4A0702F4908802B
:1009F0002948008849F24131884209D12C202549F3
:100A000008802A20254908802B20254908802CE0D1
:100A100022202049088020202049088021202049C8
:100A2000088022E001201F4908704FF4A0701E4981
:100A30000880F0201D4908801748008849F241319C
:100A4000884209D12C20134908802A2013490880A4
:100A50002B201349088008E022200E49088021201D
:100A60000E49088020200E4908800020FFF705FF6E
:100A700010BD30B504460D4629462046FFF743FE1B
:100A8000FFF728FE0A4800880149891C088030BD0C
:100A9000FE1F006C260000201E0000202800002001
:100AA0002A00002020000020220000202400002036
:100AB0001A00002030B503460C461546FE48008853
:100AC00049F24131884212D1FC480088FC49088033
:100AD0001812891C0880D8B20880FA480088891E3C
:100AE00008802012891C0880E0B2088012E0F648D5
:100AF0000078012804D1F5480088401EC01A83B24E
:100B00001946EE480088FFF7D5FD2146ED480088DC
:100B1000FFF7D0FDEE480088E9490880881C058071
:100B200030BD2DE9FF4F04460D4616461F46A0195D
:100B3000401E86B2E819401E87B2DF48008849F29D
:100B4000413188421AD1DD480088DD4908802012F1
:100B5000891C0880E0B2088030120880F0B208805A
:100B6000D8480088891E08802812891C0880E8B2AD
:100B7000088038120880F8B2088032E0D248007845
:100B800001280ED1A846B946D0480088801B401ED7
:100B90001FFA80FACD480088001B401E1FFA80FB18
:100BA00003E0A046B146AA46BB4650200390512020
:100BB0000290522001905320009041460398FFF785
:100BC00079FD49460298FFF775FD51460198FFF7F8
:100BD00071FD59460098FFF76DFD29462046FFF745
:100BE00092FDBDE8FF8F00B59FB00121782001F094
:100BF00005FF0121084601F039FF4FF480601D9088
:100C000001208DF8780000208DF87A0002208DF800
:100C1000790001208DF87B001DA9AE4801F06CF928
:100C20004CF233701D9002208DF8780000208DF872
:100C30007A0003208DF8790001208DF87B001DA932
:100C4000A54801F059F94FF680701D9002208DF8EB
:100C5000780000208DF87A0003208DF879000120BB
:100C60008DF87B001DA99D4801F046F904201D90D8
:100C700002208DF8780000208DF87A0003208DF88E
:100C8000790001208DF87B001DA9954801F034F909
:100C90004FF480501D9002208DF8780000208DF8D0
:100CA0007A0003208DF8790001208DF87B001DA9C2
:100CB0008B4801F021F90C220021874801F0A7F9A7
:100CC0000C220121844801F0A2F90C22042182485F
:100CD00001F09DF90C2205217F4801F098F90C22C2
:100CE00008217D4801F093F90C2209217A4801F08E
:100CF0008EF90C220A21784801F089F90C220E2184
:100D0000754801F084F90C220F21734801F07FF936
:100D10000C220721714801F07AF90C2208216F4852
:100D200001F075F90C2209216C4801F070F90C22D0
:100D30000A216A4801F06BF90C220B21674801F087
:100D400066F90C221146654801F061F90C220D216B
:100D5000624801F05CF90C220E21604801F057F95D
:100D60000C220F215D4801F052F90C2202215C484F
:100D700001F04DF90C221146594801F048F90F20B5
:100D80000790002008903C20099000200A900B90CA
:100D90000C900D90092000900020019008200290F6
:100DA0000020039004900590069006200E900020ED
:100DB0000F9010901020119000201290149013901A
:100DC000159016904FF480501790002018904FF413
:100DD0008040199000201A9007A81B90CDF870D081
:100DE0000EA801F068F90121062001F0EFF9322088
:100DF00002F018FF1FB000BD70B5044600250026A4
:100E0000324800883749098800FB01F6002108466E
:100E1000FFF779FCFFF75EFC00BF03E02848801C69
:100E200004806D1CB542F9D370BD08B50020009058
:100E3000FFF7D9FE01210020FFF73CFC322002F031
:100E4000F1FE0020FFF73BFC1B49088008460088A4
:100E5000FF280ADB084600884FF6FF71884204D05D
:100E600015480088B0F5134F1DD1D32014490880D0
:100E7000881C0088104908801148801C0088088060
:100E80000F48801C00880880084600884FF6FF71D4
:100E900001EA0020084908800948801C0088098868
:100EA0000843054908800448008849F241318842D6
:100EB00037D10D48006819E01E00002028000020EE
:100EC000FE1F006C2A0000202000002022000020CD
:100ED0002600002000140240000C024000100240D6
:100EE00000180240240000201C0100A020F00F0088
:100EF0004FF02041C1F81C010846D0F81C0120F435
:100F00007060C1F81C010846D0F81C0140F00300D5
:100F1000C1F81C010846D0F81C0140F40070C1F86B
:100F20001C01FE48008849F2283188427ED141F2F6
:100F30008F01EC20FFF7BEFB41F23421EF20FFF7D9
:100F4000B9FB4FF480710120FFF7B4FB4FF4E0616F
:100F50000220FFF7AFFB41F230010320FFF7AAFBAD
:100F600000210420FFF7A6FB40F202210820FFF732
:100F7000A1FB00210920FFF79DFB00210A20FFF7BC
:100F800099FB01210C20FFF795FB00210D20FFF7B5
:100F900091FB00210F20FFF78DFB00211020FFF7B0
:100FA00089FB07211120FFF785FB00211220FFF7A5
:100FB00081FB00211320FFF77DFB01210720FFF7B4
:100FC00079FB322002F02EFE41F290411020FFF713
:100FD00071FB40F227211120FFF76CFB322002F059
:100FE00021FE8A211220FFF765FB322002F01AFE53
:100FF0004FF4D0511320FFF75DFB06212920FFF7A6
:1010000059FB0D212B20FFF755FB322002F00AFE81
:1010100000212020FFF74EFB00212120FFF74AFB93
:10102000322002F0FFFD0021302000E074E0FFF7E5
:1010300041FB40F204613120FFF73CFB40F20531F7
:101040003220FFF737FB00213520FFF733FB40F656
:1010500009413620FFF72EFB4FF401713720FFF7CF
:1010600029FB40F201313820FFF724FB40F20771E1
:101070003920FFF71FFB00213C20FFF71BFB40F648
:101080000A213D20FFF716FB322002F0CBFD0021A4
:101090005020FFF70FFBEF215120FFF70BFB002142
:1010A0005220FFF707FB40F23F115320FFF702FBEE
:1010B0004FF427416020FFF7FDFA01216120FFF77F
:1010C000F9FA00216A20FFF7F5FA00218020FFF7E6
:1010D000F1FA00218120FFF7EDFA00218220FFF7CD
:1010E000E9FA00218320FFF7E5FA00218420FFF7C9
:1010F000E1FA00218520FFF7DDFA10219020FFF7AB
:10110000D9FA4FF4C0619220FFF7D4FA40F23311BC
:101110000720FFF7CFFAC2E18048008849F2253165
:1011200088427DD147F6F001E520FFF7C3FA4FF47E
:1011300080710120FFF7BEFA4FF4E0610220FFF753
:10114000B9FA41F230010320FFF7B4FA002104207C
:10115000FFF7B0FA40F202210820FFF7ABFA0021B6
:101160000920FFF7A7FA00210A20FFF7A3FA0021C0
:101170000C20FFF79FFA00210D20FFF79BFA0021BA
:101180000F20FFF797FA00211020FFF793FA0721AD
:101190001120FFF78FFA00211220FFF78BFA0021B0
:1011A0001320FFF787FA00210720FFF783FA41F2A7
:1011B00090611020FFF77EFA40F227211120FFF7FF
:1011C00079FA9D211220FFF775FA4FF4C8511320C8
:1011D000FFF770FA25212920FFF76CFA0D212B204B
:1011E000FFF768FA07213020FFF764FA40F2033175
:1011F0003120FFF75FFA03213220FFF75BFA40F25C
:1012000006213520FFF756FA08213620FFF752FA5B
:1012100040F206413720FFF74DFA4FF4417100E0EC
:1012200058E03820FFF746FA07213920FFF742FA45
:1012300040F202613C20FFF73DFA08213D20FFF714
:1012400039FA00215020FFF735FAEF215120FFF73E
:1012500031FA00215220FFF72DFA40F23F115320BE
:10126000FFF728FA4FF427416020FFF723FA012106
:101270006120FFF71FFA00216A20FFF71BFA002107
:101280008020FFF717FA00218120FFF713FA0021D1
:101290008220FFF70FFA00218320FFF70BFA0021CD
:1012A0008420FFF707FA00218520FFF703FA1021B9
:1012B0009020FFF7FFF94FF4C0619220FFF7FAF991
:1012C00040F233110720FFF7F5F922210020FFF744
:1012D000F1F9E4E01148008849F241318842F8D13F
:1012E000CF200F4908800020891C0880C120088079
:1012F00030200880ED20891E08806420891C088029
:10130000032008801220088081200880E820891EA0
:1013100008808520891C0880102003E01E00002022
:10132000FE1F006C08807A200880CB20891E088070
:101330003920891C08802C20088000200880342057
:10134000088002200880F720891E08802020891C40
:101350000880EA20891E08800020891C08800880F7
:10136000C020891E08801B20891C0880C120891E7E
:1013700008800120891C0880C520891E0880302033
:10138000891C08800880C720891E0880B720891C16
:1013900008803620891E08804820891C08803A2051
:1013A000891E08805520891C0880B120891E08806C
:1013B0000020891C08801A200880B620891E088019
:1013C0000A20891C0880A2200880F220891E08803B
:1013D0000020891C08802620891E08800120891C85
:1013E0000880E020891E08800F20891C08802A20A0
:1013F000088028200880082008800E200880082007
:10140000088054200880A9200880432008800A20F2
:1014100008800F200880002008800880088008804D
:10142000E120891E08800020891C08801520088082
:1014300017200880072008801120088006200880D7
:101440002B200880562008803C200880052008803A
:10145000102008800F2008803F20088008800F207F
:1014600008802B20891E08800020891C08800880A5
:10147000012008803F2008802A20891E0880002043
:10148000891C088008800880EF2008801120891EB0
:101490000880782002F0C6FB2920B9490880002086
:1014A000FFF799FA0120B74908604FF6FF70FFF780
:1014B000A3FC08BD2DE9F04F05460E461746984699
:1014C000DDF824A04FF0000B781B401C1FFA80FBB6
:1014D000344614E021462846FFF715F9FFF7FAF8DD
:1014E0004FF0000907E0A648801CA0F800A009F111
:1014F00001001FFA80F9D945F5DB601C84B2444530
:10150000E8DDBDE8F08F2DE9F84F81460E4617461D
:101510001C4600960C2C01D198460AE0102C01D1F3
:10152000A04606E0182C02D14FF0240801E0BDE8E7
:10153000F88FA7F12000C7B2002553E00C2C07D18B
:1015400007EB4700904901EB800010F805A012E07E
:10155000102C05D18D4800EB071010F805A00AE00B
:10156000182C07D107EBC700894901EB800010F860
:1015700005A000E0DBE74FF0000B2DE00AF0800053
:1015800030B18448028831464846FFF793FA05E0B7
:101590008148028831464846FFF78CFA4FEA4A6094
:1015A0004FEA106A701C86B27C480088864200DBD5
:1015B000BDE70098301AA0420AD1009E09F101004F
:1015C0001FFA80F976480088814500DBAFE706E026
:1015D0000BF1010000F0FF0BBBF1080FCEDB00BFE9
:1015E000681CC5B24545A9DB00BFA0E710B502469F
:1015F000012000E050430B00A1F10104E1B2F9D158
:1016000010BD2DE9FF4F81B0064691461F46DDE92A
:101610000E4A00200090002544E0781B401EC1B215
:101620000A20FFF7E3FFB9FBF0F00A21B0FBF1F26B
:1016300001FB1208009820BB781EA84221DDB8F1FA
:10164000000F1CD1BAF1000F0CD0A34604EBDB71E4
:10165000491001FB056188B2234630220299FFF749
:1016600052FF0BE0A34604EBDB71491001FB05615F
:1016700088B2234620220299FFF745FF10E001209F
:101680000090A34604EBDB71491001FB056188B2B1
:1016900008F13001CAB223460299FFF734FF00BFB8
:1016A000681CC5B2BD42B8DB05B0BDE8F08F2DE9BE
:1016B000FF4F82B004460D461646DDE91189109FA2
:1016C0003448B0F800A03448B0F800B03148A0F871
:1016D00000803148A0F800900F98CDE9000732460D
:1016E00029462046059BFFF78CFF2A48A0F800A05A
:1016F0002948A0F800B006B0BDE8F08FF0B5064666
:101700000F4615461C4611E022782B4639463046D6
:10171000FFF7F9FE284605EBD07106EB61018EB2AA
:101720001F480088864200DB06E0641C20787E2883
:1017300002DC20782028E7DA00BFF0BD2DE9F04F69
:1017400004460D4616461F46DDE909891148B0F8E2
:1017500000A01148B0F800B00E48A0F800800E4874
:10176000A0F800903B46324629462046FFF7C6FFC8
:101770000848A0F800A00848A0F800B0BDE8F08F25
:10178000FE1F006CA8824242967301080A78010885
:10179000FA7D01081A0000201C000020240000200F
:1017A000220000207FB504460D460121022001F0F1
:1017B0006EF9ADF804500020ADF806000294ADF8C3
:1017C0000C0001A9334801F01AFB012211463148EF
:1017D00001F0B6FF01212F4801F09AFB1D208DF882
:1017E000000001208DF8010003208DF80200012087
:1017F0008DF80300684600F08EFA7FBD10B5012118
:10180000244801F0B4FF012804D123480068401C9B
:101810002149086001211F4801F0BAFF10BD7FB5C2
:1018200004460D460121042001F031F9ADF80450C1
:101830000020ADF806000294ADF80C0001A917488D
:1018400001F0DDFA01221146144801F079FF01216F
:10185000124801F05DFB1E208DF8000002208DF87B
:10186000010003208DF8020001208DF80300684676
:1018700000F051FA7FBD10B50121084801F077FF53
:10188000012805D10121054801F082FF04F0B8FAD2
:1018900010BD0000000400403C0100200008004092
:1018A00070B50446002500BF17E004F0800018B1B1
:1018B0000120FB49086002E00020F9490860600649
:1018C000040E0020F7490860012002F063F90120AE
:1018D000F549C1F89402681CC5B2082DE5DB70BD5E
:1018E00070B50646002500240020EE490860EF4947
:1018F000C1F88402EA49091F08603046FFF7D0FFAB
:10190000062002F047F90020E749C1F894020120BF
:1019100002F040F90120E349086002F03BF90020A1
:10192000E149C1F8940200BF15E04FF6FF7000EAEC
:1019300044040020DB490860012002F02BF901205B
:10194000D949C1F89402D6487C38006808B1601CB7
:1019500084B2681CC5B2102DE7DB24110120D049E8
:10196000091F0860204670BD2DE9FE438046002710
:10197000002406E04046FFF7B3FF2DF81400601C7A
:1019800084B2052CF6DB002416E0601C85B20FE063
:101990003DF814003DF81510884207DD3DF814604D
:1019A0003DF815002DF814002DF81560681C85B25F
:1019B000052DEDDB601C84B2042CE6DB002701243E
:1019C00005E03DF81400384487B2601C84B2042C52
:1019D000F7DB032097FBF0F086B23046BDE8FE83CC
:1019E0002DE9F04104460D46B1480078FFF7BCFFF1
:1019F0000646B0480078FFF7B7FF0746322E01DBF6
:101A0000322F02DA0020BDE8F08126802F800120ED
:101A1000F9E77FB504460D4602A903A8FFF7E0FFEA
:101A2000064616B9002004B070BD694601A8FFF74C
:101A3000D7FF06460EB90020F5E7BDF80400BDF853
:101A40000C10884206DCBDF80C10BDF804003230E2
:101A500081420CDBBDF80C00BDF80410884236DC76
:101A6000BDF80410BDF80C00323081422FDABDF809
:101A70000000BDF80810884206DCBDF80810BDF86B
:101A80000000323081420CDBBDF80800BDF80010C8
:101A900088421CDCBDF80010BDF8080032308142DD
:101AA00015DABDF80C10BDF80420881800EBD071D1
:101AB000C1F34F012180BDF80810BDF8002088183F
:101AC00000EBD071C1F34F0129800120ABE700206A
:101AD000A9E770B504460D461646774806802946A4
:101AE0002046FEF7C6FF611C88B22946FEF7C1FFFB
:101AF000681C81B22046FEF7BCFF6A1C91B2621CD2
:101B000090B2FEF7B6FF70BD10B504464FF6FF70F9
:101B10006A4908806A4908806A480068002848D1F4
:101B200024B169496948FFF774FF34E066496748A2
:101B3000FFF76FFF78B36648B0F9000000EE100AB7
:101B4000B8EEC00A634890ED001A6048008800EEC5
:101B5000900AF8EE600A01EE200ABCEEC00A10EE10
:101B6000100A5A4908805C48B0F9000000EE100ADB
:101B7000B8EEC00A594890ED001A5348008800EEAC
:101B8000900AF8EE600A01EE200ABCEEC00A10EEE0
:101B9000100A4D4908804D480088514908804A483C
:101BA00000885049088050480078401C4E49087011
:101BB00014E04D480078022807DD444800883F497A
:101BC0000880414800883E49088000204649087046
:101BD0004FF6FF70424908804249088010BD1CB58D
:101BE0000121272000F00AFF0420009000208DF83A
:101BF00004008DF8060003208DF8050001208DF803
:101C000007006946394800F077F94FF4006000900A
:101C10006946374800F070F90320009001208DF8E4
:101C200004006946314800F067F9202000906946B9
:101C3000304800F061F930480078C0B190201C496C
:101C40000870D0201B4908709FED2C0A214880EDB8
:101C5000000A9FED2B0A214880ED000A4FF4AE7078
:101C60001B4908806FF012001B49088016E0D02045
:101C70000F49087090200F4908709FED220A1548FF
:101C800080ED000A9FED200A144880ED000A6FF0F5
:101C90000A000F490880C01F0F4908801CBD0000C2
:101CA0008482404294024042000040420080404210
:101CB00036000020370000201A00002032000020EB
:101CC000340000202C8242424600002044000020C4
:101CD0004000002038000020420000203C0000208E
:101CE0002E000020300000204800002000040240A8
:101CF0000014024000000240200000206452BCBDDD
:101D00007BF5893DDA9F883D3ABABA3D32490143B5
:101D1000324A1160704770B5002100230F22C47849
:101D20001CB32E4C246804F4E064C4F5E064C4F3EE
:101D30000721C1F10404E3B20A4144789C40E1B2B6
:101D40008478144021430C07210E254C05786155F9
:101D5000047804F01F050124AC4005786D11AD0036
:101D600005F1E025C5F8004109E0047804F01F05FD
:101D70000124AC401B4D0678761145F8264070BD15
:101D8000194A0A400243154B1B1F1A60704739B1AC
:101D9000124A121D12680243104B1B1D1A6006E006
:101DA0000E4A121D126882430C4B1B1D1A607047AD
:101DB000042808D14FF0E021096941F004014FF0F7
:101DC000E022116107E04FF0E021096921F00401F0
:101DD0004FF0E022116170470000FA050CED00E0C1
:101DE00000E400E080E100E080FFFF1F10B5044642
:101DF0009848844208D10121084600F06AFE00217B
:101E0000012000F066FE76E09348844208D101216B
:101E1000022000F05EFE0021022000F05AFE6AE07F
:101E20008E48844208D10121042000F052FE002196
:101E3000042000F04EFE5EE08948844208D1012172
:101E4000082000F046FE0021082000F042FE52E08B
:101E50008448844208D10121102000F03AFE00217C
:101E6000102000F036FE46E07F48844208D1012170
:101E7000202000F02EFE0021202000F02AFE3AE073
:101E80007A48844208D10121402000F022FE00213E
:101E9000402000F01EFE2EE07548844208D101214A
:101EA000802000F016FE0021802000F012FE22E0CB
:101EB0007048844208D10121801500F00AFE0021FB
:101EC000A01500F006FE16E06B48844208D10121FF
:101ED000401500F0FEFD0021601500F0FAFD0AE05B
:101EE0006648844207D10121001500F0F2FD00216F
:101EF000201500F0EEFD10BDF0B50A4600210023CC
:101F0000002400BF3DE0012505FA01F3156805EA4C
:101F100003049C4234D105684F000326BE40B543FC
:101F2000056015794E00B5400668354305601579A2
:101F3000012D02D01579022D16D185684F00032698
:101F4000BE40B543856055794E00B540866835433F
:101F50008560456801268E40B543456045689679A1
:101F60008E40B6B235434560C5684F000326BE407B
:101F7000B543C560D5794E00B540C6683543C560E8
:101F8000491C1029BFD3F0BD4FF6FF71016000213D
:101F9000017141718171C171704708B54FF4803290
:101FA0000092009A0A430092009AC261C161009AAD
:101FB000C261C2690092C269009208BD0246002057
:101FC00013690B400BB1012000E00020704701466F
:101FD000086980B270470246002053690B400BB17C
:101FE000012000E0002070470146486980B2704738
:101FF00001837047418370470AB1018300E0418348
:1020000070474161704742694A4042617047F0B58C
:10201000002300244D07ED0E02FA05F3CE1000F167
:10202000200555F826504E07F70E0F26BE40B54343
:10203000CF1000F1200646F82750CE1000F1200501
:1020400055F8265045EA0304CE1000F1200545F866
:102050002640F0BD0000024000040240000802409B
:10206000000C024000100240001402400018024020
:10207000001C0240002002400024024000280240D0
:1020800030B943F2DB028100A1F1C0410A6005E0F2
:1020900043F2D2028100A1F1C0410A606FF07042A8
:1020A000411C8900A1F1C0410A608100A1F1C04139
:1020B000C1F804217047D0E901121143C2681143ED
:1020C000026911434269114382691143C269114394
:1020D000026A1143426A1143826A1143C26A114380
:1020E000026B114302689200A2F1C0421160816844
:1020F00008290BD101688900A1F1C041096841F0AC
:10210000400201688900A1F1C0410A60416B096881
:10211000426B526841EA0211426B926841EA022125
:10212000426B928941EA0241426B128A41EA0251B2
:10213000426B127D41EA0261426B9269114302686F
:10214000521C9200A2F1C0421160C16AB1F5804FE9
:102150001BD1816B0968826B526841EA0211826B64
:10216000926841EA0221826B128A41EA0251826B33
:10217000127D41EA0261826B92691143026892000A
:10218000A2F1C042C2F8041107E06FF0704201688A
:102190008900A1F1C041C1F804217047002101600C
:1021A0000221416000218160C16001614161816162
:1021B000C16101624FF48051416249008162002196
:1021C000C1620163F84941638163704751B1820084
:1021D000A2F1C042126842F001038200A2F1C042A3
:1021E000136009E08200A2F1C0421268EF4B1A406E
:1021F0008300A3F1C0431A60704710280AD1182148
:102200004FF020421166402151664FF0FC3191663B
:10221000D16610E01821E64A116040214FF02042BB
:10222000C2F884104FF0FC31E14A083211604FF0DF
:102230002042C2F88C10704730B5002100220023E4
:10224000446844F0080485682C43C5682C4305693C
:102250002C43456944EA4524856944EA4531C4690B
:102260002468C5696D6844EA0524C5692D8944EA76
:102270000544C5692D7B44EA0562046A2468056A41
:102280006D6844EA0524056A2D8944EA0544056A17
:102290002D7B44EA05630468102C05D14FF02044DF
:1022A0002166A266E36608E0C14C21604FF020443D
:1022B000C4F88820BE4C0C34236030BD102101606E
:1022C000002141608160C160016141618161FC2147
:1022D000C2691160C2695160C2699160C269D1600E
:1022E000026A1160026A5160026A9160026AD160FA
:1022F000704799B1102808D14FF02042126E42F079
:1023000004024FF020431A661DE0A94A126842F009
:1023100004024FF02043C3F8802014E0102809D1B4
:102320004FF02042126EA14BDB1E1A404FF02043AB
:102330001A6608E09E4A12689C4BDB1E1A404FF05A
:102340002043C3F88020704799B1102808D14FF07E
:102350002042126E42F040024FF020431A661DE008
:10236000934A126842F040024FF02043C3F88020A5
:1023700014E0102809D14FF02042126E8B4B3F3BE6
:102380001A404FF020431A6608E0894A1268874BCA
:102390003F3B1A404FF02043C3F88020704701466E
:1023A0000020102903D14FF02042506F02E0804AF4
:1023B00014321068704718207D49203108600020D1
:1023C0000906C1F8A4004FF0FC30794928310860B3
:1023D000091D0860091D08607047016841F010017F
:1023E000426841EA4221826841EA4231704A203221
:1023F0001160C1680968C268526841EA0221C26876
:10240000128941EA0241C268127B41EA0261684ACC
:1024100028321160016909680269526841EA0221A3
:102420000269128941EA02410269127B41EA0261B2
:102430005F4A2C321160416909684269526841EA79
:1024400002214269128941EA02414269127B41EA52
:1024500002614FF02042C2F8B010704700210160C5
:1024600041608160FC21C2681160C2685160C2682D
:102470009160C268D16002691160026951600269AD
:1024800091600269D160426911604269516042699C
:1024900091604269D160704748B14549203109686F
:1024A00041F004014FF02042C2F8A01009E0404979
:1024B000203109683D4AD21E11404FF02042C2F837
:1024C000A010704710B5F2B1102807D14FF020438B
:1024D0005B6E0B434FF02044636632E0B0F5807FC3
:1024E00008D1334B1B1D1B680B434FF02044C4F82D
:1024F000843026E02E4B24331B680B434FF02044DE
:10250000C4F8A4301DE0102807D14FF020435B6EC3
:102510008B434FF02044636613E0B0F5807F08D111
:10252000234B1B1D1B688B434FF02044C4F88430A1
:1025300007E01F4B24331B688B434FF02044C4F843
:10254000A43010BD10B5024600200023102A03D18C
:102550004FF02044636E09E0B2F5807F03D1144C44
:10256000241D236802E0124C2434236803EA01048A
:102570000CB1012000E0002010BD102807D14FF061
:102580002042526E8A434FF020435A6619E0B0F55C
:10259000807F0FD1064A121D12688A434FF02043F4
:1025A000C3F884200DE00000588B0108FEFF0F00E7
:1025B000800000A0234A12688A434FF02043C3F8EA
:1025C000A420704770B50246002000230024002597
:1025D000102A03D14FF02046736E08E0B2F5807FD9
:1025E00003D1184E203E336801E0164E336803EAEB
:1025F000010403EAD10514B10DB1012000E000206F
:1026000070BD102808D14FF02042526E22EAD1024C
:102610004FF020435A6614E0B0F5807F09D1094A93
:10262000203A126822EAD1024FF02043C3F88420F6
:1026300007E0044A126822EAD1024FF02043C3F8AF
:10264000A4207047A40000A0F948006840F00100F1
:10265000F74908600020F64908310860F44800682E
:10266000F4490840F2490860F348091D0860F3483E
:10267000EF4984310860F0481038091D0860EC48C3
:10268000006820F48020EA4908600020E8490C3105
:102690000860E7498C31086070470021E44A921CC9
:1026A000117011460870704710B5014600220023D2
:1026B00000204A11012A02D1DD4C236808E0022AD9
:1026C00003D1DB4C7034236802E0D94C74342368A6
:1026D00001F01F02012494401C400CB1012000E0D5
:1026E000002010BD38B5002000900024002500BF58
:1026F0003120FFF7D9FF05460098401C0090009854
:10270000B0F5A04F01D0002DF2D03120FFF7CCFF63
:1027100008B1012400E00024204638BD0146002015
:10272000C34A106820F0F80040EAC100106070470A
:10273000C349086070470021BD4A703211701170A2
:10274000012802D004280AD104E00121B84A7032DD
:10275000117005E00521B64A7032117000E000BF2B
:1027600000BF7047B7490860704770B5049C41EAE4
:1027700082150126C6EB530645EA0645054345EAA0
:102780000465AB4E361D356070BDAD4908667047B7
:10279000820142EA0172A64B84331A607047A8494D
:1027A0008866704710B5830143EA016343EA027308
:1027B0009F4C8834236010BDA14908677047A04929
:1027C000C864704702460020994B0833186820F00F
:1027D000EC6042EA01031843954B083318607047D8
:1027E00002460020924B0833186820F0784042EAF5
:1027F000010318438E4B08331860704701460020D0
:102800008B4A0832106820F00300084310607047BC
:1028100087480830006800F00C007047014600202F
:10282000834A0832106820F0F000084310607047B7
:10283000014600207E4A0832106820F4E050084328
:102840001060704701460020794A0832106820F471
:10285000604040EAC10010607047F0B500210022DE
:102860000024022500260223714F08373F6807F035
:102870000C0121B1042905D0082937D105E0724F98
:10288000076036E0714F076033E0694F3F1D3F68D6
:10289000C7F38056664F3F1D3F6807F03F036EB198
:1028A0006A4FB7FBF3F7DFF888C10CF1040CDCF8D2
:1028B00000C0CCF3881C07FB0CF40CE0624FB7FBA4
:1028C000F3F7DFF86CC10CF1040CDCF800C0CCF3BA
:1028D000881C07FB0CF4564F3F1D3F68C7F30147A8
:1028E0007F1C7D00B4FBF5F7076002E0564F0760E0
:1028F00000BF00BF4E4F08373F6807F0F0010909DD
:10290000534F7A5C0768D7404760494F08373F68A4
:1029100007F4E051890A4E4F7A5C4768D7408760D8
:10292000434F08373F6807F46041490B484F7A5CD2
:102930004768D740C760F0BD002100F44072B2F58F
:10294000407F0AD13A4A0832116821F4F811414A0D
:1029500002401143364A08321160354A703212681B
:10296000C0F30B031A43324B70331A60704735497A
:102970004439086070473349403908607047364928
:102980000860704701460020294A8C32106820F008
:102990001F004A1E1043264A8C32106070470146C1
:1029A0000020234A8C32106820F4F8504A1E40EA76
:1029B00002201F4A8C3210607047014600201C4ADA
:1029C0008C32106820F440100843106070470146B4
:1029D0000020174A8C32106820F440000843106031
:1029E000704701460020124A8C32106820F44030B3
:1029F00008431060704719490860704739B10C4AA4
:102A00003032126802430A4B30331A6006E0084A3B
:102A1000303212688243064B30331A607047F9B186
:102A2000034A343212680243014B34331A601CE00B
:102A300000380240FFFFF6EA10300024003000208A
:102A400000004742800E47420024F40000127A0042
:102A500049000020FFFCFF0F5C014742E0114742A4
:102A60008F4A126882438E4B1A60704739B18C4A84
:102A7000121D126802438A4B1B1D1A6006E0884A29
:102A8000121D12688243864B1B1D1A60704739B1B4
:102A9000834A0C3212680243814B0C331A6006E001
:102AA0007F4A0C32126882437D4B0C331A607047A8
:102AB00039B17B4A103212680243794B10331A60E5
:102AC00006E0774A103212688243754B10331A6061
:102AD000704739B1724A243A12680243704B243B62
:102AE0001A6006E06E4A243A126882436C4B243B1B
:102AF0001A60704739B16A4A203A12680243684B3B
:102B0000203B1A6006E0664A203A12688243644B12
:102B1000203B1A60704739B1614A1C3A126802437F
:102B20005F4B1C3B1A6006E05D4A1C3A1268824308
:102B30005B4B1C3B1A60704739B1594A143A126812
:102B40000243574B143B1A6006E0554A143A126888
:102B50008243534B143B1A60704739B1504A103AC4
:102B6000126802434E4B103B1A6006E04C4A103A82
:102B7000126882434A4B103B1A60704739B1484A89
:102B80001C3212680243464B1C331A6006E0444A6A
:102B90001C3212688243424B1C331A60704739B1B1
:102BA0003F4A2032126802433D4B20331A6006E050
:102BB0003B4A203212688243394B20331A607047F7
:102BC00039B1374A243212680243354B24331A6034
:102BD00006E0334A243212688243314B24331A60B0
:102BE000704739B12E4A2C32126802432C4B2C33D9
:102BF0001A6006E02A4A2C3212688243284B2C3392
:102C00001A60704739B1264A303212680243244BA9
:102C100030331A6006E0224A303212688243204B79
:102C200030331A607047012808D11D493C310968CA
:102C300041F008011A4A3C32116007E018493C3162
:102C4000096821F00801164A3C321160704739B119
:102C5000134A273A12780243114B273B1A7006E0B9
:102C60000F4A273A127882430D4B273B1A70704760
:102C70000B484030006840F08070094940310860DE
:102C8000704701460020064A283A12680A400AB1F5
:102C9000012000E000207047014926390870704784
:102CA0003438024010B50446FE48844208D1012160
:102CB0000846FFF752FF00210120FFF74EFF9DE07D
:102CC000B4F1804F08D101210846FFF735FF0021FC
:102CD0000120FFF731FF91E0F348844208D1012140
:102CE0000220FFF729FF00210220FFF725FF85E0E2
:102CF000EE48844208D101210420FFF71DFF002186
:102D00000420FFF719FF79E0E948844208D1012146
:102D10000820FFF711FF00210820FFF70DFF6DE0ED
:102D2000E448844208D101211020FFF705FF00216B
:102D30001020FFF701FF61E0DF48844208D1012144
:102D40002020FFF7F9FE00212020FFF7F5FE55E0D7
:102D5000DA48844208D101210220FFF7FEFE00215B
:102D60000220FFF7FAFE49E0D548844209D101214B
:102D70000804FFF7F2FE00214FF48030FFF7EDFE6C
:102D80003CE0D048844209D101214804FFF7E5FE28
:102D900000214FF40030FFF7E0FE2FE0CA488442E4
:102DA00009D101218804FFF7D8FE00214FF48020CB
:102DB000FFF7D3FE22E0C548844208D1012140201C
:102DC000FFF7BAFE00214020FFF7B6FE16E0C0482C
:102DD000844208D101218020FFF7AEFE002180202F
:102DE000FFF7AAFE0AE0BB48844207D10121801503
:102DF000FFF7A2FE0021A015FFF79EFE10BD0022E6
:102E00000288A84B98420ED0AC4B98420BD0B0F140
:102E1000804F08D0A44B984205D0A44B984202D0D2
:102E2000A34B984204D14FF68F731A404B881A4334
:102E3000A04B984207D0A04B984204D04FF6FF43D6
:102E40001A400B891A4302804B68C3620B880385C2
:102E5000944B984202D0994B984201D18B7A0386C9
:102E60000123838270474FF0FF31416000210180D0
:102E700001814180817270470185828270470A46D4
:102E8000002101884FF68F7319401143018070476C
:102E900041627047C16270470146486A7047014607
:102EA000088D704721B1028842F00202028004E0DE
:102EB00002884FF6FD731A400280704721B10288E4
:102EC00042F00402028004E002884FF6FB731A40CD
:102ED0000280704721B1028842F08002028004E043
:102EE00002884FF67F731A400280704702884FF6BF
:102EF000F7731A40028002880A43028070470288F2
:102F00004FF6FF431A40028002880A43028070474E
:102F100021B1028842F00102028004E002884FF6EB
:102F2000FE731A400280704770B50024002200230F
:102F3000058C4FF6FE7635400584028C8388048B21
:102F40004FF68F752C40B51E2C400D882C43751EF6
:102F50002A408D892A434D882A43524DA84202D0E7
:102F6000564DA84213D14FF6F7752A40CD892A4312
:102F70004FF6FB752A408D882A434FF6FF652B409C
:102F80004FF6FF552B400D8A2B434D8A2B438380F0
:102F900004838D684563028470BD70B500240022EF
:102FA0000023058C4FF6EF7635400584028C83882C
:102FB000048B48F6FF752C404FF6FF452C400D88DA
:102FC0004FF6FF7606EA05252C434FF6DF752A40BB
:102FD0008D8906EA05152A434D8806EA05152A4318
:102FE000304DA84202D0354DA8421DD14FF67F7515
:102FF0002A40CD894FF6FF7606EA05152A434FF69B
:10300000BF752A408D8806EA05152A434FF6FF351D
:103010002B404FF2FF752B400D8A06EA85052B43A6
:103020004D8A06EA85052B43838004838D6885637A
:10303000028470BD70B5002400220023058C4FF679
:10304000FF6635400584028C8388848B4FF68F752C
:103050002C404FF6FC752C400D882C434FF6FF5545
:103060002A408D894FF6FF7606EA05252A434D88CA
:1030700006EA05252A430B4DA84202D00F4DA8426F
:1030800038D14FF2FF752A40CD894FF6FF7606EA18
:1030900005252A434FF6FF352A408D8806EA052587
:1030A0002A4319E0000001400004004000080040ED
:1030B000000C0040001000400014004000040140DB
:1030C0000040014000440140004801400018004019
:1030D000001C0040002000404EF6FF752B404DF6CE
:1030E000FF752B400D8A06EA05152B434D8A06EA2B
:1030F00005152B43838084838D68C563028470BD6E
:1031000070B5002200230024058C4EF6FF76354072
:103110000584038C8488828B48F6FF752A404FF61D
:10312000FF452A400D884FF6FF7606EA05252A431B
:103130004DF6FF752B408D8906EA05352B434D88EA
:1031400006EA05352B43FE4DA84202D0FD4DA842AC
:1031500008D14BF6FF752C400D8A4FF6FF7606EA34
:1031600085152C43848082838D680564038470BD3B
:10317000002101804180818081608181C181018243
:103180004182704770B5034600200024184618306D
:1031900001258D40ACB21D8CA5431D8409B10829C1
:1031A0000AD100EB610005684FF68F763540056067
:1031B0000568154305600FE00D1FC5F34E05284453
:1031C000056848F6FF763540056005684FF6FF76DE
:1031D00006EA02263543056070BD4163704781638E
:1031E0007047C1637047016470470A460021018B34
:1031F0004FF68F7319401143018370470A4600212F
:10320000018B48F6FF7319404FF6FF7303EA022360
:103210001943018370470A460021818B4FF68F7353
:1032200019401143818370470A460021818B48F67B
:10323000FF7319404FF6FF7303EA0223194381839A
:1032400070470A460021018B4FF6F773194011436E
:10325000018370470A460021018B4FF2FF7319402A
:103260004FF6FF7303EA02231943018370470A46AE
:103270000021818B4FF6F77319401143818370470A
:103280000A460021818B4FF2FF7319404FF6FF73FE
:1032900003EA02231943818370470A460021018B08
:1032A0004FF6FB7319401143018370470A46002112
:1032B000018B4FF6FF3319404FF6FF7303EA0223E9
:1032C0001943018370470A460021818B4FF6FB7337
:1032D00019401143818370470A460021818B4FF6C4
:1032E000FF3319404FF6FF7303EA0223194381832A
:1032F00070470A460021018B4FF67F731940114336
:10330000018370470A460021018BC1F30E014FF67D
:10331000FF7303EA02231943018370470A46002121
:10332000818B4FF67F7319401143818370470A46A2
:103330000021818BC1F30E014FF6FF7303EA0223D4
:103340001943818370470A460021018C4FF6FD73B3
:1033500019401143018470470A460021018C4FF641
:10336000F77319401143018470470A460021018C0C
:103370004FF6DF7319404FF6FF7303EA0213194348
:10338000018470470A460021018C4FF67F73194073
:103390004FF6FF7303EA02131943018470470A468C
:1033A0000021018C4FF6FF5319404FF6FF7303EADB
:1033B00002231943018470470A460021018C4FF211
:1033C000FF7319404FF6FF7303EA02231943018488
:1033D00070470A460021018C4DF6FF7319404FF6E5
:1033E000FF7303EA023319430184704730B50023A9
:1033F00001248C40A3B2048C9C430484048C02FA04
:1034000001F5ADB22C43048430BD30B50023042453
:103410008C40A3B2048C9C430484048C02FA01F512
:10342000ADB22C43048430BD828B4FF2FF331A407F
:103430008283828B4FF6FF7303EA01231A43828350
:103440007047F0B50C461546002100220026078C77
:103450004EF6FF7C07EA0C070784818B028C4FF63F
:10346000FF7707EA043640F6FF4739404FF6FF770B
:1034700007EA052739434FF6FF7707EA0337394351
:1034800045F6FF773A4046F480573A4381830284F9
:10349000F0BD828B4FF6F3731A408283828B0A430E
:1034A00082837047F0B50C461546002100220026A5
:1034B000078C4FF6FF6C07EA0C070784818B028CA0
:1034C0004FF6FF7707EA04264FF60C7739404FF6A0
:1034D000FF7707EA03172F4339434FF2FF573A406C
:1034E00046F480773A4381830284F0BD028B4FF229
:1034F000FF331A400283028B4FF6FF7303EA012366
:103500001A4302837047F0B50C461546002100228D
:103510000026078C4FF6EF7C07EA0C070784018B27
:10352000028C4FF6FF7707EA041640F6FF47394052
:103530004FF6FF7707EA033739434FF6FF7703E08B
:10354000000001400004014007EA052739434FF617
:103550005F773A4046F010073A4301830284F0BD9A
:10356000028B4FF6F3731A400283028B0A430283E5
:103570007047F0B50C46154600210022068C4FF628
:10358000FE773E400684018B028C4FF60C7631406C
:103590007E1C06EA03162E4331434FF6F576324081
:1035A00044F00106324301830284F0BD70B5054644
:1035B0000C46208850B92389A28861882846FFF7E5
:1035C000D8FFE1882846FFF7CBFF25E020880428B4
:1035D0000AD12389A28861882846FFF794FFE188F1
:1035E0002846FFF783FF17E0208808280AD123899F
:1035F000A28861882846FFF755FFE1882846FFF733
:1036000048FF09E02389A28861882846FFF719FF4F
:10361000E1882846FFF708FF70BD00210180418046
:10362000012181800021C180018170472DE9F04195
:1036300005460C4600260127608808B9022600E0EE
:103640000026A088012801D1022700E00127208858
:10365000A0B92389A28861882846FFF78AFFE188FC
:103660002846FFF77DFF23893A4631462846FFF773
:103670004AFFE1882846FFF739FF13E02389A28833
:1036800061882846FFF73FFFE1882846FFF72EFFB5
:1036900023893A4631462846FFF76BFFE1882846E2
:1036A000FFF75EFFBDE8F0810146486B70470146B9
:1036B000886B70470146C86B70470146086C7047BD
:1036C0000A884B881A438B881A43CB881A430B8984
:1036D0001A434B891A438B891A43A0F84420704738
:1036E0000021018041808180C180018141818181EF
:1036F000704731B1B0F8442042F40042A0F84420B1
:1037000005E0B0F84420C2F30E02A0F84420704750
:1037100021B1828842F00402828004E082884FF660
:10372000FB731A408280704721B1828842F0010207
:10373000828004E082884FF6FE731A4082807047D0
:103740001AB183890B43838102E083898B43838190
:1037500070478182704702460020138A0B400BB1EC
:10376000012000E000207047CA430282704730B554
:103770000246002000230024158A05EA01039589EA
:1037800005EA010413B10CB1012000E0002030BDB6
:10379000CA430282704741EA0203A0F848307047EA
:1037A0001AB183890B43838102E083898B43838130
:1037B000704721B1828842F00802828004E082884A
:1037C0004FF6F7731A408280704701894FF6F872FE
:1037D0001140018170470A46002101894FF68F731D
:1037E000194011430181704730B504460D46294602
:1037F0002046FFF7F0FF208940F00700208130BD10
:103800002DE9F04104460D4616461F46602D06D1AF
:103810003B46012231462046FFF775FE05E03B4658
:10382000012231462046FFF7A4FE29462046FFF735
:10383000D2FF208940F007002081BDE8F08130B53B
:103840000C4600210189C9B24FF6FF7505EA032530
:10385000154325432943018130BD2DE9F04105463B
:103860000E4617469846002443463A4631462846B7
:10387000FFF7E5FF2C894FF6F870044044F0070489
:103880004FF68F70044044F070042C81BDE8F08145
:10389000F0B504460D4616461F463B4632462946BD
:1038A0002046FFF7CCFF208940F480402081F0BD06
:1038B00082884FF68F731A40828082880A43828002
:1038C000704702894FF6F8731A40028102890A4351
:1038D0000281704702894FF67F731A400281028984
:1038E0000A4302817047F0B50C4615461E4600217A
:1038F000002200230189028B038C4FF6F8773940B0
:1039000021434FF6FC473A4040F201173A434FF645
:10391000DD773B404FF6FF7707EA06172F433B431F
:10392000018102830384F0BD21B1828842F08002CC
:10393000828004E082884FF67F731A40828070474D
:10394000A0F85010704700000A460021DBE0D30BBE
:10395000002B75D0102971D2DFE801F0080F161D79
:10396000242B323940464C52585E646A038823F453
:10397000004303F50043038060E0038823F48043A1
:1039800003F58043038059E0038823F4005303F5D3
:103990000053038052E0038823F4805303F58053DF
:1039A00003804BE0038823F4006303F50063038086
:1039B00044E0038823F4806303F5806303803DE0E3
:1039C000038823F4007303F50073038036E0038853
:1039D00023F4807303F5807303802FE0038823F0C2
:1039E00080038033038029E0038823F040034033C1
:1039F000038023E0038823F02003203303801DE0AD
:103A0000038823F010031033038017E0038823F0AA
:103A100008030833038011E0038823F004031B1D0F
:103A200003800BE0038823F002039B1C038005E066
:103A3000038823F001035B1C038000BF5DE0FFE708
:103A4000102959D2DFE801F0080D12171C21262B8E
:103A500030353A3F44494E53038823F400430380F2
:103A60004AE0038823F48043038045E0038823F47D
:103A70000053038040E0038823F4805303803BE03D
:103A8000038823F40063038036E0038823F4806313
:103A9000038031E0038823F4007303802CE0038863
:103AA00023F48073038027E0038823F080030380DE
:103AB00022E0038823F0400303801DE0038823F005
:103AC0002003038018E0038823F01003038013E031
:103AD000038823F0080303800EE0038823F0040327
:103AE000038009E0038823F00203038004E00388D5
:103AF00023F00103038000BF00BF4FF6FF7303EA0A
:103B000042024B1CD9B21029FFF621AF7047F0B525
:103B10001C46002600250123C1F11007974202DA56
:103B2000C1F11007FAB20E46002E0CDD05E0EF18C9
:103B3000BDB24FF6FF7707EA43033700A6F1010C49
:103B40000CF0FF06F3D1D0F814C04FF6FF77974082
:103B50008F402F430CEA070CC0F814C0476904FAE1
:103B600001FC47EA0C074761F0BD10B56FF0040097
:103B7000FEF71EF91520394908700846007800EB59
:103B80004001C1EBC0104FF6FF7101EAC00034499B
:103B9000088010BD0146314A12784A434FF0E023B5
:103BA0005A6100229A611A46126942F001021A61B2
:103BB00000BF4FF0E022106900F001021AB100F4DA
:103BC0008032002AF5D04FF0E022126922F0010283
:103BD0004FF0E0231A6100229A6170470146204AA3
:103BE00012884A434FF0E0235A6100229A611A4634
:103BF000126942F001021A6100BF4FF0E022106921
:103C000000F001021AB100F48032002AF5D04FF022
:103C1000E022126922F001024FF0E0231A61002233
:103C20009A61704770B504464FF4077094FBF0F04A
:103C3000C6B24FF4077094FBF0F100FB114085B25F
:103C400005E04FF40770FFF7C9FF701EC6B2002EE3
:103C5000F7D115B12846FFF7C1FF70BD5A0000200B
:103C60005C00002010B5DD480068DD490968401A95
:103C7000421C0021DB48006800F0ACFBDA48DB495D
:103C80000860800CDA4908604042DA49086010BDDB
:103C90002DE9F047D7480068D1490968A0EB010831
:103CA000D54890F85C0010FB00F6D1480068CC497C
:103CB0000968441A41E0CB480068075D002F3BD0FB
:103CC000B74226D1254607E0C64800682844407818
:103CD000B04200D002E06D1C4545F5DB00BFA542B7
:103CE0000DD0BF4909684A19BD4909680819C34977
:103CF00009680B68BD49096898472C4608E0B8492F
:103D000009680819BC49896D4A68B849096890472B
:103D100012E0354606EBD57040100F2101FB07007D
:103D200090FBF6F000F0FF09AD49096808194A4612
:103D3000AE49096804F0BDFC641C4445BBDDFFF7D7
:103D400091FFBDE8F0872DE9F04704468846154607
:103D5000A54201DABDE8F087A74890F85C0098FB1F
:103D6000F0F0A2490968884208D0FFF791FFA24805
:103D700090F85C0098FBF0F09C4908609E4890F831
:103D80005C0094FBF0F69C4890F85C0095FBF0F723
:103D900097480068864201DA9548066095480068B1
:103DA000874201DD934807608D480068864206DA45
:103DB000914890F85C008A49096800FB01F4874843
:103DC0000068874207DD8C4890F85C0083490968E9
:103DD000491C4843451EA54200DABBE7DFF818C27C
:103DE0009CF85CC094FBFCFCDFF8F491D9F80090DF
:103DF000ACEB0901DFF800C29CF85CC095FBFCFC51
:103E0000DFF8DC91D9F80090ACEB0902A2EB010CD1
:103E10000CF10103DFF8CCC1DCF800C00CEB0100B1
:103E2000012B09D190F80090A5EB040C0CF1010CCA
:103E3000CC4480F800C035E0DFF8A4C19CF800C095
:103E40008C440CF1010CDFF8B09199F85C900CFBFC
:103E500009FCACEB040C90F80090CC4400F801CBCA
:103E600008E090F800C0DFF8909199F85C90CC449D
:103E700000F801CBA3F1010C6346BCF1010FF0DCAB
:103E800005F1010CDFF85891D9F800909144DFF862
:103E900068A19AF85CA009FB1ACC90F80090CC4479
:103EA00080F800C000BF55E753488088524991F818
:103EB0005C1010FB01F000B2514908804E48C088E8
:103EC0004D4991F85C1010FB01F000B24C4948805C
:103ED00049480089401C484991F85C104843401EFD
:103EE00000B24749888044484089401C424991F8C3
:103EF0005C104843401E00B24149C880704770B50D
:103F000004460D460026002C00DA0024281BEF286A
:103F100001DD04F1EF05A54201DA25460126364808
:103F2000826D384806CA06C03348806D3349086040
:103F300035483449086008462F498865334829497F
:103F400008602748046025480560FFF78BFEFFF7EF
:103F5000ABFF2B4828490861304670BD70B5044658
:103F60000D46254890F85C0094FBF0F4224890F848
:103F70005C0095FBF0F529462046FFF7C0FF70BDB9
:103F800010B504461C4981F85C40FFF78DFF10BD59
:103F9000194890F85C0070470020174981F85D00CF
:103FA00070470120144981F85D00704701461248AE
:103FB00090F85C0028B1104890F85C0091FBF0F09C
:103FC00000E0084600B2704710B5FFF761FE0B48ED
:103FD000006809498865081D086110BD6800002057
:103FE000640000206000002001C0FFFF6C00002082
:103FF0007000002074000020DCE000208800002019
:104000007800002080000020473D00088003002049
:104010002DE9FE4F05460F4616469B46594890F837
:104020005D0008B1012002E0564890F85C00029063
:10403000B5F90090CA46012408E035F92400484546
:1040400000DA8146504500DD8246641CBC42F4DB48
:104050004C4890F85D0038B90AEB060109EB060000
:10406000FFF74DFF804613E00AEB0601454890F844
:104070005C0091FBF0F009EB06010190414890F8DB
:104080005C0091FBF0F000900199FFF738FF80464B
:10409000B8F1000F47D13B4890F85D00D0B900243B
:1040A00016E035F82400374991F85C1010FB01F058
:1040B00000B225F8240005EB84004088314991F8CE
:1040C0005C1010FB01F000B205EB84014880641C19
:1040D000BC42E6DB02980BFB00F306FB00F239461C
:1040E000284601F009FA274890F85D00D8B9002465
:1040F00017E035F92400234991F85C1090FBF1F0AA
:1041000000B225F8240005EB8400B0F902001D4937
:1041100091F85C1090FBF1F000B205EB840148804F
:10412000641CBC42E5DBFFF74FFFBDE8FE8F2DE9C5
:10413000F04106460F4614461D460CF047FD044468
:104140000CF04EFD054400200CF014FAC0B100BF85
:104150000C48806C406B48B10A48806C2B46224664
:104160003946D0F834C03046E04705E02B462246B9
:1041700039463046FFF74CFF0CF0C5F90028E7D16F
:10418000BDE8F081DCE000207047704710B5D0201A
:10419000FDF7EAFB10BD10B59020FDF7E5FB10BD63
:1041A00010B50146C1F3C402C1F38523C1F3C44471
:1041B00004EB431000EBC22010BD4FF6FF707047B8
:1041C0002DE9F05F83460C4615469946BBF1000F7A
:1041D00052D0584601F015FB824609F00300012831
:1041E0000ED0022812D1B4F90410B4F90020891AB3
:1041F000491CA1EB0A0000EBD07102EB610608E05C
:10420000B4F90400A0EB0A00461C02E0B4F9006017
:1042100000BF00BF02F038FD804609F00C00042802
:1042200010D0082815D00C2812D1B4F90610B4F912
:104230000220891A491CA1EB080000EBD07102EBA7
:10424000610709E0B4F90600A0EB0800471C03E091
:1042500000BFB4F9027000BF00BF30B2288038B28E
:10426000688006EB0A00401E00B2A88007EB080039
:10427000401E00B2E88003E0206828606068686043
:10428000BDE8F09F10B50246002331B1084601EBAE
:10429000D07402EB640494FBF1F3184610BD02469F
:1042A00059B1002A04DAA2EB610090FBF1F07047EB
:1042B00002EB610090FBF1F0F9E70020F7E7000066
:1042C00004488069007D03498969C97D10FB01F0BC
:1042D00070470000DCE0002031B50024009830B1C8
:1042E00000E0641C684601F07DFE0028F9D12046FC
:1042F00038BD01460A6812F8013B0BB9012070472E
:104300000A2B00D10A600020F9E7B0F90020B1F9CA
:1043100000309A4201DA0A880280B0F90220B1F92D
:1043200002309A4201DA4A884280B0F90420B1F999
:1043300004309A4201DD8A888280B0F90620B1F902
:1043400006309A4201DDCA88C280704710B5034624
:10435000B1F90000B2F90040A04202DDB1F900005D
:1043600001E0B2F900001880B1F90200B2F9024090
:10437000A04202DDB1F9020001E0B2F9020058806A
:10438000B1F90400B2F90440A04202DDB2F9040020
:1043900001E0B1F904009880B1F90600B2F90640D5
:1043A000A04202DDB2F9060001E0B1F90600D880B2
:1043B000B3F90400B3F90040A04201DA002010BDB7
:1043C000B3F90600B3F90240A04201DA0020F6E793
:1043D0000120F4E770B503460D4602E003F8015BE7
:1043E000521E1AB103F003000028F7D19108A9B1B9
:1043F00002F0030205EB054606EB0624184604E02E
:1044000010C010C010C010C0091F0429F8DA01E064
:1044100010C0491E0029FBD1034600BF02E003F88B
:10442000015B521E002AFAD170BD70B503460C46DE
:10443000154603F0020010B123F8024B6D1E690807
:10444000A9B104EB04421846042909DB00BF02604D
:1044500042608260C26010300E1F3146042EF6DAD0
:1044600001E004C0491E0029FBD1034600BF05F04E
:10447000010000B11C8070BD0B8813441BB2038087
:104480008B889B1A1BB283804B8813441BB24380DA
:10449000CB889B1A1BB2C38070472DE9F0410446BC
:1044A0000E460027B4F90000314600F035F8C0B1DF
:1044B000304600F041F800F10108404602F06DFB83
:1044C00005466DB1284602F073FB804631464046F2
:1044D00011F040FB204602F0CEFB2580012700BFF3
:1044E00000BF3846BDE8F081024602B911A201B909
:1044F00010A100BF10780B78984201D001207047BE
:10450000491C501C024600780028F3D1087808B1F5
:104510000120F4E70020F2E770B504460D460026BE
:104520001CB1204602F044FB064629463046FFF700
:10453000DBFF70BD0000000001464FF0FF3029B1E5
:1045400000BF401C11F8013B002BFAD1704730B579
:10455000136814680C441460002415682C7004E07F
:1045600000F0010430345C5440080C00A1F1010556
:10457000E9B2F5D130BD70B505460C46284600F0CD
:104580001AF8C6B2234600223146284600F037F812
:1045900070BD000010B502461068002809DA2D230E
:1045A0000C68601C08602370106840421060012095
:1045B00010BD0020FCE701460120002901DD0B466B
:1045C00000E04B421A4600E0401C2C4B53F82030D0
:1045D000934201D80928F7DB002900DA401C704714
:1045E00010B5002802DA2D22404200E02B220C6890
:1045F000631C0B60227000230C68237010BD2DE932
:10460000FF410D4616461C4621466846FFF7C2FF8D
:10461000281AC5B20EB1681EC5B2184850F8250058
:104620000099884204D8154850F82500401E009093
:104630001CE02846691ECDB2B04205D11048017871
:104640002268501C206011700C4850F8258000989A
:1046500090FBF8F0C7B2009807FB1800009007F134
:104660003000C1B22268501C20601170002DE0D1D2
:10467000002021680870BDE8FF810000748B0108EC
:10468000EC00002030B51368082900DD30BD146847
:104690000C441460002415682C7005E000F00F0431
:1046A000054D2C5D5C5400090C00A1F10105E9B237
:1046B000F4D100BFEAE700009C8B01082DE9F0412E
:1046C00005460C4614B90020BDE8F081204602F0F2
:1046D00064FA064686B1304602F06AFA07462DB102
:1046E00022462946384611F084FA04E02246002189
:1046F0003846FFF76FFE00BF3046E5E770B5044669
:10470000204602F04AFA05463DB1284602F050FA2A
:10471000064622460021FFF75DFE284670BD30B5F3
:1047200002460B46D0B2DDB2411B002901DA4842F5
:1047300001B288B200FB00F4C2F30720C3F30725DF
:10474000411B002901DA484201B288B28DB200FB58
:104750000544100CA0EB134001B2002901DA4842D5
:1047600001B288B28DB200FB054030BD70B5044681
:10477000B4F90630B4F90420B4F90210B4F9000019
:1047800002F0BCFF70BD70B50446204603F0A6FEE3
:1047900005B2284603F0AAFE0646304670BD10B5A5
:1047A00004462046FFF7EFFFA04201D1012010BDD3
:1047B0000020FCE770B504462046FFF7E4FF0546FD
:1047C00029462046FFF7ABFF70BD000010B502F090
:1047D00082FA0949B1F924100C1A07498969497DFF
:1047E00021444B1E0449B1F922004FF47A6221465C
:1047F00002F084FF10BD0000DCE000201CB5044680
:104800002F48408C2E49B1F84010084400B22C4982
:1048100048840846808CB1F84410084400B2284906
:104820008884204602F079FA2549498CADF80010B9
:104830000844401E00B2ADF8040000F0DCFF20493F
:10484000898CADF802100844401E00B2ADF8060095
:1048500068460BF08FFE38B100BF204602F025FA03
:104860000BF051FE0028F8D10A2C05D0BDF8040049
:10487000401C00B2124948841148408C1049B1F8DC
:104880004010401A00B20E4948840846808CB1F8A6
:104890004410401A00B20A4988841CBD10B5044671
:1048A0002046FFF7ABFF10BD70B506460C46154617
:1048B0000348448485843046FFF7A0FF70BD0000A4
:1048C000DCE000202DE9FC4704460CB9BDE8FC877C
:1048D00002F0DAF907464B48B0F9228002F0FBF902
:1048E00006464848808C801B00B24649888477E0A1
:1048F00047F6FF71204602F04FFA824651462046A5
:1049000002F06AFA05463F4890F82C0000F00300D8
:10491000012807D0022807D1284605EBD0714FEABD
:10492000610904E0A94602E04FF0000900BF00BFA2
:104930003448408CA0EB090000B232494884ADF8FD
:104940000000BDF800002844401E00B2ADF804008D
:104950000846808CADF80200BDF802003844401EC5
:1049600000B2ADF806006A465146204602F054FAFD
:10497000BDF80200234988845146204601F044FBDB
:10498000044420780A2802D020780D281ED11D4822
:1049900090F82C0000F00300012802D0022805D175
:1049A00000BF0FFA88F01749488404E01548008CCE
:1049B0001449488400BF00BF20780A280CD1114850
:1049C000808C384400B20F49888405E0BDF80000AF
:1049D000284400B20B494884207800B903E0641CE5
:1049E0002078002884D100BF0648808C304400B273
:1049F000044988840846B0F92C0020F0030088851B
:104A000000BF63E7DCE0002070B506460C461546A3
:104A100020B20449488428B288843046FFF752FF08
:104A200070BD0000DCE0002070B504460D4616465F
:104A3000324629462046FFF7E7FFFFF7C7FE70BD65
:104A40002DE9F04104460D4616460949B1F92C10EE
:104A500041F0020001F0FAF80746324629462046A6
:104A6000FFF7D2FF384601F0F1F8BDE8F081000011
:104A7000DCE000202DE9FF4F87B00F461546984631
:104A80004FF00009079802900020019000F0B3FE5B
:104A9000824627B1386805907868069002E005A83C
:104AA00000F082FE05F00C0010B9BDF916903AE056
:104AB00044464FF0010B13E02146079802F06CF9D1
:104AC0000646A41B3146079801F09EFA0799084450
:104AD000079007A8FFF70DFC00B103E00BF1010BF5
:104AE000002CE9D100BF05F00C00042805D00828EF
:104AF00002D00C2815D107E000BFBDF91A000BFB4E
:104B00001A0000F101090CE0BDF91A10BDF91620D8
:104B1000891A491C0BFB1A1000EBD07102EB6109DA
:104B200000BF00BF00BF44460298079057E02146EF
:104B3000079802F031F90646A41B3146079802F0A7
:104B40004BF9834605F0030080B1012812D00228FA
:104B500017D1BDF91810BDF91420891AA1EB0B006B
:104B600000EBD07102EB610101910AE0BDF9140084
:104B7000019006E0BDF91800A0EB0B00401C01906D
:104B800000BF00BF019800B22F494884ADF80C0067
:104B9000BDF80C005844401E00B2ADF810000FFAEA
:104BA00089F08884ADF80E0009EB0A00401E00B2BF
:104BB000ADF8120003AA3146079802F02DF93146EC
:104BC000079801F021FA07990844079002F05CF871
:104BD000814407A8FFF78DFB00B102E000BF002C65
:104BE000A5D100BF0BB0BDE8F08F2DE9FC41064612
:104BF0000C4617469846C6B1002564B120460CF015
:104C0000DDFF05463DB12A4621466846FFF79EFB7B
:104C100068460CF0D3FF43463A4621463046FFF73C
:104C200029FF28460CF0CAFF00BFBDE8FC8170B523
:104C300004460D46164647F6FF733246294620467F
:104C4000FFF7D3FF70BD0000DCE000202DE9F0434A
:104C500087B004460E461746D4F80C80002000F0BA
:104C6000B5FF0546B8F1000F05D098F8041011B152
:104C700045F0020101E025F00201084600F0A6FF20
:104C8000206970B10122D4E902018DE80700039286
:104C90006388228820693946D0F800C03046E04752
:104CA0001EE0E06803F0BFFD8146B9F1000F06D1B8
:104CB000E088012801D0002000E022488146A18838
:104CC000E288A068CDE90409CDE902210120009025
:104CD0000190638822883946304603F0BFFA00BF4E
:104CE000284600F073FF07B0BDE8F0837CB50446AA
:104CF0000D4616461348006C05441248406C0644A5
:104D000028B2ADF8000021880844401E00B2ADF87A
:104D1000040030B2ADF8020061880844401E00B2C1
:104D2000ADF8060068460BF025FC48B100BF3246DE
:104D300029462046FFF78AFF0BF0E5FB0028F6D155
:104D40007CBD0000DCE000202DE9FF4F8FB0044661
:104D50000D4600200E900190C948B0F9060006905B
:104D6000C748B0F90A00059020880B9060880A9027
:104D70001D98002802DA1D98404200E01D98089016
:104D80001D98002804DA12990B98401A401E00E082
:104D90001298089948434FF47A7190FBF1F02D1A5C
:104DA0001C9949421E9A01FB02F04FF47A71FFF7F9
:104DB00076FA119900EB010B0BF1010004901E989B
:104DC000002802DA4FF0FF3000E001200390E06895
:104DD00020B1E068007908B1012001904FF000098E
:104DE000AAE05E4609F101011C9A891A1E9A01FB8C
:104DF00002F04FF47A71FFF752FA119900EB010BB0
:104E0000049886427ED0049600BF069886427EDBD8
:104E1000059886427BDC4FF0FF3A4FF000080020F7
:104E2000079002900C9061E0DDE9070108440790CB
:104E30000798B0F57A7F56DB1D98002801DD0C98A5
:104E400003E0DDE90B01401A401E09904A46204666
:104E5000099900F054FC87B20E98874202D10AF1FA
:104E60000100A8BB77B9019860B1029878B305EB4F
:104E700008014A1E05EB0A00314603F08BF90020B9
:104E8000029024E0029850B10AF1010038B105EB1C
:104E900008014A1E05EB0A00314603F07BF9C246C1
:104EA00001200290206928B120694168384688476E
:104EB0000D9004E0E068806850F827000D9070487D
:104EC000806C01680D988847009003F00DF90E97EB
:104ED00000BF08F101080798A0F57A7007900798BD
:104EE000B0F57A7FF5DA0C98401C0C90DDE90B10D8
:104EF000884299DB029830B105EB08014A1E05EBA8
:104F00000A0001E016E002E0314603F043F903989D
:104F100006441E98002805DA5E4501DD012006E002
:104F2000002004E05E4501DA012000E000200028B6
:104F30007FF46BAF09F101090A988145FFF651AF83
:104F400013B0BDE8F08F2DE9F04F85B080460C46D8
:104F500015469946DDE90EA6109F00F043FC8346F6
:104F60004748006C04444648406C0544002E1BDB57
:104F7000C9F1000101FB06F04FF47A71FFF78FF9D8
:104F8000204400B2ADF80C00B8F80010A1EB090104
:104F9000491E01FB06F04FF47A71FFF780F92044B7
:104FA00000B2ADF810001AE0C9F1000101FB06F0F3
:104FB0004FF47A71FFF773F9204400B2ADF8100096
:104FC000B8F80010A1EB0901491E01FB06F04FF4EF
:104FD0007A71FFF764F9204400B2ADF80C00002F9D
:104FE0001BDBCAF1000101FB07F04FF47A71FFF7F8
:104FF00056F9284400B2ADF80E00B8F80210A1EB43
:105000000A01491E01FB07F04FF47A71FFF747F9D7
:10501000284400B2ADF812001AE0CAF1000101FB09
:1050200007F04FF47A71FFF73AF9284400B2ADF86F
:105030001200B8F80210A1EB0A01491E01FB07F0AB
:105040004FF47A71FFF72BF9284400B2ADF80E0047
:1050500003A80BF08FFA68B100BF4B462A462146E1
:105060004046CDE900A60297FFF76EFE0BF04BFA23
:105070000028F2D1584600F06BFD05B0BDE8F08F76
:10508000DCE0002070B50446B4F900500AE0B4F941
:105090000210284603F04EF8B4F90610284603F033
:1050A00049F8AD1CB4F90400A842F0DAB4F9025092
:1050B0000AE0B4F90000294603F03CF8B4F9040012
:1050C000294603F037F8AD1CB4F90600A842F0DA1F
:1050D00070BD7CB504460D462A4621466846FFF75A
:1050E000CBF9BDF800001749B1F84010084400B2F0
:1050F000ADF80000BDF802001249B1F844100844B0
:1051000000B2ADF80200BDF804000E49B1F840103D
:10511000084400B2ADF80400BDF806000949B1F832
:105120004410084400B2ADF8060068460BF022FABD
:1051300038B100BF6846FFF7A5FF0BF0E4F900287F
:10514000F8D17CBDDCE000202DE9FC5F814688467B
:1051500014469A4641480069B0F9020001903F4860
:105160000069B0F90600009000253C480069D0B104
:105170003A480069B0F90000A04204DD37480069F0
:10518000B0F90000051B04EB0800401E3349096913
:10519000B1F90410884206DD30480069B0F9040016
:1051A000001B00F10108454539DA28466D1C39F924
:1051B000100000EB0A0730E039F9150000EB0A0691
:1051C0000198874202DA0198864224DB00988742E0
:1051D00002DD009886421EDCF01900EBD0714FEA28
:1051E000610BB7420BDC2919481E5A46394603F0B9
:1051F000A5F928193246594603F0A0F90AE0291901
:10520000481E3A46594603F099F928195A4631463C
:1052100003F094F900BF37466D1C4545CCDBBDE873
:10522000FC9F2DE9F04106460F4614461D460B48EB
:10523000006C04440948406C054400200BF09AF9C6
:1052400050B100BF2B46224639463046FFF77CFF5F
:105250000BF059F90028F5D1BDE8F081DCE0002021
:105260007CB504460D4616461248006C05441148AC
:10527000406C04440F48006C064428B2ADF80000AE
:1052800030B2ADF8040020B2ADF80200ADF806006F
:1052900068460BF06FF958B100BF0648806D324682
:1052A00021460368284698470BF02DF90028F4D1D1
:1052B0007CBD0000DCE000207CB504460D461646AF
:1052C0001148006C04441048406C05440E48406C82
:1052D000064420B2ADF80000ADF8040028B2ADF8E5
:1052E000020030B2ADF8060068460BF043F948B151
:1052F00000BF32462946204603F020F90BF003F99F
:105300000028F6D17CBD0000DCE0002010B50024B0
:105310000B48006820B10A480068804700B10124AA
:105320000BF04EFB00B10124204610BD10B5002447
:1053300000E00124FFF7EAFF0028FAD1204610BD63
:10534000F000002070B504460E461546AC4207DA60
:10535000C848806D2A46314603682046984706E0D3
:10536000C448806D2246314603682846984770BD80
:105370002DE9F04304468C461546B5F90200B3F911
:105380000280404511DCB5F90210A14202DD002087
:10539000BDE8F083B3F90220A24201DA0020F7E76A
:1053A000B5F90060B3F900700FE0B3F90210A14243
:1053B00001DD0020ECE7B5F90220A24201DA00206D
:1053C000E6E7B3F90060B5F90070A7EB0608A4EBB7
:1053D000010908FB09F0002804DDA2EB010800EB3D
:1053E000680007E0A2EB01084FF00109C9EB68086B
:1053F000A0EB0800A2EB010890FBF8F84644CCF8BB
:1054000000600120C4E701469B4800680C281DDAB3
:10541000994A10680DE0421E984B33F912208A42D7
:1054200000DA08E0421E954B33F8122023F81020D2
:10543000401E0028EFD100BF0AB2904B23F8102085
:105440008D4A1268521C8C4B1A6000BF70470020B6
:105450008949086070472DE9F047044688464FF0B7
:105460000009002600250FE0844830F915703EB190
:10547000E21904EB09007F49896D0B6841469847A2
:1054800086F00106B9466D1C7B4800688542EBDB5F
:10549000BDE8F0872DE9F04704460D4616461F4645
:1054A000DDE9088986EA0700002809DB444405EBAA
:1054B00009017048806D224603682046984702E043
:1054C0002046FFF7A0FFBDE8F08770B5054600262F
:1054D0000DE009B1481E00E0501E014605EB8100B9
:1054E000B0F902409C4201D0204670BD761C501E8F
:1054F000B042EEDC1846F8E72DE9F04F87B00646DB
:10550000894692461F4640F6FF700690404205903D
:1055100000250CE006EB8500B0F9024006988442B5
:1055200000DA06940598844200DD05946D1C4D4513
:10553000F0DB50480069D8B14E480069B0F9060068
:10554000C11B0598814205DA4A480069B0F9060096
:10555000C01B059047480069B0F90200C11B0698BE
:10556000814205DD43480069B0F90200C01B069086
:10557000069C5BE0FFF76BFF002550E0A9F10100FE
:10558000A84201DD681C00E00020049006EB8500C5
:10559000B0F902B0049806EB8000B0F90280A34590
:1055A00024D1A0450CD1049B36F9233003EB0A0229
:1055B000E11936F9253003EB0A00FFF7C3FE2DE0B1
:1055C00023464A4629463046FFF77FFF039003985B
:1055D000A0420AD0A8EB0403CDE900A703990A1B57
:1055E00036F925002146FFF755FF17E0A04515D0F5
:1055F000A04501DBA34503DDA3450FDBA0450DDC82
:10560000049806EB800306EB850203A92046FFF70A
:10561000AFFE10B10398FFF7F6FE00BF6D1C4D45BD
:10562000ACDBE1195046FFF716FF641C0598844275
:10563000A0DD07B0BDE8F08F2DE9F04106460F462A
:1056400014461D460B48006C04440A48406C05444F
:1056500000200AF08FFF50B100BF2B46224639468A
:105660003046FFF749FF0AF04EFF0028F5D1BDE8AC
:10567000F0810000DCE000208C000020700400209D
:105680002DE9FC4104460D4616461F461448006CA1
:1056900004441348406C05441148006C064410480B
:1056A000406C074420B2ADF8000030B2ADF8040001
:1056B00028B2ADF8020038B2ADF8060068460AF02C
:1056C00059FF50B100BF3B4632462946204602F002
:1056D0008DFD0AF018FF0028F5D1BDE8FC8100001F
:1056E000DCE0002070B50446B4F90630B4F90420BB
:1056F000B4F90210B4F90000FFF7C2FF70BD70B535
:1057000003460C46DD88042D29D004DC012D07D08A
:10571000022D45D113E0082D30D0102D40D133E0BB
:105720009D88554305EBD4019D68685C04F007052E
:10573000C5F1070520FA05F505F0010032E09D8866
:10574000554305EB94019D68685C062505EA440510
:10575000C5F1060520FA05F505F0030022E09D8855
:10576000554305EB54019D68685C04F0010515B1D3
:1057700000F00F0500E00509284613E09D8802FBB4
:1057800005419D68685C0DE09D88554305EB44012B
:105790009D686D5C9E680E44767845EA062001E0BF
:1057A000002000BF00BF70BD10B5044604B910BD95
:1057B00020460BF06BFC00BFF9E710B502F0ECFEE1
:1057C0000446204610BD70B502F0E6FE054602F024
:1057D0008DFE0446204670BD10B502F0E0FE044682
:1057E000204610BD70B502F0DAFE054602F07EFEDE
:1057F0000446204670BD10B5FEF762FD0446204603
:1058000010BD70B504462046FEF796FE05462946B3
:10581000204601F0E1FA70BD3320054908703920B7
:1058200088703020C87061200871084670470000F9
:10583000900000200146087DCA7D10FB02F07047F1
:105840000146487DCA7D10FB02F07047014608B250
:10585000134A908400207047014608B2104A5084D1
:105860000020704770B504462046FFF7EFFF05465D
:10587000284670BD70B504462046FFF7EDFF05468B
:10588000284670BD70B506460C463046FFF7E4FF6B
:1058900005462046FFF7DAFF0543284670BD0000A5
:1058A000DCE000202DE9FC4104460D4616461F466B
:1058B000012000F08BF980461548006C0444144820
:1058C000406C05441248006C06441148406C074483
:1058D00020B2ADF8000030B2ADF8040028B2ADF847
:1058E000020038B2ADF8060068460AF043FE50B137
:1058F00000BF3B4632462946204602F077FC0AF0BC
:1059000002FE0028F5D1404600F060F9BDE8FC81B8
:10591000DCE0002070B504460D460CB903488469EC
:1059200029462046E268904770BD0000DCE0002078
:1059300010B570B371B36AB3B1F90030B2F9004079
:10594000A34202DDB2F9003001E0B1F9003003807A
:10595000B1F90230B2F90240A34202DDB2F90230DD
:1059600001E0B1F902304380B1F90430B2F90440EA
:10597000A34202DDB1F9043001E0B2F904308380C2
:10598000B1F90630B2F90640A34204DDB1F90630A0
:1059900003E00CE003E0B2F90630C38010BD09B1AA
:1059A0000B4600E013461C6804605B68436000BF60
:1059B000F4E778B103880B441BB2038083880B445F
:1059C0001BB28380438813441BB24380C3881344B3
:1059D0001BB2C380704700002049086800211F4A9D
:1059E000116070471D49096809B91C490860704772
:1059F00000B500BFFFF7F0FF0028FBD100BD184A3B
:105A0000106051600122174B1A60704770B5002476
:105A10001448006898B113480068401E1149086096
:105A20000F480568416828460BF0ACFD0C484068FB
:105A3000012802D12846FFF7D5FF012400BF2046E8
:105A400070BD70B504460D46294620460BF09AFD00
:105A500018B929462046FFF7D2FF70BDA4000020E8
:105A60009C000020980000200749087D70470649E7
:105A7000487D70470146044A107D11757047014604
:105A8000014A507D51757047DCE000200E480F49F7
:105A90000860704701460E4B0DCB81E80D00087A77
:105AA00008B1012070470020FCE710B50446FFF75D
:105AB000EDFF0C222146064810F020F818B10448EA
:105AC00094E80E000EC010BDA91D0108F4000020CE
:105AD000880400200246B2F90200B1F9063098426B
