:020000040800F2
:10000000407F0020910500083D0300083F030008E1
:1000100043030008470300084B03000800000000EA
:100020000000000000000000000000004F03000876
:1000300051030008000000005303000855030008A6
:10004000AB050008AB050008AB050008AB050008D0
:10005000AB050008AB050008AB050008AB050008C0
:10006000AB050008AB050008AB050008AB050008B0
:10007000AB050008AB050008AB050008AB050008A0
:10008000AB050008AB050008AB050008AB05000890
:10009000AB050008AB050008AB050008AB05000880
:1000A000AB050008AB050008AB050008AB05000870
:1000B000AB050008AB050008AB050008AB05000860
:1000C000AB050008AB050008AB050008AB05000850
:1000D000AB050008AB050008AB050008AB05000840
:1000E0005D030008AB050008AB050008AB05000880
:1000F000AB050008AB050008AB050008AB05000820
:10010000AB050008AB050008AB050008AB0500080F
:10011000AB050008AB050008AB050008AB050008FF
:10012000AB050008AB050008AB050008AB050008EF
:10013000AB0500085F030008AB050008AB0500082D
:10014000AB050008AB050008AB050008AB050008CF
:10015000AB050008AB050008AB050008AB050008BF
:10016000AB050008AB050008AB050008AB050008AF
:10017000AB050008AB050008AB050008AB0500089F
:10018000AB050008AB05000800F002F800F03CF8F1
:100190000AA090E8000C82448344AAF10107DA45E2
:1001A00001D100F031F8AFF2090EBAE80F0013F0F8
:1001B000010F18BFFB1A43F001031847B4BE00003B
:1001C000D4BE0000103A24BF78C878C1FAD85207CC
:1001D00024BF30C830C144BF04680C6070470000C1
:1001E0000023002400250026103A28BF78C1FBD840
:1001F000520728BF30C148BF0B6070471FB50AF0D7
:10020000E2FA1FBD10B510BD0AF0A7FA1146FFF7BC
:10021000F5FF00F009F80AF0C5FA03B4FFF7F2FFA2
:1002200003BC0AF0C9FA00004FF4A06008F0D8F847
:100230000AF027F901F044FA00F085FD01F078FAA0
:100240004FF478402049088020A318220A2108464C
:1002500001F0E2F922A3102228210A2001F0DCF9A2
:1002600023A318224621142001F0D6F91F20164995
:10027000088023A310226E21142001F0CDF927A3BA
:1002800010228221142001F0C7F901F095FB01F042
:10029000DFFB01F06CFC03E02648006801F00FFC76
:1002A000FAE7244909680144234A116000BF224942
:1002B0000968204A12689142F9D870471D480068C1
:1002C0000A301C49086070471C000020496C6C759E
:1002D0006D696E6174692053544D333246340000A9
:1002E000417574686F723A436C6576657200000000
:1002F0003233205443505F5365727665722000009C
:10030000494D54343037475F49503A3139322E31F4
:1003100036382E312E323430000000005443505F06
:100320005365727665725F504F52543A32303430B2
:10033000200000000000002004000020704700BFE3
:10034000FEE700BFFEE700BFFEE700BFFEE7704725
:100350007047704710B5FFF7B1FF10BD704710B57B
:1003600001E001F0A7FB09F0B5FC0028F9D140201D
:1003700009F016FE4FF4803009F012FE10BD0000A7
:100380000CB50020019000907648006840F4803061
:100390007449086000BF7348006800F400300090A2
:1003A0000198401C0190009818B90198B0F5A04F31
:1003B000F1D16C48006800F4003010B101200090C9
:1003C00001E0002000900098012846D165484030A7
:1003D000006840F08050634940310860624800681E
:1003E00040F44040604908605E48083000685D495C
:1003F000083108600846006840F40040086008467C
:10040000006840F4A05008605848091F0860081FA1
:10041000006840F08070091F086000BF5148006804
:1004200000F000700028F9D040F2057050490860D3
:100430004C480830006820F003004A490831086041
:100440000846006840F00200086000BF45480830D8
:10045000006800F00C000828F8D10CBD10B5454824
:10046000006840F47000434908603E48006840F06E
:1004700001003C49086000203A49083108603948C9
:1004800000683D490840374908603C48091D08603C
:10049000081F006820F48020091F086000203149EF
:1004A0000C310860FFF76CFF4FF000603149803974
:1004B000086010BD70B50020002202230024022134
:1004C000284D08352D6805F00C0020B1042806D011
:1004D000082834D107E02A4D2A4E356033E02A4DF2
:1004E000284E35602FE01F4D2D1D2D68C5F380541B
:1004F0001C4D2D1D2D6805F03F0154B1224DB5FB5B
:10050000F1F5184E361D3668C6F3881605FB06F25F
:1005100009E01B4DB5FBF1F5124E361D3668C6F3EA
:10052000881605FB06F20F4D2D1D2D68C5F30145FC
:100530006D1C6B00B2FBF3F5124E356003E0104DFD
:10054000104E356000BF00BF064D08352D68C5F35D
:1005500003150E4E705D0B4D2D68C540094E35607C
:1005600070BD000000380240007000400854400791
:10057000003C024088ED00E0FFFFF6FE1030002452
:100580000024F4000800002000127A000C00002073
:100590000948804709480047FEE7FEE7FEE7FEE717
:1005A000FEE7FEE7FEE7FEE7FEE7FEE70448054953
:1005B000054A064B704700005D04000889010008E9
:1005C00040790020407F0020407B0020407B0020BD
:1005D000F64A1080921C1180704710B50446F3480B
:1005E0000480052009F062FFF048801C008810BDDF
:1005F000EF480088ED490880704700BF0100A0F176
:100600000102D0B2FAD1704730B5014601F01F04A3
:10061000C1F34513CA0AE50205EB43151544A8B218
:1006200030BD10B503460C46E248008849F241311E
:10063000884212D1E0480088DC4908801812891CE1
:100640000880D8B20880DD480088891E0880201202
:10065000891C0880E0B2088012E0D948007801289F
:1006600004D1D8480088401EC01A83B21946D24827
:100670000088FFF7ADFF2146D0480088FFF7A8FFAC
:1006800010BD3EB504460D4600200290019000903A
:10069000CC480088844203DACB480088854201DBDD
:1006A00000203EBD29462046FFF7BBFFC148008819
:1006B00049F24131884203D12E20BC49088002E032
:1006C0002220BA490880B948801C008808B100205F
:1006D00002900220FFF791FFB448801C008802902E
:1006E000B448008849F24131884211D10220FFF715
:1006F00084FFAE48801C00880090BDF80800C0B29E
:100700000190BDF804004FF6FF7101EA002001904E
:10071000A848008849F22531884202D1BDF8080076
:10072000BFE7A448008849F2413188420DD1BDF8A5
:100730000800C012C002BDF80410891240EA41103E
:10074000BDF8001040EAE120ABE7BDF80800FFF774
:100750005BFFA6E700B59748008849F2413188421F
:1007600003D129209149088004E040F27311072049
:10077000FFF72EFF00BD00B58E48008849F24131D9
:10078000884203D128208949088003E000210720FE
:10079000FFF71EFF00BD70B5044600230026884801
:1007A0000078012818D1082C15D2DFE804F00406DF
:1007B000080A0C0E101206240DE007240BE0042496
:1007C00009E0052407E0012405E0002403E00324F8
:1007D00001E0022400BF00BF7648008849F24131A1
:1007E00088425ED1082C1CD2DFE804F00406090C14
:1007F0000F12151800BF14E043F0800311E043F01E
:1008000040030EE043F0C0030BE043F0200308E098
:1008100043F0600305E043F0A00302E043F0E0038F
:1008200000BF00BF362643F0080319463046FFF7E5
:10083000CFFE03F0200068B1624800886249098851
:10084000884207DA5F4805885F4800885D4908806C
:100850005D48058058480088544908800020891C5C
:100860000880088057480088401EC0F30F20088089
:1008700054480078401EC0B2088050480088891E45
:1008800008800020891C088008804F480088401E8E
:10089000C0F30F2008804C480078401EC0B208808A
:1008A00026E0082C1CD2DFE804F004070A0D151816
:1008B0000F1243F0300313E043F0100310E043F055
:1008C00020030DE000BF0BE043F0180308E043F005
:1008D000080305E043F0380302E043F0280300BFBB
:1008E00000BF032643F4805319463046FFF770FEDD
:1008F00070BD10B504461CBB002031490870F020C3
:10090000304908804FF4A0702F490880294800889A
:1009100049F24131884209D12C20254908802A20FA
:10092000254908802B20254908802CE022202049D9
:10093000088020202049088021202049088022E0CA
:1009400001201F4908704FF4A0701E490880F02054
:100950001D4908801748008849F24131884209D171
:100960002C20134908802A20134908802B20134982
:10097000088008E022200E49088021200E490880C6
:1009800020200E4908800020FFF705FF10BD30B57C
:1009900004460D4629462046FFF743FEFFF728FE92
:1009A0000A4800880149891C088030BDFE1F006C80
:1009B00028000020200000202A0000202C00002019
:1009C0002200002024000020260000201C0000201F
:1009D00030B503460C461546FE48008849F24131C1
:1009E000884212D1FC480088FC4908801812891CF2
:1009F0000880D8B20880FA480088891E0880201232
:100A0000891C0880E0B2088012E0F64800780128CE
:100A100004D1F5480088401EC01A83B21946EE483A
:100A20000088FFF7D5FD2146ED480088FFF7D0FD8F
:100A3000EE480088E9490880881C058030BD2DE912
:100A4000FF4F04460D4616461F46A019401E86B2AB
:100A5000E819401E87B2DF48008849F241318842D8
:100A60001AD1DD480088DD4908802012891C0880E1
:100A7000E0B2088030120880F0B20880D8480088C0
:100A8000891E08802812891C0880E8B20880381264
:100A90000880F8B2088032E0D248007801280ED1F0
:100AA000A846B946D0480088801B401E1FFA80FA2D
:100AB000CD480088001B401E1FFA80FB03E0A046C3
:100AC000B146AA46BB4650200390512002905220C6
:100AD00001905320009041460398FFF779FD494665
:100AE0000298FFF775FD51460198FFF771FD5946D1
:100AF0000098FFF76DFD29462046FFF792FDBDE8FF
:100B0000FF8F00B59FB00121782008F0E1FA0121A4
:100B1000084608F015FB4FF480601D9001208DF809
:100B2000780000208DF87A0002208DF879000120ED
:100B30008DF87B001DA9AE4807F048FD4CF23370DC
:100B40001D9002208DF8780000208DF87A00032097
:100B50008DF8790001208DF87B001DA9A54807F0CC
:100B600035FD4FF680701D9002208DF87800002032
:100B70008DF87A0003208DF8790001208DF87B0034
:100B80001DA99D4807F022FD04201D9002208DF82C
:100B9000780000208DF87A0003208DF8790001207C
:100BA0008DF87B001DA9954807F010FD4FF480508B
:100BB0001D9002208DF8780000208DF87A00032027
:100BC0008DF8790001208DF87B001DA98B4807F076
:100BD000FDFC0C220021874807F083FD0C22012137
:100BE000844807F07EFD0C220421824807F079FD3D
:100BF0000C2205217F4807F074FD0C2208217D4856
:100C000007F06FFD0C2209217A4807F06AFD0C22DB
:100C10000A21784807F065FD0C220E21754807F07F
:100C200060FD0C220F21734807F05BFD0C220721A9
:100C3000714807F056FD0C2208216F4807F051FD5E
:100C40000C2209216C4807F04CFD0C220A216A484D
:100C500007F047FD0C220B21674807F042FD0C22EC
:100C60001146654807F03DFD0C220D21624807F052
:100C700038FD0C220E21604807F033FD0C220F21B5
:100C80005D4807F02EFD0C2202215C4807F029FD8B
:100C90000C221146594807F024FD0F200790002030
:100CA00008903C20099000200A900B900C900D9029
:100CB000092000900020019008200290002003905D
:100CC00004900590069006200E9000200F90109042
:100CD00010201190002012901490139015901690EF
:100CE0004FF480501790002018904FF480401990D6
:100CF00000201A9007A81B90CDF870D00EA807F01E
:100D000044FD0121062007F0CBFD322009F016FC3E
:100D10001FB000BD70B5044600250026324800888B
:100D20003749098800FB01F600210846FFF779FCE6
:100D3000FFF75EFC00BF03E02848801C04806D1CA8
:100D4000B542F9D370BD08B500200090FFF7D9FE79
:100D500001210020FFF73CFC322009F0EFFB0020CE
:100D6000FFF73BFC1B49088008460088FF280ADB88
:100D7000084600884FF6FF71884204D01548008865
:100D8000B0F5134F1DD1D32014490880881C00886A
:100D9000104908801148801C008808800F48801C7A
:100DA00000880880084600884FF6FF7101EA00209D
:100DB000084908800948801C0088098808430549BB
:100DC00008800448008849F24131884237D10D48F3
:100DD000006819E0200000202A000020FE1F006C9F
:100DE0002C000020220000202400002028000020E9
:100DF00000140240000C02400010024000180240A3
:100E0000260000201C0100A020F00F004FF0204120
:100E1000C1F81C010846D0F81C0120F47060C1F82C
:100E20001C010846D0F81C0140F00300C1F81C0169
:100E30000846D0F81C0140F40070C1F81C01FE48BF
:100E4000008849F2283188427ED141F28F01EC209E
:100E5000FFF7BEFB41F23421EF20FFF7B9FB4FF45F
:100E600080710120FFF7B4FB4FF4E0610220FFF72F
:100E7000AFFB41F230010320FFF7AAFB0021042061
:100E8000FFF7A6FB40F202210820FFF7A1FB00219B
:100E90000920FFF79DFB00210A20FFF799FB0121A4
:100EA0000C20FFF795FB00210D20FFF791FB00219F
:100EB0000F20FFF78DFB00211020FFF789FB072192
:100EC0001120FFF785FB00211220FFF781FB002195
:100ED0001320FFF77DFB01210720FFF779FB32206C
:100EE00009F02CFB41F290411020FFF771FB40F21A
:100EF00027211120FFF76CFB322009F01FFB8A210C
:100F00001220FFF765FB322009F018FB4FF4D05197
:100F10001320FFF75DFB06212920FFF759FB0D2168
:100F20002B20FFF755FB322009F008FB0021202081
:100F3000FFF74EFB00212120FFF74AFB322009F08A
:100F4000FDFA0021302000E074E0FFF741FB40F2A1
:100F500004613120FFF73CFB40F205313220FFF7FE
:100F600037FB00213520FFF733FB40F609413620DF
:100F7000FFF72EFB4FF401713720FFF729FB40F2FA
:100F800001313820FFF724FB40F207713920FFF7C9
:100F90001FFB00213C20FFF71BFB40F60A213D20F0
:100FA000FFF716FB322009F0C9FA00215020FFF7A5
:100FB0000FFBEF215120FFF70BFB00215220FFF721
:100FC00007FB40F23F115320FFF702FB4FF427418C
:100FD0006020FFF7FDFA01216120FFF7F9FA0021F7
:100FE0006A20FFF7F5FA00218020FFF7F1FA0021CF
:100FF0008120FFF7EDFA00218220FFF7E9FA0021B6
:101000008320FFF7E5FA00218420FFF7E1FA0021B1
:101010008520FFF7DDFA10219020FFF7D9FA4FF471
:10102000C0619220FFF7D4FA40F233110720FFF796
:10103000CFFAC2E18048008849F2253188427DD14B
:1010400047F6F001E520FFF7C3FA4FF48071012065
:10105000FFF7BEFA4FF4E0610220FFF7B9FA41F260
:1010600030010320FFF7B4FA00210420FFF7B0FAA3
:1010700040F202210820FFF7ABFA00210920FFF718
:10108000A7FA00210A20FFF7A3FA00210C20FFF79E
:101090009FFA00210D20FFF79BFA00210F20FFF798
:1010A00097FA00211020FFF793FA07211120FFF78C
:1010B0008FFA00211220FFF78BFA00211320FFF78F
:1010C00087FA00210720FFF783FA41F29061102090
:1010D000FFF77EFA40F227211120FFF779FA9D21D0
:1010E0001220FFF775FA4FF4C8511320FFF770FA7A
:1010F00025212920FFF76CFA0D212B20FFF768FA34
:1011000007213020FFF764FA40F203313120FFF766
:101110005FFA03213220FFF75BFA40F20621352007
:10112000FFF756FA08213620FFF752FA40F206413F
:101130003720FFF74DFA4FF4417100E058E03820B6
:10114000FFF746FA07213920FFF742FA40F2026121
:101150003C20FFF73DFA08213D20FFF739FA002136
:101160005020FFF735FAEF215120FFF731FA002127
:101170005220FFF72DFA40F23F115320FFF728FAD3
:101180004FF427416020FFF723FA01216120FFF788
:101190001FFA00216A20FFF71BFA00218020FFF7C9
:1011A00017FA00218120FFF713FA00218220FFF7B0
:1011B0000FFA00218320FFF70BFA00218420FFF7AC
:1011C00007FA00218520FFF703FA10219020FFF78E
:1011D000FFF94FF4C0619220FFF7FAF940F23311A2
:1011E0000720FFF7F5F922210020FFF7F1F9E4E0ED
:1011F0001148008849F241318842F8D1CF200F4987
:1012000008800020891C0880C120088030200880C8
:10121000ED20891E08806420891C08800320088036
:101220001220088081200880E820891E08808520FF
:10123000891C0880102003E020000020FE1F006CA5
:1012400008807A200880CB20891E08803920891CDC
:1012500008802C200880002008803420088002208C
:101260000880F720891E08802020891C0880EA2039
:10127000891E08800020891C08800880C020891EE3
:1012800008801B20891C0880C120891E088001203D
:10129000891C0880C520891E08803020891C088090
:1012A0000880C720891E0880B720891C0880362046
:1012B000891E08804820891C08803A20891E0880E1
:1012C0005520891C0880B120891E08800020891CB7
:1012D00008801A200880B620891E08800A20891CF0
:1012E0000880A2200880F220891E08800020891C26
:1012F00008802620891E08800120891C0880E020A3
:10130000891E08800F20891C08802A200880282038
:101310000880082008800E200880082008805420BB
:101320000880A9200880432008800A2008800F2018
:10133000088000200880088008800880E120891E3D
:1013400008800020891C088015200880172008804C
:101350000720088011200880062008802B200880A4
:10136000562008803C200880052008801020088036
:101370000F2008803F20088008800F2008802B2045
:10138000891E08800020891C0880088001200880B0
:101390003F2008802A20891E08800020891C0880A0
:1013A00008800880EF2008801120891E088078209E
:1013B00009F0C4F82920B94908800020FFF799FAFC
:1013C0000120B74908604FF6FF70FFF7A3FC08BD86
:1013D0002DE9F04F05460E4617469846DDF824A045
:1013E0004FF0000B781B401C1FFA80FB344614E0C2
:1013F00021462846FFF715F9FFF7FAF84FF00009E4
:1014000007E0A648801CA0F800A009F101001FFA1F
:1014100080F9D945F5DB601C84B24445E8DDBDE8C0
:10142000F08F2DE9F84F81460E4617461C46009670
:101430000C2C01D198460AE0102C01D1A04606E000
:10144000182C02D14FF0240801E0BDE8F88FA7F175
:101450002000C7B2002553E00C2C07D107EB470052
:10146000904901EB800010F805A012E0102C05D186
:101470008D4800EB071010F805A00AE0182C07D1E2
:1014800007EBC700894901EB800010F805A000E0D8
:10149000DBE74FF0000B2DE00AF0800030B184480C
:1014A000028831464846FFF793FA05E081480288F2
:1014B00031464846FFF78CFA4FEA4A604FEA106A15
:1014C000701C86B27C480088864200DBBDE700982D
:1014D000301AA0420AD1009E09F101001FFA80F9DA
:1014E00076480088814500DBAFE706E00BF101009C
:1014F00000F0FF0BBBF1080FCEDB00BF681CC5B2CC
:101500004545A9DB00BFA0E710B50246012000E079
:1015100050430B00A1F10104E1B2F9D110BD2DE956
:10152000FF4F81B0064691461F46DDE90E4A002076
:101530000090002544E0781B401EC1B20A20FFF74E
:10154000E3FFB9FBF0F00A21B0FBF1F201FB120856
:10155000009820BB781EA84221DDB8F1000F1CD1F5
:10156000BAF1000F0CD0A34604EBDB71491001FB6C
:10157000056188B2234630220299FFF752FF0BE043
:10158000A34604EBDB71491001FB056188B22346D9
:1015900020220299FFF745FF10E001200090A346AA
:1015A00004EBDB71491001FB056188B208F13001E1
:1015B000CAB223460299FFF734FF00BF681CC5B2C8
:1015C000BD42B8DB05B0BDE8F08F2DE9FF4F82B01A
:1015D00004460D461646DDE91189109F3448B0F8DF
:1015E00000A03448B0F800B03148A0F8008031487D
:1015F000A0F800900F98CDE9000732462946204612
:10160000059BFFF78CFF2A48A0F800A02948A0F806
:1016100000B006B0BDE8F08FF0B506460F4615469F
:101620001C4611E022782B4639463046FFF7F9FE7A
:10163000284605EBD07106EB61018EB21F48008889
:10164000864200DB06E0641C20787E2802DC2078DD
:101650002028E7DA00BFF0BD2DE9F04F04460D4623
:1016600016461F46DDE909891148B0F800A0114867
:10167000B0F800B00E48A0F800800E48A0F8009026
:101680003B46324629462046FFF7C6FF0848A0F8E9
:1016900000A00848A0F800B0BDE8F08FFE1F006C65
:1016A000A8824242D0A7000844AC000834B2000827
:1016B0001C0000201E000020260000202400002026
:1016C0001CB50121512007F003FD182000900120D6
:1016D0008DF8040000208DF8060003208DF8050029
:1016E00001208DF8070069460E4806F06FFF1821AB
:1016F0000C4806F0E7FF4FF40070009069460A4876
:1017000006F064FF4FF40071074806F0DBFF02208B
:1017100000906946054806F059FF0221034806F08B
:10172000D1FF1CBD00100240001802400000024022
:101730001CB50121202007F0CBFC4FF47070009005
:1017400000208DF8040003208DF8050001208DF89D
:1017500007006946314806F039FF1CBD0021304AB8
:1017600011703049096861B12E49091F096841B1FA
:101770002C490839096821B12A490C39096800291E
:101780003CD12849096819B90121274A117016E08E
:101790002449091F096819B90221234A11700EE072
:1017A00020490839096819B903211F4A117006E058
:1017B0001C490C39096811B904211B4A11701A49D6
:1017C00009781A4A1278914210D119490988491C9E
:1017D000174A118014490978164A1170E8B914495A
:1017E0000988012919DD0021117016E00021104A35
:1017F00011800D4909780D4A11700EE00C490988D5
:10180000022903DD08490978054A11700021074AB9
:101810001170074A1180074A117070470014024086
:101820002F0000202482424232000020330000209A
:10183000300000202E00002010B5002807DA0A072B
:10184000140E714A00F00F031B1FD45403E00A0763
:10185000130E6E4A135410BD00B5AFB001214FF006
:10186000606007F035FC07F0DFFD08F064FB00BFA7
:1018700008F068FB0128FBD0684607F0E0FD012076
:101880000090002007904FF400700A9000200B9009
:101890000E9011901390149015904FF48060099061
:1018A000002020904FF00070219000112390002024
:1018B0002590269004202890C005299040122A9057
:1018C00080012B9040122C9040002E900121684600
:1018D00007F06FFE01214E4808F04BFB2FB000BD12
:1018E00008B54FF4407006F07BFD3D208DF80000F8
:1018F00000208DF801008DF8020001208DF8030012
:10190000684606F072FD08BD1CB501214D2007F0A8
:10191000DFFB0121880307F035FC012007F05EFDA5
:1019200003208DF8050002208DF8040000208DF8BA
:1019300006008DF80700862000906946354806F0BD
:1019400045FE0B220121334806F0CBFE0B2202217B
:10195000304806F0C6FE0B2207212E4806F0C1FED5
:101960003220009069462C4806F030FE0B220121FF
:10197000294806F0B6FE0B220421274806F0B1FEE6
:101980000B220521244806F0ACFE4FF4D040009015
:101990006946224806F01AFE0B2211461F4806F03F
:1019A000A0FE0B220D211D4806F09BFE0B220E21EE
:1019B0001A4806F096FE1CBD1FB5FFF7A5FFFFF7FE
:1019C0008FFFFFF749FF684607F0B1FA64210098DE
:1019D000B0FBF1F4601EB0F1807F00D30FE0601E19
:1019E0004FF0E02148610F214FF0FF30FFF724FF57
:1019F00000204FF0E02188610720086100BF01212D
:101A0000881EFFF719FF1FBD18ED00E000E400E09D
:101A1000400001000000024000080240001802409F
:101A20002DE9F04104460D4616461F46DDF81880A4
:101A30002906F2B241EA0241FAB241EA022108F073
:101A4000FF0241EA020000F08DFB2060BDE8F0815A
:101A500000B587B002F0EEFE03F054F8F020012349
:101A6000A822C021009006A8FFF7DAFF0020FF237C
:101A70001A461946009005A8FFF7D2FF0120034639
:101A8000A822C021009004A8FFF7CAFF19481A49EC
:101A9000002204ABCDE90021029005AA06A917484F
:101AA00003F0DBF8154803F00AF9144803F04FF986
:101AB00007B000BD10B5114806F052FC10BD01B5CD
:101AC0000F4900980968401AFA2804D30C49009875
:101AD000086004F013F80B4900980968401A41F2B5
:101AE0008831884204D307490098086001F0C9F999
:101AF00008BD0000473700088D8300080C01002056
:101B000034000020380000202DE9F04180460E46C8
:101B100015461F462C468CB12189304603F07BFFC9
:101B200009E0628901233046616805F061FE3046B4
:101B300005F012FF2468002CF3D102E0304603F0D8
:101B4000BEFE284603F036F900273846BDE8F0818E
:101B500070B506460C4615460121204604F0ECF906
:101B60000D49204604F088FA0025284670BD10B5BE
:101B700004F07BFA04464FF4FF620849204604F063
:101B80004AF8FF21204604F0BCF8044604492046E8
:101B900004F07BFA10BD0000091B000890BF00088C
:101BA000511B0008704710B5416A01220A710022DA
:101BB0004A713022125C13062E22125C43EA024361
:101BC0002D22125C43EA02222F231B5C1A43436A34
:101BD00013B1436A5B7A00E000231A440A23B2FB84
:101BE000F3F403FB1422CA804A7A0A2A02DD4FF476
:101BF0001672CA8010BD2DE9F04105460E462F2110
:101C00004A5D3021495D42EA0121CE4A881800F040
:101C1000A9FA074600F0ABFB0446686A407A044420
:101C2000A0B2C94940EA0104C648844201D204F581
:101C30007E44C648844201D9A4F57E4400BF00BF5B
:101C4000204600F08FFA3060BDE8F08170B505469F
:101C50006C6A0026284603F09CF810B1284603F071
:101C60008CF800206860A860E8606CB90A2002F077
:101C7000BBFE044614B94FF0FF3070BD0020206059
:101C8000606020816C6205E000202071E08060715E
:101C90002060207221462846FFF7ADFF607A401C85
:101CA00060722846FFF77FFF3046E6E71FB504461F
:101CB0000122A74B606ACDE9000304F12B03CDE9B3
:101CC0000202A44A1946204601F0A1FB04B010BD4F
:101CD00070B50446012575B1606A007A002803DDFD
:101CE0002046FFF7B3FF09E02046FFF7DFFF64203F
:101CF000616A087202E02046FFF7A8FF70BD1FB5B9
:101D000004460121924A944B606ACDE90032CDE944
:101D1000020104F12B038F4A1946204601F077FB9C
:101D200004B010BD7CB50446656A8C4800F01AFA10
:101D30000190002000F016FA00902946204602F09B
:101D400041FF01A9204602F037FF6946204602F014
:101D50002DFF204602F0FBFF00207CBD10B504469D
:101D6000606A40B1606A007928B1204603F005F846
:101D70002046FFF718FF10BD10B504460020616A29
:101D80000871204602F0F9FF002010BD10B574481C
:101D900004687BE0606A002877D0606A007A0028D7
:101DA00004DD606A007A401E616A0872606A007928
:101DB000012802D0022867D13DE0606AC08800286F
:101DC00005DD606AC088401E616AC88032E0606AD2
:101DD0004079032809DB0220616A08710020616AEA
:101DE00048711420616AC88024E02046FFF787FF0D
:101DF000606A4079401C616A48713020005D0106CC
:101E00002E20005D41EA00412D20005D41EA0020C6
:101E10002F21095D0843616A11B1616A497A00E0C6
:101E2000002108440A21B0FBF1F201FB12000A3044
:101E3000616AC88028E0606AC088002805DD606AA1
:101E4000C088401E616AC8801DE0606A407918B988
:101E50002046FFF767FF02E02046FFF727FF142028
:101E6000616AC880606A4079401C616A4871606A32
:101E70004079022807DB0320616A08710020616A4B
:101E80004871616AC88000BF00BF2468002C81D1FE
:101E900010BD7FB504460D46606A002850D0606AC8
:101EA000007900284CD094F82B008DF800002C20ED
:101EB000005D8DF801002D20005D8DF802002E20C0
:101EC000005D8DF803002F20005D8DF804003020A8
:101ED000005D8DF80500D5F80E000390A86902900A
:101EE000606A0079012806D0606A0079022817D15B
:101EF000606A4079A0B90398616A096888420BD08A
:101F00000298616A0968884219D1062205F1080120
:101F1000684608F033FB90B12046FFF797FE0EE0CD
:101F20000398616A0968884209D1062205F108010F
:101F3000684608F023FB10B12046FFF7C9FE00BF3A
:101F40007FBD00000001FEA90000FEA9FFFEFEA962
:101F50009EBF000898BF000890BF00080000FFFF68
:101F6000680000202DE9FF5F054689466C682088DF
:101F700000F0F7F9C0F303204FEA8008C8F1000130
:101F8000284603F059F810B92889042800D298E0AF
:101F9000686890F800A0BAF1080F7CD101264FF0D4
:101FA000704000F0E4F9216900EA010B4FF0604055
:101FB00000F0DDF9834500D10026494604F1100008
:101FC00000F02CFC00B1002626B9284602F0F2FEF3
:101FD000BDE8FF9F2889082800D272E0284600F05B
:101FE0004FFA18B1284602F0E5FEF1E72221284613
:101FF00003F022F848B34146284603F01DF810B11B
:1020000000BF00BF61E029890022022002F009FF21
:10201000064606B959E000BF00BF2946304603F026
:102020009BF810B100BF00BF4FE07468C8F100001A
:1020300001B2304603F000F810B100BF00BF44E029
:10204000284602F0B7FE354608E06FF02101284629
:1020500002F0F2FF10B100BF00BF36E06F68E06829
:1020600003902069E0600398206100203870788038
:10207000208900F076F9C0B240F47F46304600F087
:102080006AF92081002060814146284602F0D4FF91
:1020900010B100BF0EE00EE001200021FF230A4630
:1020A000CDE90109009104F10C01284600F016FB6E
:1020B000064600BF00E000BF00BF284602F07AFEDF
:1020C00086E7284602F076FE82E7284602F072FE96
:1020D00000BF7DE72DE9FC4706460F4690460022EB
:1020E0002421012002F09DFE05460DB9BDE8FC87C4
:1020F00000BF00BFD6F804906C68277084F8018098
:102100000020A080E08071686A6802F108001C224B
:1021100008F060FA002060806989204600F0A6F986
:10212000608001200021FF2309F10C02CDE900109D
:10213000284600F04EFB284602F03CFE00BFD5E7E3
:1021400070B505460C46224603212846FFF7C2FF1C
:1021500070BD70B505460C4622460B212846FFF798
:10216000B9FF70BD0146080601F47F4240EA022033
:1021700001F47F0240EA122040EA116070472DE925
:10218000FF4105460F466E462B7800BF302B01DB22
:10219000392B03DD002004B0BDE8F08100244FF0AE
:1021A0000A08302B0ED1681C05460378782B01D025
:1021B000582B05D14FF01008681C0546037801E044
:1021C0004FF0080800BF302B09DB392B07DCA3F1E7
:1021D000300004FB0804681C05460378F3E7B8F1F7
:1021E000100F1BD1302B01DB392B07DD612B01DBFD
:1021F000662B03DD412B11DB462B0FDC612B03DB50
:102200007A2B01DC612100E0412103F10A00401A30
:1022100040EA0414681C05460378D4E700BF00BFF9
:102220002E2B09D103A8864201D30020B3E710C6A4
:10223000681C05460378A9E700BF00BF6BB1202BDF
:102240000BD00C2B09D00A2B07D00D2B05D0092B56
:1022500003D00B2B01D000209DE76846301A0121E6
:1022600001EBA00005282AD2DFE800F00305060FE5
:102270001B0000208FE722E0B4F1807F01D3002013
:1022800089E7009844EA006419E0B4F5803F01D37F
:10229000002080E700980006019940EA01400443CD
:1022A0000DE0FF2C01D9002075E700980006019988
:1022B00040EA0140029940EA0120044300BF00BF08
:1022C0001FB12046FFF74EFF3860012063E718B5C5
:1022D000044669462046FFF752FF08B1009818BD32
:1022E0004FF0FF30FBE7F1B582B00298019023492F
:1022F00001AA002427E0002300BF10780A2690FBE3
:10230000F6F706FB1700C5B2107890FBF6F01070D8
:1023100005F13000C7B218465E1CF3B20DF800702C
:1023200010780028E9D103E01DF8030001F8010B43
:102330001800A3F10106F3B2F6D12E2001F8010B2B
:10234000521C601CC4B2042CD5DB0026481E01467A
:1023500006700A48FEBD01460806000C40EA11203E
:10236000704700B502461046FFF7F5FF00BD00B507
:1023700003461846FFF7F6FE00BD000044010020AA
:102380002DE9F04180460E460024454608E02878B5
:1023900007026D1C287807436D1C3C44B01E86B2B2
:1023A000012EF4DC002E02DD287807023C44A0B2A6
:1023B00000EB1444200C000410B1A0B200EB144454
:1023C000A0B2FFF7C8FFBDE8F0812DE9F05F8046BD
:1023D0000E4617469946DDF828B00024A246454629
:1023E00018E069896868FFF7CBFF0444A0B200EBEE
:1023F0001444688900EBD0714910A0EB410141B150
:10240000CAF1010000F0FF0AE0B2C4F3072141EA7B
:1024100000242D68002DE4D1BAF1000F04D0E0B201
:10242000C4F3072141EA0024308880B204443068B4
:102430004FF6FF7101EA10400444388880B204442A
:10244000386801EA104004444846FFF784FF04441A
:102450005846FFF780FF0444A0B200EB1444A0B23A
:1024600000EB1444E04380B2BDE8F09F70B5044631
:102470000D4629462046FFF783FFC04380B270BD5A
:102480002DE9F041064600240027354617E069890A
:102490006868FFF775FF0444A0B200EB1444688934
:1024A00000EBD0714910A0EB410139B1C7F1010037
:1024B000C7B2E0B2C4F3072141EA00242D68002D21
:1024C000E5D127B1E0B2C4F3072141EA0024E0439B
:1024D00080B2BDE8F081000070B50546CA480468C6
:1024E0000EE0204602F055FC48B12868A16808407B
:1024F000D4E901121140884201D1204670BD246800
:10250000002CEED1C148006820B1C048006802F03C
:1025100040FC08B90020F1E7BC480068EEE72DE96F
:10252000F05F06460F464FF0010A74682088FFF7F7
:1025300018FF0421B1EB203F05D0304602F03AFCF1
:102540000020BDE8F09F2088FFF70BFFC0F30328B1
:102550004FF6FF7000EA88086088FFF702FF8146A7
:102560007089404502DB3089484504DA304602F084
:1025700021FC0020E5E74946304602F021FD4FF0FE
:10258000010B3D4600BF284602F003FC70B1281D38
:1025900060B1686850B120696968884205D02946F1
:1025A00004F1100000F03AF900B10DE0BBF1000FAA
:1025B00004D04FF0000B9448056800E02D68BD4240
:1025C00000D12D68002DDED100BF7DB92089FFF735
:1025D000C8FEC0B2112809D104EB08014888FFF7F2
:1025E000C0FE442802D13D464FF0000ABAF1000F68
:1025F00019D0E068B8B1394604F10C0000F00EF9CA
:1026000060B94FF07040FFF7B2FEE16800EA010BDD
:102610004FF06040FFF7ABFE834504D1304602F037
:10262000C9FB00208DE725B9304602F0C3FB00202E
:1026300087E743F6FF70FFF78EFEE188084038B168
:10264000304600F094FA06460EB9002079E7746827
:102650006F4807606F4804603946304602F078FEE4
:10266000A8BB2089FFF77DFEC0B201280DD0062847
:1026700006D011280ED13946304605F0B3FB25E0CF
:102680003946304604F020FC20E039463046FFF75A
:1026900069FC1BE0394604F1100000F0BFF888B96E
:1026A0004FF07040FFF763FE216900EA010B4FF025
:1026B0006040FFF75CFE834504D074600221304621
:1026C000FFF73EFD304602F075FB00BF00BF002063
:1026D0004F4908604F49086000BF32E72DE9F05FBD
:1026E00006460F4690469A460C9DB8F1000F5BD007
:1026F0004FF014091421304602F09EFC18B16FF01F
:102700000100BDE8F09F746800BF00BF2089FFF79B
:1027100028FE6AF31F208346FFF71DFE20812089D3
:10272000FFF71FFE01120B9840EA012B5846FFF7F6
:1027300012FE2081B8F1000F01D1002001E0D8F88D
:1027400000002061CB464FEAE97109EB91718910D5
:102750004FF4804242EA01210A9A114388B2FFF7FE
:10276000FAFD20803089FFF7F6FD60800020E080D0
:1027700029480088FFF7EFFDA08027480088401C0B
:10278000254908800FB1386830B9281D08B90020E4
:1027900000E06868E06004E00FB9002000E03868FD
:1027A000E0600020608102E0746804F11008288D68
:1027B00048B13089298D884205DD42462946304698
:1027C00000F0A2FA9DE74246314628466B699847D9
:1027D00097E72DE9FE4F05460E4614461F46DDE9F4
:1027E0000C892046FFF778FE5FEA000A02D1001F3D
:1027F000BDE8FE8F3B462246314628468DE800075D
:10280000FFF76CFFF4E70000680000206C00002078
:1028100040000020440000204800002030B503465E
:102820001A68D04300B10AB9012030BD91F83100D7
:1028300000F0020008B90020F7E74868904201D193
:102840000020F2E718688C682040D1E901452C404F
:10285000A04208D1886822EA00008D68EC43A042BB
:1028600001D10120E1E70020DFE7000070B5044658
:102870000D46FE480068A04203D1FC49206808606C
:1028800003E000BF00BF206828602146052002F059
:1028900076F970BD2DE9F04704468846002600BF52
:1028A00000BFB8F1000F01D000BF00BF60684768EB
:1028B000B88898B9656838686060142204F1080126
:1028C000686807F087FE01212846FFF742FC28468A
:1028D00002F0F1FB0644284602F06CFA65680AE053
:1028E0006F68A9463D68484602F0E5FB0644484645
:1028F00002F060FA00BF002DF2D141462046FFF7FA
:10290000B5FF00BF00BFDA480088801BD8490880A7
:102910003046BDE8F08770B50025D44804680FE064
:10292000E07F002805DDE07F401EE0772546246833
:1029300006E02646246829463046FFF7ABFF00BF75
:10294000002CEDD170BD2DE9F05F054689460027CA
:1029500000BF0026B346B246C44804681DE0606963
:10296000E968884207D1A0692969884203D1A08912
:10297000A988884201D0012000E0002048B10AF176
:10298000010A0EB9264604E0E07FF17F884200DCB0
:102990002646206800B1A3462468002CDFD12EB162
:1029A00059463046FFF776FF804647444F4502DAE6
:1029B000BAF1010FCDDC3846BDE8F09F70B5054691
:1029C0000E46052002F0C7F8044664B93146284691
:1029D000FFF7B9FFB04203DB052002F0BCF8044664
:1029E0000CB9002070BD2021204607F05AFE0320BC
:1029F000E0779E48006820609C48046014222946C5
:102A000004F1080007F0E6FD2046EBE72DE9FE4F54
:102A100081460E46002501200090D6F804A0BAF8A1
:102A20000200FFF79EFC8346BAF80000FFF799FC0E
:102A3000C0F30320ABEB800080B20190BAF806002F
:102A4000FFF78FFCC0F30C004FF6FF7101EAC000E6
:102A5000029000BF00BF7468002020600298A08030
:102A6000DDE901100844E080D9F804802AE0D8F8B4
:102A70000470A088B988884210DAC4F8008055B183
:102A8000A088E988884203DBE088B988884200DDB5
:102A900060E02E6001E0C9F8046016E0A088B98803
:102AA000884200D156E0A088F988884200DA51E0D7
:102AB0002DB1E888B988884201D000200090D7F86D
:102AC00000803D46B8F1000FD1D100BFB8F1000F32
:102AD0000ED14DB100BF00BF2E60E888A1888842AA
:102AE00006D00020009003E000BF00BFC9F80460DA
:102AF00099F81E0000F0010050B3009828B3D9F8EF
:102B000004004068808810B1002000901DE0254638
:102B1000D4F800800BE0D8F80440E888A188884207
:102B200002D00020009005E02546D4F80080B8F1DE
:102B3000000FF0D100BF009838B100BF00BF00BF48
:102B400000BF00BF00BF00BF00BF0098BDE8FE8F00
:102B50000020FBE7304602F0AEFA45490988081A22
:102B600043490880304602F025F90020EEE72DE9C0
:102B7000FC5F804600200090D8F804502888FFF7BA
:102B8000F0FBC0F303201421B1EB800F00D0B6E0BE
:102B9000E888FFF7E6FBC0F30C004FF6FF7101EA8F
:102BA000C00A6888FFF7DDFB83462888FFF7D9FB5A
:102BB000C0F30320ABEB800080B20190404602F0EE
:102BC0007AFA06462A48018888190A280ADD314619
:102BD0002846FFF7B8FE20B12548008830440A286F
:102BE00000DD8CE02148046812E06069E9688842F1
:102BF00009D1A0692969884205D1A089A98888429C
:102C000001D1012000E0002000B103E0009424681D
:102C1000002CEAD100BF34B931462846FFF7CEFE7A
:102C2000044694B96BE0E888FFF79BFBC0F30C0007
:102C300058B9E089FFF795FBC0F30C0028B11422C6
:102C4000294604F1080007F0C5FC09480088304413
:102C500007490880E888FFF784FB00F4005058B962
:102C6000A07F40F00100A077019803E04C00002015
:102C7000500000205044A08341462046FFF7C6FE86
:102C8000D0B3A08B1430A083606840680768606888
:102C90004568142204F10801284607F09BFCA08B2C
:102CA000FFF759FB68800020E880688114212846DE
:102CB000FFF7DCFB6881D4F804800CE0D7F80490BF
:102CC0006FF01301384602F0B7F93946404602F07A
:102CD00000FAD9F80070002FF0D120460099FFF7D4
:102CE000C5FD404602F0E7F959490988081A5849D4
:102CF00008804046BDE8FC9FFFE70020FAE7404619
:102D000002F058F80020F5E72DE9F74F86B0884625
:102D1000B8F82800059014200190022200211046E6
:102D200002F07FF8054625B94FF0FF3009B0BDE845
:102D3000F08F059868812881464820F0030068607C
:102D40006C68069814224168204607F043FCE0882E
:102D5000FFF707FB0746C7F30C00049007F4005089
:102D6000039006980089143886B20599A1F11400E1
:102D7000C11700EB5171C1F3CF0B61E00598143816
:102D8000B04201DB012000E0002002900498C0F373
:102D90000C00039940EA0107029808B947F400576C
:102DA000029808B1304601E04FEACB001FFA80FAE2
:102DB000524604F11401019B069802F028FA019989
:102DC000084480B201903846FFF7C5FAE0800AF166
:102DD000140188B2FFF7BFFA6080002060811421DF
:102DE0002046FFF743FB6081029828B106F11400EA
:102DF00081B2284602F0E4F800221146022002F0D7
:102E000010F88146B9F1000F0DD02946484602F06E
:102E10007CF9D8F8143049464046089A9847484605
:102E200001F0C8FF05E0284601F0C4FF4FF0FF3075
:102E30007CE7A6EB0A0086B20498584480B204905E
:102E4000002E9BD1284601F0B5FF00206EE7000060
:102E5000500000205701002070B5044600BF00BF9D
:102E600000BF00BF0AE02546246800BF00BF6868B5
:102E700001F0A0FF2946062001F081FE002CF2D1CE
:102E800070BD10B5002446E004EB8400F84901EB66
:102E90008000C07B401C04EB8401F54A02EB8101F9
:102EA000C87304EB8400114601EB8000807B02288C
:102EB00006D104EB840001EB8000C07BF0280EDA21
:102EC00004EB8400EA4901EB8000807B012820D1DB
:102ED00004EB840001EB8000C07B022819DB04EBCB
:102EE0008400E34951F8200060B104EB8401E04A1A
:102EF00052F82100FFF7B0FF002004EB8401DC4A08
:102F000042F82100002004EB8401D94A02EB810140
:102F10008873601CC4B20A2CB6DB10BD2DE9FC5FBF
:102F200005460F464FF00A08C1460A260024A3466C
:102F300000200190B2460090CDB1CE48007800EB61
:102F40008000CB4901EB8000807B02280FD12868EC
:102F5000C849097801EB8101C54A02EB8101496842
:102F6000884204D1C348007840B2BDE8FC9F0024E9
:102F700073E00A2E08D104EB8400BD4901EB800008
:102F8000807B08B966B266E004EB8400B84901EBC7
:102F90008000807B012836D165B1286804EB84016C
:102FA000B34A02EB81014968884203D1B1480470F9
:102FB00060B2DAE704EB8400AD4951F8200088B133
:102FC00004EB840001EB8000C17B0098814242DB6E
:102FD0004FFA84FA04EB8400A54901EB8000C07B22
:102FE000009038E004EB8400A14901EB8000C07B35
:102FF000584530DB4FFA84F804EB840001EB800085
:1030000090F80FB027E004EB8400994901EB8000B1
:10301000807B02281FD165B1286804EB8401944AA3
:1030200002EB81014968884203D19248047060B282
:103030009BE704EB84008E4901EB8000C17B019883
:10304000814208DB4FFA84F904EB8400884901EBE4
:103050008000C07B0190601CC4B20A2C89DB0A2E60
:1030600002D107F0010010B107F0020010B14FF0DB
:10307000FF307AE70A2E01DAF4B222E0B9F10A0F42
:1030800003DA09F0FF0400BF1BE0B8F10A0F02DA0F
:1030900008F0FF0415E0BAF10A0F0FDA0AF0FF0496
:1030A00004EB8401724A52F82100FFF7D5FE00209C
:1030B00004EB84016E4A42F8210002E04FF0FF3039
:1030C00053E700BF00BF002004EB8401684A02EB15
:1030D0008101887345B105B900E0286804EB8401DB
:1030E000634A02EB81014860002004EB8401604ADE
:1030F00002EB8101C8735F48047060B235E72DE9C7
:10310000F04706460F46904699467D6800BF00BFCF
:10311000062408E0601EC4B219F80400285518F807
:103120000410A81D0155002CF4DC4FF40060FFF7DB
:1031300012F9A88139463046B2699047BDE8F08758
:103140002DE9F05F07460D4690469A4600BF00BF46
:103150009DB1286888B139462846FFF75FFB60B902
:103160004FF07040FFF703F9296800EA01094FF0BA
:103170006040FFF7FCF8814503D16FF00900BDE81E
:10318000F09F51462846FFF7C9FE0446002C01DA9D
:103190002046F4E7022004EB8401354A02EB81016A
:1031A000887304EB8400114601EB8000076106265A
:1031B0000AE0701EC6B218F8061004EB84002C4A10
:1031C00002EB800008308155002EF2DC002004EB79
:1031D0008401274A02EB8101C8731CE004EB8400E0
:1031E000234951F8209004EB8401214AD9F80000CA
:1031F00042F82100D9F804B04946062001F0BFFC8E
:10320000434607F12B0259463846FFF778FF5846E8
:1032100001F0D0FD00BF04EB8400154951F82000F7
:103220000028DBD100BFAAE72DE9F04180460D461A
:1032300016461F4602212846FFF770FE0446002C62
:103240001ADB04EB84000A4901EB8000807B022832
:1032500012D104EB840001EB80000830306004EBF5
:10326000840001EB8000001D38602046BDE8F0813D
:1032700034070020520000204FF0FF30F6E72DE920
:10328000F04104460F4600BF0CB9BDE8F08100BF15
:103290007D6805F10E06F068A1680840D4E90112C6
:1032A0001140884200D0F0E70023AA1D06F10C016E
:1032B0002046FFF745FF00BFE7E72DE9FC5F064624
:1032C0008946174600BF0EB9BDE8FC9F00BF78894C
:1032D0002A2803DA384601F06DFDF5E7D7F80480B7
:1032E00008F10E040120FFF736F82188884215D135
:1032F00040F20460FFF72FF8A18888420ED14FF406
:103300000060FFF728F86188884207D140F6060080
:10331000FFF721F8B8F80C10884203D0384601F0C6
:1033200049FDD1E721463046FEF7B3FDD4F80E0043
:103330000190A0690090706810B94FF0000A07E092
:1033400000987168884201D1012000E00020824687
:10335000BAF1000F07D0012304F1080201A9304699
:10336000FFF7EEFE06E0002304F1080201A9304653
:10337000FFF7E6FEE088FEF7EEFF012802D0022804
:103380003ED138E0BAF1000F33D00220FEF7E3FF60
:10339000E080D4F80E00A0617068C4F80E0000BF91
:1033A00000BF0625706A20B1706A007908B1F9483B
:1033B00001E004F10800834614E0681EC5B204F180
:1033C0000800415D0A3041551BF8050008F805006A
:1033D00019F8051004F10800415519F8051008F115
:1033E00006004155002DE8DC39463046B269904769
:1033F00000E000BF05E001A9304601F0C0F900E09F
:1034000000BF00BF384601F0D5FC00BF5CE72DE9E6
:10341000FF4F83B0074689469A46DDF840B000204A
:10342000029000222A21032001F0FBFC8046B8F123
:10343000000F04D14FF0FF3007B0BDE8F08F00BFA0
:1034400000BFD8F8046006F10E051398FEF783FF5D
:10345000E88000BF00BF0624786A20B1786A00794E
:1034600008B1CC4800E00598019012E0601EC4B29B
:103470001AF8041005F1080001551198015D05F1D5
:10348000120001550198005D305519F80410B01D67
:103490000155002CEADCDBF80000C5F80E0012989C
:1034A0000068A8610120FEF756FF28804FF40060F5
:1034B000FEF751FF688040F20460FEF74CFFA880E1
:1034C00040F60600FEF747FFB08141463846BA692C
:1034D00090470290404601F06DFC4FF000080298C2
:1034E000AAE77FB504460D460121AB4A201D04F131
:1034F0002B038DE825000391A64A19462046FFF7C5
:1035000086FF04B070BD2DE9F84F81460F46164680
:1035100009F12B0A4FF0FF30009049463846FFF77B
:103520007DF978B94FF07040FEF721FF396800EA65
:1035300001054FF06040FEF71AFF854202D00FB13F
:10354000386818B96FF00900BDE8F88F01213846D6
:10355000FFF7E4FC0446002C01DA2046F4E704EB14
:1035600084008E4901EB8000807B30B9012004EBA0
:1035700084018A4A02EB8101887300BF00BF04EB1B
:103580008400864901EB8000807B012800D02EB9A1
:1035900039464846FFF7A5FF009000BF002E71D0C6
:1035A00004EB84007D4901EB8000807B02280CD174
:1035B00004EB840001EB800000F108035246314621
:1035C0004846FFF79CFD00905CE004EB84007349E3
:1035D00001EB8000807B012854D14FF0000B354671
:1035E00008E000BF00BF287B012802D04FF0010B8C
:1035F00002E02D68002DF4D100BFBBF1000F10D008
:1036000029890022032001F00CFC05466DB13146EA
:10361000284601F0A1FD40B1284601F0CBFB002572
:1036200003E03546284601F04FFD55B3062001F072
:1036300092FA8046B8F1000F1FD00020C8F80000B1
:10364000C8F8045004EB8400544951F8200060B1DC
:1036500004EB8401514A52F8210000E0006801683F
:103660000029FBD1C0F8008004E004EB84004B4942
:1036700041F820800020009002E0284601F09AFBEB
:1036800000BF00BF00985FE72DE9FC4104460E46ED
:1036900015460E21304601F0CFFC18B16FF0010045
:1036A000BDE8FC81002721462846FFF7B7F808B19E
:1036B000384F40E04FF07040FEF759FE296800EAAD
:1036C00001084FF06040FEF752FE80451DD10120F9
:1036D0008DF8000000208DF801005E208DF80200BA
:1036E0002868FEF744FEC0F306408DF80300286802
:1036F000FEF73DFE000A8DF804002868FEF737FE4D
:10370000C0B28DF805006F4615E02868A168084032
:10371000D4E901121140884207D0E06810B104F1E9
:103720000C0502E06FF00300BAE732462946204656
:10373000FFF7E9FEB4E73B4604F12B023146204691
:10374000FFF7DDFCACE72DE9F04104460D46666865
:10375000B089FEF700FE0746B7F5006F03D0A7F665
:10376000060020BB1CE021462846FFF788FD6FF0CD
:103770000D01204601F060FC30B100BF00BF2046C3
:1037800001F018FB002403E029462046FEF7C7FE9F
:1037900012E0000098BF00089EBF00083407002018
:1037A000224605F12B012846FFF787FD04E020465D
:1037B00001F000FB002400BF00BF0020BDE8F08145
:1037C00070B5054600BF05B970BD00BF2C6A00BFCB
:1037D00004B9F9E700BF00BF00BF00BF00BF6069C8
:1037E00010B1606901F0E6FA00206061A06100BFDD
:1037F000EAE700BF00B9704700BF00BF00BF00BFCD
:1038000000BFFF22838B591C81838169F031CA5428
:1038100008E000BF00BF0022838B591C81838169AF
:10382000F031CA54818B4429F3D3017F01F00301A5
:103830000029EED100BFDEE700BF00BF838B5A1C1A
:1038400082838269F032D154704710B500BF00BF47
:10385000848B631C83838369F0331955848B631CC9
:1038600083838369F0331A5510BD10B500BF00BFC4
:103870000B0A848B621C82838269F0321355848B1D
:10388000621C82838269F032115510BD70B5064604
:1038900000BF16B96FF0090070BD00BF346A00BFE9
:1038A00014B96FF00800F7E700BF00BF00BF00BF0A
:1038B00000BF00224FF49A71104601F0B2FA606125
:1038C000606910B94FF0FF30E6E700BF00BFE07C51
:1038D00020B9FB480068401CF9490860F8480068B6
:1038E000206060694068A0610120A1690870A16939
:1038F00048700620A16988700020A169C8702068FE
:10390000FEF730FCA16948600020A1690881A16927
:103910004881A169C860A07C0A2805D0A07C052840
:1039200002D0A07C042802D17068A169C860002080
:10393000A1690861A1694861A169886100250DE05C
:1039400096F82A00A84203DD06F12B00405D00E056
:103950000020A1691C314855681C85B2102DEFD399
:10396000002505E00021A0692C304155681C85B276
:10397000402DF7D3002505E00021A0696C304155AA
:10398000681C85B2802DF7D3CE48FEF7EBFBA1690A
:10399000C1F8EC000020A083002504E0A069F0300D
:1039A0004555681C85B2442DF8D3002074E7827C0D
:1039B0008A4202D081740022C2747047F8B505466D
:1039C0002C6A0026C04808B9002001E0BE48006803
:1039D000A06206212046FFF7EAFF2846FFF756FFC0
:1039E0000646002E39D1012235212046FFF72DFF52
:1039F00001212046FFF720FF022239212046FFF750
:103A000024FF298D2046FFF730FF0422372120466E
:103A1000FFF71BFF01212046FFF70EFF0321204681
:103A2000FFF70AFF1C212046FFF706FF062120466C
:103A3000FFF702FF2046FFF7DCFEA28BF03291B2C7
:103A4000606901F0BDFA00954323A04A616960688E
:103A500004F0DFFA2846FFF7B3FEE07C401CE07478
:103A6000E07C062803DAE17C0120884000E03C206D
:103A700000EB4001C1EBC0104FF6FF7101EAC00737
:103A800007F2F3104FF4FA7190FBF1F0E083304647
:103A9000F8BD70B50446256A204601F06EF98A49E2
:103AA000204601F08FF88849204601F07FF88649CA
:103AB000204601F081F80C212846FFF778FF2046C8
:103AC000FFF77CFF70BD2DE9F04105462C6A082107
:103AD0002046FFF76CFF002204F128012846FFF77B
:103AE00012FD0746E07C401CE0744FF4FA7606F2C3
:103AF000F310314690FBF1F0E083BDE8F08110B5A2
:103B000000BF00BF0B0E848B621C82838269F0327F
:103B10001355C1F30743848B621C82838269F032A0
:103B20001355C1F30723848B621C82838269F032B0
:103B30001355848B621C82838269F032115510BD4B
:103B40002DE9F84305462C6A01212046FFF72FFF97
:103B50002846FFF79BFE0646002E53D10122352151
:103B60002046FFF772FE03212046FFF765FE022282
:103B700039212046FFF769FE298D2046FFF775FEA3
:103B8000042232212046FFF760FEA06AFEF7EFFB19
:103B9000804641462046FFF7B2FF042236212046E8
:103BA000FFF753FE606AFEF7E2FB8046414620467F
:103BB000FFF7A5FF042237212046FFF746FE01212B
:103BC0002046FFF739FE03212046FFF735FE1C2172
:103BD0002046FFF731FE06212046FFF72DFE204646
:103BE000FFF707FEA28BF03291B2606901F0E8F9AD
:103BF00000954323354A6169606804F00AFA284653
:103C0000FFF7DEFDE07C401CE074E07C062803DA70
:103C1000E17C0120884000E03C2000EB4001C1EB4A
:103C2000C0104FF6FF7101EAC00707F2F3104FF41E
:103C3000FA7190FBF1F0E0833046BDE8F88301466D
:103C400011F8013B180611F8013B40EA034011F856
:103C5000013B40EA032011F8012B1043704770B577
:103C600003460D460026D868002850D0188A002840
:103C70004DDDDA68002114E0505C342806D1881C40
:103C800081B208464C1CA1B2165C0AE0505CA84206
:103C900001D1501870BD481C81B2505C401C0844D2
:103CA00081B2188A884202DD505CFF28E4D16EB3ED
:103CB000012E0DD1986800F16C02802413E0000001
:103CC000540000206353826390BF000894BF000833
:103CD000022E04D1986800F12C02402403E0986879
:103CE00000F12C02C02400210AE0505CA84201D15E
:103CF0005018CFE7481C81B2505C401C084481B288
:103D0000A14202DA505CFF28EFD100BF00BF0020C3
:103D1000C0E72DE9F04105462C6A36212046FFF721
:103D20009EFF06468EB1B01CFFF789FF0746FEF7DF
:103D300019FA6062A068103008B9002001E0A0689C
:103D40000069A0622846FFF7FBFEBDE8F081F8B5E8
:103D500005462C6A05212046FFF729FE2846FFF775
:103D600095FD06462EBB012235212046FFF76DFD4D
:103D700003212046FFF760FD022239212046FFF78C
:103D800064FD298D2046FFF770FD2046FFF731FDC9
:103D9000A28BF03291B2606901F012F900954323D1
:103DA00004F124026169606804F033F92846FFF7E2
:103DB00007FDE07C401CE074E07C0A2805DAE07C2A
:103DC0004FF4FA6110FB01F001E044F6206087B285
:103DD00007F2F3104FF4FA7190FBF1F0E0833046F4
:103DE000F8BD70B505462C6AA07C012805D0A07CE2
:103DF0000A2802D0A07C052802D12846FFF7A7FF99
:103E000070BDF8B505462C6A04212046FFF7CFFDAA
:103E10002846FFF73BFD064626BB012235212046FA
:103E2000FFF713FD03212046FFF706FD022239218B
:103E30002046FFF70AFD298D2046FFF716FD204694
:103E4000FFF7D7FCA28BF03291B2606901F0B8F8AD
:103E500000954323F84A6169606804F0DAF828465F
:103E6000FFF7AEFCE07C401CE074E07C0A2805DA39
:103E7000E07C4FF47A7110FB01F001E042F2107027
:103E800087B207F2F3104FF4FA7190FBF1F0E08380
:103E90003046F8BD70B505462C6AA07C012805D0D7
:103EA000A07C0A2802D0A07C052802D12846FFF772
:103EB000A8FF70BD10B5E148046817E0206AA0B102
:103EC000206A418C481E226A5084012903D1204671
:103ED000FFF7E0FF09E0206A018C481E226A108487
:103EE000012902D12046FFF77CFF2468002CE5D190
:103EF00010BD2DE9F84305462C6A03212046FFF743
:103F000056FD2846FFF7C2FC0646002E32D101229C
:103F100035212046FFF799FC03212046FFF78CFC52
:103F2000022239212046FFF790FC4FF41071204601
:103F3000FFF79BFC042232212046FFF786FCA06A93
:103F4000FEF715FA804641462046FFF7D8FD204689
:103F5000FFF74FFCA28BF03291B2606901F030F8AC
:103F600000954323B44A6169606804F052F828461A
:103F7000FFF726FCE07C401CE074E07C0A2805DAB0
:103F8000E07C4FF47A7110FB01F001E042F2107016
:103F900087B207F2F3104FF4FA7190FBF1F0E0836F
:103FA0003046BDE8F883F8B505462C6A0D21204659
:103FB000FFF7FDFC00206062E062A06260632063A6
:103FC000E064A0646064A0632846FFF75FFC0646D7
:103FD000E6B9012235212046FFF737FC07212046AC
:103FE000FFF72AFC2046FFF704FCA28BF03291B2C7
:103FF000606900F0E5FF0095432304F12402616944
:10400000606804F006F82846FFF7DAFBE07C401C05
:10401000E074E07C0A2805DAE07C4FF47A7110FB4A
:1040200001F001E042F2107087B207F2F3104FF492
:10403000FA7190FBF1F0E083284600F09EFE804983
:10404000284600F0BFFD7E49284600F0AFFD7C49C0
:10405000284600F0B1FD3046F8BD2DE9FC4106468A
:1040600000BF0EB9BDE8FC8100BF346A00BF04B9CF
:10407000F8E700BFA06C401C70B1A06C1E303C2162
:10408000B0FBF1F5B5F5803F01D34FF6FF75258400
:10409000208C08B901202084E06C401C70B1E06CD9
:1040A0001E303C21B0FBF1F5B5F5803F01D34FF652
:1040B000FF756584608C08B90120608404F12C00D0
:1040C00008B9002000E0E06A01900198C0B90198A9
:1040D000FEF74DF9070E7F2F05DC4FF07F40FEF70E
:1040E00041F801900BE0C02F05DB6FF0FF00FEF7F9
:1040F00039F8019003E05348FEF734F8019000BF0F
:1041000004F1300008B9002000E0206B0090009816
:1041100048B9A06A0199084000900120FEF722F8F2
:1041200000990843009004F12801304600F04AFD50
:1041300001A9304600F040FD6946304600F036FDEA
:10414000304600F004FE0A212046FFF730FC00BF95
:1041500088E770B505462C6AA07C0C2802D0A07CAC
:10416000062803D12846FFF729FC43E0A07C01285C
:104170000DD1E07C052803DC2846FFF7E1FC39E09F
:104180002846FFF710FF2846FFF718FC32E0A07C16
:1041900008280AD1E07C012803DC2846FFF793FCBD
:1041A00028E02846FFF759FF24E0A07C052803D12A
:1041B0002846FFF7CCFD1DE0A07C04280DD1E07C53
:1041C000082803DC2846FFF71CFE13E02846FFF70B
:1041D000EAFE2846FFF7F2FB0CE0A07C032809D199
:1041E000E07C022803DA2846FFF783FE02E0284637
:1041F000FFF7E4FB70BD10B51048046818E0206AB2
:10420000A8B1206AC08B012805DD206AC08B401E42
:10421000216AC8830BE0206AC08B012807D1206A7D
:10422000C08B401E216AC8832046FFF792FF246896
:10423000002CE4D110BD000094BF000868000020ED
:1042400090BF00080000FFFF0146087870472DE985
:10425000F04107463C6A0020E0622063606333213E
:104260002046FFF7FCFC05461DB1A81CFFF7E7FC44
:1042700060643A212046FFF7F2FC054625B1A81CF0
:10428000FFF7DDFCA06402E0606C4008A0643B2105
:104290002046FFF7E4FC054625B1A81CFFF7CFFC3C
:1042A000E06401E0606CE064A068103008B90020B0
:1042B00001E0A0680069A06201212046FFF7CFFC61
:1042C000054635B1A81CFFF7BAFC0646FDF74AFFC4
:1042D000E06203212046FFF7C2FC054635B1A81C69
:1042E000FFF7ADFC0646FDF73DFF20631C2120468D
:1042F000FFF7B5FC054635B1A81CFFF7A0FC064644
:10430000FDF730FF606306212046FFF7A8FC054655
:10431000F5B1681CFFF798FF8008A063A06B022826
:1043200001D90220A06300260EE0022101EB8601E4
:104330004819FFF784FC8046FDF714FF04F13C01A7
:1043400041F82600701CC6B2A06BB042EDD800BF89
:10435000BDE8F08170B50446256A00BF04B970BDA0
:1043600000BF94F8310020F0080084F831006DB1EE
:10437000686820B1686803F012FF0020686000BF21
:1043800000BF284600F07EFA0020206200BFE6E76A
:1043900010B50446A06820B1A06800F073FA0020B0
:1043A000A060E06828B1E06800F06CFA0020E060EE
:1043B000208210BD70B504460D4600BF14B96FF0E1
:1043C000090070BD00BF2046FFF7E2FF2889F028F2
:1043D0000CD92889F0382082208A00F005FBE060A3
:1043E000E06818B900202082401EEAE7F02000F0C3
:1043F000FBFAA060A06850B9E06828B1E06800F05E
:1044000041FA0020E06020824FF0FF30D9E700231E
:10441000F0222846A16800F0FAFE064600BF00BF61
:10442000E06840B1228AF0232846E16800F0EFFE00
:10443000064600BF00BF0020C3E72DE9F05F8246BB
:104440001546D046D8F82040D5F804B000BF00BFCC
:1044500068892C2800DA6DE09BF80000022800D063
:1044600068E000270AE008F12B00C15D0BF11C0099
:10447000C05D814200D05DE0781CC7B298F82A0088
:10448000B842F0DCDBF80400FDF771FF21688842D8
:1044900000D04FE029462046FFF78CFF00B149E0ED
:1044A00035212046FFF7DBFB8146B9F1000F00D133
:1044B00040E009F10200FFF7C7FE0646052E1AD1BB
:1044C000A07C012808D14046FFF7C1FE0020E08310
:1044D0004046FFF7F8FA2CE0A07C032805D0A07C2A
:1044E000042802D0A07C052823D10020E083404688
:1044F000FFF7B3FD1DE0062E11D1A07C032808D0E4
:10450000A07C012805D0A07C042802D0A07C05282E
:1045100005D10020E0834046FFF7BBFA09E0022EF8
:1045200007D1A07C062804D10020E0834046FFF795
:10453000F0FB00BF2046FFF72BFF284600F03AFCB7
:10454000BDE8F09F70B50546002600BF15B96FF0B5
:10455000090070BD00BF2C6A95F8310020F00800FA
:1045600085F83100288DB0F5107F02DA4FF0FF306A
:10457000EFE74CB9502000F037FA044614B94FF079
:10458000FF30E6E72C6208E0606810B1606803F075
:1045900006FE00BF00BF00BF00BF5021204606F04E
:1045A00080F803F01AFE6060606838B9204600F0B9
:1045B00069F9002004462862401ECAE744227B496C
:1045C000606803F0F1FC43227849606803F0A7FDBE
:1045D0002A467749606803F0DFFD2846FFF7EEF9C9
:1045E00006462EB12846FFF7B5FE4FF0FF30B0E784
:1045F00095F8310040F0080085F831003046A8E712
:10460000F8B505460027502000F0EEF9044604B93D
:10461000F8BD5021204606F044F803F0DEFD60604E
:10462000606800B937E02E6A2C622846FFF72EF941
:1046300007464FBB012235212046FFF706F9082126
:104640002046FFF7F9F8022239212046FFF7FDF84E
:10465000298D2046FFF709F92046FFF7CAF8A28BFB
:10466000F03291B2606900F0ABFC44224F496068BF
:1046700003F09AFC009543234E4A6169606803F099
:10468000C8FC2846FFF79CF8606803F088FD00200E
:1046900060602E6200BF204600F0F4F800BFB7E76C
:1046A00070B505462C6A04B970BDA07C05280BD0F6
:1046B00004DC03280AD0042812D104E00A2804D01C
:1046C0000D280DD10BE000BF00BF00BF284600F051
:1046D00054FB0020E0742846FFF70BFC06E005E0E1
:1046E0000020E0742846FFF769F900BF00BF00BF53
:1046F000DAE72DE9F84305462C6A00260C2120460E
:10470000FFF755F92846FFF7C1F8064646BB0122D8
:1047100035212046FFF799F804212046FFF78CF851
:10472000042232212046FFF790F8A06AFDF71FFE11
:10473000804641462046FFF7E2F92046FFF759F848
:10474000A28BF03291B2606900F03AFC00954323ED
:10475000184A6169606803F05CFC2846FFF730F88E
:10476000E07C401CE07442F2107707F2F3104FF443
:10477000FA7190FBF1F0E0833046BDE8F88370B544
:1047800004460D4600BF04B970BD00BF206A58B191
:10479000206A807C082807D12868216A896A8842B3
:1047A00002D12046FFF7A5FF00BFEDE790BF00084C
:1047B0003B44000894BF000830B500BF00BF00BFF5
:1047C00000BF00BF00BF00BF00BF0388C84C246803
:1047D0001919884215D00B799BB9C64B1B689942B1
:1047E0000FD0C54B1B688B4201D1C34B18600B889F
:1047F0000380BF4B1B88C31A0C88BD4D2D682C4409
:1048000063804388BA4C24681A19824211D0137904
:104810007BB9B94B1B68834201D1B74B1A6003883F
:104820001380B34B1B88D31A0488B14D2D682C44D8
:10483000638030BD00BF00BFB04921F00301AC4A26
:104840001160114608684FF4205101800021418019
:1048500001711146096801F52051A64A1160012134
:10486000126811714FF42051A24A12681180A14AB6
:10487000126851800121A24A11709D4909689E4A1F
:104880001160704770B5054605B970BD00BF00BF27
:1048900000BF00BF96480068854203D39548006872
:1048A000854200D3F1E7A5F1080400BF00BF002056
:1048B000207191480068844201D28F4804602046EC
:1048C000FFF77AFF00BFE0E72DE9F04106460A4610
:1048D000D01C20F0030082B20C2A00DA0C22B2F5C0
:1048E000205F02DD0020BDE8F08100BF00BF8048EE
:1048F0000068864203D37F480068864201D3304671
:10490000F1E7A6F108047A480088201A85B22088C9
:10491000401B083887B200BF00BFBA4201DD00204B
:10492000E1E7BA4201D13046DDE72088DFF8C0C1B7
:10493000DCF800C000EB0C01087980BB088805F1A9
:10494000080C94441FFA8CF3DFF8ACC1DCF800C00B
:104950008C4508D1DFF898C1DCF800C09C44DFF832
:104960009881C8F800C0DFF888C1DCF800C00CEB03
:1049700003014FF0000C81F804C008804D802380B3
:10498000B1F800C0BCF5205F08D0B1F800C0DFF876
:104990006081D8F80080C444ACF8023022E0FFE720
:1049A00002F11400B8421DD805F10800104483B28A
:1049B0004F480068C11850480068814201D24E48F3
:1049C000016000200871208808804D8023800888BD
:1049D000B0F5205F06D00888DFF814C1DCF800C00D
:1049E0006044438030467EE770B502460AB9002035
:1049F00070BDD01C20F0030082B20C2A00DA0C2219
:104A0000B2F5205F01DD0020F2E73B480088384E18
:104A10003688801B83B253E035480068C118087996
:104A200000284AD10E8803F10800301A904244D37E
:104A30000E8803F10800361A02F11400864218D3DA
:104A400003F10800104485B2294800684419002089
:104A500020710888208063800D80012008712088E3
:104A6000B0F5205F07D02088214E3668304445805D
:104A700001E00120087120480068814214D107E05C
:104A80001D48006800881A4E366830441A4E30605F
:104A900019480068007928B117480068154E366833
:104AA000B042EDD100BF00BF00BF00BF00BF00BFDC
:104AB00000BF00BF01F108009AE70D480068C35A23
:104AC000C2F520509842A7DC002091E770B504465B
:104AD0000D4604FB05F188B2FFF786FF064626B1B6
:104AE00004FB05F1304605F0BAFD304670BD00000C
:104AF000580000205C00002060000020FF0700201C
:104B00006400002010B5002001E0431C98B2092881
:104B1000FBDB224B23F00301002019E00023204C93
:104B200044F8203000220CE01D4B53F820300B607D
:104B30001B4B43F820101B4B33F810301944531C07
:104B40009AB2194B33F810309342EDDC431C98B203
:104B50000928E3DB10BD024600BF092A01DB002063
:104B6000704700BF0E4850F8221031B10C4B086856
:104B700043F8220000BF00BF00BF0846F0E701B9BC
:104B8000704700BF00BF0A46054B53F82030136042
:104B9000034B43F8202000BFF2E70000373000202D
:104BA00010300020A4BF0008B6BF000809B90022D9
:104BB00000E00A68C260704709B9002200E00A6894
:104BC000826070472DE9F04107460D4628687968F4
:104BD000884201D1012000E0002018BB704806681F
:104BE0000CE030687968884207D1D6F80C80012142
:104BF000304600F092FF464600E0F668002EF0D105
:104C0000684804680CE054B1206840B120687968B5
:104C1000884204D10DB9002000E028682060E468D3
:104C2000002CF0D10DB9002000E028687860BDE8C4
:104C3000F0812DE9F04106460F4614461D463946DF
:104C40003046FFF7BFFF21463046FFF7B5FF294644
:104C50003046FFF7ABFFBDE8F0812DE9F047044691
:104C60000D4616461F46DDE909A9DDF82080002023
:104C70006060A060E06084F8310020626062C4F887
:104C80001C804948007884F8340047480078401C6C
:104C900045490870C4F810903B46324629462046E4
:104CA000FFF7C7FF2046D04710B10020BDE8F087CE
:104CB0003E48006820603D4804602046F6E73C49D5
:104CC0000860704700B5024602B900BD3748006869
:104CD000904203D13549106808600FE033490868F5
:104CE00006E00168914202D11168016002E00068AB
:104CF0000028F6D100BF00B9E7E700BF2C480068E4
:104D0000904202D10020FFF7DAFF00BFDDE710B5C7
:104D100002460AB9002010BD90783038C3B223484B
:104D2000016810E091F8340098420BD1107891F8A6
:104D30003240A04206D154783320405C844201D1F5
:104D40000846E8E709680029ECD10020E3E710B540
:104D5000044694F8310000F0010068B914F8310FEE
:104D600040F00100207014F8310900F0200018B163
:104D7000211D2046FEF7B5FB10BD90F8311001F063
:104D8000010129B190F8311021F0010180F83110B2
:104D90007047014691F8310000F0010070470000B3
:104DA000B0000020AC00002070000020680000204F
:104DB0006C0000202DE9F041044624B900BF00BF7B
:104DC0000020BDE8F08100BF00BF002625E000BF45
:104DD00000BFE089401E1FFA80F8A4F80E80B8F1E9
:104DE000000F18D12768257B032D04D12146082008
:104DF000FFF7C5FE0BE0012D01D0022D04D12146A5
:104E00000720FFF7BCFE02E02046FFF73BFD701CC9
:104E1000C6B23C4600E0002400BF002CD7D130468B
:104E2000CFE72DE9F05F83460F4690460026BBF1A1
:104E3000000F09D0BBF1010F0AD0BBF1020F0BD05C
:104E4000BBF1030F0DD10BE006F1140086B200BFD9
:104E500006F1140086B200BF06F10E0086B205E02E
:104E600004E000BF00BF0020BDE8F09F00BFB8F124
:104E7000000F68D0B8F1010F74D0B8F1020F72D0F2
:104E8000B8F1030F70D10820FFF765FE04460CB996
:104E90000020E9E784F80C800020206006F1100073
:104EA0002044C01C20F00300606000BF00BF2781C9
:104EB000F01C20F00300C0F50070B84201DD384658
:104EC00004E0F01C20F00300C0F50070608100BF1A
:104ED00000BF00BF00BF0120E081A2466089A7EBB0
:104EE00000092CE00820FFF736FE054625B92046CC
:104EF000FFF760FF0020B7E785F80C80002068739B
:104F00002860CAF8005000BF00BFA5F808901FFA3B
:104F100089F0B0F5007F02DA1FFA89F001E04FF462
:104F20000070688105F11000686000BF00BF00BF1D
:104F300000BF0120E8816889A9EB0009AA46B9F100
:104F4000000FCFDC35E006F1130121F00302F91C5C
:104F500021F00301114488B2FFF746FD044624B94D
:104F6000002081E711E011E01FE004F1100030445F
:104F7000C01C20F003006060278167810020206052
:104F800084F80C8000BF00BF13E000BF0720FFF7CC
:104F9000E2FD04460CB9002066E70020606027812E
:104FA0006781206084F80C8003E000BF00BF002010
:104FB0005AE700BF0120E08100206073204653E7DC
:104FC0002DE9F04106460F4600BF00BF00BF00BFFD
:104FD0003089B84201DCBDE8F0813089A7EB0008D8
:104FE0003D4634460AE06089281A85B200BF00BFFA
:104FF000208940442081246800BF00BF6089A84206
:10500000F1DB207B60B96089A84209D0A088001B31
:10501000284481B22046FFF757FC044600BF00BF7A
:10502000658160892081206810B12068FFF7C2FE89
:105030000020206000BFCEE770B5024600BF00BF71
:1050400001B10AB9002070BD002908DA484284B2D3
:1050500000BF5089A04201DA0120F4E700E08CB2E1
:10506000137B55680BB1032B0AD15068401A50606E
:1050700002F110005668864215D255600120E2E721
:10508000022B01D0012B0AD1002906DA5089A04257
:1050900003DB5068401A506005E00120D3E700BFF1
:1050A00000BF0120CFE7508908445081108908448F
:1050B00010810020C7E70146002002E0421CD0B268
:1050C00009680029FAD1704710B1C189491CC18112
:1050D000704710B5024600BF02B101B910BD00BF54
:1050E000104604E003890C892344038100680368A7
:1050F000002BF7D100BF00BF00BF00BF03890C89A0
:1051000023440381016000BFE8E730B505460C4643
:1051100021462846FFF7DDFF2046FFF7D5FF30BDCB
:1051200070B504460126256875B100BF00BF20890F
:105130006189401A288100202060608920812846EA
:10514000FFF738FE064600BF00BF00BF002E01DD9E
:10515000002070BD2846FCE72DE9F04105460C46CD
:105160000026002700BF25B11CB12889218988426B
:1051700003DA6FF00900BDE8F08100BF00BF00BF97
:1051800000BF6889801B6189C91B884204DB608974
:10519000C01B1FFA80F803E06889801B1FFA80F8A3
:1051A0006268D1196A689019424605F013FA06EB55
:1051B000080086B207EB080087B200BF00BF68890D
:1051C000B04201D100262D6800BF00BF6089B842FF
:1051D00001DC0027246854B160892189884206D106
:1051E00000BF206810B16FF00800C4E700BF55B1E0
:1051F00068892989884206D100BF286810B16FF0FC
:105200000800B8E700BF002CB9D10020B3E72DE9B2
:10521000F05F8046894616461D464FF0000B00BFE2
:10522000B8F1000F02D10020BDE8F09F00BF00BF21
:10523000B9F1000F01D10020F6E700BF4FF0000ADE
:10524000B8F1000F02D0B9F1000F01D10020EBE757
:10525000444620E035B16089A84203DC6089281A01
:1052600085B217E06089401B87B2B74200DD374640
:105270006268511909EB0A003A4605F0ABF90BEBED
:1052800007001FFA80FB0AEB07001FFA80FAF01BE9
:1052900086B2002524680EB1002CDBD15846C3E746
:1052A0002DE9F04704460E469146C8464FF0000AE5
:1052B00000BF14B90020BDE8F08700BF00BF0EB9E1
:1052C0000020F8E700BF1CB116B12089484502DA7A
:1052D0006FF00900EFE7254615E000BF00BF474625
:1052E0006889B84200DA6F8906EB0A013A466868B5
:1052F00005F070F9A8EB07001FFA80F80AEB070029
:105300001FFA80FA2D68B8F1000FE6D100BF00BF88
:105310000020D0E72DE9F04104460E46206810B980
:105320002046BDE8F081218900223046FFF779FD53
:1053300005460DB92046F4E721462846FFF70CFF45
:10534000074600BF00BF2046FFF734FD2846E8E7C8
:105350002DE9F04705468A464FF000086F68388906
:10536000FCF7FFFF00F0FF0900266048046819E021
:10537000207C484514D1606990B107F10C032A469E
:105380002146D4E905C0E04750B100254FF001089F
:1053900036B1E068F06055480068E060534804604A
:1053A0002646E468B8F1000F01D1002CE0D1404658
:1053B000BDE8F087024609B9002000E008681060E7
:1053C00000207047024609B9002000E008685060DC
:1053D000002070474161826170472DE9FE4F04460D
:1053E0000E46914614213046FFF726FE78B1002282
:1053F00011460120FFF715FD05461DB94FF0FF309E
:10540000BDE8FE8F31462846FFF77FFE0BE03546AC
:105410006FF013012846FFF70FFE20B100BF00BF59
:105420004FF0FF30ECE74846FDF756F8070007D18C
:10543000B54202D02846FFF7BDFC6FF00300DFE75E
:105440000CB1206810B907F1040800E0A046207CE8
:10545000A17ACDE901070091E37A4A464146284600
:10546000FDF73CF98246B54202D02846FFF7A2FC80
:105470005046C5E770B504460D46221D2946204614
:10548000FFF7ABFF70BD70B5054618480068A8422D
:1054900005D116480068C068144908600CE013483C
:1054A000046807E0E06820B1E068A84201D1E8683C
:1054B000E060E468002CF5D129460020FFF75FFB8F
:1054C00070BD70B505460020FFF745FB04465CB192
:1054D0001C21204605F0E5F82574FF20E072034802
:1054E0000068E06001480460204670BD7400002040
:1054F00070B5044600254CB1606818B16068FFF7CC
:1055000059FC054621460420FFF739FB284670BDAB
:1055100070B50446002506E026682046FFF7E8FF40
:105520002844C5B23446002CF6D1284670BD10B5CB
:105530000446207CA8B1207C0A2812D0207C0128B7
:105540000FD0E06F20B1E06FFFF734FC0020E06780
:10555000606FFFF7DDFFA06FFFF7DAFF00206067E5
:10556000A06710BD2DE9FC474FF0000AFB4800681A
:10557000401CFA4908600026F948046828E100BF89
:1055800000BF00BF00BF00BF00BF0025A846207CB1
:10559000022806D194F84A00062802D1681CC5B238
:1055A0006AE094F84A000C2802D1681CC5B263E096
:1055B00094F89C0000281BDD54F8980F401C2060D4
:1055C00020792168983C401EE64A105C814253D302
:1055D0000020C4F8980094F89C00072804D294F89E
:1055E0009C00401C84F89C00204602F0A6FB43E08F
:1055F000B4F93600002803DBE08E401C00B2E086E0
:10560000A06FC8B3B4F93600B4F94810884233DB50
:10561000207C02280CD044346088B4F9001000EBE0
:10562000E100A179D04A515C884000B2A080443C9E
:105630000020E086B4F85200B4F85C10884202DA28
:10564000B4F8520001E0B4F85C0081464FEA69000A
:10565000A4F85400B4F85400218F884206DA208F51
:105660004FF6FF7101EA4000A4F85400208FA4F81F
:105670005200204602F0B2FA207C062807D1B74932
:10568000206B0968081A282801D9681CC5B2207A3D
:1056900000F00800B0B3207C042802D0207C07284A
:1056A00030D1B249D4F8940008444FF4FA71B0FBF9
:1056B000F1F0AA4A216B1268511A884206D2681C7E
:1056C000C5B208F1010000F0FF081BE094F89D103E
:1056D00042F29F4211FB02F1D4F8940000EBC100AA
:1056E0004FF4FA71B0FBF1F09C4A216B1268511A29
:1056F000884207D2204602F0F7FA94F89D00401C39
:1057000084F89D00207C032807D19449206B096808
:10571000081A282801D9681CC5B2207C092807D19D
:105720008E49206B0968081AF02801D9681CC5B297
:1057300065B32046FFF7FBFE26B100BF00BFE0685F
:10574000F06004E000BF00BF8549E068086000BF6A
:10575000D4F8900028B16FF00401D4F8902060696B
:10576000904700BFB8F1000F09D0208C218BCDE904
:105770000010231D2246616AA06D02F0DAF9E76885
:1057800021460220FFF7FBF93C4621E014F8340FD4
:10579000401C207020786178343C884216DB002061
:1057A00084F8340000BFD4F88C0030B12146D4F81E
:1057B0008C2060699047824601E04FF0000A00BFEC
:1057C000BAF1000F02D1204602F0C6F82646E4687E
:1057D000002C7FF4D4AE00266548046822E000BFA8
:1057E00000BF00255D49206B0968081AF02801D91F
:1057F000681CC5B2A5B12046FFF799FE26B100BFCF
:1058000000BFE068F06004E000BF00BF5849E068F6
:105810000860E76821460220FFF7B1F93C4601E045
:105820002646E468002CDAD1BDE8FC8770B5054651
:105830000C4600BF2868A04203D12868C0682860D1
:1058400017E04C49286808600EE04A480068C068C4
:10585000A04204D14749E0680968C86008E04548AB
:105860000068C06843490860424800680028ECD1DD
:1058700000BF0020E06000BF2046FFF758FE207CFC
:105880000A2810D0207C01280DD094F8220000F0C6
:10589000010040B194F8220040F0020084F8220098
:1058A000204602F059F8207C012803D000BF00BF39
:1058B00000BF00BF0020207400BF00BF70BD70B5E6
:1058C0000546287C082877D2DFE800F004323D5AEC
:1058D0006376766C002400BF27480068A84205D193
:1058E00025480068C0682449086018E0224800681C
:1058F000204908600EE01F480068C068A84204D133
:105900001C49E8680968C86008E01A480068C0686F
:1059100018490860174800680028ECD100BF002033
:10592000E86000BF29460220FFF729F9002546E07C
:10593000002429461148FFF779FF29460320FFF785
:105940001EF900253BE0002429460548FFF76EFFBD
:1059500029460220FFF713F9002530E0A4000020BB
:10596000B0000020D5BF0008C8BF0008B84C0A002E
:10597000B4000020B8000020A8000020AC000020E7
:105980000121284601F026FF04460CB905202874A1
:1059900015E00121284601F01DFF04460CB9052041
:1059A00028740CE00121284601F014FF04460CB9CC
:1059B0000920287403E0FFE70024002500BF00BF92
:1059C0001DB114B9284601F0C7FF204670BD10B5BF
:1059D00001460B8D486AC218088F40F2B454CB6A56
:1059E000A04201DD204600E0088F1844101A04D4BC
:1059F000088D4885C86A101A10BDCB6A486AC01A5B
:105A0000002802DD0020488503E0888D8B8CC01AB9
:105A100048850020F0E770B504460E4600BF00BF81
:105A2000208D30442085208D40F66831884201DD8C
:105A3000084620852046FFF7CAFF054640F2DA20D7
:105A400085420ADB00BF94F8220040F0020084F88F
:105A50002200204601F080FF00BF70BD2DE9F0411B
:105A600007460D4614461E463CB121892846FFF7DD
:105A7000D2FF2046FFF79EF905E026B92846FFF73A
:105A80001EFFBDE8F0810020FBE770B5FE4804680A
:105A900031E0E06FC0B100BFD4F8840040B1002312
:105AA0002146D4F88460E26F6069B047054606E09D
:105AB000002321461846E26FFFF7D0FF054600BFDE
:105AC0000DB90020E06700BF94F8220000F001004B
:105AD00080B100BF94F8220040F0020084F8220058
